:100000000C9436000C945E000C945E000C945E0020
:100010000C945E000C945E000C945E000C945E00E8
:100020000C945E000C9466070C945E000C945E00C9
:100030000C945E000C947C040C945E000C945E00A6
:100040000C945E000C945E000C945E000C945E00B8
:100050000C945E000C945E000C945E000C945E00A8
:100060000C945E000C945E00C700230811241FBE90
:10007000CFEFD8E0DEBFCDBF11E0A0E0B1E0E6E811
:10008000F9E102C005900D92A234B107D9F726E03C
:10009000A2E4B1E001C01D92AA31B207E1F710E07D
:1000A000C5E3D0E004C02197FE010E948F0BC4334A
:1000B000D107C9F70E94C3000C94B60C0C94000041
:1000C000CF93DF9380E10E94630781111CC00E94DF
:1000D000C201EC010E94E305BE01DD0F880B990B04
:1000E0000E94470681E391E00E94F20561E080E012
:1000F0000E946A0684E391E00E94F20584E690E0A3
:100100000E94AE07DFCF80E10E944F0788EE93E0A8
:100110000E94AE0780ED97E00E941F0860E070E04B
:1001200080E090E00E942007DF91CF910895CF9367
:10013000DF93CDB7DEB72A970FB6F894DEBF0FBEB8
:10014000CDBF7E018BE0E80EF11C61E0CE0101968F
:100150000E94EA078E010F5F1F4FF80161917191B4
:100160008F0180E090E00E94470684EF91E00E94BA
:10017000AE070E94E3050E151F0579F78CE391E0A9
:100180000E94DA04E2CF0E9460000E9497004DEACC
:1001900051E08FEF9FE7FA01455B5F4F9A01918332
:1001A00080839383828314823596E217F307B9F72D
:1001B00026E04231520779F7E9EAF1E01182108234
:1001C00013821282E5EAF1E0118210821382128218
:1001D000E1EAF1E08AE090E0918380839383828377
:1001E0000895ECE7F0E080818F7D80830895811190
:1001F00003C00E94F100089580917C00806280938A
:100200007C00089580917C0085FB882780F9089503
:100210000E940201882321F08091790090E00895E6
:10022000809178009091790008958032A0F497E849
:1002300090937A0090917C00662311F0906C02C03C
:100240009F779064907E982B90937C0080917A00A9
:10025000806480937A000895A0E0B0E0E2E3F1E0EA
:100260000C94620BEB0160E00E94150180917A0012
:1002700086FDFCCF8E01C12CD12C760180917A00B5
:10028000806480937A0080917A0086FDFCCF0E9482
:100290000801C80ED91EE11CF11C015011090115FD
:1002A000110561F7CE0196958795C034D10538F4D4
:1002B0008C0D9D1DBE010E94F40ACB010EC0A7014A
:1002C0009601280F391F411D511DCA01B9019E0118
:1002D00040E050E00E94080BC901CDB7DEB7E8E06E
:1002E0000C947E0BCF92DF92EF92FF92A0910001CF
:1002F000B09101019C010E94490B6B017C010E949D
:100300000201882359F0C701B60161587F4F8F4F12
:100310009F4F2FEF30E040E050E00AC0C701B60128
:1003200061507E4F8F4F9F4F2FEF33E040E050E002
:100330000E94080BC901FF90EF90DF90CF900895C5
:100340000E942C010E94720108951F93CF93DF93A6
:100350000E940201182F0E94F1006AE070E086E01E
:100360000E94A001EC01812F0E94F700CE01880FAE
:10037000991F8C0F9D1F019696958795DF91CF91C0
:100380001F9108950E94A501089590914701E09161
:100390004201F0914301992311F0849101C08081C1
:1003A0002FEB280F2A3110F4805E0895803249F433
:1003B0009F012F5F3F4F3093430120934201EF2B6A
:1003C00031F708951F93CF93DF930E94C501C0E0DA
:1003D000D0E01AE090ED980F9A30B8F49E01129F89
:1003E000E001139FD00D1124C80FD11D87FDDA95B0
:1003F000E0978091420190914301019690934301CF
:10040000809342010E94C501E5CFCE01DF91CF91DB
:100410001F91089510926F0083E28093800081E124
:10042000809381001092820080E197E2909389008E
:100430008093880010928B0010928A00229A789400
:1004400008958F929F92AF92BF92DF92EF92FF92A8
:100450000F931F93CF93DF935C018B01D42E809178
:100460004401811105C081E0809344010E940A0289
:1004700010920B01B7FE05C0E894B7F82AE0F22EFF
:1004800002C0FF24F394E09081002E2D287FE22EFD
:1004900048ECF49EC00111248A159B05E0F4E501A7
:1004A00051E1A51657E2B50610F0C0E1D7E2BE0152
:1004B0007695679580E090E06058794687469F4F33
:1004C0004E01A12CB12CA50194010E94080B5901E9
:1004D0008E2D816024C0C8E2FC9EC02D1124D0E086
:1004E000CA15DB0508F4E501BE01769567959E0106
:1004F00040E050E08AE0F81207C080E090E0605EE3
:10050000734481449F4F06C080E090E060537D4E6D
:100510008C4E9F4F0E94080B59018E2D8260882EB1
:100520002AE0F21207C0CE0105966AE070E00E9450
:10053000F40AEB01C83E43E0D40759F09801DE010C
:100540000E94490B28EE33E040E050E00E942A0B65
:10055000890110926F0080928100B0928900A09270
:10056000880020918800309189004D2D403108F09D
:100570004FE080E190E0841B9109A90102C05695EB
:1005800047958A95E2F750938B0040938A00109329
:100590004A010093490186B38FEF86BB81E08093C7
:1005A0006F00DF91CF911F910F91FF90EF90DF903F
:1005B000BF90AF909F908F900895CF93DF93EB0102
:1005C0008F3F11F0411105C040E0BE0188EE93E07D
:1005D00043C0813130F050EF580F503618F05FE5CE
:1005E00001C050E0852F6CE00E94E80A682F74EF8C
:1005F000760390011124250F311D2C30310540F474
:10060000F901EE0FFF1FEC5EFE4F2081318102C029
:1006100020E030E0873081F0082E02C0220F331F27
:100620000A94E2F7823028F0C90105966AE070E08A
:100630000CC0C90190580CC0C90136E0880F991F41
:100640003A95E1F7029665E070E00E94F40ACB016A
:10065000403108F04FE0BE010E942102DF91CF91AE
:100660000895A2E0B0E0E7E3F3E00C945A0B909019
:100670000A0180914601882321F0609145016111B2
:1006800017C077247394B0ECAB2EBDE5BB2E1AE0F7
:10069000612E04E0802E80EDC82E87E0D82E94E0F5
:1006A000E92EF12C04EF11E02FE0422E512C15C061
:1006B00070E040E088EE93E00E9421021092450134
:1006C00017C18636D4F5813609F4A9C07CF58C3380
:1006D00009F460C08E3381F493940E94C501209187
:1006E0004201309143012F5F3F4F309343012093EC
:1006F0004201853631F752C0813209F08BC08092B9
:100700000A01D0920901C0920801F0920701E0921B
:1007100006011093050100930401509203014092D9
:10072000020110924601A4E09A2ED7CF8336A1F1A0
:100730000CF478C010E082E077C08D36C1F194F4FB
:10074000873691F174F18C3609F064C00E94E201A1
:10075000BC0190930701809306018091080190915C
:10076000090151C08237C9F14CF48F3609F052C0EB
:100770000E94E201982E80930A01AFCF843781F165
:10078000863709F047C00E94E201909303018093ED
:100790000201A3CF9A94A1CF10E020C010E084E022
:1007A00043C010E085E040C010E087E03DC00E94FB
:1007B000C5018C3619F41092460104C070924601AE
:1007C0001092450120914201309143012F5F3F4F2C
:1007D000309343012093420180CF11E080E024C098
:1007E0000E94E201BC01C5010E94F40A669EC0019C
:1007F000679E900D112490930901809308016091E8
:100800000601709107010E94F40A7093050160933C
:10081000040163CF109243011092420169C010E0BD
:1008200089E002C010E08BE0082F9CE0999E000D4B
:1008300011240E94C501982F977F933261F4209173
:100840004201309143012F5F3F4F3093430120938A
:1008500042010F5FEECF8D3271F420914201309151
:1008600043012F5F3F4F30934301209342010150DA
:100870000E94C501F0CF6091040170910501815380
:10088000883050F4E0900801F09009010E94E201E4
:10089000BC01C7010E94F40A7B01F694E7946983C6
:1008A0007A830E94C50169817A818E3269F4209130
:1008B0004201309143012F5F3F4F3093430120931A
:1008C00042016E0D7F1DE9CF80914601882339F0EA
:1008D0009B013695279520934501621B7109409134
:1008E0000201112311F08FEF01C0802F0E94DD0261
:1008F0002296E0E10C94760B1F920F920FB60F92A6
:1009000011242F933F934F935F936F937F938F9314
:100910009F93AF93BF93EF93FF9380914901909181
:100920004A019C012150310930934A012093490129
:10093000892B11F510926F00789480918100887F47
:1009400081608093810080E197E290938900809399
:10095000880010928B0010928A0081E080930B0136
:100960008091420190914301892B31F0809148019F
:10097000811102C00E943103FF91EF91BF91AF91AD
:100980009F918F917F916F915F914F913F912F91A7
:100990000F900FBE0F901F90189510926F009093BC
:1009A00043018093420110924701109245010E9439
:1009B000310308950E94CD04089581E090E06F9383
:1009C00064E06A95F1F76F910197C9F708950F9365
:1009D0001F93CF93DF931AB157985A98289AC0E083
:1009E000D0E00E94DD045C9A0E94DD0409B15C98AD
:1009F0000E94DD045C9A0E94DD045C98249607FF47
:100A000010C0AE0160E070E080914B0190914C010C
:100A1000A0914D01B0914E01481759076A077B0715
:100A200000F31AB9DF91CF911F910F91089595B1FD
:100A3000282F217030E0220F331F482F467068E0C6
:100A4000469FA0011124242B9D7C292B25B99BB105
:100A500088708295807F9F77892B8BB95C9A0E94E2
:100A6000DD045C980E94DD040895A0E0B0E0EBE3B3
:100A7000F5E00C94630BC82FD62EE42E809112065D
:100A8000811105C081E0809312060E947B050E94BF
:100A9000E70414B1D5B1FAB00BB12898DD2011F0FC
:100AA0005A9A01C05A9894B1926394B9579A81E0C6
:100AB000E81629F08C2F82958F700E9417058C2FD5
:100AC0008F700E941705FAB80BB914B9D5B9CDB714
:100AD000DEB7E7E00C947F0B42E060E00E94350552
:100AE000089542E061E00E943505089541E060E02C
:100AF0000E943505089580E197E2A0E0B0E0809380
:100B00004B0190934C01A0934D01B0934E01529A2A
:100B1000209A549A8EE190E00E94AE0783E00E94F2
:100B2000760586E090E00E94AE0783E00E9476059D
:100B300082E090E00E94AE0783E00E94760582E0AA
:100B400090E00E94AE0782E00E94760582E090E08D
:100B50000E94AE0788E20E946C0588E00E946C0546
:100B600081E00E946C0586E00E946C058CE00E948A
:100B70006C05089581E00E946C058091510190916F
:100B80005201892BF9F060E0A0E2262F30E070914D
:100B90000C0180910D0190E00197789FA001799F51
:100BA000500D1124241735074CF4E0915101F091B8
:100BB0005201E20FF31FA0836F5FE7CF10924F0146
:100BC0001092500108950E94BA050895CF93DF93C3
:100BD000EC018991882319F00E947105FACFDF9109
:100BE000CF9108950E94E6050895AAE0B0E0EBEFEA
:100BF000F5E00C94620B1AE05AE0C52ED12CE12CE2
:100C0000F12C062FA70196010E94080BCA01B90119
:100C10001150E1E0F0E0EC0FFD1FE10FF11D005D70
:100C20002AE0629F00191124008361157105810576
:100C3000910539F71A3058F4E1E0F0E0EC0FFD1FB0
:100C4000E10FF11D80810E9471051F5FF3CF2A968D
:100C5000E8E00C947E0BCF92DF92EF92FF926B0153
:100C60007C0197FF0BC0F094E094D094C094C11C19
:100C7000D11CE11CF11C8DE20E947105C701B60177
:100C80000E94F505FF90EF90DF90CF9008950E94AD
:100C90002B060895A5E0B0E0E0E5F6E00C94670BC4
:100CA000182F80E8898380EC8A8384E98B8384ED24
:100CB0008C83FE01E60FF11D8181810F6D830E94FF
:100CC0006C0510934F016D81609350012596E3E010
:100CD0000C94830B0E944A060895883058F491E0E2
:100CE00001C0990F8A95EAF7892FAAE2B0E0EBE2FA
:100CF000F0E021C08E3060F498EF980F81E001C0E1
:100D0000880F9A95EAF7A4E2B0E0E5E2F0E013C0BC
:100D1000853160F492EF980F81E001C0880F9A95B9
:100D2000EAF7A7E2B0E0E8E2F0E005C080E0A0E08A
:100D3000B0E0E0E0F0E06F3F19F49081982709C03F
:100D4000662319F09081982B04C02081982F9095EC
:100D5000922390839C91982B9C93089583EF80938A
:100D6000B00084BD82E08093B10085BD1092B400D4
:100D70001092B30018BC17BC60E086E00E946D06BC
:100D800060E085E00E946D0660E08BE00E946D06E9
:100D900060E083E00E946D06089580911306811142
:100DA00005C081E0809313060E94AE060895CF939C
:100DB000DF93EC010E94CD06D7FF05C0D195C19508
:100DC000D10981E001C080E0CF3FD10519F014F0D6
:100DD000CFEFD0E0882319F018BCC7BD02C0C8BD52
:100DE00017BCDF91CF910895CF93DF93EC010E9460
:100DF000CD06D7FF05C0D195C195D10981E001C0CD
:100E000080E0CF3FD10519F014F0CFEFD0E0882378
:100E100029F01092B400C093B30004C0C093B40092
:100E20001092B300DF91CF910895CF93DF93EB0140
:100E30000E94D706CE010E94F406DF91CF9108955B
:100E40000E941507089584B18D7C84B985B18263B1
:100E500085B985E090E06F9364E06A95F1F76F9152
:100E60000197C9F7089580911406811105C081E0AA
:100E7000809314060E9423070895CF93C82F0E94E1
:100E8000330783B18C23E9F38AE090E00E94AE0738
:100E900083B18C23B1F383B18C23CF9108950E9449
:100EA0003D070895A1E0B0E0E8E5F7E00C94680B99
:100EB00089830E94330793B1909589818923219674
:100EC000E2E00C94840B0E94520708952F928F93B6
:100ED0009F932FB680915A0190915B010196809368
:100EE0005A0190935B0190E080915C01891F80938F
:100EF0005C01909154019C5F909354018091530147
:100F000080519742C0F09093540180935301809197
:100F10005501909156010196809355019093560189
:100F200090E080915701891F80935701809158016B
:100F3000891F809358012FBE9F918F912F901895F4
:100F400028EE33E0019748F0F9016F9364E06A9569
:100F5000F1F76F913197C9F7F5CF08950E94A00777
:100F60000895E0E7F0E080818E7F8083A0EBB0E021
:100F70008C9183608C93A1EBB0E08C91807F8C93FB
:100F80008C9182608C93B89A808181608083789400
:100F9000089580911506811105C081E080931506A2
:100FA0000E94B10708950E94C907E0E7F0E0808140
:100FB0008E7F808310925501109256011092570136
:100FC0001092580110925401109253018081816057
:100FD00080830895462FBC018DE591E00E946D0A43
:100FE00008950F93CF93DF9300D000D01F92CDB719
:100FF000DEB79C0185E0ECE2F1E0DE0111960190A4
:101000000D928A95E1F7662311F00FEF01C003E11D
:1010100045E0BE016F5F7F4F8DE591E00E94C30800
:101020008DE591E00E949A080E94D3070F900F90DF
:101030000F900F900F90DF91CF910F91089560E086
:101040000E94F10708958DE591E00E94CA0A089573
:101050006F9364E06A95F1F76F910197C9F708956E
:10106000FC01118210821382128215821482168270
:10107000683068F489E290E0918380838BE290E0AD
:10108000938382838AE290E0958384831FC06E30CD
:1010900070F483E290E09183808385E290E0938313
:1010A000828384E290E09583848368500FC0653129
:1010B00098F486E290E09183808388E290E09383C5
:1010C000828387E290E0958384836E5081E001C043
:1010D000880F6A95EAF786830895A7E0B0E0E3E712
:1010E000F8E00C94660B8C01FC01118210821382D3
:1010F00012821582148217821682613118F080E103
:10110000808702C0FC016087F801208B642FCE012C
:1011100001960E9430088F81F80181878B819C8124
:10112000938782878D819E81958784872796E4E0C7
:101130000C94820BFC01A485B585109779F08C91F5
:101140009185892B8C93A285B3859C91818580950F
:1011500089238C9388EC90E00E9428080895FC0174
:10116000A485B585109771F08C919185892B8C930E
:10117000A285B3858C919185892B8C9388EC90E026
:101180000E9428080895A7E0B0E0E9ECF8E00C948C
:101190005B0B7C014B01642F3901402F20E00E9442
:1011A0006D0887010F5B1F4FF80110826701F2E4A1
:1011B000CF0ED11CF60110825701F3E4AF0EB11C23
:1011C000F5011082F70177866686512CF70180853C
:1011D000581650F5652C712CF401E60DF71D608151
:1011E000CE0101960E9430082F81F701E60DF71D10
:1011F000218B89819A81F301EE0FFF1FEE0DFF1DF8
:1012000092A381A38332910511F4F80108C08632BC
:10121000910511F4F60103C0899721F4F50180814D
:10122000822B80835394D2CF2796EFE00C94770BD8
:10123000A0E0B0E0EEE1F9E00C945D0BEC015B01A5
:101240006C0181E4C80ED11CF60180807E01F2E4BD
:10125000EF0EF11CF70170808E010D5B1F4FF8013E
:10126000908080E09885891748F4F501E80FF11D1A
:10127000E80FF11D118210828F5FF4CF84B1F60167
:101280009081892B84B987B1F7019081892B87B927
:101290008AB1F8019081892B8AB985B1F6019081D4
:1012A000892B85B988B1F7019081892B88B98BB1D9
:1012B000F8019081892B8BB98AE090E00E94280880
:1012C00094B1F60180818095892384B997B1F701A3
:1012D00080818095892387B99AB1F80180818095B2
:1012E00089238AB995B1F60180818095892385B9D2
:1012F00098B1F70180818095892388B99BB1F80165
:101300008081809589238BB9E090B000D090B100A6
:101310008091B00083608093B00082E08093B10040
:101320004091B20080E090E02E853F8582179307C0
:1013300020F5C090B2002C2D241B820F911D03B10B
:10134000081132C0F6B0F7102FC029B129112CC0F6
:1013500010C0212F30E0A901440F551FF501E40F03
:10136000F51F60817181672B21F11F5F288512179E
:1013700080F37F2C802E4C2DD7CFE092B000D092FE
:10138000B10020E08885281730F5F501E20FF11D46
:10139000E20FF11D80819181892B21F48E859F853B
:1013A000918380832F5FEECF03B1F6B099B010E048
:1013B000DDCFDE01A40FB51F91960D90BC91A02D3D
:1013C0004C91DE01A20FB31F51962C91422369F676
:1013D00091838083CACFCDB7DEB7EDE00C94790B53
:1013E000EF92FF920F931F93CF93DF93FC019B012A
:1013F000F0907C0000917A0047B118B180917A009A
:1014000086FDFCCF80E09085891748F4D901A80FAC
:10141000B11DA80FB11D1D921C928F5FF4CF97B123
:1014200082A18095892387B998B182A1809589236B
:1014300088B987E880937A00E12C81A1E81610F042
:10144000E12C29C050E08085581718F5A52FB0E091
:10145000EF01CA0FDB1F8989806480937C00809133
:101460007A00806480937A0080917A0086FDFCCFB8
:101470006091780070917900AA0FBB1FA20FB31F73
:101480008D919C911197860F971F8D939C935F5F11
:10149000DACFE394D2CF8085E816A0F4E901CE0D2F
:1014A000D11DCE0DD11D61A170E0CB019595879521
:1014B000A881B9818A0F9B1F0E94F40A79836883EF
:1014C000E394E9CFF0927C0000937A0018B947B911
:1014D000CDB7DEB7E6E00C94800BA0E2B0E0E3E726
:1014E000FAE00C94630B8C017B01D42E8FEF840FF8
:1014F000823018F4C8010E94AF08D80150968C9130
:10150000B701811110C0C8010E941809C8010E94CA
:101510009A08B2E0DB123AC0BE016F5F7F4FC8018C
:101520000E9418090FC0C8010E94F009C8010E945A
:101530009A08E2E0DE122AC0BE016F5F7F4FC80149
:101540000E94F00940E0F80180854817F8F4842FE4
:1015500090E0880F991FF701E80FF91F21E030E0B4
:101560002C0F3D1F820F931FD8011E962D913C9189
:101570001F97DC018D919C91281B390B80819181F3
:10158000820F931F918380834F5FDDCFA096E7E0AA
:101590000C947F0BCF93DF93EC018A819B810097A2
:1015A00011F00E942D0C8E819F81009711F00E94F6
:1015B0002D0C88819981009711F00E942D0C8C814F
:1015C0009D81009711F00E942D0CDF91CF9108951D
:1015D000991B79E004C0991F961708F0961B881F85
:1015E0007A95C9F780950895AA1BBB1B51E107C0E6
:1015F000AA1FBB1FA617B70710F0A61BB70B881FA3
:10160000991F5A95A9F780959095BC01CD01089531
:10161000A1E21A2EAA1BBB1BFD010DC0AA1FBB1FF6
:10162000EE1FFF1FA217B307E407F50720F0A21B68
:10163000B30BE40BF50B661F771F881F991F1A94D5
:1016400069F760957095809590959B01AC01BD01FF
:10165000CF010895052E97FB1EF400940E94410BC4
:1016600057FD07D00E94080B07FC03D04EF40C94E2
:10167000410B50954095309521953F4F4F4F5F4F0F
:10168000089590958095709561957F4F8F4F9F4FEE
:101690000895A29FB001B39FC001A39F700D811D4B
:1016A0001124911DB29F700D811D1124911D08956B
:1016B0002F923F924F925F926F927F928F929F9262
:1016C000AF92BF92CF92DF92EF92FF920F931F9350
:1016D000CF93DF93CDB7DEB7CA1BDB0B0FB6F89401
:1016E000DEBF0FBECDBF09942A88398848885F8441
:1016F0006E847D848C849B84AA84B984C884DF80B2
:10170000EE80FD800C811B81AA81B981CE0FD11D95
:101710000FB6F894DEBF0FBECDBFED010895EE0FFA
:10172000FF1F0590F491E02D09940F931F93CF9321
:10173000DF938230910510F482E090E0E09118068A
:10174000F091190620E030E0A0E0B0E0309719F108
:10175000408151810281138148175907C8F08417CD
:10176000950769F4109731F012960C93129713961F
:101770001C9327C0009318061093190622C0211548
:10178000310519F04217530718F49A01BD01EF0112
:10179000DF01F801DBCF21153105F9F0281B390BEA
:1017A0002430310580F48A819B816115710521F017
:1017B000FB019383828304C09093190680931806DB
:1017C000FE01329644C0FE01E20FF31F8193919314
:1017D00022503109398328833AC02091160630916E
:1017E0001706232B41F42091100130911101309301
:1017F00017062093160620910E0130910F01211536
:10180000310541F42DB73EB74091120150911301BB
:10181000241B350BE0911606F0911706E217F3072B
:10182000A0F42E1B3F0B2817390778F0AC014E5F50
:101830005F4F2417350748F04E0F5F1F5093170670
:10184000409316068193919302C0E0E0F0E0CF014F
:10185000DF91CF911F910F910895CF93DF93009760
:1018600009F481C0FC01329713821282A0911806FC
:10187000B0911906109781F420813181820F931F56
:1018800020911606309117062817390751F5F09365
:101890001706E093160667C0ED0120E030E0CE1792
:1018A000DF0740F44A815B819E0141155105F1F04B
:1018B000EA01F5CFD383C28340815181840F951F04
:1018C000C817D90759F488819981840F951F02960A
:1018D000918380838A819B81938382832115310543
:1018E00029F4F0931906E09318063DC0E901FB8343
:1018F000EA8349915991C40FD51FEC17FD0761F494
:1019000080819181840F951F0296E90199838883D4
:10191000828193819B838A83E0E0F0E012968D912F
:101920009C911397009719F0FD01DC01F7CF8D9181
:101930009C9111979D012E5F3F4F820F931F209125
:101940001606309117062817390769F4309729F4DD
:10195000109219061092180602C013821282B093D8
:101960001706A0931606DF91CF91089510E0C5E306
:10197000D0E004C0FE010E948F0B2196C633D10730
:06198000C9F7F894FFCF47
:1019860088130F00F4010400D007040108020000C8
:101996001A0620009C01B501CF01EA0107022602C2
:1019A600470269028E02B502DE020A030E0F10110B
:1019B600126D560050726573732042003E3E6133CD
:0219C6003200ED
:00000001FF
