:100000000C9455000C947D000C947D000C947D00A4
:100010000C947D000C947D000C947D000C947D006C
:100020000C947D000C94920B0C947D000C947D003C
:100030000C947D000C94A8080C947D000C947D0019
:100040000C947D000C947D000C947D000C947D003C
:100050000C947D000C947D000C947D000C947D002C
:100060000C947D000C947D00570151014E01470115
:100070006F01690163015D01084AD73B3BCE016E08
:1000800084BCBFFDC12F3D6C74319ABD56833DDAEF
:100090003D00C77F11BED9E4BB4C3E916BAAAABEFE
:1000A000000000803F0023034F0C11241FBECFEF40
:1000B000D8E0DEBFCDBF11E0A0E0B1E0E6E0F2E2C3
:1000C00002C005900D92A434B107D9F726E0A4E44C
:1000D000B1E001C01D92A031B207E1F710E0C4E524
:1000E000D0E004C02197FE010E94890FC335D107DB
:1000F000C9F70E94A4020C94F6100C9400002F92F1
:100100003F924F925F926F927F928F929F92AF92A7
:10011000BF92CF92DF92EF92FF920F931F93CF93F4
:10012000DF93CDB7DEB72A970FB6F894DEBF0FBEC8
:10013000CDBF3C01512C11E00F2EF8EC3F2EF02DDD
:1001400044244394212CD3012D913C911197159671
:100150008D919C9116972817390771F412962D915D
:100160003C91139717968D919C91189728173907F2
:1001700019F4552009F4CFC161E0CE0101960E9427
:10018000160C8B819C818F35914058F48D819E8116
:100190008F35914030F48F8198858F35914008F4E8
:1001A000ADC1112309F4B0C18FE291E00E940609AC
:1001B00084EF91E00E94DA0B60E070E080E090E074
:1001C0000E944C0BD30112962D913C9113971796D8
:1001D0008D919C911897821B930B181619063CF071
:1001E000892F880F880BA82E880FBB0802C0A42C6B
:1001F000B22CA20EB31EF30120813181858196813C
:10020000821B930B181619063CF0892F880F880B58
:10021000082F880F110B02C0042D122D020F131F7F
:100220000E940F0A85E391E00E941E0AB801012E88
:10023000000C880B990B0E94730A87E391E00E94DF
:100240001E0AB5010B2C000C880B990B0E94730A37
:100250008AE391E00E941E0AD3018D919C9111972F
:100260007801E81AF90A12968D919C911397F5017D
:10027000E81BF90BCF011496EC914E2F50E048305B
:10028000510538F5FA01EC5CFF4F0C94890F0F2EE5
:10029000F3ED8F2EF02D99249A9427C0812C912C68
:1002A00024C00F2EFDE28F2EF02D912C1EC00F2E9C
:1002B000FAE58F2E912CF02D18C00F2EF7E88F2E17
:1002C000F02D912C12C00F2EF4EB8F2EF02D912CCF
:1002D0000CC00F2EF1EE8F2EF02D912C06C00F2E9C
:1002E000F6EA8F2E99249A94F02DE114F10461F42A
:1002F000181619064CF1C92ECC0CCC080C2C000C8D
:10030000DD08F6EACF2225C0B7010E94340F072E80
:10031000000C880B990B0E9412040E94390320E004
:1003200030E044E353E40E94CD042BED3FE049E488
:1003300050E40E9468030E94DA036B01FF204CF432
:1003400024EBC20ED11C05C00F2EFAE5CF2ED12C06
:10035000F02DC4018C199D096DE270E00E94340FEC
:10036000072E000C880B990B0E9412040E943A057C
:100370000E94DA037B01653071051CF0A8E0EA1ADF
:10038000F108BCEFEB16BFEFFB061CF4E8E0EE0E45
:10039000F11C0E940F0AB7010F2C000C880B990B5F
:1003A0000E94730A61E080E00E94960AB6010D2C5B
:1003B000000C880B990B0E94730AFDE2CF16D10442
:1003C00081F174F433EDC3163FEFD30609F1C11484
:1003D000D10411F186EAC8168FEFD806B9F513C01B
:1003E000A7E8CA16D10429F12CF4EAE5CE16D10407
:1003F000E1F02CC0F4EBCF16D104F9F021EEC216D7
:10040000D10401F123C084E0D30114968C931EC063
:1004100023E0F30124831AC082E0D30114968C9365
:1004200015C081E0F301848311C0D30114961C929E
:100430000DC027E0F301248309C0E6E0D301149640
:10044000EC9304C0E5E0D3011496EC93FF20E4F4B0
:100450006AE270E086ED9FEF0E944C0BC701992382
:1004600024F4882799278E199F099C01329EC00188
:10047000339E900D11240E94DA0B60E070E080E062
:1004800090E00E944C0B1EC01E141F04DCF466EDAD
:100490007FEF8AE290E00E944C0BC701992324F47D
:1004A000882799278E199F09DC013A9EC0013B9E3F
:1004B000900D11240E94DA0B60E070E080E090E083
:1004C0000E944C0B60E070E080E090E00E944C0BDA
:1004D000F30111830083B382A282511011C0858180
:1004E00096818017910779F45524539487819085DC
:1004F0008A159B0509F0512C10E006C011E004C0DC
:10050000512C10E001C010E064E170E084E190E063
:100510000E944C0B18CE2A960FB6F894DEBF0FBE81
:10052000CDBFDF91CF911F910F91FF90EF90DF90A2
:10053000CF90BF90AF909F908F907F906F905F9083
:100540004F903F902F900895CF93DF93CDB7DEB7B4
:1005500029970FB6F894DEBF0FBECDBF1A8219825D
:100560001C821B821D8282E090E09F838E8383E049
:1005700090E09987888780ED97E00E944B0C60E0BF
:1005800070E080E090E00E944C0B0FE010E080E112
:100590000E948F0B811145C082E00E948F0B88233F
:1005A00041F08E819F810196B8010E94340F9F8394
:1005B0008E8380E20E948F0B882341F08885998585
:1005C0000196B8010E94340F998788870E940F0A0C
:1005D00085E391E00E941E0A6E817F81072E000C48
:1005E000880B990B0E94730A87E391E00E941E0A10
:1005F00068857985072E000C880B990B0E94730A79
:100600008AE391E00E941E0A61E080E00E94960A5F
:100610008CE391E00E941E0A84E690E00E94DA0BCF
:10062000B6CF80E10E947B0B88EE93E00E94DA0B4C
:10063000CE0101960E947F0060E070E080E090E0D3
:100640000E944C0BFFCF43EA51E08FEF9FE7FA0186
:10065000455B5F4F9A0191838083938382831482E9
:100660003596E217F307B9F726E04830520779F7D5
:100670000895DF93DD27B92FBF7740E85FE31616B3
:10068000170648075B0718F4D92F0E94C5049F93EB
:100690008F937F936F930E945E05E8E7F0E00E94DE
:1006A00056040E948B042F913F914F915F910E94BD
:1006B000E004DD2351F09058A2EA2AED3FE049EC36
:1006C0005FE3D0785D270E947305DF910C948B0463
:1006D0000E947C030C948B040E94840458F00E94B6
:1006E0007D0440F029F45F3F29F00C944D04511132
:1006F0000C94BF040C9453040E949C0468F3992347
:10070000B1F3552391F3951B550BBB27AA2762170D
:100710007307840738F09F5F5F4F220F331F441F1A
:10072000AA1FA9F335D00E2E3AF0E0E832D091504E
:100730005040E695001CCAF72BD0FE2F29D0660F3B
:10074000771F881FBB1F261737074807AB07B0E87E
:1007500009F0BB0B802DBF01FF2793585F4F3AF084
:100760009E3F510578F00C944D040C94BF045F3FFC
:10077000E4F3983ED4F3869577956795B795F7950A
:100780009F5FC9F7880F911D9695879597F90895F2
:10079000E1E0660F771F881FBB1F6217730784078E
:1007A000BA0720F0621B730B840BBA0BEE1F88F79D
:1007B000E09508950E94E1036894B1110C94BF0480
:1007C00008950E94A40488F09F5798F0B92F9927A4
:1007D000B751B0F0E1F0660F771F881F991F1AF02C
:1007E000BA95C9F714C0B13091F00E94BE04B1E0CF
:1007F00008950C94BE04672F782F8827B85F39F0CE
:10080000B93FCCF3869577956795B395D9F73EF4C4
:1008100090958095709561957F4F8F4F9F4F08956C
:10082000E89409C097FB3EF490958095709561958A
:100830007F4F8F4F9F4F9923A9F0F92F96E9BB2740
:100840009395F695879577956795B795F111F8CFBC
:10085000FAF4BB0F11F460FF1BC06F5F7F4F8F4F27
:100860009F4F16C0882311F096E911C0772321F01D
:100870009EE8872F762F05C0662371F096E8862FB5
:1008800070E060E02AF09A95660F771F881FDAF70C
:10089000880F9695879597F9089597F99F6780E84F
:1008A00070E060E008959FEF80EC0895DF93CF93B0
:1008B0001F930F93FF92EF92DF927B018C0168945C
:1008C00006C0DA2EEF010E94E004FE01E894A59133
:1008D0002591359145915591A6F3EF010E9473053D
:1008E000FE019701A801DA9469F7DF90EF90FF907D
:1008F0000F911F91CF91DF91089500240A9416164D
:10090000170618060906089500240A9412161306FD
:10091000140605060895092E0394000C11F488238B
:1009200052F0BB0F40F4BF2B11F460FF04C06F5FA7
:100930007F4F8F4F9F4F089557FD9058440F551F7D
:1009400059F05F3F71F04795880F97FB991F61F051
:100950009F3F79F087950895121613061406551FC8
:10096000F2CF4695F1DF08C0161617061806991F34
:10097000F1CF86957105610508940895E894BB2729
:1009800066277727CB0197F908959B01AC0160E0BA
:1009900070E080E89FE30C9468030E94E0040C94EC
:1009A0008B040E947D0438F00E94840420F095237B
:1009B00011F00C944D040C94530411240C94BF04B6
:1009C0000E949C0470F3959FC1F3950F50E0551F52
:1009D000629FF001729FBB27F00DB11D639FAA2794
:1009E000F00DB11DAA1F649F6627B00DA11D661FE3
:1009F000829F2227B00DA11D621F739FB00DA11D04
:100A0000621F839FA00D611D221F749F3327A00DBD
:100A1000611D231F849F600D211D822F762F6A2F59
:100A200011249F5750409AF0F1F088234AF0EE0FBE
:100A3000FF1FBB1F661F771F881F91505040A9F7EB
:100A40009E3F510580F00C944D040C94BF045F3F11
:100A5000E4F3983ED4F3869577956795B795F79527
:100A6000E7959F5FC1F7FE2B880F911D969587959F
:100A700097F908950E94A404E8F09E37E8F09639AB
:100A8000B8F49E3848F4672F782F8827985FF9CFFD
:100A900086957795679593959539D0F3B62FB17074
:100AA0006B0F711D811D20F4879577956795939540
:100AB0000C94C8050C94E3050C94BF049B01AC0195
:100AC0000C94CD040E947D0438F00E94840420F030
:100AD00039F49F3F19F426F40C9453040EF4E09576
:100AE000E7FB0C944D04E92F0E949C0458F3BA17BD
:100AF000620773078407950720F079F4A6F50C9434
:100B0000BE040EF4E0950B2EBA2FA02D0B01B901F7
:100B100090010C01CA01A0011124FF27591B99F073
:100B2000593F50F4503E68F11A16F040A22F232F7F
:100B3000342F4427585FF3CF469537952795A795CF
:100B4000F0405395C9F77EF41F16BA0B620B730B76
:100B5000840BBAF09150A1F0FF0FBB1F661F771FE7
:100B6000881FC2F70EC0BA0F621F731F841F48F49C
:100B7000879577956795B795F7959E3F08F0B0CF25
:100B80009395880F08F09927EE0F9795879508950C
:100B9000882371F4772321F09850872B762F07C094
:100BA000662311F499270DC09051862B70E060E008
:100BB0002AF09A95660F771F881FDAF7880F9695A7
:100BC000879597F908959F3F31F0915020F48795CC
:100BD00077956795B795880F911D9695879597F9A5
:100BE000089590914901E0914401F09145019923C4
:100BF00011F0849101C080812FEB280F2A3110F46D
:100C0000805E0895803249F49F012F5F3F4F3093FB
:100C1000450120934401EF2B31F708951F93CF93A3
:100C2000DF930E94F105C0E0D0E01AE090ED980F4C
:100C30009A30B8F49E01129FE001139FD00D112449
:100C4000C80FD11D87FDDA95E097809144019091FE
:100C50004501019690934501809344010E94F1055E
:100C6000E5CFCE01DF91CF911F91089510926F00D3
:100C700083E28093800081E1809381001092820062
:100C800080E197E2909389008093880010928B0016
:100C900010928A00229A789408958F929F92AF9230
:100CA000BF92DF92EF92FF920F931F93CF93DF9348
:100CB0005C018B01D42E80914601811105C081E039
:100CC000809346010E94360610920901B7FE05C0C6
:100CD000E894B7F82AE0F22E02C0FF24F394E090E3
:100CE00081002E2D287FE22E48ECF49EC0011124B5
:100CF0008A159B05E0F4E50151E1A51657E2B5061A
:100D000010F0C0E1D7E2BE017695679580E090E0F3
:100D10006058794687469F4F4E01A12CB12CA50102
:100D200094010E94480F59018E2D816024C0C8E2B1
:100D3000FC9EC02D1124D0E0CA15DB0508F4E501A6
:100D4000BE01769567959E0140E050E08AE0F8127A
:100D500007C080E090E0605E734481449F4F06C00E
:100D600080E090E060537D4E8C4E9F4F0E94480F74
:100D700059018E2D8260882E2AE0F21207C0CE0122
:100D800005966AE070E00E94200FEB01C83E43E048
:100D9000D40759F09801DE010E948F0F28EE33E04E
:100DA00040E050E00E946A0F890110926F0080922B
:100DB0008100B0928900A092880020918800309133
:100DC00089004D2D403108F04FE080E190E0841B18
:100DD0009109A90102C0569547958A95E2F750936B
:100DE0008B0040938A0010934C0100934B0186B313
:100DF0008FEF86BB81E080936F00DF91CF911F91D1
:100E00000F91FF90EF90DF90BF90AF909F908F90E9
:100E10000895CF93DF93EB018F3F11F0411105C08F
:100E200040E0BE0188EE93E043C0813130F050EFE6
:100E3000580F503618F05FE501C050E0852F6CE088
:100E40000E94140F682F74EF760390011124250F70
:100E5000311D2C30310540F4F901EE0FFF1FEE5E1D
:100E6000FE4F2081318102C020E030E0873081F0E8
:100E7000082E02C0220F331F0A94E2F7823028F0B6
:100E8000C90105966AE070E00CC0C90190580CC019
:100E9000C90136E0880F991F3A95E1F7029665E09F
:100EA00070E00E94200FCB01403108F04FE0BE01FE
:100EB0000E944D06DF91CF910895A2E0B0E0E3E6F5
:100EC000F7E00C94A00F90900801809148018823CE
:100ED00021F060914701611117C077247394B0EC41
:100EE000AB2EBDE5BB2E1AE0612E04E0802E80ED16
:100EF000C82E87E0D82E94E0E92EF12C04EF11E003
:100F00002FE0422E512C15C070E040E088EE93E0B7
:100F10000E944D061092470117C18636D4F58136DE
:100F200009F4A9C07CF58C3309F460C08E3381F4D8
:100F300093940E94F10520914401309145012F5F67
:100F40003F4F3093450120934401853631F752C01D
:100F5000813209F08BC080920801D0920701C092C3
:100F60000601F0920501E092040110930301009341
:100F70000201509201014092000110924801A4E048
:100F80009A2ED7CF8336A1F10CF478C010E082E01E
:100F900077C08D36C1F194F4873691F174F18C36B7
:100FA00009F064C00E940E06BC0190930501809375
:100FB0000401809106019091070151C08237C9F167
:100FC0004CF48F3609F052C00E940E06982E809382
:100FD0000801AFCF843781F1863709F047C00E94FE
:100FE0000E069093010180930001A3CF9A94A1CFA4
:100FF00010E020C010E084E043C010E085E040C075
:1010000010E087E03DC00E94F1058C3619F4109283
:10101000480104C070924801109247012091440198
:10102000309145012F5F3F4F30934501209344019C
:1010300080CF11E080E024C00E940E06BC01C501F3
:101040000E94200F669EC001679E900D1124909310
:1010500007018093060160910401709105010E94CF
:10106000200F709303016093020163CF109245013A
:101070001092440169C010E089E002C010E08BE0EA
:10108000082F9CE0999E000D11240E94F105982FD5
:10109000977F933261F420914401309145012F5F95
:1010A0003F4F30934501209344010F5FEECF8D32C7
:1010B00071F420914401309145012F5F3F4F3093EF
:1010C00045012093440101500E94F105F0CF609149
:1010D0000201709103018153883050F4E0900601C1
:1010E000F09007010E940E06BC01C7010E94200F6C
:1010F0007B01F694E79469837A830E94F105698104
:101100007A818E3269F420914401309145012F5F3C
:101110003F4F30934501209344016E0D7F1DE9CF71
:1011200080914801882339F09B01369527952093BB
:101130004701621B710940910001112311F08FEFEB
:1011400001C0802F0E9409072296E0E10C94BC0F99
:101150001F920F920FB60F9211242F933F934F932C
:101160005F936F937F938F939F93AF93BF93EF930F
:10117000FF9380914B0190914C019C0121503109CA
:1011800030934C0120934B01892B11F510926F0085
:10119000789480918100887F81608093810080E1D4
:1011A00097E2909389008093880010928B001092B0
:1011B0008A0081E08093090180914401909145016A
:1011C000892B31F080914A01811102C00E945D0794
:1011D000FF91EF91BF91AF919F918F917F916F910F
:1011E0005F914F913F912F910F900FBE0F901F90E5
:1011F000189510926F0090934501809344011092CE
:101200004901109247010E945D0708950E94F90864
:10121000089581E090E06F9364E06A95F1F76F9133
:101220000197C9F708950F931F93CF93DF931AB1D6
:1012300057985A98289AC0E0D0E00E9409095C9A11
:101240000E94090909B15C980E9409095C9A0E94F0
:1012500009095C98249607FF10C0AE0160E070E0B9
:1012600080914D0190914E01A0914F01B09150019C
:10127000481759076A077B0700F31AB9DF91CF9126
:101280001F910F91089595B1282F217030E0220F02
:10129000331F482F467068E0469FA0011124242B7D
:1012A0009D7C292B25B99BB188708295807F9F7783
:1012B000892B8BB95C9A0E9409095C980E940909E4
:1012C0000895A0E0B0E0E7E6F9E00C94A90FC82F7C
:1012D000D62EE42E80910806811105C081E080930E
:1012E00008060E94A7090E94130914B1D5B1FAB0EB
:1012F0000BB12898DD2011F05A9A01C05A9894B188
:10130000926394B9579A81E0E81629F08C2F829560
:101310008F700E9443098C2F8F700E944309FAB886
:101320000BB914B9D5B9CDB7DEB7E7E00C94C50F4A
:1013300042E060E00E946109089542E061E00E949D
:101340006109089541E060E00E946109089580E12B
:1013500097E2A0E0B0E080934D0190934E01A093FE
:101360004F01B0935001529A209A549A8EE190E026
:101370000E94DA0B83E00E94A20986E090E00E94BE
:10138000DA0B83E00E94A20982E090E00E94DA0B6F
:1013900083E00E94A20982E090E00E94DA0B82E0E2
:1013A0000E94A20982E090E00E94DA0B88E20E948B
:1013B000980988E00E94980981E00E94980986E0D7
:1013C0000E9498098CE00E949809089581E00E948B
:1013D00098098091530190915401892BF9F060E0B4
:1013E000A0E2262F30E070910A0180910B0190E07D
:1013F0000197789FA001799F500D1124241735077C
:101400004CF4E0915301F0915401E20FF31FA083DB
:101410006F5FE7CF109251011092520108950E9420
:10142000E6090895CF93DF93EC018991882319F0A1
:101430000E949D09FACFDF91CF9108950E94120A70
:101440000895AAE0B0E0E7E2FAE00C94A80F1AE0F1
:101450005AE0C52ED12CE12CF12C062FA7019601C4
:101460000E94480FCA01B9011150E1E0F0E0EC0F11
:10147000FD1FE10FF11D005D2AE0629F001911249C
:101480000083611571058105910539F71A3058F40B
:10149000E1E0F0E0EC0FFD1FE10FF11D80810E9403
:1014A0009D091F5FF3CF2A96E8E00C94C40FCF92FA
:1014B000DF92EF92FF926B017C0197FF0BC0F094DB
:1014C000E094D094C094C11CD11CE11CF11C8DE2AD
:1014D0000E949D09C701B6010E94210AFF90EF906A
:1014E000DF90CF9008950E94570A0895A5E0B0E0DC
:1014F000ECE7FAE00C94AD0F182F80E8898380ECBC
:101500008A8384E98B8384ED8C83FE01E60FF11DD1
:101510008181810F6D830E949809109351016D8123
:10152000609352012596E3E00C94C90F0E94760A5D
:101530000895883058F491E001C0990F8A95EAF730
:10154000892FAAE2B0E0EBE2F0E021C08E3060F437
:1015500098EF980F81E001C0880F9A95EAF7A4E20E
:10156000B0E0E5E2F0E013C0853160F492EF980F4F
:1015700081E001C0880F9A95EAF7A7E2B0E0E8E2BF
:10158000F0E005C080E0A0E0B0E0E0E0F0E06F3F18
:1015900019F49081982709C0662319F09081982B3F
:1015A00004C02081982F9095922390839C91982B32
:1015B0009C93089583EF8093B00084BD82E0809374
:1015C000B10085BD1092B4001092B30018BC17BCD6
:1015D00060E086E00E94990A60E085E00E94990A36
:1015E00060E08BE00E94990A60E083E00E94990A23
:1015F000089580910906811105C081E08093090654
:101600000E94DA0A0895CF93DF93EC010E94F90A51
:10161000D7FF05C0D195C195D10981E001C080E017
:10162000CF3FD10519F014F0CFEFD0E0882319F0A7
:1016300018BCC7BD02C0C8BD17BCDF91CF910895CB
:10164000CF93DF93EC010E94F90AD7FF05C0D19533
:10165000C195D10981E001C080E0CF3FD10519F0EB
:1016600014F0CFEFD0E0882329F01092B400C0939B
:10167000B30004C0C093B4001092B300DF91CF91C7
:101680000895CF93DF93EB010E94030BCE010E94DC
:10169000200BDF91CF9108950E94410B089584B1F2
:1016A0008D7C84B985B1826385B985E090E06F93C4
:1016B00064E06A95F1F76F910197C9F708958091F9
:1016C0000A06811105C081E080930A060E944F0B33
:1016D0000895CF93C82F0E945F0B83B18C23E9F349
:1016E0008AE090E00E94DA0B83B18C23B1F383B1DE
:1016F0008C23CF9108950E94690B0895A1E0B0E07A
:10170000E4E8FBE00C94AE0F89830E945F0B93B179
:101710009095898189232196E2E00C94CA0F0E945A
:101720007E0B08952F928F939F932FB680915C012B
:1017300090915D01019680935C0190935D0190E032
:1017400080915E01891F80935E01909156019C5F9C
:10175000909356018091550180519742C0F090932B
:10176000560180935501809157019091580101963F
:10177000809357019093580190E080915901891FFF
:101780008093590180915A01891F80935A012FBE7D
:101790009F918F912F90189528EE33E0019748F094
:1017A000F9016F9364E06A95F1F76F913197C9F78A
:1017B000F5CF08950E94CC0B0895E0E7F0E080811A
:1017C0008E7F8083A0EBB0E08C9183608C93A1EB43
:1017D000B0E08C91807F8C938C9182608C93B89ACE
:1017E0008081816080837894089580910B068111B7
:1017F00005C081E080930B060E94DD0B08950E94D6
:10180000F50BE0E7F0E080818E7F80831092570136
:10181000109258011092590110925A0110925601DB
:10182000109255018081816080830895462FBC010C
:101830008FE591E00E94990E08950F93CF93DF9367
:1018400000D000D01F92CDB7DEB79C0185E0EAE260
:10185000F1E0DE01119601900D928A95E1F7662381
:1018600011F00FEF01C003E145E0BE016F5F7F4F54
:101870008FE591E00E94EF0C8FE591E00E94C60C8D
:101880000E94FF0B0F900F900F900F900F90DF9121
:10189000CF910F91089560E00E941D0C08958FE58F
:1018A00091E00E94F60E08956F9364E06A95F1F757
:1018B0006F910197C9F70895FC011182108213827C
:1018C0001282158214821682683068F489E290E0F0
:1018D000918380838BE290E0938382838AE290E01D
:1018E000958384831FC06E3070F483E290E091830F
:1018F000808385E290E09383828384E290E0958305
:10190000848368500FC0653198F486E290E091833B
:10191000808388E290E09383828387E290E09583DE
:1019200084836E5081E001C0880F6A95EAF7868350
:101930000895A7E0B0E0EFE9FCE00C94AC0F8C0157
:10194000FC01118210821382128215821482178286
:101950001682613118F080E1808702C0FC01608747
:10196000F801208B642FCE0101960E945C0C8F81C0
:10197000F80181878B819C81938782878D819E81ED
:10198000958784872796E4E00C94C80FFC01A48512
:10199000B585109779F08C919185892B8C93A285D0
:1019A000B3859C918185809589238C9388EC90E008
:1019B0000E94540C0895FC01A485B585109771F020
:1019C0008C919185892B8C93A285B3858C9191857F
:1019D000892B8C9388EC90E00E94540C0895A7E02A
:1019E000B0E0E5EFFCE00C94A10F7C014B01642F0B
:1019F0003901402F20E00E94990C87010F5B1F4F97
:101A0000F80110826701F2E4CF0ED11CF6011082BA
:101A10005701F3E4AF0EB11CF5011082F701778690
:101A20006686512CF7018085581650F5652C712C6F
:101A3000F401E60DF71D6081CE0101960E945C0C59
:101A40002F81F701E60DF71D218B89819A81F30122
:101A5000EE0FFF1FEE0DFF1D92A381A383329105B0
:101A600011F4F80108C08632910511F4F60103C0A3
:101A7000899721F4F5018081822B80835394D2CF02
:101A80002796EFE00C94BD0FA0E0B0E0EAE4FDE0A3
:101A90000C94A30FEC015B016C0181E4C80ED11C16
:101AA000F60180807E01F2E4EF0EF11CF7017080F8
:101AB0008E010D5B1F4FF801908080E0988589179B
:101AC00048F4F501E80FF11DE80FF11D11821082B5
:101AD0008F5FF4CF84B1F6019081892B84B987B1EF
:101AE000F7019081892B87B98AB1F8019081892B00
:101AF0008AB985B1F6019081892B85B988B1F70142
:101B00009081892B88B98BB1F8019081892B8BB991
:101B10008AE090E00E94540C94B1F6018081809597
:101B2000892384B997B1F70180818095892387B98A
:101B30009AB1F8018081809589238AB995B1F6011F
:101B400080818095892385B998B1F701808180953E
:101B5000892388B99BB1F8018081809589238BB94D
:101B6000E090B000D090B1008091B000836080938D
:101B7000B00082E08093B1004091B20080E090E03C
:101B80002E853F858217930720F5C090B2002C2D3B
:101B9000241B820F911D03B1081132C0F6B0F7105B
:101BA0002FC029B129112CC010C0212F30E0A9016C
:101BB000440F551FF501E40FF51F60817181672BFC
:101BC00021F11F5F2885121780F37F2C802E4C2D6A
:101BD000D7CFE092B000D092B10020E088852817DE
:101BE00030F5F501E20FF11DE20FF11D80819181C9
:101BF000892B21F48E859F85918380832F5FEECF83
:101C000003B1F6B099B010E0DDCFDE01A40FB51F2F
:101C100091960D90BC91A02D4C91DE01A20FB31FA7
:101C200051962C91422369F691838083CACFCDB718
:101C3000DEB7EDE00C94BF0FEF92FF920F931F936E
:101C4000CF93DF93FC019B01F0907C0000917A0020
:101C500047B118B180917A0086FDFCCF80E0908575
:101C6000891748F4D901A80FB11DA80FB11D1D9205
:101C70001C928F5FF4CF97B182A18095892387B999
:101C800098B182A18095892388B987E880937A00EA
:101C9000E12C81A1E81610F0E12C29C050E08085EC
:101CA000581718F5A52FB0E0EF01CA0FDB1F89897F
:101CB000806480937C0080917A00806480937A00B5
:101CC00080917A0086FDFCCF609178007091790058
:101CD000AA0FBB1FA20FB31F8D919C911197860F66
:101CE000971F8D939C935F5FDACFE394D2CF80856B
:101CF000E816A0F4E901CE0DD11DCE0DD11D61A1D4
:101D000070E0CB0195958795A881B9818A0F9B1FBB
:101D10000E94200F79836883E394E9CFF0927C00DE
:101D200000937A0018B947B9CDB7DEB7E6E00C9456
:101D3000C60FA0E2B0E0EFE9FEE00C94A90F8C0121
:101D40007B01D42E8FEF840F823018F4C8010E94DB
:101D5000DB0CD80150968C91B701811110C0C801DD
:101D60000E94440DC8010E94C60CB2E0DB123AC0CA
:101D7000BE016F5F7F4FC8010E94440D0FC0C801B4
:101D80000E941C0EC8010E94C60CE2E0DE122AC0AE
:101D9000BE016F5F7F4FC8010E941C0E40E0F8013A
:101DA00080854817F8F4842F90E0880F991FF70179
:101DB000E80FF91F21E030E02C0F3D1F820F931F29
:101DC000D8011E962D913C911F97DC018D919C911D
:101DD000281B390B80819181820F931F918380830F
:101DE0004F5FDDCFA096E7E00C94C50FCF93DF9354
:101DF000EC018A819B81009711F00E946D108E8109
:101E00009F81009711F00E946D1088819981009741
:101E100011F00E946D108C819D81009711F00E943D
:101E20006D10DF91CF910895991B79E004C0991F3F
:101E3000961708F0961B881F7A95C9F78095089524
:101E4000AA1BBB1B51E107C0AA1FBB1FA617B707E0
:101E500010F0A61BB70B881F991F5A95A9F78095FC
:101E60009095BC01CD01089597FB072E16F40094C0
:101E700007D077FD09D00E94200F07FC05D03EF463
:101E8000909581959F4F0895709561957F4F089526
:101E9000A1E21A2EAA1BBB1BFD010DC0AA1FBB1F6E
:101EA000EE1FFF1FA217B307E407F50720F0A21BE0
:101EB000B30BE40BF50B661F771F881F991F1A944D
:101EC00069F760957095809590959B01AC01BD0177
:101ED000CF010895052E97FB1EF400940E94810FF8
:101EE00057FD07D00E94480F07FC03D04EF40C9416
:101EF000810F50954095309521953F4F4F4F5F4F43
:101F0000089590958095709561957F4F8F4F9F4F65
:101F10000895EE0FFF1F0590F491E02D0994A29F04
:101F2000B001B39FC001A39F700D811D1124911DAD
:101F3000B29F700D811D1124911D08952F923F9223
:101F40004F925F926F927F928F929F92AF92BF92C9
:101F5000CF92DF92EF92FF920F931F93CF93DF9375
:101F6000CDB7DEB7CA1BDB0B0FB6F894DEBF0FBED2
:101F7000CDBF09942A88398848885F846E847D841F
:101F80008C849B84AA84B984C884DF80EE80FD8021
:101F90000C811B81AA81B981CE0FD11D0FB6F89497
:101FA000DEBF0FBECDBFED0108950F931F93CF93FA
:101FB000DF938230910510F482E090E0E0910E060C
:101FC000F0910F0620E030E0A0E0B0E0309719F18A
:101FD000408151810281138148175907C8F0841745
:101FE000950769F4109731F012960C931297139697
:101FF0001C9327C000930E0610930F0622C02115D4
:10200000310519F04217530718F49A01BD01EF0189
:10201000DF01F801DBCF21153105F9F0281B390B61
:102020002430310580F48A819B816115710521F08E
:10203000FB019383828304C090930F0680930E0666
:10204000FE01329644C0FE01E20FF31F819391938B
:1020500022503109398328833AC020910C063091EF
:102060000D06232B41F420910E0130910F01309386
:102070000D0620930C0620910C0130910D012115C5
:10208000310541F42DB73EB7409110015091110137
:10209000241B350BE0910C06F0910D06E217F307B7
:1020A000A0F42E1B3F0B2817390778F0AC014E5FC8
:1020B0005F4F2417350748F04E0F5F1F50930D06F2
:1020C00040930C068193919302C0E0E0F0E0CF01D1
:1020D000DF91CF911F910F910895CF93DF930097D8
:1020E00009F481C0FC01329713821282A0910E067E
:1020F000B0910F06109781F420813181820F931FD8
:1021000020910C0630910D062817390751F5F093F0
:102110000D06E0930C0667C0ED0120E030E0CE171D
:10212000DF0740F44A815B819E0141155105F1F0C2
:10213000EA01F5CFD383C28340815181840F951F7B
:10214000C817D90759F488819981840F951F029681
:10215000918380838A819B819383828321153105BA
:1021600029F4F0930F06E0930E063DC0E901FB83CE
:10217000EA8349915991C40FD51FEC17FD0761F40B
:1021800080819181840F951F0296E901998388834C
:10219000828193819B838A83E0E0F0E012968D91A7
:1021A0009C911397009719F0FD01DC01F7CF8D91F9
:1021B0009C9111979D012E5F3F4F820F931F20919D
:1021C0000C0630910D062817390769F4309729F469
:1021D00010920F0610920E0602C013821282B09364
:1021E0000D06A0930C06DF91CF91089510E0C4E591
:1021F000D0E004C0FE010E94890F2196C535D107A9
:06220000C9F7F894FFCFBE
:102206000F00F4010400D0070401080200001006C4
:1022160020009C01B501CF01EA0107022602470210
:1022260069028E02B502DE020A030E0F1011123E7B
:102236003E6133320028002C200029002041204234
:042246002043200011
:00000001FF
