:100000000C9455000C947D000C947D000C947D00A4
:100010000C947D000C947D000C947D000C947D006C
:100020000C947D000C94490C0C947D000C947D0084
:100030000C947D000C945F090C947D000C947D0061
:100040000C947D000C947D000C947D000C947D003C
:100050000C947D000C947D000C947D000C947D002C
:100060000C947D000C947D00F200EF00EC00E900A0
:10007000FE00FB00F800F500084AD73B3BCE016EBE
:1000800084BCBFFDC12F3D6C74319ABD56833DDAEF
:100090003D00C77F11BED9E4BB4C3E916BAAAABEFE
:1000A000000000803F00F002060D11241FBECFEFBC
:1000B000D8E0DEBFCDBF11E0A0E0B1E0E4E7F3E2BD
:1000C00002C005900D92AA34B107D9F726E0AAE440
:1000D000B1E001C01D92A332B207E1F710E0C4E520
:1000E000D0E004C02197FE010E944010C335D10723
:1000F000C9F70E94E5020C94AD110C940000CF9357
:10010000DF9380E10E94460C81111CC00E94A5066D
:10011000EC010E94C60ABE01DD0F880B990B0E94FC
:100120002A0B81E391E00E94D50A61E080E00E9401
:100130004D0B84E391E00E94D50A84E690E00E9492
:10014000910CDFCF80E10E94320C88EE93E00E9498
:10015000910C80ED97E00E94020D60E070E080E07D
:1001600090E00E94030CDF91CF910895CF93DF932D
:10017000EA010E94030C88EC282F2C9FC0012D9FC0
:10018000900D11240E94910C60E070E080E090E0FE
:100190000E94030CDF91CF910895AC016AE270E0F8
:1001A00086ED9FEF0E94B6000895AC0166ED7FEFEB
:1001B0008AE290E00E94B6000895E091B1018E2F8E
:1001C00090E088309105B8F4FC01EC5CFF4F0C9492
:1001D000401083ED9FEF089580E090E008958DE258
:1001E00090E008958AE590E0089587E890E008950A
:1001F00084EB90E0089581EE90E0089586EA9FEF09
:1002000008958D32910531F154F4833D2FEF92071B
:10021000C9F00097D9F0863A9F4F71F50FC0873823
:100220009105F9F024F48A359105C1F00895843BD5
:100230009105D9F0813E9105E1F0089584E0809325
:10024000B101089583E08093B101089582E0809325
:10025000B101089581E08093B10108951092B10138
:10026000089587E08093B101089586E08093B101FD
:10027000089585E08093B1010895EF92FF920F9366
:100280001F93CF93DF937901E61AF70A8A01081BBF
:10029000190B0E94DD00EC01E114F10441F4101689
:1002A00011062CF1112334F506EA1FEF25C0C80111
:1002B000B7010E94EB0F072E000C880B990B0E94D0
:1002C000F5030E941C0320E030E044E353E40E9465
:1002D000B0042BED3FE049E450E40E944B030E9440
:1002E000BD038B01FF2044F40C541F4F05C00AE5E9
:1002F00010E002C000E010E0CE01801B910B6DE227
:1003000070E00E94EB0F072E000C880B990B0E94E7
:10031000F5030E941D050E94BD03EB0165307105C8
:100320000CF02897CC3F8FEFD8070CF428960E944A
:10033000C60ABE010D2E000C880B990B0E942A0BD9
:1003400061E080E00E944D0BB801012E000C880B8B
:10035000990B0E942A0BC8010E940101DD2354F46D
:10036000CE01DD2324F4882799278C1B9D0B0E9446
:10037000CD000CC01C161D064CF4CE01DD2324F468
:10038000882799278C1B9D0B0E94D50060E070E0A8
:1003900080E090E00E94030CDF91CF911F910F91BC
:1003A000FF90EF900895181619063CF0892F880FDA
:1003B000880B082E000C990B089581E090E00895B9
:1003C000EF92FF920F931F93CF93DF9302EB11E015
:1003D000F801C281D3810F2EF9EAEF2EF1E0FF2E52
:1003E000F02DF701828193818C1B9D0B0E94D3011C
:1003F000C80FD91FF80100811181F7018081918117
:10040000801B910B0E94D301A801480F591FBE0108
:10041000CB01BA01DF91CF911F910F91FF90EF9027
:100420000895CF92DF92EF92FF920E94E0016B015C
:100430007C010E94C60A82E491E00E94D50AB601BE
:100440000D2C000C880B990B0E942A0B84E491E080
:100450000E94D50AB7010F2C000C880B990B0E9443
:100460002A0B87E491E00E94D50A6091B201709155
:10047000B3018091B4019091B501A70196010E944A
:100480003D01C092B201D092B301E092B401F0926A
:10049000B501FF90EF90DF90CF900895BF92CF927B
:1004A000DF92EF92FF920F931F93CF93DF93CDB71D
:1004B000DEB72A970FB6F894DEBF0FBECDBFC12CB2
:1004C000DD24D3940F2EF2EBEF2EF1E0FF2EF02D72
:1004D00009EA11E0B12CF70120813181F801808116
:1004E00091812817390761F4F70122813381F801DE
:1004F000828193812817390719F4CC2009F455C05B
:1005000061E0CE0101960E94CD0C8B819C818F35DC
:10051000914050F48D819E818F35914028F48F81D8
:1005200098858F35914098F1DD20C1F18CE391E001
:100530000E94BD0984EF91E00E94910C60E070E0A0
:1005400080E090E00E94030C6091A9017091AA01E3
:100550008091AB019091AC010E941102C1101AC0B0
:10056000F70120813181F8018081918128173907B5
:10057000A1F4CC24C394F70122813381F801828154
:1005800093812817390709F0CB2CDB2C07C0DD2419
:10059000D39404C0CB2CDB2C01C0DB2C64E170E0D5
:1005A00084E190E00E94030C96CF2A960FB6F8944F
:1005B000DEBF0FBECDBFDF91CF911F910F91FF9096
:1005C000EF90DF90CF90BF9008950E947F000E942F
:1005D0004E0260E070E080E090E00E94030CFFCFEC
:1005E00046EB51E08FEF9FE7FA01455B5F4F9A01C1
:1005F000918380839383828314823596E217F30775
:10060000B9F726E04B31520779F7E2EBF1E01182BE
:10061000108213821282EDEAF1E0118210821382BD
:100620001282E9EAF1E082E090E09183808383E046
:1006300090E0938382830895DF93DD27B92FBF77FE
:1006400040E85FE31616170648075B0718F4D92F32
:100650000E94A8049F938F937F936F930E944105FC
:10066000E8E7F0E00E9439040E946E042F913F9168
:100670004F915F910E94C304DD2351F09058A2EA8C
:100680002AED3FE049EC5FE3D0785D270E945605F4
:10069000DF910C946E040E945F030C946E040E9420
:1006A000670458F00E94600440F029F45F3F29F08D
:1006B0000C94300451110C94A2040C9436040E9442
:1006C0007F0468F39923B1F3552391F3951B550BE0
:1006D000BB27AA2762177307840738F09F5F5F4F15
:1006E000220F331F441FAA1FA9F335D00E2E3AF054
:1006F000E0E832D091505040E695001CCAF72BD06C
:10070000FE2F29D0660F771F881FBB1F26173707BC
:100710004807AB07B0E809F0BB0B802DBF01FF27EE
:1007200093585F4F3AF09E3F510578F00C94300497
:100730000C94A2045F3FE4F3983ED4F3869577953A
:100740006795B795F7959F5FC9F7880F911D9695A7
:10075000879597F90895E1E0660F771F881FBB1F03
:10076000621773078407BA0720F0621B730B840BB0
:10077000BA0BEE1F88F7E09508950E94C4036894B1
:10078000B1110C94A20408950E94870488F09F5729
:1007900098F0B92F9927B751B0F0E1F0660F771FA5
:1007A000881F991F1AF0BA95C9F714C0B13091F09B
:1007B0000E94A104B1E008950C94A104672F782F42
:1007C0008827B85F39F0B93FCCF386957795679560
:1007D000B395D9F73EF490958095709561957F4FCC
:1007E0008F4F9F4F0895E89409C097FB3EF4909572
:1007F0008095709561957F4F8F4F9F4F9923A9F0FA
:10080000F92F96E9BB279395F69587957795679588
:10081000B795F111F8CFFAF4BB0F11F460FF1BC0CC
:100820006F5F7F4F8F4F9F4F16C0882311F096E95F
:1008300011C0772321F09EE8872F762F05C066230D
:1008400071F096E8862F70E060E02AF09A95660FC6
:10085000771F881FDAF7880F9695879597F908957F
:1008600097F99F6780E870E060E008959FEF80EC63
:100870000895DF93CF931F930F93FF92EF92DF9230
:100880007B018C01689406C0DA2EEF010E94C3043C
:10089000FE01E894A5912591359145915591A6F3D6
:1008A000EF010E945605FE019701A801DA9469F74D
:1008B000DF90EF90FF900F911F91CF91DF910895FE
:1008C00000240A941616170618060906089500242F
:1008D0000A9412161306140605060895092E0394A9
:1008E000000C11F4882352F0BB0F40F4BF2B11F41D
:1008F00060FF04C06F5F7F4F8F4F9F4F089557FD7C
:100900009058440F551F59F05F3F71F04795880F7D
:1009100097FB991F61F09F3F79F087950895121614
:1009200013061406551FF2CF4695F1DF08C01616C0
:1009300017061806991FF1CF869571056105089471
:100940000895E894BB2766277727CB0197F9089588
:100950009B01AC0160E070E080E89FE30C944B03E6
:100960000E94C3040C946E040E94600438F00E943C
:10097000670420F0952311F00C9430040C94360495
:1009800011240C94A2040E947F0470F3959FC1F37C
:10099000950F50E0551F629FF001729FBB27F00D2D
:1009A000B11D639FAA27F00DB11DAA1F649F662782
:1009B000B00DA11D661F829F2227B00DA11D621FD1
:1009C000739FB00DA11D621F839FA00D611D221F8B
:1009D000749F3327A00D611D231F849F600D211D6F
:1009E000822F762F6A2F11249F5750409AF0F1F0F2
:1009F00088234AF0EE0FFF1FBB1F661F771F881F5B
:100A000091505040A9F79E3F510580F00C9430045E
:100A10000C94A2045F3FE4F3983ED4F38695779557
:100A20006795B795F795E7959F5FC1F7FE2B880F00
:100A3000911D9695879597F908950E948704E8F08F
:100A40009E37E8F09639B8F49E3848F4672F782F2F
:100A50008827985FF9CF869577956795939595390F
:100A6000D0F3B62FB1706B0F711D811D20F48795E7
:100A70007795679593950C94AB050C94C6050C94EB
:100A8000A2049B01AC010C94B0040E94600438F0F5
:100A90000E94670420F039F49F3F19F426F40C9467
:100AA00036040EF4E095E7FB0C943004E92F0E9425
:100AB0007F0458F3BA17620773078407950720F07D
:100AC00079F4A6F50C94A1040EF4E0950B2EBA2F40
:100AD000A02D0B01B90190010C01CA01A001112444
:100AE000FF27591B99F0593F50F4503E68F11A16F0
:100AF000F040A22F232F342F4427585FF3CF469581
:100B000037952795A795F0405395C9F77EF41F16A2
:100B1000BA0B620B730B840BBAF09150A1F0FF0F6C
:100B2000BB1F661F771F881FC2F70EC0BA0F621F58
:100B3000731F841F48F4879577956795B795F79548
:100B40009E3F08F0B0CF9395880F08F09927EE0FDD
:100B5000979587950895882371F4772321F098500D
:100B6000872B762F07C0662311F499270DC090516B
:100B7000862B70E060E02AF09A95660F771F881F39
:100B8000DAF7880F9695879597F908959F3F31F08A
:100B9000915020F4879577956795B795880F911DAB
:100BA0009695879597F90895ECE7F0E080818F7D21
:100BB00080830895811103C00E94D4050895809117
:100BC0007C00806280937C00089580917C0085FB8E
:100BD000882780F908950E94E505882321F08091F7
:100BE000790090E0089580917800909179000895BF
:100BF0008032A0F497E890937A0090917C0066236D
:100C000011F0906C02C09F779064907E982B909327
:100C10007C0080917A00806480937A000895A0E03F
:100C2000B0E0E5E1F6E00C945F10EB0160E00E94BB
:100C3000F80580917A0086FDFCCF8E01C12CD12C65
:100C4000760180917A00806480937A0080917A00A6
:100C500086FDFCCF0E94EB05C80ED91EE11CF11CDD
:100C6000015011090115110561F7CE01969587957F
:100C7000C034D10538F48C0D9D1DBE010E94D70FE4
:100C8000CB010EC0A7019601280F391F411D511D30
:100C9000CA01B9019E0140E050E00E94FF0FC90166
:100CA000CDB7DEB7E8E00C947B10CF92DF92EF92E5
:100CB000FF92A0910001B09101019C010E94461099
:100CC0006B017C010E94E505882359F0C701B6013C
:100CD00061587F4F8F4F9F4F2FEF30E040E050E043
:100CE0000AC0C701B60161507E4F8F4F9F4F2FEF53
:100CF00033E040E050E00E94FF0FC901FF90EF9009
:100D0000DF90CF9008950E940F060E945506089527
:100D10001F93CF93DF930E94E505182F0E94D405FF
:100D20006AE070E086E00E948306EC01812F0E9459
:100D3000DA05CE01880F991F8C0F9D1F019696959D
:100D40008795DF91CF911F9108950E94880608959D
:100D500090914F01E0914A01F0914B01992311F0DC
:100D6000849101C080812FEB280F2A3110F4805E1E
:100D70000895803249F49F012F5F3F4F30934B011C
:100D800020934A01EF2B31F708951F93CF93DF9300
:100D90000E94A806C0E0D0E01AE090ED980F9A30CB
:100DA000B8F49E01129FE001139FD00D1124C80FCB
:100DB000D11D87FDDA95E09780914A0190914B0112
:100DC000019690934B0180934A010E94A806E5CFBB
:100DD000CE01DF91CF911F91089510926F0083E2B1
:100DE0008093800081E1809381001092820080E1F5
:100DF00097E2909389008093880010928B00109264
:100E00008A00229A789408958F929F92AF92BF920F
:100E1000DF92EF92FF920F931F93CF93DF935C01CA
:100E20008B01D42E80914C01811105C081E080930B
:100E30004C010E94ED0610920B01B7FE05C0E8942C
:100E4000B7F82AE0F22E02C0FF24F394E09081006C
:100E50002E2D287FE22E48ECF49EC00111248A1525
:100E60009B05E0F4E50151E1A51657E2B50610F047
:100E7000C0E1D7E2BE017695679580E090E06058CA
:100E8000794687469F4F4E01A12CB12CA5019401B4
:100E90000E94FF0F59018E2D816024C0C8E2FC9E84
:100EA000C02D1124D0E0CA15DB0508F4E501BE0110
:100EB000769567959E0140E050E08AE0F81207C001
:100EC00080E090E0605E734481449F4F06C080E004
:100ED00090E060537D4E8C4E9F4F0E94FF0F590152
:100EE0008E2D8260882E2AE0F21207C0CE01059670
:100EF0006AE070E00E94D70FEB01C83E43E0D407E0
:100F000059F09801DE010E94461028EE33E040E0DF
:100F100050E00E942110890110926F0080928100A0
:100F2000B0928900A09288002091880030918900B9
:100F30004D2D403108F04FE080E190E0841B910995
:100F4000A90102C0569547958A95E2F750938B0008
:100F500040938A00109352010093510186B38FEFA2
:100F600086BB81E080936F00DF91CF911F910F913D
:100F7000FF90EF90DF90BF90AF909F908F9008957B
:100F8000CF93DF93EB018F3F11F0411105C040E09B
:100F9000BE0188EE93E043C0813130F050EF580F2E
:100FA000503618F05FE501C050E0852F6CE00E94DC
:100FB000CB0F682F74EF760390011124250F311D9C
:100FC0002C30310540F4F901EE0FFF1FEC5EFE4FAF
:100FD0002081318102C020E030E0873081F0082E8E
:100FE00002C0220F331F0A94E2F7823028F0C901B1
:100FF00005966AE070E00CC0C90190580CC0C901A8
:1010000036E0880F991F3A95E1F7029665E070E0A7
:101010000E94D70FCB01403108F04FE0BE010E9483
:101020000407DF91CF910895A2E0B0E0EAE1F8E093
:101030000C94571090900A0180914E01882321F062
:1010400060914D01611117C077247394B0ECAB2E01
:10105000BDE5BB2E1AE0612E04E0802E80EDC82E87
:1010600087E0D82E94E0E92EF12C04EF11E02FE078
:10107000422E512C15C070E040E088EE93E00E94B3
:10108000040710924D0117C18636D4F5813609F454
:10109000A9C07CF58C3309F460C08E3381F493943D
:1010A0000E94A80620914A0130914B012F5F3F4FCB
:1010B00030934B0120934A01853631F752C081327B
:1010C00009F08BC080920A01D0920901C0920801F8
:1010D000F0920701E09206011093050100930401CC
:1010E000509203014092020110924E01A4E09A2E08
:1010F000D7CF8336A1F10CF478C010E082E077C03E
:101100008D36C1F194F4873691F174F18C3609F083
:1011100064C00E94C506BC0190930701809306013C
:10112000809108019091090151C08237C9F14CF4B6
:101130008F3609F052C00E94C506982E80930A018E
:10114000AFCF843781F1863709F047C00E94C506CA
:101150009093030180930201A3CF9A94A1CF10E052
:1011600020C010E084E043C010E085E040C010E003
:1011700087E03DC00E94A8068C3619F410924E01FB
:1011800004C070924E0110924D0120914A0130919D
:101190004B012F5F3F4F30934B0120934A0180CF8B
:1011A00011E080E024C00E94C506BC01C5010E9478
:1011B000D70F669EC001679E900D11249093090180
:1011C0008093080160910601709107010E94D70F7A
:1011D000709305016093040163CF10924B0110924C
:1011E0004A0169C010E089E002C010E08BE0082FDE
:1011F0009CE0999E000D11240E94A806982F977FCD
:10120000933261F420914A0130914B012F5F3F4F9F
:1012100030934B0120934A010F5FEECF8D3271F472
:1012200020914A0130914B012F5F3F4F30934B018A
:1012300020934A0101500E94A806F0CF609104015A
:10124000709105018153883050F4E0900801F090CE
:1012500009010E94C506BC01C7010E94D70F7B018E
:10126000F694E79469837A830E94A80669817A815B
:101270008E3269F420914A0130914B012F5F3F4F2C
:1012800030934B0120934A016E0D7F1DE9CF809171
:101290004E01882339F09B013695279520934D0107
:1012A000621B710940910201112311F08FEF01C0FF
:1012B000802F0E94C0072296E0E10C9473101F92C9
:1012C0000F920FB60F9211242F933F934F935F937A
:1012D0006F937F938F939F93AF93BF93EF93FF93FE
:1012E00080915101909152019C012150310930931C
:1012F000520120935101892B11F510926F007894BF
:1013000080918100887F81608093810080E197E2F5
:10131000909389008093880010928B0010928A002D
:1013200081E080930B0180914A0190914B01892BC0
:1013300031F080915001811102C00E941408FF9188
:10134000EF91BF91AF919F918F917F916F915F913D
:101350004F913F912F910F900FBE0F901F901895B6
:1013600010926F0090934B0180934A0110924F01AD
:1013700010924D010E94140808950E94B00908952A
:1013800081E090E06F9364E06A95F1F76F910197C7
:10139000C9F708950F931F93CF93DF931AB157980E
:1013A0005A98289AC0E0D0E00E94C0095C9A0E9436
:1013B000C00909B15C980E94C0095C9A0E94C009EA
:1013C0005C98249607FF10C0AE0160E070E0809149
:1013D000530190915401A0915501B09156014817C5
:1013E00059076A077B0700F31AB9DF91CF911F9164
:1013F0000F91089595B1282F217030E0220F331FEF
:10140000482F467068E0469FA0011124242B9D7C44
:10141000292B25B99BB188708295807F9F77892B76
:101420008BB95C9A0E94C0095C980E94C00908951B
:10143000A0E0B0E0EEE1FAE00C946010C82FD62EE8
:10144000E42E80911B06811105C081E080931B066C
:101450000E945E0A0E94CA0914B1D5B1FAB00BB15C
:101460002898DD2011F05A9A01C05A9894B19263DD
:1014700094B9579A81E0E81629F08C2F82958F70E5
:101480000E94FA098C2F8F700E94FA09FAB80BB9E2
:1014900014B9D5B9CDB7DEB7E7E00C947C1042E0C3
:1014A00060E00E94180A089542E061E00E94180A74
:1014B000089541E060E00E94180A089580E197E2F3
:1014C000A0E0B0E08093530190935401A0935501A4
:1014D000B0935601529A209A549A8EE190E00E945D
:1014E000910C83E00E94590A86E090E00E94910CE2
:1014F00083E00E94590A82E090E00E94910C83E010
:101500000E94590A82E090E00E94910C82E00E94C1
:10151000590A82E090E00E94910C88E20E944F0AF2
:1015200088E00E944F0A81E00E944F0A86E00E94F4
:101530004F0A8CE00E944F0A089581E00E944F0AF2
:101540008091590190915A01892BF9F060E0A0E255
:10155000262F30E070910C0180910D0190E00197F1
:10156000789FA001799F500D1124241735074CF462
:10157000E0915901F0915A01E20FF31FA0836F5FD0
:10158000E7CF109257011092580108950E949D0ACA
:101590000895CF93DF93EC018991882319F00E947D
:1015A000540AFACFDF91CF9108950E94C90A089595
:1015B000AAE0B0E0EEEDFAE00C945F101AE05AE019
:1015C000C52ED12CE12CF12C062FA70196010E94EB
:1015D000FF0FCA01B9011150E1E0F0E0EC0FFD1F6F
:1015E000E10FF11D005D2AE0629F001911240083C4
:1015F000611571058105910539F71A3058F4E1E05C
:10160000F0E0EC0FFD1FE10FF11D80810E94540AF4
:101610001F5FF3CF2A96E8E00C947B10CF92DF9205
:10162000EF92FF926B017C0197FF0BC0F094E09466
:10163000D094C094C11CD11CE11CF11C8DE20E940D
:10164000540AC701B6010E94D80AFF90EF90DF90BC
:10165000CF9008950E940E0B0895A5E0B0E0E3E35B
:10166000FBE00C946410182F80E8898380EC8A8357
:1016700084E98B8384ED8C83FE01E60FF11D81816B
:10168000810F6D830E944F0A109357016D81609303
:1016900058012596E3E00C9480100E942D0B0895CC
:1016A000883058F491E001C0990F8A95EAF7892FA4
:1016B000AAE2B0E0EBE2F0E021C08E3060F498EFF7
:1016C000980F81E001C0880F9A95EAF7A4E2B0E094
:1016D000E5E2F0E013C0853160F492EF980F81E00D
:1016E00001C0880F9A95EAF7A7E2B0E0E8E2F0E0DF
:1016F00005C080E0A0E0B0E0E0E0F0E06F3F19F46A
:101700009081982709C0662319F09081982B04C016
:101710002081982F9095922390839C91982B9C9355
:10172000089583EF8093B00084BD82E08093B10080
:1017300085BD1092B4001092B30018BC17BC60E0D5
:1017400086E00E94500B60E085E00E94500B60E054
:101750008BE00E94500B60E083E00E94500B0895E4
:1017600080911C06811105C081E080931C060E94B7
:10177000910B0895CF93DF93EC010E94B00BD7FF3C
:1017800005C0D195C195D10981E001C080E0CF3F6E
:10179000D10519F014F0CFEFD0E0882319F018BC70
:1017A000C7BD02C0C8BD17BCDF91CF910895CF93CC
:1017B000DF93EC010E94B00BD7FF05C0D195C19516
:1017C000D10981E001C080E0CF3FD10519F014F0CC
:1017D000CFEFD0E0882329F01092B400C093B3007B
:1017E00004C0C093B4001092B300DF91CF9108956C
:1017F000CF93DF93EB010E94BA0BCE010E94D70B6F
:10180000DF91CF9108950E94F80B089584B18D7CEB
:1018100084B985B1826385B985E090E06F9364E017
:101820006A95F1F76F910197C9F7089580911D06A8
:10183000811105C081E080931D060E94060C089569
:10184000CF93C82F0E94160C83B18C23E9F38AE052
:1018500090E00E94910C83B18C23B1F383B18C236F
:10186000CF9108950E94200C0895A1E0B0E0EBE331
:10187000FCE00C94651089830E94160C93B190953E
:10188000898189232196E2E00C9481100E94350C15
:1018900008952F928F939F932FB68091620190911C
:1018A00063010196809362019093630190E08091BF
:1018B0006401891F8093640190915C019C5F909307
:1018C0005C0180915B0180519742C0F090935C0174
:1018D00080935B0180915D0190915E010196809300
:1018E0005D0190935E0190E080915F01891F80937C
:1018F0005F0180916001891F809360012FBE9F91DD
:101900008F912F90189528EE33E0019748F0F90158
:101910006F9364E06A95F1F76F913197C9F7F5CF4E
:1019200008950E94830C0895E0E7F0E080818E7FA7
:101930008083A0EBB0E08C9183608C93A1EBB0E04E
:101940008C91807F8C938C9182608C93B89A8081EB
:10195000816080837894089580911E06811105C06E
:1019600081E080931E060E94940C08950E94AC0CA6
:10197000E0E7F0E080818E7F808310925D0110921D
:101980005E0110925F011092600110925C01109252
:101990005B018081816080830895462FBC0185E6CC
:1019A00091E00E94500F08950F93CF93DF9300D0E2
:1019B00000D01F92CDB7DEB79C0185E0ECE2F1E0EC
:1019C000DE01119601900D928A95E1F7662311F0E0
:1019D0000FEF01C003E145E0BE016F5F7F4F85E679
:1019E00091E00E94A60D85E691E00E947D0D0E9487
:1019F000B60C0F900F900F900F900F90DF91CF913A
:101A00000F91089560E00E94D40C089585E691E05E
:101A10000E94AD0F08956F9364E06A95F1F76F919E
:101A20000197C9F70895FC01118210821382128276
:101A3000158214821682683068F489E290E09183FE
:101A400080838BE290E0938382838AE290E09583A7
:101A500084831FC06E3070F483E290E091838083B2
:101A600085E290E09383828384E290E0958384838F
:101A700068500FC0653198F486E290E091838083CE
:101A800088E290E09383828387E290E09583848369
:101A90006E5081E001C0880F6A95EAF78683089549
:101AA000A7E0B0E0E6E5FDE00C9463108C01FC01DA
:101AB000118210821382128215821482178216827A
:101AC000613118F080E1808702C0FC016087F80175
:101AD000208B642FCE0101960E94130D8F81F80197
:101AE00081878B819C81938782878D819E81958759
:101AF00084872796E4E00C947F10FC01A485B585CB
:101B0000109779F08C919185892B8C93A285B38560
:101B10009C918185809589238C9388EC90E00E942C
:101B20000B0D0895FC01A485B585109771F08C917B
:101B30009185892B8C93A285B3858C919185892B76
:101B40008C9388EC90E00E940B0D0895A7E0B0E024
:101B5000ECEAFDE00C9458107C014B01642F390134
:101B6000402F20E00E94500D87010F5B1F4FF801AE
:101B700010826701F2E4CF0ED11CF60110825701EA
:101B8000F3E4AF0EB11CF5011082F701778666868B
:101B9000512CF7018085581650F5652C712CF401F5
:101BA000E60DF71D6081CE0101960E94130D2F8175
:101BB000F701E60DF71D218B89819A81F301EE0F64
:101BC000FF1FEE0DFF1D92A381A38332910511F437
:101BD000F80108C08632910511F4F60103C0899717
:101BE00021F4F5018081822B80835394D2CF2796F4
:101BF000EFE00C947410A0E0B0E0E1E0FEE00C94A3
:101C00005A10EC015B016C0181E4C80ED11CF60195
:101C100080807E01F2E4EF0EF11CF70170808E01EE
:101C20000D5B1F4FF801908080E09885891748F47C
:101C3000F501E80FF11DE80FF11D118210828F5F91
:101C4000F4CF84B1F6019081892B84B987B1F70173
:101C50009081892B87B98AB1F8019081892B8AB943
:101C600085B1F6019081892B85B988B1F701908102
:101C7000892B88B98BB1F8019081892B8BB98AE0C7
:101C800090E00E940B0D94B1F6018081809589232C
:101C900084B997B1F70180818095892387B99AB17A
:101CA000F8018081809589238AB995B1F6018081F8
:101CB0008095892385B998B1F70180818095892322
:101CC00088B99BB1F8018081809589238BB9E09018
:101CD000B000D090B1008091B00083608093B000DC
:101CE00082E08093B1004091B20080E090E02E85C8
:101CF0003F858217930720F5C090B2002C2D241B3E
:101D0000820F911D03B1081132C0F6B0F7102FC039
:101D100029B129112CC010C0212F30E0A901440F96
:101D2000551FF501E40FF51F60817181672B21F1CB
:101D30001F5F2885121780F37F2C802E4C2DD7CF64
:101D4000E092B000D092B10020E08885281730F5ED
:101D5000F501E20FF11DE20FF11D80819181892BC8
:101D600021F48E859F85918380832F5FEECF03B111
:101D7000F6B099B010E0DDCFDE01A40FB51F91964B
:101D80000D90BC91A02D4C91DE01A20FB31F519676
:101D90002C91422369F691838083CACFCDB7DEB7F9
:101DA000EDE00C947610EF92FF920F931F93CF9378
:101DB000DF93FC019B01F0907C0000917A0047B119
:101DC00018B180917A0086FDFCCF80E0908589175C
:101DD00048F4D901A80FB11DA80FB11D1D921C9286
:101DE0008F5FF4CF97B182A18095892387B998B18D
:101DF00082A18095892388B987E880937A00E12CB5
:101E000081A1E81610F0E12C29C050E08085581718
:101E100018F5A52FB0E0EF01CA0FDB1F8989806498
:101E200080937C0080917A00806480937A00809116
:101E30007A0086FDFCCF6091780070917900AA0F3E
:101E4000BB1FA20FB31F8D919C911197860F971FF7
:101E50008D939C935F5FDACFE394D2CF8085E816B1
:101E6000A0F4E901CE0DD11DCE0DD11D61A170E010
:101E7000CB0195958795A881B9818A0F9B1F0E94F8
:101E8000D70F79836883E394E9CFF0927C000093C5
:101E90007A0018B947B9CDB7DEB7E6E00C947D10EB
:101EA000A0E2B0E0E6E5FFE00C9460108C017B015D
:101EB000D42E8FEF840F823018F4C8010E94920D47
:101EC000D80150968C91B701811110C0C8010E94B1
:101ED000FB0DC8010E947D0DB2E0DB123AC0BE01CD
:101EE0006F5F7F4FC8010E94FB0D0FC0C8010E94A9
:101EF000D30EC8010E947D0DE2E0DE122AC0BE01B1
:101F00006F5F7F4FC8010E94D30E40E0F8018085CB
:101F10004817F8F4842F90E0880F991FF701E80F15
:101F2000F91F21E030E02C0F3D1F820F931FD801D5
:101F30001E962D913C911F97DC018D919C91281B41
:101F4000390B80819181820F931F918380834F5F32
:101F5000DDCFA096E7E00C947C10CF93DF93EC01EB
:101F60008A819B81009711F00E9424118E819F81AC
:101F7000009711F00E94241188819981009711F037
:101F80000E9424118C819D81009711F00E942411E0
:101F9000DF91CF910895991B79E004C0991F96179E
:101FA00008F0961B881F7A95C9F780950895AA1B9B
:101FB000BB1B51E107C0AA1FBB1FA617B70710F034
:101FC000A61BB70B881F991F5A95A9F78095909566
:101FD000BC01CD01089597FB072E16F4009407D09D
:101FE00077FD09D00E94D70F07FC05D03EF49095ED
:101FF00081959F4F0895709561957F4F0895A1E257
:102000001A2EAA1BBB1BFD010DC0AA1FBB1FEE1F72
:10201000FF1FA217B307E407F50720F0A21BB30BBD
:10202000E40BF50B661F771F881F991F1A9469F739
:1020300060957095809590959B01AC01BD01CF0195
:102040000895052E97FB1EF400940E94381057FD4A
:1020500007D00E94FF0F07FC03D04EF40C943810F9
:1020600050954095309521953F4F4F4F5F4F0895C4
:1020700090958095709561957F4F8F4F9F4F0895F4
:10208000EE0FFF1F0590F491E02D0994A29FB0017F
:10209000B39FC001A39F700D811D1124911DB29F9C
:1020A000700D811D1124911D08952F923F924F9222
:1020B0005F926F927F928F929F92AF92BF92CF92D8
:1020C000DF92EF92FF920F931F93CF93DF93CDB7E1
:1020D000DEB7CA1BDB0B0FB6F894DEBF0FBECDBF59
:1020E00009942A88398848885F846E847D848C842A
:1020F0009B84AA84B984C884DF80EE80FD800C8133
:102100001B81AA81B981CE0FD11D0FB6F894DEBF15
:102110000FBECDBFED0108950F931F93CF93DF93B3
:102120008230910510F482E090E0E0912106F09178
:10213000220620E030E0A0E0B0E0309719F14081C5
:1021400051810281138148175907C8F084179507F8
:1021500069F4109731F012960C93129713961C9312
:1021600027C0009321061093220622C021153105B5
:1021700019F04217530718F49A01BD01EF01DF016E
:10218000F801DBCF21153105F9F0281B390B24307C
:10219000310580F48A819B816115710521F0FB0175
:1021A0009383828304C09093220680932106FE01CC
:1021B000329644C0FE01E20FF31F819391932250A7
:1021C0003109398328833AC020911F0630912006B7
:1021D000232B41F4209110013091110130932006FE
:1021E00020931F0620910E0130910F01211531051A
:1021F00041F42DB73EB74091120150911301241BB9
:10220000350BE0911F06F0912006E217F307A0F4CA
:102210002E1B3F0B2817390778F0AC014E5F5F4F3C
:102220002417350748F04E0F5F1F50932006409348
:102230001F068193919302C0E0E0F0E0CF01DF91AF
:10224000CF911F910F910895CF93DF93009709F4D9
:1022500081C0FC01329713821282A0912106B091B5
:102260002206109781F420813181820F931F2091E3
:102270001F06309120062817390751F5F0932006E4
:10228000E0931F0667C0ED0120E030E0CE17DF07C6
:1022900040F44A815B819E0141155105F1F0EA014C
:1022A000F5CFD383C28340815181840F951FC81716
:1022B000D90759F488819981840F951F02969183DB
:1022C00080838A819B81938382832115310529F440
:1022D000F0932206E09321063DC0E901FB83EA83E7
:1022E00049915991C40FD51FEC17FD0761F4808106
:1022F0009181840F951F0296E901998388838281D9
:1023000093819B838A83E0E0F0E012968D919C910B
:102310001397009719F0FD01DC01F7CF8D919C9187
:1023200011979D012E5F3F4F820F931F20911F0633
:10233000309120062817390769F4309729F4109254
:1023400022061092210602C013821282B093200648
:10235000A0931F06DF91CF91089510E0C4E5D0E06F
:1023600004C0FE010E9440102196C535D107C9F76F
:04237000F894FFCF0F
:1023740088130F00F4010400D007040108020000D0
:10238400230620009C01B501CF01EA0107022602C1
:10239400470269028E02B502DE020A030E0F101113
:1023A400126D560050726573732042003E3E6133D5
:0A23B400320028002C200029000050
:00000001FF
