:100000000C9485000C94AD000C94AD000C94AD00E4
:100010000C94AD000C94AD000C94AD000C94AD00AC
:100020000C94AD000C94BD100C94AD000C94AD007C
:100030000C94AD000C94D30D0C94AD000C94AD0059
:100040000C94AD000C94AD000C94AD000C94AD007C
:100050000C94AD000C94AD000C94AD000C94AD006C
:100060000C94AD000C94AD0005010201FF00FC00F2
:10007000FA000E010B01080156014E014801400132
:1000800070016C0165015E01CE02CB02C702C402A1
:10009000DC02D902D502D202520347033C033103EA
:1000A0002703720367035C03B703B103AE030404C1
:1000B000A703C903C303BD03B703B103AE03CF0353
:1000C000A703C903C303BD0353014B0145013D0110
:1000D0007F01690162015B01084AD73B3BCE016E9B
:1000E00084BCBFFDC12F3D6C74319ABD56833DDA8F
:1000F0003D00C77F11BED9E4BB4C3E916BAAAABE9E
:10010000000000803F004E087A1111241FBECFEF7F
:10011000D8E0DEBFCDBF11E0A0E0B1E0ECE5FCE24D
:1001200002C005900D92A235B107D9F726E0A2E5ED
:10013000B1E001C01D92AE31B207E1F710E0C4E8B2
:10014000D0E004C02197FE010E94B414C338D10747
:10015000C9F70E94CE070C9421160C9400002F9230
:100160003F924F925F926F927F928F929F92AF9247
:10017000BF92CF92DF92EF92FF920F931F93CF9394
:10018000DF93CDB7DEB761970FB6F894DEBF0FBE31
:10019000CDBF1C01188A9C01275F3F4F3C872B87EE
:1001A000D101ED90FC90119715962D913C911697E9
:1001B000E216F30679F412964D915C911397179617
:1001C0008D919C9118974817590721F4B889BB2342
:1001D00009F4CBC6F10165807680878090848481A4
:1001E000482F50E048305105D8F4FA01EC5CFF4F3D
:1001F0000C94B4141F8614C0F7E0FF8711C046E0CA
:100200004F870EC055E05F870BC064E06F8708C062
:1002100093E09F8705C0A2E0AF8702C0B1E0BF872F
:10022000F101A280B380A4014A195B0914161506D6
:100230003CF0052F000F000B402E000F550803C0A7
:1002400044244394512C2E193F09121613060CF422
:100250007AC6232F221F2227221F30E0CC24DD2440
:10026000C21AD30AE21AF30A90E088309105A0F589
:10027000FC01E45CFF4F0C94B414CC24C394D12C47
:10028000F3EDFD872FEF2E872FC0CC24C394D12C04
:100290001D861E8629C0CC24C394D12C4DE250E08B
:1002A0005E874D8721C0CC24C394D12C8AE590E091
:1002B0009E878D8719C0CC24C394D12C97E89D8745
:1002C0001E8612C0CC24C394D12CA4EBAD871E860D
:1002D0000BC0CC24C394D12CB1EEBD871E8604C0C4
:1002E000E6EAED87FFEFFE87C114D10479F4141418
:1002F000150464F155206CF506EA1FEF2CC026EAC0
:100300002D873FEF3E87CC24C394D12CC201B60188
:100310000E945F14072E000C880B990B0E943D0968
:100320000E94640820E030E044E353E40E94F809AE
:100330002BED3FE049E450E40E9493080E94050938
:100340008B01DD2044F40C541F4F05C00AE510E07A
:1003500002C000E010E08D859E85801B910B6DE250
:1003600070E00E945F14072E000C880B990B0E940E
:100370003D090E94650A0E9405096B0165307105FF
:100380001CF058E0C51AD1086CEFC6166FEFD60600
:100390001CF488E0C80ED11C0E943A0FB6010D2C47
:1003A000000C880B990B0E949E0F61E080E00E9478
:1003B000C10FB801012E000C880B990B0E949E0FF3
:1003C0000D32110541F15CF4033D9FEF1907D1F0A7
:1003D00001151105E1F0063A1F4F91F50FC00738DE
:1003E000110509F124F40A351105D1F029C0043BA7
:1003F0001105F1F0013E1105F9F022C084E0F10190
:1004000084831EC083E0D10114968C9319C082E0CE
:10041000F101848315C081E0D10114968C9310C042
:10042000F10114820DC087E0D10114968C9308C0AD
:1004300086E0F101848304C0E5E0D1011496EC93D9
:10044000DD20ECF46AE270E086ED9FEF0E94771009
:10045000C601992324F4882799278C199D0928EC33
:10046000AC01249FC001259F900D11240E9405110D
:1004700060E070E080E090E00E9477101FC01C14E4
:100480001D04E4F466ED7FEF8AE290E00E947710AD
:10049000C601992324F4882799278C199D0928ECF3
:1004A000DC012A9FC0012B9F900D11240E94051191
:1004B00060E070E080E090E00E94771060E070E023
:1004C00080E090E00E94771061E0CE0101960E94EA
:1004D00041118B819C81813B944050F48D819E81A0
:1004E000813B944028F48F819885813B944008F1AA
:1004F0000E943A0F8FE291E00E94490F80ED97E051
:100500000E940511D10114961C910F2EF7E0BF2E09
:10051000F02D01E06894CC24C1F80F2EF3E0DF2E1B
:10052000F02D6894EE24E2F80F2EF6E0FF2EF02D69
:100530000EC08501040D151D0E943A0F85E391E060
:100540000E94490F80ED97E00E9405112EC266EDD2
:100550007FEF8AE290E00E94771088EC90E00E94A2
:10056000051160E070E080E090E00E947710D1011A
:100570001496EC918E2F90E088309105D0F4FC0118
:10058000EC5BFF4F0C94B414F101E48219C0D1016B
:100590001496DC9215C0F101C48212C0D1011496E8
:1005A0000C930EC0F10114820BC0D1011496BC92C1
:1005B00007C0F101F48204C0E5E0D1011496EC9388
:1005C000D10114968C91181709F4CAC4602FCE017A
:1005D00001960E9441118B819C81813B944050F493
:1005E0008D819E81813B944028F48F819885813B49
:1005F000944058F00E943A0F8FE291E00E94490F18
:1006000080ED97E00E940511A2CF0E943A0F85E38A
:1006100091E00E94490F80ED97E00E940511D10101
:1006200014968C91BF858B1709F491CF482F18171A
:1006300011F0E82F01C0EF858E2F90E088309105F2
:1006400008F05BC0FC01E45BFF4F0C94B414D101D3
:1006500012960D911C91139701501109ED90FC9089
:1006600061C0F1010281138101501109E080F18024
:10067000FFEFEF1AFF0A56C0D10112960D911C919F
:100680001397ED90FC90BFEFEB1AFB0A4BC0F10102
:10069000028113810F5F1F4FE080F180FFEFEF1A9F
:1006A000FF0A40C0D10112960D911C9113970F5F64
:1006B0001F4FED90FC9036C0F101028113810F5F56
:1006C0001F4FE080F180F1E0EF1AF1082BC0D1015B
:1006D00012960D911C911397ED90FC90B1E0EB1ADE
:1006E000F10820C0F1010281138101501109E0805D
:1006F000F180F1E0EF1AF10815C0D101ED90FC9006
:10070000119712960D911C911397C12CD12C80E05A
:1007100090E050E048305105E0F5FA01EC5AFF4F07
:100720000C94B414F101808191816701C81AD90A2F
:10073000828193819801281B390BC90150E0483010
:10074000510538F5FA01E45AFF4F0C94B4140F2EFA
:10075000F6EA4F2EF02D55245A9427C0412C512CE7
:1007600024C00F2EFDE24F2E512CF02D1EC00F2E57
:10077000FAE54F2E512CF02D18C00F2EF7E84F2E12
:10078000F02D512C12C00F2EF4EB4F2EF02D512CCA
:100790000CC00F2EF1EE4F2EF02D512C06C00F2E57
:1007A000F3ED4F2EF02D55245A94C114D10461F469
:1007B0001816190694F19923B4F50F2EF6EAAF2E08
:1007C000F02DBB24BA9431C0B6010E945F14072EED
:1007D000000C880B990B0E943D090E94640820E0E0
:1007E00030E044E353E40E94F8092BED3FE049E494
:1007F00050E40E9493080E9405095B01DD20ACF4DF
:1008000034EBA30EB11C11C00F2EF3ED4F2EF02DC3
:1008100055245A94A12CB12C08C00F2EFAE5AF2E06
:10082000B12CF02D02C0A12CB12CC2018A199B0958
:100830006DE270E00E945F14072E000C880B990B8C
:100840000E943D090E94650A0E9405096B016530FE
:1008500071051CF058E0C51AD1086CEFC6166FEF91
:10086000D6061CF488E0C80ED11C0E943A0FB601CF
:100870000D2C000C880B990B0E949E0F61E080E00C
:100880000E94C10FB5010B2C000C880B990B0E9424
:100890009E0F9DE2A916B10481F174F4B3EDAB167D
:1008A000BFEFBB0609F1A114B10411F1E6EAAE16DF
:1008B000EFEFBE06B1F513C0F7E8AF16B10429F1AA
:1008C0002CF43AE5A316B104E1F02BC044EBA416D6
:1008D000B104F9F051EEA516B10401F122C084E093
:1008E000D10114968C931DC083E0F101848319C05B
:1008F00082E0D10114968C9314C081E0F1018483CD
:1009000010C0D10114961C920CC087E0F1018483C1
:1009100008C086E0D10114968C9303C025E0F10154
:100920002483DD20ECF46AE270E086ED9FEF0E9404
:100930007710C601992324F4882799278C199D09DB
:1009400028ECAC01249FC001259F900D11240E942A
:10095000051160E070E080E090E00E9477101FC019
:100960001C141D04E4F466ED7FEF8AE290E00E941F
:100970007710C601992324F4882799278C199D099B
:1009800028ECDC012A9FC0012B9F900D11240E94AE
:10099000051160E070E080E090E00E94771060E078
:1009A00070E080E090E00E9477100E943A0F8DE3A3
:1009B00091E00E94490FB7010F2C000C880B990B96
:1009C0000E949E0F8FE391E00E94490FB801012E13
:1009D000000C880B990B0E949E0F82E491E00E940C
:1009E000490F80ED97E00E940511F801EE0FFF1FFF
:1009F000EE0FFF1FE00FF11F2BE42E9DC0012F9D76
:100A0000900D1124E80FF91FEF54FE4F828193815E
:100A10008F3F9F4709F443C0F101408151812281FA
:100A20003381B901660F771F660F771F620F731F3F
:100A3000EBE4E49FC001E59F900D1124860F971F02
:100A4000FC01EF54FE4F608171814E155F0531F05E
:100A50002017310749F422E030E00BC0201731079E
:100A600031F022E030E005C023E030E002C020E0B9
:100A700030E0A801440F551F440F551F400F511F70
:100A8000EBE4EE9DC001EF9D900D1124840F951FA6
:100A9000FC01EF54FE4F260F371F31832083D10115
:100AA0008D919C9111978615970541F412968D9121
:100AB0009C9113978815990509F45BC0F101F182A7
:100AC000E0821383028364E170E084E190E00E949D
:100AD000771061E08B859C850E944111D1011B96A6
:100AE0008D919C911C97813BB4E09B0780F4F101B0
:100AF00025853685213BF4E03F0748F4D1011F9658
:100B00004D915C915097413BB4E05B07D0F0F1010F
:100B1000208131810280F381E02DCF01880F991F60
:100B2000880F991FE80FF91F4BE4429FC001439FB4
:100B3000900D1124E80FF91FEF54FE4F81E08483DC
:100B40000AC08F35914038F42F35314020F44F35AD
:100B5000514008F4BECF84E491E00E94310E84E855
:100B600093E00E94051160E070E080E090E00E9458
:100B700077109889992309F4CDC1D10115968D90EC
:100B80009C90169717968D919C911897FC01EE0FEB
:100B9000FF1FEE0FFF1FE80FF91F4BE4489D900168
:100BA000499D300D1124E20FF31FEF54FE4F2081B9
:100BB00031813E872D872115310509F443C13C0160
:100BC00024010F2EFBE4BF2EF02D7901398A288AEB
:100BD00002C03C012401A701421B530BF301EE0F9D
:100BE000FF1FEE0FFF1FE60DF71DB49C9001B59C93
:100BF000300D1124E20FF31FEF54FE4F2281338199
:100C00002417350794F4F301EE0FFF1FEE0FFF1FBB
:100C1000E60DF71DB49C9001B59C300D1124E20F38
:100C2000F31FEF54FE4F53834283FC01EE0FFF1F6F
:100C3000EE0FFF1FE80FF91FB89C9001B99C300D13
:100C40001124E20FF31FEF54FE4F20813181B401D4
:100C500061507109AC0141505109FA01EE0FFF1FBB
:100C6000EE0FFF1FE40FF51FB69ED001B79EB00D2B
:100C70001124EA0FFB1FEF54FE4F0190F081E02D8D
:100C8000E217F30734F4342EA52EC62ED72E9F017B
:100C900004C0362CA72CC42CD52CDA01AA0FBB1FFC
:100CA000AA0FBB1FA40FB51FB89CF001B99CF00D93
:100CB0001124EA0FFB1FEF54FE4F0190F081E02D4D
:100CC000E217F3072CF4342EA52EC42CD52C9F014B
:100CD000F40131968A01000F111F000F111F040F3C
:100CE000151FBE9ED001BF9EB00D1124A00FB11FD5
:100CF000AF54BE4F0D90BC91A02DA217B3072CF49A
:100D0000342EA52ECE2EDF2E9D01DC01AA0FBB1F97
:100D1000AA0FBB1FA80FB91FB69EA001B79E500D0A
:100D20001124A40FB51FAF54BE4F4D915C914217D3
:100D300053072CF4362CA72CC62ED72E9A01DC0193
:100D4000AA0FBB1FAA0FBB1FA80FB91FBE9EA001F1
:100D5000BF9E500D1124A40FB51FAF54BE4F4D912F
:100D60005C91421753072CF4362CA72CCE2EDF2E85
:100D70009A010196DC01AA0FBB1FAA0FBB1FA80F87
:100D8000B91FB69EA001B79E500D1124A40FB51F28
:100D9000AF54BE4F4D915C91421753072CF4382E3F
:100DA000A92EC62ED72E9A01BC01660F771F660F9B
:100DB000771F680F791FB89CA001B99C500D1124B2
:100DC000460F571FDA01AF54BE4F4D915C91421749
:100DD00053072CF4382EA92EC42CD52C9A01DC01F3
:100DE000AA0FBB1FAA0FBB1FA80FB91FBE9EA00151
:100DF000BF9E500D1124A40FB51FAF54BE4F4D918F
:100E00005C914217530714F44F0104C0832D9A2DAF
:100E10008C2C9D2CFC01EE0FFF1FEE0FFF1FE80F27
:100E2000F91FB89C9001B99C300D1124E20FF31FFB
:100E3000EF54FE4F208131812115310509F0C9CED3
:100E400028883988FC01EE0FFF1FEE0FFF1FE80F07
:100E5000F91F4BE4489D9001499D300D1124E20F8C
:100E6000F31FEF54FE4F228133814D855E85241799
:100E70003507A4F49C01220F331F220F331F820F6A
:100E8000931F2BE4289DF001299DF00D11248E0F56
:100E90009F1FFC01EF54FE4F53834283D1011596EF
:100EA000AC9015971696BC9016971796CC901797FE
:100EB0001896DC9001EB11E060E070E0F80180E052
:100EC00090E0E62EF72EDF012081318121153105DA
:100ED00021F4C82ED92EAE2CBF2C12964D915C91C8
:100EE000139713963C932E9312974D935C93019610
:100EF00035968F30910539F76F5F7F4F055B1F4F38
:100F00006F307105D9F6F101A582B682C782D0860D
:100F1000188A46C9D1012D913C91119715968D9152
:100F20009C9116972817390709F03AC9B1E0B88B98
:100F3000F10122813381878190852817390709F4CF
:100F40002FC9188A2DC9FFEFEF1AFF0A90E08830E9
:100F5000910508F0BEC9FC01EC59FF4F0C94B41484
:100F6000D10114964C91EF8567CB61960FB6F8943A
:100F7000DEBF0FBECDBFDF91CF911F910F91FF90CC
:100F8000EF90DF90CF90BF90AF909F908F907F9029
:100F90006F905F904F903F902F900895CF93DF9385
:100FA000CDB7DEB763970FB6F894DEBF0FBECDBFE7
:100FB0001A8219821C821B821D821F821E8283E07C
:100FC00090E09987888780ED97E00E94761160E035
:100FD00070E080E090E00E9477100F2EFFE0CF2EAF
:100FE000D12CF02D80E10E94BA10811145C082E021
:100FF0000E94BA10882341F08E819F810196B6012C
:101000000E945F149F838E8380E20E94BA1088231F
:1010100041F0888599850196B6010E945F149987F1
:10102000888708851985EE80FF800E943A0F8DE33E
:1010300091E00E94490FB701FF0C880B990B0E94A9
:101040009E0F8FE391E00E94490FB801110F880BAA
:10105000990B0E949E0F82E491E00E94490F61E08B
:1010600080E00E94C10F8AE491E00E94490F84E66B
:1010700090E00E940511B6CF80E10E94A61088EE94
:1010800093E00E940511CE0101960E94AF0060E03E
:1010900070E080E090E00E947710FFCF41EB51E0DC
:1010A0008FEF9FE7FA01455B5F4F9A019183808341
:1010B0009383828314823596E217F307B9F726E00B
:1010C0004631520779F70895DF93DD27B92FBF77AF
:1010D00040E85FE31616170648075B0718F4D92F98
:1010E0000E94F0099F938F937F936F930E94890AC8
:1010F000E8EDF0E00E9481090E94B6092F913F912E
:101100004F915F910E940B0ADD2351F09058A2EAA3
:101110002AED3FE049EC5FE3D0785D270E949E0A0C
:10112000DF910C94B6090E94A7080C94B6090E949E
:10113000AF0958F00E94A80940F029F45F3F29F058
:101140000C94780951110C94EA090C947E090E94C0
:10115000C70968F39923B1F3552391F3951B550BF8
:10116000BB27AA2762177307840738F09F5F5F4F7A
:10117000220F331F441FAA1FA9F335D00E2E3AF0B9
:10118000E0E832D091505040E695001CCAF72BD0D1
:10119000FE2F29D0660F771F881FBB1F2617370722
:1011A0004807AB07B0E809F0BB0B802DBF01FF2754
:1011B00093585F4F3AF09E3F510578F00C947809B0
:1011C0000C94EA095F3FE4F3983ED4F38695779553
:1011D0006795B795F7959F5FC9F7880F911D96950D
:1011E000879597F90895E1E0660F771F881FBB1F69
:1011F000621773078407BA0720F0621B730B840B16
:10120000BA0BEE1F88F7E09508950E940C096894C8
:10121000B1110C94EA0908950E94CF0988F09F57F4
:1012200098F0B92F9927B751B0F0E1F0660F771F0A
:10123000881F991F1AF0BA95C9F714C0B13091F000
:101240000E94E909B1E008950C94E909672F782F0D
:101250008827B85F39F0B93FCCF3869577956795C5
:10126000B395D9F73EF490958095709561957F4F31
:101270008F4F9F4F0895E89409C097FB3EF49095D7
:101280008095709561957F4F8F4F9F4F9923A9F05F
:10129000F92F96E9BB279395F695879577956795EE
:1012A000B795F111F8CFFAF4BB0F11F460FF1BC032
:1012B0006F5F7F4F8F4F9F4F16C0882311F096E9C5
:1012C00011C0772321F09EE8872F762F05C0662373
:1012D00071F096E8862F70E060E02AF09A95660F2C
:1012E000771F881FDAF7880F9695879597F90895E5
:1012F00097F99F6780E870E060E008959FEF80ECC9
:101300000895DF93CF931F930F93FF92EF92DF9295
:101310007B018C01689406C0DA2EEF010E940B0A53
:10132000FE01E894A5912591359145915591A6F33B
:10133000EF010E949E0AFE019701A801DA9469F765
:10134000DF90EF90FF900F911F91CF91DF91089563
:1013500000240A9416161706180609060895002494
:101360000A9412161306140605060895092E03940E
:10137000000C11F4882352F0BB0F40F4BF2B11F482
:1013800060FF04C06F5F7F4F8F4F9F4F089557FDE1
:101390009058440F551F59F05F3F71F04795880FE3
:1013A00097FB991F61F09F3F79F08795089512167A
:1013B00013061406551FF2CF4695F1DF08C0161626
:1013C00017061806991FF1CF8695710561050894D7
:1013D0000895E894BB2766277727CB0197F90895EE
:1013E0009B01AC0160E070E080E89FE30C949308FF
:1013F0000E940B0A0C94B6090E94A80938F00E94BA
:10140000AF0920F0952311F00C9478090C947E0913
:1014100011240C94EA090E94C70970F3959FC1F347
:10142000950F50E0551F629FF001729FBB27F00D92
:10143000B11D639FAA27F00DB11DAA1F649F6627E7
:10144000B00DA11D661F829F2227B00DA11D621F36
:10145000739FB00DA11D621F839FA00D611D221FF0
:10146000749F3327A00D611D231F849F600D211DD4
:10147000822F762F6A2F11249F5750409AF0F1F057
:1014800088234AF0EE0FFF1FBB1F661F771F881FC0
:1014900091505040A9F79E3F510580F00C94780977
:1014A0000C94EA095F3FE4F3983ED4F38695779570
:1014B0006795B795F795E7959F5FC1F7FE2B880F66
:1014C000911D9695879597F908950E94CF09E8F0A8
:1014D0009E37E8F09639B8F49E3848F4672F782F95
:1014E0008827985FF9CF8695779567959395953975
:1014F000D0F3B62FB1706B0F711D811D20F487954D
:101500007795679593950C94F30A0C940E0B0C94B5
:10151000EA099B01AC010C94F8090E94A80938F073
:101520000E94AF0920F039F49F3F19F426F40C947F
:101530007E090EF4E095E7FB0C947809E92F0E94F0
:10154000C70958F3BA17620773078407950720F095
:1015500079F4A6F50C94E9090EF4E0950B2EBA2F58
:10156000A02D0B01B90190010C01CA01A0011124A9
:10157000FF27591B99F0593F50F4503E68F11A1655
:10158000F040A22F232F342F4427585FF3CF4695E6
:1015900037952795A795F0405395C9F77EF41F1608
:1015A000BA0B620B730B840BBAF09150A1F0FF0FD2
:1015B000BB1F661F771F881FC2F70EC0BA0F621FBE
:1015C000731F841F48F4879577956795B795F795AE
:1015D0009E3F08F0B0CF9395880F08F09927EE0F43
:1015E000979587950895882371F4772321F0985073
:1015F000872B762F07C0662311F499270DC09051D1
:10160000862B70E060E02AF09A95660F771F881F9E
:10161000DAF7880F9695879597F908959F3F31F0EF
:10162000915020F4879577956795B795880F911D10
:101630009695879597F9089590915701E0915201F9
:10164000F0915301992311F0849101C080812FEB17
:10165000280F2A3110F4805E0895803249F49F01EA
:101660002F5F3F4F3093530120935201EF2B31F7FF
:1016700008951F93CF93DF930E941C0BC0E0D0E02E
:101680001AE090ED980F9A30B8F49E01129FE00195
:10169000139FD00D1124C80FD11D87FDDA95E09757
:1016A0008091520190915301019690935301809340
:1016B00052010E941C0BE5CFCE01DF91CF911F910B
:1016C000089510926F0083E28093800081E18093FF
:1016D00081001092820080E197E2909389008093CC
:1016E000880010928B0010928A00229A78940895B4
:1016F0008F929F92AF92BF92DF92EF92FF920F93E1
:101700001F93CF93DF935C018B01D42E8091540102
:10171000811105C081E0809354010E94610B1092F9
:101720000901B7FE05C0E894B7F82AE0F22E02C01E
:10173000FF24F394E09081002E2D287FE22E48ECC8
:10174000F49EC00111248A159B05E0F4E50151E1E6
:10175000A51657E2B50610F0C0E1D7E2BE017695B6
:10176000679580E090E06058794687469F4F4E012C
:10177000A12CB12CA50194010E94731459018E2D46
:10178000816024C0C8E2FC9EC02D1124D0E0CA159F
:10179000DB0508F4E501BE01769567959E0140E002
:1017A00050E08AE0F81207C080E090E0605E734489
:1017B00081449F4F06C080E090E060537D4E8C4E88
:1017C0009F4F0E94731459018E2D8260882E2AE04B
:1017D000F21207C0CE0105966AE070E00E944B1439
:1017E000EB01C83E43E0D40759F09801DE010E94A6
:1017F000BA1428EE33E040E050E00E9495148901CD
:1018000010926F0080928100B0928900A0928800AF
:1018100020918800309189004D2D403108F04FE033
:1018200080E190E0841B9109A90102C0569547957B
:101830008A95E2F750938B0040938A0010935A01E7
:101840000093590186B38FEF86BB81E080936F00D0
:10185000DF91CF911F910F91FF90EF90DF90BF909C
:10186000AF909F908F900895CF93DF93EB018F3FC0
:1018700011F0411105C040E0BE0188EE93E043C085
:10188000813130F050EF580F503618F05FE501C04D
:1018900050E0852F6CE00E943F14682F74EF7603B0
:1018A00090011124250F311D2C30310540F4F90130
:1018B000EE0FFF1FEE5EFE4F2081318102C020E05F
:1018C00030E0873081F0082E02C0220F331F0A94C7
:1018D000E2F7823028F0C90105966AE070E00CC09A
:1018E000C90190580CC0C90136E0880F991F3A957C
:1018F000E1F7029665E070E00E944B14CB014031A5
:1019000008F04FE0BE010E94780BDF91CF9108955F
:10191000A2E0B0E0EEE8FCE00C94CB14909008015B
:1019200080915601882321F060915501611117C003
:1019300077247394B0ECAB2EBDE5BB2E1AE0612E7C
:1019400004E0802E80EDC82E87E0D82E94E0E92EAA
:10195000F12C04EF11E02FE0422E512C15C070E065
:1019600040E088EE93E00E94780B1092550117C179
:101970008636D4F5813609F4A9C07CF58C3309F498
:1019800060C08E3381F493940E941C0B209152010D
:10199000309153012F5F3F4F3093530120935201F9
:1019A000853631F752C0813209F08BC08092080130
:1019B000D0920701C0920601F0920501E092040165
:1019C0001093030100930201509201014092000123
:1019D00010925601A4E09A2ED7CF8336A1F10CF4D1
:1019E00078C010E082E077C08D36C1F194F487367C
:1019F00091F174F18C3609F064C00E94390BBC017E
:101A00009093050180930401809106019091070154
:101A100051C08237C9F14CF48F3609F052C00E9490
:101A2000390B982E80930801AFCF843781F1863728
:101A300009F047C00E94390B909301018093000187
:101A4000A3CF9A94A1CF10E020C010E084E043C05F
:101A500010E085E040C010E087E03DC00E941C0B14
:101A60008C3619F41092560104C0709256011092EF
:101A7000550120915201309153012F5F3F4F309318
:101A800053012093520180CF11E080E024C00E94D6
:101A9000390BBC01C5010E944B14669EC001679EB4
:101AA000900D112490930701809306016091040129
:101AB000709105010E944B14709303016093020121
:101AC00063CF109253011092520169C010E089E077
:101AD00002C010E08BE0082F9CE0999E000D1124BD
:101AE0000E941C0B982F977F933261F42091520132
:101AF000309153012F5F3F4F309353012093520198
:101B00000F5FEECF8D3271F420915201309153016D
:101B10002F5F3F4F309353012093520101500E9499
:101B20001C0BF0CF6091020170910301815388304A
:101B300050F4E0900601F09007010E94390BBC01BF
:101B4000C7010E944B147B01F694E79469837A8362
:101B50000E941C0B69817A818E3269F420915201B6
:101B6000309153012F5F3F4F309353012093520127
:101B70006E0D7F1DE9CF80915601882339F09B01BE
:101B80003695279520935501621B710940910001FC
:101B9000112311F08FEF01C0802F0E94340C229688
:101BA000E0E10C94E7141F920F920FB60F921124EC
:101BB0002F933F934F935F936F937F938F939F9355
:101BC000AF93BF93EF93FF938091590190915A0186
:101BD0009C012150310930935A0120935901892BDE
:101BE00011F510926F00789480918100887F816058
:101BF0008093810080E197E2909389008093880030
:101C000010928B0010928A0081E0809309018091EC
:101C1000520190915301892B31F08091580181112B
:101C200002C00E94880CFF91EF91BF91AF919F91EC
:101C30008F917F916F915F914F913F912F910F9075
:101C40000FBE0F901F90189510926F009093530144
:101C50008093520110925701109255010E94880CF6
:101C600008950E94240E089581E090E06F9364E04F
:101C70006A95F1F76F910197C9F708950F931F9334
:101C8000CF93DF931AB157985A98289AC0E0D0E0C2
:101C90000E94340E5C9A0E94340E09B15C980E9436
:101CA000340E5C9A0E94340E5C98249607FF10C094
:101CB000AE0160E070E080915B0190915C01A091C9
:101CC0005D01B0915E01481759076A077B0700F371
:101CD0001AB9DF91CF911F910F91089595B1282FD7
:101CE000217030E0220F331F482F467068E0469F76
:101CF000A0011124242B9D7C292B25B99BB1887030
:101D00008295807F9F77892B8BB95C9A0E94340ED5
:101D10005C980E94340E0895A0E0B0E0E2E9FEE095
:101D20000C94D414C82FD62EE42E8091160681115F
:101D300005C081E0809316060E94D20E0E943E0EDE
:101D400014B1D5B1FAB00BB12898DD2011F05A9A30
:101D500001C05A9894B1926394B9579A81E0E816F9
:101D600029F08C2F82958F700E946E0E8C2F8F70B1
:101D70000E946E0EFAB80BB914B9D5B9CDB7DEB75B
:101D8000E7E00C94F01442E060E00E948C0E0895AD
:101D900042E061E00E948C0E089541E060E00E9404
:101DA0008C0E089580E197E2A0E0B0E080935B01A3
:101DB00090935C01A0935D01B0935E01529A209ACA
:101DC000549A8EE190E00E94051183E00E94CD0EAE
:101DD00086E090E00E94051183E00E94CD0E82E033
:101DE00090E00E94051183E00E94CD0E82E090E019
:101DF0000E94051182E00E94CD0E82E090E00E94D8
:101E0000051188E20E94C30E88E00E94C30E81E0A3
:101E10000E94C30E86E00E94C30E8CE00E94C30E97
:101E2000089581E00E94C30E80916101909162014A
:101E3000892BF9F060E0A0E2262F30E070910A01D2
:101E400080910B0190E00197789FA001799F500D40
:101E50001124241735074CF4E0916101F0916201DF
:101E6000E20FF31FA0836F5FE7CF10925F01109224
:101E7000600108950E94110F0895CF93DF93EC0144
:101E80008991882319F00E94C80EFACFDF91CF9173
:101E900008950E943D0F0895AAE0B0E0E2E5FFE05A
:101EA0000C94D3141AE05AE0C52ED12CE12CF12C5D
:101EB000062FA70196010E947314CA01B90111509F
:101EC000E1E0F0E0EC0FFD1FE10FF11D005D2AE005
:101ED000629F001911240083611571058105910528
:101EE00039F71A3058F4E1E0F0E0EC0FFD1FE10F94
:101EF000F11D80810E94C80E1F5FF3CF2A96E8E093
:101F00000C94EF14CF92DF92EF92FF926B017C0161
:101F100097FF0BC0F094E094D094C094C11CD11CE6
:101F2000E11CF11C8DE20E94C80EC701B6010E949F
:101F30004C0FFF90EF90DF90CF9008950E94820F9A
:101F40000895A5E0B0E0E7EAFFE00C94D814182F5C
:101F500080E8898380EC8A8384E98B8384ED8C8399
:101F6000FE01E60FF11D8181810F6D830E94C30E7A
:101F700010935F016D81609360012596E3E00C94FE
:101F8000F4140E94A10F0895883058F491E001C024
:101F9000990F8A95EAF7892FAAE2B0E0EBE2F0E028
:101FA00021C08E3060F498EF980F81E001C0880F57
:101FB0009A95EAF7A4E2B0E0E5E2F0E013C08531DB
:101FC00060F492EF980F81E001C0880F9A95EAF7CC
:101FD000A7E2B0E0E8E2F0E005C080E0A0E0B0E019
:101FE000E0E0F0E06F3F19F49081982709C0662384
:101FF00019F09081982B04C02081982F90959223FE
:1020000090839C91982B9C93089583EF8093B000CC
:1020100084BD82E08093B10085BD1092B40010921F
:10202000B30018BC17BC60E086E00E94C40F60E0FB
:1020300085E00E94C40F60E08BE00E94C40F60E066
:1020400083E00E94C40F089580911706811105C096
:1020500081E0809317060E9405100895CF93DF93C7
:10206000EC010E942410D7FF05C0D195C195D1097C
:1020700081E001C080E0CF3FD10519F014F0CFEF2F
:10208000D0E0882319F018BCC7BD02C0C8BD17BC7A
:10209000DF91CF910895CF93DF93EC010E9424103C
:1020A000D7FF05C0D195C195D10981E001C080E07D
:1020B000CF3FD10519F014F0CFEFD0E0882329F0FD
:1020C0001092B400C093B30004C0C093B400109247
:1020D000B300DF91CF910895CF93DF93EB010E947E
:1020E0002E10CE010E944B10DF91CF9108950E94D7
:1020F0006C10089584B18D7C84B985B1826385B9F3
:1021000085E090E06F9364E06A95F1F76F91019735
:10211000C9F7089580911806811105C081E0809368
:1021200018060E947A100895CF93C82F0E948A1033
:1021300083B18C23E9F38AE090E00E94051183B11A
:102140008C23B1F383B18C23CF9108950E94941016
:102150000895A1E0B0E0EFEAF0E10C94D91489838E
:102160000E948A1093B19095898189232196E2E09B
:102170000C94F5140E94A91008952F928F939F93A9
:102180002FB680916A0190916B01019680936A014C
:1021900090936B0190E080916C01891F80936C019A
:1021A000909164019C5F90936401809163018051E0
:1021B0009742C0F090936401809363018091650120
:1021C000909166010196809365019093660190E07D
:1021D00080916701891F8093670180916801891F41
:1021E000809368012FBE9F918F912F90189528EEB4
:1021F00033E0019748F0F9016F9364E06A95F1F7D5
:102200006F913197C9F7F5CF08950E94F71008959F
:10221000E0E7F0E080818E7F8083A0EBB0E08C91DE
:1022200083608C93A1EBB0E08C91807F8C938C9138
:1022300082608C93B89A80818160808378940895BD
:1022400080911906811105C081E0809319060E94D2
:10225000081108950E942011E0E7F0E080818E7F50
:1022600080831092650110926601109267011092AE
:102270006801109264011092630180818160808303
:102280000895462FBC018DE691E00E94C413089585
:102290000F93CF93DF9300D000D01F92CDB7DEB75E
:1022A0009C0185E0EAE2F1E0DE01119601900D92D9
:1022B0008A95E1F7662311F00FEF01C003E145E0D5
:1022C000BE016F5F7F4F8DE691E00E941A128DE68E
:1022D00091E00E94F1110E942A110F900F900F902F
:1022E0000F900F90DF91CF910F91089560E00E94C1
:1022F000481108958DE691E00E94211408956F938E
:1023000064E06A95F1F76F910197C9F70895FC01B0
:102310001182108213821282158214821682683012
:1023200068F489E290E0918380838BE290E093836C
:1023300082838AE290E0958384831FC06E3070F4BC
:1023400083E290E09183808385E290E093838283AF
:1023500084E290E09583848368500FC0653198F4DF
:1023600086E290E09183808388E290E09383828389
:1023700087E290E0958384836E5081E001C0880FEE
:102380006A95EAF786830895A7E0B0E0EAECF1E108
:102390000C94D7148C01FC011182108213821282DA
:1023A0001582148217821682613118F080E18087CD
:1023B00002C0FC016087F801208B642FCE010196DA
:1023C0000E9487118F81F80181878B819C8193877F
:1023D00082878D819E81958784872796E4E00C947F
:1023E000F314FC01A485B585109779F08C91918543
:1023F000892B8C93A285B3859C91818580958923B7
:102400008C9388EC90E00E947F110895FC01A485D4
:10241000B585109771F08C919185892B8C93A2854D
:10242000B3858C919185892B8C9388EC90E00E94E8
:102430007F110895A7E0B0E0E0E2F2E10C94CC1443
:102440007C014B01642F3901402F20E00E94C41110
:1024500087010F5B1F4FF80110826701F2E4CF0E76
:10246000D11CF60110825701F3E4AF0EB11CF50147
:102470001082F70177866686512CF7018085581601
:1024800050F5652C712CF401E60DF71D6081CE012D
:1024900001960E9487112F81F701E60DF71D218B10
:1024A00089819A81F301EE0FFF1FEE0DFF1D92A3AC
:1024B00081A38332910511F4F80108C08632910599
:1024C00011F4F60103C0899721F4F5018081822B74
:1024D00080835394D2CF2796EFE00C94E814A0E0C9
:1024E000B0E0E5E7F2E10C94CE14EC015B016C0185
:1024F00081E4C80ED11CF60180807E01F2E4EF0E6B
:10250000F11CF70170808E010D5B1F4FF801908068
:1025100080E09885891748F4F501E80FF11DE80F70
:10252000F11D118210828F5FF4CF84B1F60190818A
:10253000892B84B987B1F7019081892B87B98AB13A
:10254000F8019081892B8AB985B1F6019081892B98
:1025500085B988B1F7019081892B88B98BB1F801D1
:102560009081892B8BB98AE090E00E947F1194B111
:10257000F60180818095892384B997B1F701808124
:102580008095892387B99AB1F80180818095892344
:102590008AB995B1F60180818095892385B998B172
:1025A000F70180818095892388B99BB1F8018081EA
:1025B000809589238BB9E090B000D090B1008091D4
:1025C000B00083608093B00082E08093B1004091BE
:1025D000B20080E090E02E853F858217930720F5BA
:1025E000C090B2002C2D241B820F911D03B1081145
:1025F00032C0F6B0F7102FC029B129112CC010C07D
:10260000212F30E0A901440F551FF501E40FF51FFC
:1026100060817181672B21F11F5F2885121780F37C
:102620007F2C802E4C2DD7CFE092B000D092B100FD
:1026300020E08885281730F5F501E20FF11DE20F43
:10264000F11D80819181892B21F48E859F85918355
:1026500080832F5FEECF03B1F6B099B010E0DDCFED
:10266000DE01A40FB51F91960D90BC91A02D4C9149
:10267000DE01A20FB31F51962C91422369F691837C
:102680008083CACFCDB7DEB7EDE00C94EA14EF92A9
:10269000FF920F931F93CF93DF93FC019B01F09068
:1026A0007C0000917A0047B118B180917A0086FDD4
:1026B000FCCF80E09085891748F4D901A80FB11D9F
:1026C000A80FB11D1D921C928F5FF4CF97B182A10C
:1026D0008095892387B998B182A18095892388B98B
:1026E00087E880937A00E12C81A1E81610F0E12CB4
:1026F00029C050E08085581718F5A52FB0E0EF01EC
:10270000CA0FDB1F8989806480937C0080917A00E6
:10271000806480937A0080917A0086FDFCCF60917E
:10272000780070917900AA0FBB1FA20FB31F8D9183
:102730009C911197860F971F8D939C935F5FDACFC3
:10274000E394D2CF8085E816A0F4E901CE0DD11D27
:10275000CE0DD11D61A170E0CB0195958795A88123
:10276000B9818A0F9B1F0E944B1479836883E3947D
:10277000E9CFF0927C0000937A0018B947B9CDB741
:10278000DEB7E6E00C94F114A0E2B0E0EAECF3E18D
:102790000C94D4148C017B01D42E8FEF840F8230E3
:1027A00018F4C8010E940612D80150968C91B70106
:1027B000811110C0C8010E946F12C8010E94F1115E
:1027C000B2E0DB123AC0BE016F5F7F4FC8010E94CA
:1027D0006F120FC0C8010E944713C8010E94F11177
:1027E000E2E0DE122AC0BE016F5F7F4FC8010E9487
:1027F000471340E0F80180854817F8F4842F90E0F3
:10280000880F991FF701E80FF91F21E030E02C0F26
:102810003D1F820F931FD8011E962D913C911F974B
:10282000DC018D919C91281B390B80819181820F55
:10283000931F918380834F5FDDCFA096E7E00C94D8
:10284000F014CF93DF93EC018A819B81009711F004
:102850000E9498158E819F81009711F00E94981513
:1028600088819981009711F00E9498158C819D8133
:10287000009711F00E949815DF91CF910895991B50
:1028800079E004C0991F961708F0961B881F7A9567
:10289000C9F780950895AA1BBB1B51E107C0AA1F69
:1028A000BB1FA617B70710F0A61BB70B881F991FF1
:1028B0005A95A9F780959095BC01CD01089597FB95
:1028C000072E16F4009407D077FD09D00E944B1410
:1028D00007FC05D03EF4909581959F4F0895709523
:1028E00061957F4F0895A1E21A2EAA1BBB1BFD0123
:1028F0000DC0AA1FBB1FEE1FFF1FA217B307E407DF
:10290000F50720F0A21BB30BE40BF50B661F771F36
:10291000881F991F1A9469F7609570958095909516
:102920009B01AC01BD01CF010895052E97FB1EF45C
:1029300000940E94AC1457FD07D00E94731407FC4A
:1029400003D04EF40C94AC145095409530952195DD
:102950003F4F4F4F5F4F08959095809570956195CB
:102960007F4F8F4F9F4F0895EE0FFF1F0590F491FB
:10297000E02D0994A29FB001B39FC001A39F700DE9
:10298000811D1124911DB29F700D811D1124911D77
:1029900008952F923F924F925F926F927F928F9203
:1029A0009F92AF92BF92CF92DF92EF92FF920F93DE
:1029B0001F93CF93DF93CDB7DEB7CA1BDB0B0FB6E8
:1029C000F894DEBF0FBECDBF09942A8839884888A5
:1029D0005F846E847D848C849B84AA84B984C8843B
:1029E000DF80EE80FD800C811B81AA81B981CE0F32
:1029F000D11D0FB6F894DEBF0FBECDBFED01089517
:102A00000F931F93CF93DF938230910510F482E0F0
:102A100090E0E0911C06F0911D0620E030E0A0E07F
:102A2000B0E0309719F1408151810281138148173C
:102A30005907C8F08417950769F4109731F012967A
:102A40000C93129713961C9327C000931C061093A7
:102A50001D0622C02115310519F04217530718F43D
:102A60009A01BD01EF01DF01F801DBCF211531052E
:102A7000F9F0281B390B2430310580F48A819B81C1
:102A80006115710521F0FB019383828304C090934B
:102A90001D0680931C06FE01329644C0FE01E20F23
:102AA000F31F8193919322503109398328833AC0CF
:102AB00020911A0630911B06232B41F420910E0120
:102AC00030910F0130931B0620931A0620910C01C0
:102AD00030910D012115310541F42DB73EB74091DC
:102AE000100150911101241B350BE0911A06F09151
:102AF0001B06E217F307A0F42E1B3F0B281739071C
:102B000078F0AC014E5F5F4F2417350748F04E0F49
:102B10005F1F50931B0640931A068193919302C046
:102B2000E0E0F0E0CF01DF91CF911F910F91089588
:102B3000CF93DF93009709F481C0FC013297138291
:102B40001282A0911C06B0911D06109781F420817D
:102B50003181820F931F20911A0630911B0628178E
:102B6000390751F5F0931B06E0931A0667C0ED0193
:102B700020E030E0CE17DF0740F44A815B819E0100
:102B800041155105F1F0EA01F5CFD383C2834081AD
:102B90005181840F951FC817D90759F488819981ED
:102BA000840F951F0296918380838A819B819383F2
:102BB00082832115310529F4F0931D06E0931C064C
:102BC0003DC0E901FB83EA8349915991C40FD51FA8
:102BD000EC17FD0761F480819181840F951F0296A7
:102BE000E90199838883828193819B838A83E0E0D2
:102BF000F0E012968D919C911397009719F0FD01CA
:102C0000DC01F7CF8D919C9111979D012E5F3F4F75
:102C1000820F931F20911A0630911B06281739073F
:102C200069F4309729F410921D0610921C0602C018
:102C300013821282B0931B06A0931A06DF91CF91E4
:102C4000089510E0C4E8D0E004C0FE010E94B4146E
:0C2C50002196C538D107C9F7F894FFCFD2
:102C5C000F00F4010400D0070401080200001E0656
:102C6C0020009C01B501CF01EA01070226024702B0
:102C7C0069028E02B502DE020A030E0F1011122138
:102C8C004F425321004E4F54204F42530028002CEA
:102C9C00200029003E3E6133320020412042204377
:022CAC00200006
:00000001FF
