S01700004763634170706C69636174696F6E342E7372656358
S11300000C9455000C947D000C947D000C947D00A0
S11300100C947D000C947D000C947D000C947D0068
S11300200C947D000C9443110C947D000C947D0081
S11300300C947D000C94590E0C947D000C947D005E
S11300400C947D000C947D000C947D000C947D0038
S11300500C947D000C947D000C947D000C947D0028
S11300600C947D000C947D007C0379037603730368
S11300708803850382037F03084AD73B3BCE016E86
S113008084BCBFFDC12F3D6C74319ABD56833DDAEB
S11300903D00C77F11BED9E4BB4C3E916BAAAABEFA
S11300A0000000803F00FF07001211241FBECFEFA5
S11300B0D8E0DEBFCDBF11E0A0E0B1E0E8E6FDE2AC
S11300C002C005900D92AE38B107D9F727E0AEE82B
S11300D0B1E001C01D92AB33B207E1F710E0C4E513
S11300E0D0E004C02197FE010E943A15C335D10720
S11300F0C9F70E94C8070C94A7160C940000FC01D1
S1130100208131812F30310540F4828193818F30F9
S1130110910530F08FEF9FE708958FEF9FE70895E3
S1130120AC01440F551F840F951F880F991F4AE592
S1130130429FF001439FF00D11248E0F9F1FFC017D
S1130140E351FE4F808191810895FC0140815181EA
S11301504F305105E8F4828193818F309105D8F0B6
S11301608FEF9FE708959C01220F331F820F931F87
S1130170880F991F2AE5249FF001259FF00D112473
S11301808E0F9F1FFC01E351FE4F808191810895E2
S11301908FEF9FE70895FC01EE0FFF1FE80FF91F93
S11301A0EE0FFF1F6AE5649F9001659F300D1124D7
S11301B0E20FF31FE351FE4F25812111D4CF8FEFBE
S11301C09FE70895DC012D913C9111972F30310563
S11301D0D8F512964D915C9113974F305105E8F183
S11301E08FEF9FE70895FA01EE0FFF1FE40FF51F4D
S11301F0EE0FFF1FAAE5A29FC001A39F900D11243B
S1130200E80FF91FE351FE4F8581811120C0FB01E6
S113021080819181DC01A21BB30BFD0122F4EE2746
S1130220FF27EA1BFB0BDB0112962D913C911397E0
S1130230241B350BC901992324F488279927821B91
S1130240930B8E0F9F1F08958FEF9FE708958FEFF5
S11302509FE708958FEF9FE70895FA01EE0FFF1FC0
S1130260E40FF51FEE0FFF1FAAE5A29FC001A39F95
S1130270900D1124E80FF91FE351FE4F8481811181
S1130280E9CFB1CFDB018D919C9111978F3091050E
S1130290D8F512966D917C9113976F307105E8F142
S11302A08FEF9FE70895FB01EE0FFF1FE60FF71F87
S11302B0EE0FFF1FAAE5A89F9001A99F300D1124FE
S11302C0E20FF31FE351FE4F2581211120C0FA01F3
S11302D020813181281B390BF901FF2324F4EE27F7
S11302E0FF27E21BF30BDA0112962D913C91139731
S11302F0261B370BC901992324F488279927821BCD
S1130300930B8E0F9F1F08958FEF9FE708958FEF34
S11303109FE708958FEF9FE70895FB01EE0FFF1FFE
S1130320E60FF71FEE0FFF1FAAE5A89F9001A99FF4
S1130330300D1124E20FF31FE351FE4F24812111EC
S1130340E9CFB1CFFB01208131812F30310540F459
S1130350828193818F30910530F08FEF9FE708956C
S11303608FEF9FE70895AC01440F551F840F951F2D
S1130370880F991F4AE5429FF001439FF00D112415
S11303808E0F9F1FFC01E351FE4F808191810895E0
S1130390CF92DF92EF92FF920F931F93CF93DF934D
S11303A0EC010E94C00F0F2EFFE0EF2EF12CF02D78
S11303B080E10E944011811145C082E00E944011F9
S11303C0882341F08D819E810196B7010E94E51436
S11303D09E838D8380E20E944011882341F08F81A7
S11303E098850196B7010E94E51498878F830F8141
S11303F01885CD80DE800E94C00F81E591E00E94C7
S1130400CF0FB601DD0C880B990B0E94241083E5F5
S113041091E00E94CF0FB801110F880B990B0E9435
S1130420241086E591E00E94CF0F61E080E00E94F5
S1130430471088E591E00E94CF0F84E690E00E9487
S11304408B11B6CF80E10E942C1188EE93E00E94BC
S11304508B11DF91CF911F910F91FF90EF90DF905F
S1130460CF900895CF93DF93CDB7DEB7EA970FB659
S1130470F894DEBF0FBECDBF1C010E94C00F80E602
S113048091E00E94CF0F61E080E00E94471089E66E
S113049091E00E94CF0F9E012F5F3F4F3AA729A7FB
S11304A04E0131E1830E911CAE014F5D5F4F5CA79D
S11304B04BA759A55BAB6AA56CAB7BA57FA78CA5A5
S11304C088ABD1011996BAAFA9AF82E00E9440115E
S11304D0882331F182E00E942C116101B9E0CB0E36
S11304E0D11C7101E3E1EE0EF11C61E0C6010E9432
S11304F0C7118601D8016D917D918D0180E090E056
S11305000E94241084EF91E00E948B110E94C00F7E
S11305100E151F0579F782E791E00E94B70EE5CF2B
S113052080E10E944011882381F280E10E942C1115
S1130530C1010E94C801F1014081518182819381EE
S11305409C01220F331F820F931F880F991F2AE5E6
S1130550249FF001259FF00D11248E0F9F1FFC0195
S1130560E351FE4F11821082D1014D915C9111979C
S113057012968D919C911397BC01660F771F860F7D
S1130580971F880F991F249FF001259FF00D1124B8
S11305908E0F9F1FFC01E351FE4F81E085832FAA3C
S11305A038AEF10120813181858196812817390780
S11305B041F422813381878190852817390709F412
S11305C084CF91012B5F3F4F3EA72DA748E050E019
S11305D05EAB4DAB80E2E4E1F1E0ABA9BCA90190D4
S11305E00D928A95E1F76DA57EA58FA998AD0E941D
S11305F0E2005C01D1014D905D906D907C908E0184
S11306000F5F1F4FF101C280D380F8018089918967
S11306108C0D9D1DD101ED90FC90208131810E5FE8
S11306201F4F2E0D3F1D3AA329A39CA38BA36DA599
S11306307EA58FA598A90E94E2008A159B052CF43B
S113064049A05AA06BA07CA05C0108151905D1F63D
S11306505AAA49AA5301E414F50471F5C614D7043F
S113066059F534C4F801D10112962D913C91139798
S113067080899189820F931F4D915C9120813181F2
S11306800E5F1F4F240F351F3AA329A39CA38BA3EE
S11306906D2D7C2D8B2D9A2D0E947F008E159F052C
S11306A02CF449A05AA06BA07CA07C010815190564
S11306B0C9F65AAA49AA5301F10180819181C9A8B6
S11306C0DAA8C81AD90A828193819501281B390BAB
S11306D0C901448150E048305105B8F4FA01EC5C9A
S11306E0FF4F0C943A1503ED1FEF14C000E010E027
S11306F011C00DE210E00EC00AE510E00BC007E8DF
S113070010E008C004EB10E005C001EE10E002C0E8
S113071006EA1FEFC114D10461F4181619064CF14E
S113072099236CF50F2EF6EAEF2EF02DFF24FA94A0
S113073028C0B6010E94E514072E000C880B990B03
S11307400E94EF080E94160820E030E044E353E4DE
S11307500E94AA092BED3FE049E450E40E944508B9
S11307600E94B7087B01DD2064F434EBE30EF11C36
S113077008C00F2EFAE5EF2EF12CF02D02C0E12C6B
S1130780F12CC8018E199F096DE270E00E94E514F6
S1130790072E000C880B990B0E94EF080E94170A81
S11307A00E94B7088B016530710514F008501109D7
S11307B00C3F4FEF140714F4085F1F4F0E94C00F43
S11307C0B801012E000C880B990B0E94241061E0E3
S11307D080E00E944710B7010F2C000C880B990B86
S11307E00E9424105DE2E516F10481F174F473EDC6
S11307F0E7167FEFF70609F1E114F10411F186EA37
S1130800E8168FEFF806B9F513C097E8E916F10476
S113081029F12CF4BAE5EB16F104E1F02CC0E4EB79
S1130820EE16F104F9F0F1EEEF16F10401F123C034
S113083084E0D10114968C931EC083E0F10184837B
S11308401AC082E0D10114968C9315C081E0F101A5
S1130850848311C0D10114961C920DC027E0F101CC
S1130860248309C0E6E0D1011496EC9304C085E02A
S1130870D10114968C931123ECF46AE270E086EDB6
S11308809FEF0E94FD10C801992324F4882799271B
S1130890801B910B28ECFC012E9FC0012F9F900D13
S11308A011240E948B1160E070E080E090E00E94CF
S11308B0FD101FC010161106E4F466ED7FEF8AE206
S11308C090E00E94FD10C801992324F488279927F9
S11308D0801B910B28ECAC01249FC001259F900D37
S11308E011240E948B1160E070E080E090E00E948F
S11308F0FD1060E070E080E090E00E94FD1061E097
S11309008BA99CA90E94C7118B819C81813B944037
S113091050F48D819E81813B944028F48F81988589
S1130920813B944048F10E94C00F88E791E00E9407
S1130930CF0F80ED97E00E948B119501220F331F9A
S11309402A0D3B1D220F331F4AE5A9A9BAA94A9FC4
S1130950C0014B9F900D1124820F931FFC01E351A2
S1130960FE4F81E08483EDA9FEA93197FEABEDAB88
S1130970EF2B09F02FCE0AC00E94C00F8EE791E042
S11309800E94CF0F80ED97E00E948B1129A93AA90C
S11309903EA32DA3B8A6AFA285010E94C00F81E596
S11309A091E00E94CF0FE9A8FAA8B701FF0C880BC9
S11309B0990B0E94241083E591E00E94CF0FB501AA
S11309C00B2C000C880B990B0E94241086E591E0F7
S11309D00E94CF0F80ED97E00E948B11C501880F14
S11309E0991F8A0D9B1D880F991F4AE5E9A8FAA84B
S11309F04E9D90014F9D300D1124820F931FFC01D9
S1130A00E351FE4F85818111A2C080E2E4E1F1E06F
S1130A10ABA9BCA901900D928A95E1F7BE016B5D6B
S1130A207F4FCB010E94A5005C014DA05EA06FA08A
S1130A3078A4AE014F5F5F4F6A01F6018089918906
S1130A40800F911F2081318152E0C50ED11C2E0DE3
S1130A503F1D3AA329A39CA38BA3BE016B5D7F4FCB
S1130A60CE0181960E94A5008A159B052CF449A00D
S1130A705AA06BA07CA05C01C814D904F1F69801BB
S1130A80220F331F200F311F220F331FAAE5AE9D03
S1130A90C001AF9D900D1124820F931FFC01E351FF
S1130AA0FE4F608171819301220F331F260D371D84
S1130AB0220F331FA49DC001A59D900D1124820F08
S1130AC0931FFC01E351FE4F80819181E414F504EE
S1130AD031F00615170549F422E030E00BC0061585
S1130AE0170531F022E030E005C023E030E002C019
S1130AF020E030E0820F931F86179707A4F4A80123
S1130B00440F551F400F511F440F551F6AE56E9D3A
S1130B1090016F9D300D1124240F351FF901E3510D
S1130B20FE4F91838083C801880F991F800F911F06
S1130B30880F991F2AE52E9DF0012F9DF00D112499
S1130B408E0F9F1FFC01E351FE4F81E08583D1018D
S1130B502D913C91119715968D919C91169728177C
S1130B60390759F412962D913C91139717968D914C
S1130B709C91189728173907E1F18DA19EA1AFA187
S1130B80B8A5F10180839183A283B38363E170E00C
S1130B9083E190E00E94FD1061E089AD9AAD0E946E
S1130BA0C711D1011B968D919C911C97813BB4E098
S1130BB09B0788F4F101258536858F35914058F4DB
S1130BC02F35314040F4D1011F968D919C9150975F
S1130BD08F35914008F382E791E00E94B70E84E8D4
S1130BE093E00E948B1160E070E080E090E00E944E
S1130BF0FD10F10120813181858196812817390703
S1130C0009F0CFCC82819381478150858417950761
S1130C1009F0C7CCAC01440F551F840F951F880FF2
S1130C20991F4AE5429FF001439FF00D11248E0F56
S1130C309F1FFC01E351FE4F13821282D1011596CE
S1130C400D911D912D913C911897A02F512F0DA31B
S1130C501EA32FA338A7F1018781908525813681B2
S1130C60BC01660F771F860F971F880F991F429F3D
S1130C70B001439F700D1124860F971FFC01E351AF
S1130C80FE4FC080D180AA2EB52E0FA118A59801C1
S1130C90220F331F200F311F220F331F4A9DC00123
S1130CA04B9D900D1124820F931FFC01E351FE4FC5
S1130CB080819181009709F487C09601281B390B24
S1130CC0F801EE0FFF1FE00FF11FEE0FFF1F4AE5C3
S1130CD04A9DC0014B9D900D1124E80FF91FE3516B
S1130CE0FE4F828193818217930794F4F801EE0FEB
S1130CF0FF1FE00FF11FEE0FFF1F4A9DC0014B9D28
S1130D00900D1124E80FF91FE351FE4F3383228322
S1130D1080E2E4E1F1E0ABA9BCA901900D928A95CF
S1130D20E1F7BE016B5D7F4FCB010E94A5009EA73A
S1130D308DA74DA05EA06FA078A4BE016F5F7F4F0A
S1130D407B01F70180899189800F911F2081318176
S1130D5072E0E70EF11C2A0D3B1D3AA329A39CA3C4
S1130D608BA3BE016B5D7F4F8FA598A90E94A50040
S1130D70ADA5BEA58A179B0734F449A05AA06BA061
S1130D807CA09EA78DA78E149F04D9F64DA25EA2C7
S1130D906FA278A6A42CB52C0FA118A5F801EE0F0C
S1130DA0FF1FE00FF11FEE0FFF1FBAE5BA9DC00150
S1130DB0BB9D900D1124E80FF91FE351FE4F808174
S1130DC09181009709F079CF9801220F331F200FEA
S1130DD0311F220F331F4AE54A9DC0014B9D900DE0
S1130DE01124820F931FFC01E351FE4F82819381F2
S1130DF08C159D0574F4C9012AE52A9DF0012B9DEB
S1130E00F00D11248E0F9F1FFC01E351FE4FD3827E
S1130E10C282F101C580D680E780F0844DEE51E0B6
S1130E2020E030E0FA0180E090E0722E032FDF0131
S1130E3065816623B1F0A080B180A114B10421F4CE
S1130E40E82EF92EC72CD02E12966D917C91139713
S1130E501396BC92AE92129711967C936E9315964C
S1130E601C92019636968F30910509F72F5F3F4FFC
S1130E70465A5F4F2F303105A9F6D1011596CC9211
S1130E8015971696DC9216971796EC921797189664
S1130E90FC9218972D913C91119712968D919C91EB
S1130EA01397AC01440F551F840F951F880F991F8A
S1130EB04AE5429FF001439FF00D11248E0F9F1FBE
S1130EC0FC01E351FE4F81E085836BCB0E94C00F90
S1130ED086E891E00E94CF0F0E94C00F80E2E4E117
S1130EE0F1E0ABA9BCA901900D928A95E1F76FA935
S1130EF078AD862F972F0E947F007C01F1014080FE
S1130F005180628073808E010F5F1F4FDFA8C8ACD1
S1130F10BFA4A8A8A7CBFB01408151814F30510544
S1130F20E8F4828193818F309105D8F08FEF9FE7A9
S1130F3008959C01220F331F820F931F880F991F5E
S1130F402AE5249FF001259FF00D11248E0F9F1F89
S1130F50FC01E351FE4F8081918108958FEF9FE75B
S1130F600895FC01EE0FFF1FE80FF91FEE0FFF1F9E
S1130F706AE5649F9001659F300D1124E20FF31F11
S1130F80E351FE4F25812111D4CF8FEF9FE70895C0
S1130F90CF93DF93CDB7DEB763970FB6F894DEBF78
S1130FA00FBECDBF85E090E09A8389831C821B82AB
S1130FB01D829F838E8383E090E09987888780EDEC
S1130FC097E00E94FC1160E070E080E090E00E94F5
S1130FD0FD100E949F0B8C010E94C00FB80180E09D
S1130FE090E00E9424108BE891E00E94CF0F80EDE6
S1130FF097E00E948B11CE0101960E9432024DEEC1
S113100051E08FEF9FE7FA01465A5F4F9A019183AF
S1131010808393838283148215823696E217F307C2
S1131020B1F727E04333520771F70895DF93DD27C3
S1131030B92FBF7740E85FE31616170648075B072A
S113104018F4D92F0E94A2099F938F937F936F93D3
S11310500E943B0AE8E7F0E00E9433090E94680915
S11310602F913F914F915F910E94BD09DD2351F073
S11310709058A2EA2AED3FE049EC5FE3D0785D277F
S11310800E94500ADF910C9468090E9459080C943C
S113109068090E94610958F00E945A0940F029F435
S11310A05F3F29F00C942A0951110C949C090C946B
S11310B030090E94790968F39923B1F3552391F318
S11310C0951B550BBB27AA2762177307840738F0B3
S11310D09F5F5F4F220F331F441FAA1FA9F335D010
S11310E00E2E3AF0E0E832D091505040E695001CC4
S11310F0CAF72BD0FE2F29D0660F771F881FBB1F7E
S1131100261737074807AB07B0E809F0BB0B802D5B
S1131110BF01FF2793585F4F3AF09E3F510578F087
S11311200C942A090C949C095F3FE4F3983ED4F391
S1131130869577956795B795F7959F5FC9F7880F5B
S1131140911D9695879597F90895E1E0660F771FAD
S1131150881FBB1F621773078407BA0720F0621B3E
S1131160730B840BBA0BEE1F88F7E09508950E9469
S1131170BE086894B1110C949C0908950E948109D9
S113118088F09F5798F0B92F9927B751B0F0E1F044
S1131190660F771F881F991F1AF0BA95C9F714C0F4
S11311A0B13091F00E949B09B1E008950C949B0921
S11311B0672F782F8827B85F39F0B93FCCF386952D
S11311C077956795B395D9F73EF49095809570958A
S11311D061957F4F8F4F9F4F0895E89409C097FB07
S11311E03EF490958095709561957F4F8F4F9F4FFA
S11311F09923A9F0F92F96E9BB279395F69587953E
S113120077956795B795F111F8CFFAF4BB0F11F400
S113121060FF1BC06F5F7F4F8F4F9F4F16C08823A7
S113122011F096E911C0772321F09EE8872F762FDD
S113123005C0662371F096E8862F70E060E02AF01E
S11312409A95660F771F881FDAF7880F969587950A
S113125097F9089597F99F6780E870E060E0089532
S11312609FEF80EC0895DF93CF931F930F93FF922A
S1131270EF92DF927B018C01689406C0DA2EEF01B5
S11312800E94BD09FE01E894A591259135914591EF
S11312905591A6F3EF010E94500AFE019701A8019F
S11312A0DA9469F7DF90EF90FF900F911F91CF913F
S11312B0DF91089500240A941616170618060906E5
S11312C0089500240A9412161306140605060895B8
S11312D0092E0394000C11F4882352F0BB0F40F440
S11312E0BF2B11F460FF04C06F5F7F4F8F4F9F4F80
S11312F0089557FD9058440F551F59F05F3F71F002
S11313004795880F97FB991F61F09F3F79F0879568
S11313100895121613061406551FF2CF4695F1DFF1
S113132008C0161617061806991FF1CF8695710581
S1131330610508940895E894BB2766277727CB01B5
S113134097F908959B01AC0160E070E080E89FE3A9
S11313500C9445080E94BD090C9468090E945A091E
S113136038F00E94610920F0952311F00C942A09A9
S11313700C94300911240C949C090E94790970F38F
S1131380959FC1F3950F50E0551F629FF001729F26
S1131390BB27F00DB11D639FAA27F00DB11DAA1F35
S11313A0649F6627B00DA11D661F829F2227B00D82
S11313B0A11D621F739FB00DA11D621F839FA00D0D
S11313C0611D221F749F3327A00D611D231F849F5D
S11313D0600D211D822F762F6A2F11249F575040B4
S11313E09AF0F1F088234AF0EE0FFF1FBB1F661F2F
S11313F0771F881F91505040A9F79E3F510580F0F8
S11314000C942A090C949C095F3FE4F3983ED4F3AE
S1131410869577956795B795F795E7959F5FC1F79B
S1131420FE2B880F911D9695879597F908950E9434
S11314308109E8F09E37E8F09639B8F49E3848F40C
S1131440672F782F8827985FF9CF869577956795CA
S113145093959539D0F3B62FB1706B0F711D811D23
S113146020F487957795679593950C94A50A0C9429
S1131470C00A0C949C099B01AC010C94AA090E941B
S11314805A0938F00E94610920F039F49F3F19F499
S113149026F40C9430090EF4E095E7FB0C942A0929
S11314A0E92F0E94790958F3BA1762077307840772
S11314B0950720F079F4A6F50C949B090EF4E095B9
S11314C00B2EBA2FA02D0B01B90190010C01CA01FA
S11314D0A0011124FF27591B99F0593F50F4503EA5
S11314E068F11A16F040A22F232F342F4427585F97
S11314F0F3CF469537952795A795F0405395C9F7AF
S11315007EF41F16BA0B620B730B840BBAF0915066
S1131510A1F0FF0FBB1F661F771F881FC2F70EC005
S1131520BA0F621F731F841F48F4879577956795D8
S1131530B795F7959E3F08F0B0CF9395880F08F0C4
S11315409927EE0F979587950895882371F477234B
S113155021F09850872B762F07C0662311F4992722
S11315600DC09051862B70E060E02AF09A95660FCA
S1131570771F881FDAF7880F9695879597F908954E
S11315809F3F31F0915020F4879577956795B795F3
S1131590880F911D9695879597F90895ECE7F0E0EB
S11315A080818F7D80830895811103C00E94CE0ABB
S11315B0089580917C00806280937C0008958091DE
S11315C07C0085FB882780F908950E94DF0A882320
S11315D021F08091790090E00895809178009091B5
S11315E0790008958032A0F497E890937A0090915E
S11315F07C00662311F0906C02C09F779064907E0B
S1131600982B90937C0080917A00806480937A0078
S11316100895A0E0B0E0EFE0FBE00C945915EB0175
S113162060E00E94F20A80917A0086FDFCCF8E0170
S1131630C12CD12C760180917A00806480937A0049
S113164080917A0086FDFCCF0E94E50AC80ED91E5F
S1131650E11CF11C015011090115110561F7CE01BE
S113166096958795C034D10538F48C0D9D1DBE0127
S11316700E94D114CB010EC0A7019601280F391F77
S1131680411D511DCA01B9019E0140E050E00E9474
S1131690F914C901CDB7DEB7E8E00C947515CF9203
S11316A0DF92EF92FF92A0910001B09101019C01A1
S11316B00E9440156B017C010E94DF0A882359F0C7
S11316C0C701B60161587F4F8F4F9F4F2FEF30E016
S11316D040E050E00AC0C701B60161507E4F8F4F11
S11316E09F4F2FEF33E040E050E00E94F914C9010E
S11316F0FF90EF90DF90CF9008950E94090B0E9415
S11317004F0B08951F93CF93DF930E94DF0A182F86
S11317100E94CE0A6AE070E086E00E947D0BEC0134
S1131720812F0E94D40ACE01880F991F8C0F9D1F10
S1131730019696958795DF91CF911F9108950E9408
S1131740820B089590919301E0918E01F0918F01A5
S1131750992311F0849101C080812FEB280F2A3145
S113176010F4805E0895803249F49F012F5F3F4F4B
S113177030938F0120938E01EF2B31F708951F933F
S1131780CF93DF930E94A20BC0E0D0E01AE090ED6B
S1131790980F9A30B8F49E01129FE001139FD00D68
S11317A01124C80FD11D87FDDA95E09780918E0131
S11317B090918F01019690938F0180938E010E94E6
S11317C0A20BE5CFCE01DF91CF911F910895109226
S11317D06F0083E28093800081E180938100109206
S11317E0820080E197E290938900809388001092B0
S11317F08B0010928A00229A789408958F929F9277
S1131800AF92BF92DF92EF92FF920F931F93CF9309
S1131810DF935C018B01D42E80919001811105C06E
S113182081E0809390010E94E70B10920B01B7FEB8
S113183005C0E894B7F82AE0F22E02C0FF24F3941E
S1131840E09081002E2D287FE22E48ECF49EC0010A
S113185011248A159B05E0F4E50151E1A51657E230
S1131860B50610F0C0E1D7E2BE017695679580E039
S113187090E06058794687469F4F4E01A12CB12CC9
S1131880A50194010E94F91459018E2D816024C090
S1131890C8E2FC9EC02D1124D0E0CA15DB0508F473
S11318A0E501BE01769567959E0140E050E08AE02F
S11318B0F81207C080E090E0605E734481449F4F5B
S11318C006C080E090E060537D4E8C4E9F4F0E9496
S11318D0F91459018E2D8260882E2AE0F21207C075
S11318E0CE0105966AE070E00E94D114EB01C83E77
S11318F043E0D40759F09801DE010E94401528EE18
S113190033E040E050E00E941B15890110926F0003
S113191080928100B0928900A09288002091880072
S1131920309189004D2D403108F04FE080E190E086
S1131930841B9109A90102C0569547958A95E2F73F
S113194050938B0040938A00109396010093950165
S113195086B38FEF86BB81E080936F00DF91CF91D8
S11319601F910F91FF90EF90DF90BF90AF909F90E9
S11319708F900895CF93DF93EB018F3F11F04111C6
S113198005C040E0BE0188EE93E043C0813130F0F1
S113199050EF580F503618F05FE501C050E0852F26
S11319A06CE00E94C514682F74EF76039001112433
S11319B0250F311D2C30310540F4F901EE0FFF1FC6
S11319C0EC5CFE4F2081318102C020E030E08730A2
S11319D081F0082E02C0220F331F0A94E2F78230EE
S11319E028F0C90105966AE070E00CC0C90190585E
S11319F00CC0C90136E0880F991F3A95E1F70296A9
S1131A0065E070E00E94D114CB01403108F04FE052
S1131A10BE010E94FE0BDF91CF910895A2E0B0E0D9
S1131A20E4E1FDE00C94511590900A01809192013B
S1131A30882321F060919101611117C07724739478
S1131A40B0ECAB2EBDE5BB2E1AE0612E04E0802E77
S1131A5080EDC82E87E0D82E94E0E92EF12C04EF17
S1131A6011E02FE0422E512C15C070E040E088EECA
S1131A7093E00E94FE0B1092910117C18636D4F5B3
S1131A80813609F4A9C07CF58C3309F460C08E3327
S1131A9081F493940E94A20B20918E0130918F01C6
S1131AA02F5F3F4F30938F0120938E01853631F79E
S1131AB052C0813209F08BC080920A01D092090190
S1131AC0C0920801F0920701E0920601109305010B
S1131AD0009304015092030140920201109292017A
S1131AE0A4E09A2ED7CF8336A1F10CF478C010E08D
S1131AF082E077C08D36C1F194F4873691F174F1A8
S1131B008C3609F064C00E94BF0BBC01909307019E
S1131B1080930601809108019091090151C0823798
S1131B20C9F14CF48F3609F052C00E94BF0B982EB5
S1131B3080930A01AFCF843781F1863709F047C01B
S1131B400E94BF0B9093030180930201A3CF9A9448
S1131B50A1CF10E020C010E084E043C010E085E095
S1131B6040C010E087E03DC00E94A20B8C3619F4FF
S1131B701092920104C070929201109291012091EE
S1131B808E0130918F012F5F3F4F30938F0120934F
S1131B908E0180CF11E080E024C00E94BF0BBC0105
S1131BA0C5010E94D114669EC001679E900D112448
S1131BB090930901809308016091060170910701D7
S1131BC00E94D114709305016093040163CF1092B5
S1131BD08F0110928E0169C010E089E002C010E00C
S1131BE08BE0082F9CE0999E000D11240E94A20B0B
S1131BF0982F977F933261F420918E0130918F0159
S1131C002F5F3F4F30938F0120938E010F5FEECFF4
S1131C108D3271F420918E0130918F012F5F3F4FEF
S1131C2030938F0120938E0101500E94A20BF0CFBC
S1131C3060910401709105018153883050F4E09063
S1131C400801F09009010E94BF0BBC01C7010E946A
S1131C50D1147B01F694E79469837A830E94A20BE2
S1131C6069817A818E3269F420918E0130918F01DD
S1131C702F5F3F4F30938F0120938E016E0D7F1D98
S1131C80E9CF80919201882339F09B0136952795FD
S1131C9020939101621B710940910201112311F0FB
S1131CA08FEF01C0802F0E94BA0C2296E0E10C94C1
S1131CB06D151F920F920FB60F9211242F933F931D
S1131CC04F935F936F937F938F939F93AF93BF9340
S1131CD0EF93FF9380919501909196019C0121507F
S1131CE031093093960120939501892B11F51092B7
S1131CF06F00789480918100887F81608093810057
S1131D0080E197E2909389008093880010928B0081
S1131D1010928A0081E080930B0180918E01909152
S1131D208F01892B31F080919401811102C00E94AE
S1131D300E0DFF91EF91BF91AF919F918F917F9184
S1131D406F915F914F913F912F910F900FBE0F9024
S1131D501F90189510926F0090938F0180938E01BD
S1131D6010929301109291010E940E0D08950E9409
S1131D70AA0E089581E090E06F9364E06A95F1F70C
S1131D806F910197C9F708950F931F93CF93DF9332
S1131D901AB157985A98289AC0E0D0E00E94BA0E17
S1131DA05C9A0E94BA0E09B15C980E94BA0E5C9AC1
S1131DB00E94BA0E5C98249607FF10C0AE0160E042
S1131DC070E08091970190919801A0919901B09150
S1131DD09A01481759076A077B0700F31AB9DF917C
S1131DE0CF911F910F91089595B1282F217030E064
S1131DF0220F331F482F467068E0469FA00111242C
S1131E00242B9D7C292B25B99BB188708295807FDA
S1131E109F77892B8BB95C9A0E94BA0E5C980E94BA
S1131E20BA0E0895A0E0B0E0E8E1FFE00C945A1582
S1131E30C82FD62EE42E80913307811105C081E08E
S1131E40809333070E94580F0E94C40E14B1D5B179
S1131E50FAB00BB12898DD2011F05A9A01C05A98B3
S1131E6094B1926394B9579A81E0E81629F08C2FC3
S1131E7082958F700E94F40E8C2F8F700E94F40E46
S1131E80FAB80BB914B9D5B9CDB7DEB7E7E00C94FD
S1131E90761542E060E00E94120F089542E061E08E
S1131EA00E94120F089541E060E00E94120F08950D
S1131EB080E197E2A0E0B0E08093970190939801CD
S1131EC0A0939901B0939A01529A209A549A8EE160
S1131ED090E00E948B1183E00E94530F86E090E013
S1131EE00E948B1183E00E94530F82E090E00E94D5
S1131EF08B1183E00E94530F82E090E00E948B11CB
S1131F0082E00E94530F82E090E00E948B1188E2ED
S1131F100E94490F88E00E94490F81E00E94490F06
S1131F2086E00E94490F8CE00E94490F089581E0E9
S1131F300E94490F80919D0190919E01892BF9F097
S1131F4060E0A0E2262F30E070910C0180910D0139
S1131F5090E00197789FA001799F500D11242417D8
S1131F6035074CF4E0919D01F0919E01E20FF31FBF
S1131F70A0836F5FE7CF10929B0110929C0108959C
S1131F800E94970F0895CF93DF93EC0189918823E2
S1131F9019F00E944E0FFACFDF91CF9108950E945D
S1131FA0C30F0895AAE0B0E0E8EDFFE00C945915E2
S1131FB01AE05AE0C52ED12CE12CF12C062FA701F2
S1131FC096010E94F914CA01B9011150E1E0F0E050
S1131FD0EC0FFD1FE10FF11D005D2AE0629F001967
S1131FE011240083611571058105910539F71A30B3
S1131FF058F4E1E0F0E0EC0FFD1FE10FF11D8081EA
S11320000E944E0F1F5FF3CF2A96E8E00C947515DB
S1132010CF92DF92EF92FF926B017C0197FF0BC08E
S1132020F094E094D094C094C11CD11CE11CF11C28
S11320308DE20E944E0FC701B6010E94D20FFF909D
S1132040EF90DF90CF9008950E9408100895A5E0C6
S1132050B0E0EDE2F0E10C945E15182F80E889837E
S113206080EC8A8384E98B8384ED8C83FE01E60F04
S1132070F11D8181810F6D830E94490F10939B0193
S11320806D8160939C012596E3E00C947A150E947F
S113209027100895883058F491E001C0990F8A956B
S11320A0EAF7892FAAE2B0E0EBE2F0E021C08E303B
S11320B060F498EF980F81E001C0880F9A95EAF7D1
S11320C0A4E2B0E0E5E2F0E013C0853160F492EF01
S11320D0980F81E001C0880F9A95EAF7A7E2B0E073
S11320E0E8E2F0E005C080E0A0E0B0E0E0E0F0E08D
S11320F06F3F19F49081982709C0662319F09081E5
S1132100982B04C02081982F9095922390839C91C2
S1132110982B9C93089583EF8093B00084BD82E054
S11321208093B10085BD1092B4001092B30018BC26
S113213017BC60E086E00E944A1060E085E00E94DF
S11321404A1060E08BE00E944A1060E083E00E9445
S11321504A10089580913407811105C081E080936D
S113216034070E948B100895CF93DF93EC010E94F3
S1132170AA10D7FF05C0D195C195D10981E001C04E
S113218080E0CF3FD10519F014F0CFEFD0E08823E1
S113219019F018BCC7BD02C0C8BD17BCDF91CF91F0
S11321A00895CF93DF93EC010E94AA10D7FF05C0D6
S11321B0D195C195D10981E001C080E0CF3FD1051F
S11321C019F014F0CFEFD0E0882329F01092B40076
S11321D0C093B30004C0C093B4001092B300DF9165
S11321E0CF910895CF93DF93EB010E94B410CE01F9
S11321F00E94D110DF91CF9108950E94F2100895AA
S113220084B18D7C84B985B1826385B985E090E021
S11322106F9364E06A95F1F76F910197C9F7089598
S113222080913507811105C081E0809335070E94B4
S113223000110895CF93C82F0E94101183B18C23ED
S1132240E9F38AE090E00E948B1183B18C23B1F30F
S113225083B18C23CF9108950E941A110895A1E0AF
S1132260B0E0E5E3F1E10C945F1589830E9410115D
S113227093B19095898189232196E2E00C947B1592
S11322800E942F1108952F928F939F932FB68091C0
S1132290A6019091A70101968093A6019093A701AE
S11322A090E08091A801891F8093A8019091A001DA
S11322B09C5F9093A00180919F0180519742C0F050
S11322C09093A00180939F018091A1019091A2011C
S11322D001968093A1019093A20190E08091A301C3
S11322E0891F8093A3018091A401891F8093A40175
S11322F02FBE9F918F912F90189528EE33E0019770
S113230048F0F9016F9364E06A95F1F76F913197A2
S1132310C9F7F5CF08950E947D110895E0E7F0E034
S113232080818E7F8083A0EBB0E08C9183608C935E
S1132330A1EBB0E08C91807F8C938C9182608C9324
S1132340B89A80818160808378940895809136075B
S1132350811105C081E0809336070E948E11089593
S11323600E94A611E0E7F0E080818E7F80831092C6
S1132370A1011092A2011092A3011092A401109243
S1132380A00110929F018081816080830895462F6F
S1132390BC0189EA91E00E944A1408950F93CF93F7
S11323A0DF9300D000D01F92CDB7DEB79C0185E04B
S11323B0ECE4F1E0DE01119601900D928A95E1F7CB
S11323C0662311F00FEF01C003E145E0BE016F5F2A
S11323D07F4F89EA91E00E94A01289EA91E00E946D
S11323E077120E94B0110F900F900F900F900F90E2
S11323F0DF91CF910F91089560E00E94CE1108956E
S113240089EA91E00E94A71408956F9364E06A95A5
S1132410F1F76F910197C9F70895FC0111821082B9
S113242013821282158214821682683068F489E25B
S113243090E0918380838BE290E0938382838AE2AD
S113244090E0958384831FC06E3070F483E290E043
S11324509183808385E290E09383828384E290E099
S11324609583848368500FC0653198F486E290E0C8
S11324709183808388E290E09383828387E290E073
S1132480958384836E5081E001C0880F6A95EAF7D2
S113249086830895A7E0B0E0E0E5F2E10C945D15D1
S11324A08C01FC0111821082138212821582148223
S11324B017821682613118F080E1808702C0FC0126
S11324C06087F801208B642FCE0101960E940D12C3
S11324D08F81F80181878B819C81938782878D818D
S11324E09E81958784872796E4E00C947915FC01F6
S11324F0A485B585109779F08C919185892B8C935F
S1132500A285B3859C918185809589238C9388ECE1
S113251090E00E9405120895FC01A485B5851097EA
S113252071F08C919185892B8C93A285B3858C91C4
S11325309185892B8C9388EC90E00E940512089574
S1132540A7E0B0E0E6EAF2E10C9452157C014B01FD
S1132550642F3901402F20E00E944A1287010F5B4B
S11325601F4FF80110826701F2E4CF0ED11CF6016F
S113257010825701F3E4AF0EB11CF5011082F7018C
S113258077866686512CF7018085581650F5652CA0
S1132590712CF401E60DF71D6081CE0101960E94B5
S11325A00D122F81F701E60DF71D218B89819A8188
S11325B0F301EE0FFF1FEE0DFF1D92A381A38332E3
S11325C0910511F4F80108C08632910511F4F60161
S11325D003C0899721F4F5018081822B8083539471
S11325E0D2CF2796EFE00C946E15A0E0B0E0EBEFAD
S11325F0F2E10C945415EC015B016C0181E4C80E0A
S1132600D11CF60180807E01F2E4EF0EF11CF7018B
S113261070808E010D5B1F4FF801908080E09885DB
S1132620891748F4F501E80FF11DE80FF11D118237
S113263010828F5FF4CF84B1F6019081892B84B925
S113264087B1F7019081892B87B98AB1F80190810C
S1132650892B8AB985B1F6019081892B85B988B116
S1132660F7019081892B88B98BB1F8019081892B6E
S11326708BB98AE090E00E94051294B1F601808142
S11326808095892384B997B1F70180818095892346
S113269087B99AB1F8018081809589238AB995B167
S11326A0F60180818095892385B998B1F7018081ED
S11326B08095892388B99BB1F8018081809589230D
S11326C08BB9E090B000D090B1008091B0008360ED
S11326D08093B00082E08093B1004091B20080E02A
S11326E090E02E853F858217930720F5C090B200B5
S11326F02C2D241B820F911D03B1081132C0F6B09A
S1132700F7102FC029B129112CC010C0212F30E09F
S1132710A901440F551FF501E40FF51F6081718174
S1132720672B21F11F5F2885121780F37F2C802EE1
S11327304C2DD7CFE092B000D092B10020E0888534
S1132740281730F5F501E20FF11DE20FF11D80812C
S11327509181892B21F48E859F85918380832F5FBE
S1132760EECF03B1F6B099B010E0DDCFDE01A40FD7
S1132770B51F91960D90BC91A02D4C91DE01A20F36
S1132780B31F51962C91422369F691838083CACF5B
S1132790CDB7DEB7EDE00C947015EF92FF920F9376
S11327A01F93CF93DF93FC019B01F0907C00009179
S11327B07A0047B118B180917A0086FDFCCF80E0A1
S11327C09085891748F4D901A80FB11DA80FB11D30
S11327D01D921C928F5FF4CF97B182A180958923BB
S11327E087B998B182A18095892388B987E88093B5
S11327F07A00E12C81A1E81610F0E12C29C050E008
S11328008085581718F5A52FB0E0EF01CA0FDB1F1C
S11328108989806480937C0080917A0080648093AD
S11328207A0080917A0086FDFCCF609178007091E7
S11328307900AA0FBB1FA20FB31F8D919C91119712
S1132840860F971F8D939C935F5FDACFE394D2CF6B
S11328508085E816A0F4E901CE0DD11DCE0DD11D61
S113286061A170E0CB0195958795A881B9818A0F04
S11328709B1F0E94D11479836883E394E9CFF0927B
S11328807C0000937A0018B947B9CDB7DEB7E6E00B
S11328900C947715A0E2B0E0E0E5F4E10C945A154D
S11328A08C017B01D42E8FEF840F823018F4C80181
S11328B00E948C12D80150968C91B701811110C0DE
S11328C0C8010E94F512C8010E947712B2E0DB121F
S11328D03AC0BE016F5F7F4FC8010E94F5120FC05E
S11328E0C8010E94CD13C8010E947712E2E0DE12F3
S11328F02AC0BE016F5F7F4FC8010E94CD1340E024
S1132900F80180854817F8F4842F90E0880F991F08
S1132910F701E80FF91F21E030E02C0F3D1F820F73
S1132920931FD8011E962D913C911F97DC018D9128
S11329309C91281B390B80819181820F931F918375
S113294080834F5FDDCFA096E7E00C947615CF939C
S1132950DF93EC018A819B81009711F00E941E167F
S11329608E819F81009711F00E941E1688819981A3
S1132970009711F00E941E168C819D81009711F022
S11329800E941E16DF91CF910895991B79E004C02F
S1132990991F961708F0961B881F7A95C9F780959A
S11329A00895AA1BBB1B51E107C0AA1FBB1FA61792
S11329B0B70710F0A61BB70B881F991F5A95A9F7E4
S11329C080959095BC01CD01089597FB072E16F4D0
S11329D0009407D077FD09D00E94D11407FC05D0DC
S11329E03EF4909581959F4F0895709561957F4F22
S11329F00895A1E21A2EAA1BBB1BFD010DC0AA1F3C
S1132A00BB1FEE1FFF1FA217B307E407F50720F053
S1132A10A21BB30BE40BF50B661F771F881F991FCE
S1132A201A9469F760957095809590959B01AC0117
S1132A30BD01CF010895052E97FB1EF400940E945A
S1132A40321557FD07D00E94F91407FC03D04EF449
S1132A500C94321550954095309521953F4F4F4F2A
S1132A605F4F089590958095709561957F4F8F4F36
S1132A709F4F0895EE0FFF1F0590F491E02D0994E8
S1132A80A29FB001B39FC001A39F700D811D1124AB
S1132A90911DB29F700D811D1124911D08952F92D7
S1132AA03F924F925F926F927F928F929F92AF92DA
S1132AB0BF92CF92DF92EF92FF920F931F93CF9327
S1132AC0DF93CDB7DEB7CA1BDB0B0FB6F894DEBFBE
S1132AD00FBECDBF09942A88398848885F846E84E4
S1132AE07D848C849B84AA84B984C884DF80EE802E
S1132AF0FD800C811B81AA81B981CE0FD11D0FB637
S1132B00F894DEBF0FBECDBFED0108950F931F9360
S1132B10CF93DF938230910510F482E090E0E0914E
S1132B203907F0913A0720E030E0A0E0B0E03097B8
S1132B3019F1408151810281138148175907C8F066
S1132B408417950769F4109731F012960C93129735
S1132B5013961C9327C00093390710933A0722C099
S1132B602115310519F04217530718F49A01BD01D4
S1132B70EF01DF01F801DBCF21153105F9F0281B46
S1132B80390B2430310580F48A819B8161157105EC
S1132B9021F0FB019383828304C090933A078093CE
S1132BA03907FE01329644C0FE01E20FF31F819300
S1132BB0919322503109398328833AC020913707F1
S1132BC030913807232B41F42091100130911101E9
S1132BD0309338072093370720910E0130910F016D
S1132BE02115310541F42DB73EB7409112015091A2
S1132BF01301241B350BE0913707F0913807E217D6
S1132C00F307A0F42E1B3F0B2817390778F0AC010B
S1132C104E5F5F4F2417350748F04E0F5F1F5093E8
S1132C203807409337078193919302C0E0E0F0E0C6
S1132C30CF01DF91CF911F910F910895CF93DF932F
S1132C40009709F481C0FC01329713821282A0918B
S1132C503907B0913A07109781F420813181820FAE
S1132C60931F20913707309138072817390751F5FA
S1132C70F0933807E093370767C0ED0120E030E0B8
S1132C80CE17DF0740F44A815B819E01411551054F
S1132C90F1F0EA01F5CFD383C28340815181840FDF
S1132CA0951FC817D90759F488819981840F951FF6
S1132CB00296918380838A819B81938382832115E9
S1132CC0310529F4F0933A07E09339073DC0E9014F
S1132CD0FB83EA8349915991C40FD51FEC17FD0773
S1132CE061F480819181840F951F0296E901998393
S1132CF08883828193819B838A83E0E0F0E012964B
S1132D008D919C911397009719F0FD01DC01F7CF89
S1132D108D919C9111979D012E5F3F4F820F931FC0
S1132D2020913707309138072817390769F430970D
S1132D3029F410923A071092390702C013821282C2
S1132D40B0933807A0933707DF91CF91089510E02F
S1132D50C4E5D0E004C0FE010E943A152196C535B1
S10B2D60D107C9F7F894FFCF75
S1132D6888130F00F4010400D007040108020000CE
S1132D783B07200001000100010000000000FFFFE4
S1132D88FFFFFFFF0000FFFF01000100FFFF00003D
S1132D980100FFFF9C01B501CF01EA0107022602E9
S1132DA8470269028E02B502DE020A030E0F1011F1
S1132DB81228002C20002900204120422043200012
S1132DC841202D20546573740042202D204D6169E3
S1132DD86E003E3E61333200214F425321004E4F74
S1112DE854204F42530068657265006D56001A
S9030000FC
