S01700004763634170706C69636174696F6E342E7372656358
S11300000C9455000C947D000C947D000C947D00A0
S11300100C947D000C947D000C947D000C947D0068
S11300200C947D000C947D120C947D000C947D0046
S11300300C947D000C94930F0C947D000C947D0023
S11300400C947D000C947D000C947D000C947D0038
S11300500C947D000C947D000C947D000C947D0028
S11300600C947D000C947D00FA03F4031204B70889
S1130070BE080C0406040004084AD73B3BCE016EBC
S113008084BCBFFDC12F3D6C74319ABD56833DDAEB
S11300903D00C77F11BED9E4BB4C3E916BAAAABEFA
S11300A0000000803F0039093A1311241FBECFEF2E
S11300B0D8E0DEBFCDBF11E0A0E0B1E0ECEDFFE29F
S11300C002C005900D92A239B107D9F727E0A2E941
S11300D0B1E001C01D92A034B207E1F710E0C4E51D
S11300E0D0E004C02197FE010E947416C335D107E5
S11300F0C9F70E9402090C94E1170C940000FC015A
S1130100208131812F30310540F4828193818F30F9
S1130110910530F08FEF9FE708958FEF9FE70895E3
S1130120AC01440F551F840F951F880F991F4AE592
S1130130429FF001439FF00D11248E0F9F1FFC017D
S1130140EF50FE4F808191810895FC0140815181DF
S11301504F305105E8F4828193818F309105D8F0B6
S11301608FEF9FE708959C01220F331F820F931F87
S1130170880F991F2AE5249FF001259FF00D112473
S11301808E0F9F1FFC01EF50FE4F808191810895D7
S11301908FEF9FE70895FC01EE0FFF1FE80FF91F93
S11301A0EE0FFF1F6AE5649F9001659F300D1124D7
S11301B0E20FF31FEF50FE4F25812111D4CF8FEFB3
S11301C09FE70895DC012D913C9111972F30310563
S11301D0D8F512964D915C9113974F305105E8F183
S11301E08FEF9FE70895FA01EE0FFF1FE40FF51F4D
S11301F0EE0FFF1FAAE5A29FC001A39F900D11243B
S1130200E80FF91FEF50FE4F8581811120C0FB01DB
S113021080819181DC01A21BB30BFD0122F4EE2746
S1130220FF27EA1BFB0BDB0112962D913C911397E0
S1130230241B350BC901992324F488279927821B91
S1130240930B8E0F9F1F08958FEF9FE708958FEFF5
S11302509FE708958FEF9FE70895FA01EE0FFF1FC0
S1130260E40FF51FEE0FFF1FAAE5A29FC001A39F95
S1130270900D1124E80FF91FEF50FE4F8481811176
S1130280E9CFB1CFDB018D919C9111978F3091050E
S1130290D8F512966D917C9113976F307105E8F142
S11302A08FEF9FE70895FB01EE0FFF1FE60FF71F87
S11302B0EE0FFF1FAAE5A89F9001A99F300D1124FE
S11302C0E20FF31FEF50FE4F2581211120C0FA01E8
S11302D020813181281B390BF901FF2324F4EE27F7
S11302E0FF27E21BF30BDA0112962D913C91139731
S11302F0261B370BC901992324F488279927821BCD
S1130300930B8E0F9F1F08958FEF9FE708958FEF34
S11303109FE708958FEF9FE70895FB01EE0FFF1FFE
S1130320E60FF71FEE0FFF1FAAE5A89F9001A99FF4
S1130330300D1124E20FF31FEF50FE4F24812111E1
S1130340E9CFB1CFFB01208131812F30310540F459
S1130350828193818F30910530F08FEF9FE708956C
S11303608FEF9FE70895AC01440F551F840F951F2D
S1130370880F991F4AE5429FF001439FF00D112415
S11303808E0F9F1FFC01EF50FE4F808191810895D5
S1130390CF92DF92EF92FF920F931F93CF93DF934D
S11303A0EC010E94FA100F2EFFE0EF2EF12CF02D3D
S11303B080E10E947A12811145C082E00E947A1283
S11303C0882341F08D819E810196B7010E941F16FA
S11303D09E838D8380E20E947A12882341F08F816C
S11303E098850196B7010E941F1698878F830F8105
S11303F01885CD80DE800E94FA1081E591E00E948C
S11304000911B601DD0C880B990B0E945E1183E57E
S113041091E00E940911B801110F880B990B0E94F9
S11304205E1186E591E00E94091161E080E00E947E
S1130430811188E591E00E94091184E690E00E9410
S1130440C512B6CF80E10E94661288EE93E00E9446
S1130450C512DF91CF911F910F91FF90EF90DF9024
S1130460CF900895CF93DF93CDB7DEB7EA970FB659
S1130470F894DEBF0FBECDBF1C010E94FA1080E6C7
S113048091E00E94091161E080E00E94811189E6F7
S113049091E00E9409119E012F5F3F4F3AA729A7BF
S11304A0CE0141969CA78BA7DE019196BEA7ADA76E
S11304B0B9A5BDABEAA5EEABFDA5FFA72EA528AB5C
S11304C0C10109969AAF89AF82E00E947A1288230B
S11304D031F182E00E946612610199E0C90ED11CDB
S11304E07101A3E1EA0EF11C61E0C6010E9401134F
S11304F08601F801619171918F0180E090E00E9482
S11305005E1184EF91E00E94C5120E94FA100E154C
S11305101F0579F782E791E00E94F10FE5CF80E1B2
S11305200E947A12882381F280E10E946612C1013E
S11305300E94C801D1014D915C91119712968D9141
S11305409C9113979C01220F331F820F931F880FD6
S1130550991F2AE5249FF001259FF00D11248E0F89
S11305609F1FFC01EF50FE4F118210824D915C9150
S1130570119712968D919C911397BC01660F771F6A
S1130580860F971F880F991F249FF001259FF00D58
S113059011248E0F9F1FFC01EF50FE4F81E08583D5
S11305A02BAA3CAAF10120813181858196812817EB
S11305B0390741F4228133818781908528173907CF
S11305C009F482CF91012B5F3F4F3AAB29AB88E00E
S11305D090E098AF8FAB80E2E4E1F1E0ADA9BEA971
S11305E001900D928A95E1F769A97AA98BA99CA932
S11305F00E94E2005C01D1014D905D906D907C9071
S1130600FE0131964F01F401D1011296CD90DC9098
S1130610139780899189C80ED91E8D919C91008170
S11306201181B2E08B0E911C080F191F1AA309A3A4
S1130630DCA2CBA269A97AA98FA598A90E94E2009D
S11306407C01809137078823A1F10E94FA1081E58B
S113065091E00E940911B801110F880B990B0E94B7
S11306605E1183E591E00E940911B601DD0C880B4F
S1130670990B0E945E1186E591E00E94091161E0E8
S113068080E00E948111B7010F2C000C880B990B9C
S11306900E945E1188E791E00E940911B5010B2CBC
S11306A0000C880B990B0E945E1180EA9FE00E9467
S11306B0C512EA14FB042CF449A05AA06BA07CA038
S11306C05701EBA5FCA58E169F0609F09CCF10924E
S11306D0370772018301D1018D919C911197841583
S11306E0950509F037C512962D913C91139726155F
S11306F0370509F070C007C5F501D10112968D9038
S11307009C90139780899189880E991E8D919C9154
S113071000811181B2E0AB0EB11C080F191F1AA39E
S113072009A39CA28BA26BA97CA98FA598A90E945E
S11307307F006C01809137078823A1F10E94FA1091
S113074081E591E00E940911B801110F880B990B02
S11307500E945E1183E591E00E940911B401990C95
S1130760880B990B0E945E1186E591E00E940911A5
S113077061E080E00E948111B6010D2C000C880B11
S1130780990B0E945E1188E791E00E940911B7015C
S11307900F2C000C880B990B0E945E1180EA9FE0DD
S11307A00E94C512CE14DF042CF449A05AA06BA0F9
S11307B07CA07601EBA5FCA5AE16BF0609F09CCF84
S11307C010923707C2018301D1012D913C91241568
S11307D0350509F0BEC4F1012281338120173107A8
S11307E009F429C17C01B6C40F2EFDE2CF2ED12C11
S11307F0F02D1AC00F2EFAE5CF2ED12CF02D14C0F7
S11308000F2EF7E8CF2EF02DD12C0EC00F2EF4EBC7
S1130810CF2EF02DD12C08C00F2EF1EECF2EF02DBF
S1130820D12C02C0C12CD12CD1018D919C91119756
S11308304701881A990A12968D919C911397F80191
S1130840E81BF90BCF018114910461F41E161F06F5
S11308504CF1FF236CF50F2EF6EAAF2EF02DBB24DE
S1130860BA9428C0B4010E941F16072E000C880BEE
S1130870990B0E94290A0E94500920E030E044E3C9
S113088053E40E94E40A2BED3FE049E450E40E9463
S11308907F090E94F1095B01992064F4F4EBAF0E27
S11308A0B11C08C00F2EFAE5AF2EB12CF02D02C0FA
S11308B0A12CB12CC6018A199B096DE270E00E943B
S11308C01F16072E000C880B990B0E94290A0E9400
S11308D0510B0E94F1096B01653071051CF038E081
S11308E0C31AD1084CEFC4164FEFD4061CF468E0C9
S11308F0C60ED11C0E94FA10B6010D2C000C880BF8
S1130900990B0E945E1161E080E00E948111B501A3
S11309100B2C000C880B990B0E945E118DE2A8161B
S1130920B10481F174F4A3EDAA16AFEFBA0609F18C
S1130930A114B10411F1B6EAAB16BFEFBB06B1F5D1
S113094013C0E7E8AE16B10429F12CF42AE5A21687
S1130950B104E1F02BC034EBA316B104F9F041EE7D
S1130960A416B10401F122C084E0D10114968C9341
S11309701DC083E0F101848319C082E0D101149683
S11309808C9314C081E0F101848310C0D1011496CA
S11309901C920CC027E0F101248308C086E0D10139
S11309A014968C9303C085E0F1018483DD20ECF47C
S11309B06AE270E086ED9FEF0E943712C601992328
S11309C024F4882799278C199D0948EC9C01429F9F
S11309D0C001439F900D11240E94C51260E070E095
S11309E080E090E00E9437121FC01C141D04E4F440
S11309F066ED7FEF8AE290E00E943712C6019923E8
S1130A0024F4882799278C199D09E8ECDC01EA9FD6
S1130A10C001EB9F900D11240E94C51260E070E0AC
S1130A2080E090E00E94371260E070E080E090E0A7
S1130A300E94371201C07C0161E08DA99EA90E9429
S1130A4001138B819C81813B944050F48D819E8164
S1130A50813B944028F48F819885813B944038F100
S1130A600E94FA108CE791E00E94091188EE93E04D
S1130A700E94C5129801220F331F200F311F220F2D
S1130A80331F4AE54E9DC0014F9D900D1124820FE6
S1130A90931FFC01EF50FE4F81E084838FA998AD32
S1130AA0019798AF8FAB892B09F095CD0AC00E94AE
S1130AB0FA1082E891E00E94091188EE93E00E9406
S1130AC0C512FEA2EDA218A70FA30E94FA1081E599
S1130AD091E00E940911B701FF0C880B990B0E9449
S1130AE05E1183E591E00E940911B801110F880B92
S1130AF0990B0E945E1186E591E00E94091188EE2F
S1130B0093E00E94C5128FA198A52DA13EA1AC012E
S1130B10440F551F840F951F880F991F4AE5429F64
S1130B20F001439FF00D11248E0F9F1FFC01EF5025
S1130B30FE4F85818111E6C080E2E4E1F1E0ADA9D8
S1130B40BEA901900D928A95E1F7BE016B5D7F4FBE
S1130B50CB010E94A5004C014DA05EA06FA078A41B
S1130B60DE0111966D01F601AFA0B8A480899189C8
S1130B70A80EB91E0DA11EA180819181B2E0CB0EF9
S1130B80D11C080F191F1AA309A3BCA2ABA2BE0152
S1130B906B5D7F4FCE0181960E94A5007C01809100
S1130BA037078823A1F10E94FA1081E591E00E94A1
S1130BB00911B801110F880B990B0E945E1183E58E
S1130BC091E00E940911B501BB0C880B990B0E949E
S1130BD05E1186E591E00E94091161E080E00E94C7
S1130BE08111B7010F2C000C880B990B0E945E1128
S1130BF088E791E00E940911B401092C000C880BCC
S1130C00990B0E945E1180EA9FE00E94C512E814CD
S1130C10F9042CF449A05AA06BA07CA04701EBA5D1
S1130C20FCA5CE16DF0609F09ECF109237076DA102
S1130C307EA18FA198A5AC01440F551F480F591FE1
S1130C40440F551F1AE5169F9001179F300D11246C
S1130C50240F351FD901AF50BE4FED90FC90A30176
S1130C60440F551F460D571D440F551F149D9001E9
S1130C70159D300D1124240F351F2F503E4FD901DF
S1130C802D913C916415750531F08615970549F44D
S1130C9042E050E00BC08615970531F042E050E089
S1130CA005C043E050E002C040E050E0240F351F8F
S1130CB02E153F059CF4FC01EE0FFF1FE80FF91FF2
S1130CC0EE0FFF1FAAE5A69FA001A79F500D1124B8
S1130CD0E40FF51FEF50FE4F318320839C01220F58
S1130CE0331F820F931F880F991F2AE5269FF00157
S1130CF0279FF00D11248E0F9F1FFC01EF50FE4F14
S1130D0081E08583F10120813181858196812817D5
S1130D10390739F42281338187819085281739076F
S1130D20E1F18DA19EA1AFA1B8A5F10180839183CA
S1130D30A283B38363E170E083E190E00E94371201
S1130D4061E089AD9AAD0E940113D1011B968D918A
S1130D509C911C97813BB4E09B0788F4F1012585A5
S1130D6036858F35914058F42F35314040F4D10108
S1130D701F968D919C9150978F35914008F382E78F
S1130D8091E00E94F10F84E893E00E94C51260E0B4
S1130D9070E080E090E00E943712F10120813181FF
S1130DA0858196812817390709F0FCCB82819381CC
S1130DB0478150858417950709F0F4CBAC01440FA3
S1130DC0551F840F951F880F991F6AE5629FF001D4
S1130DD0639FF00D11248E0F9F1FFC01EF50FE4FF7
S1130DE013821282F10185819681A781B085582FE3
S1130DF0492F8DA39EA3AFA3B8A787819085258192
S1130E003681FC01EE0FFF1F8E0F9F1F880F991F65
S1130E10629FF001639FF00D11248E0F9F1FFC0150
S1130E20EF50FE4FA080B180252F342F8FA198A5BD
S1130E30FC01EE0FFF1FE80FF91FEE0FFF1F629F6B
S1130E40A001639F500D1124E40FF51FEF50FE4FD6
S1130E50408151814115510509F4CCC0B501641B91
S1130E60750BFC01EE0FFF1FE80FF91FEE0FFF1FBC
S1130E70AAE5A29FA001A39F500D1124E40FF51F22
S1130E80EF50FE4F4281538146175707A4F4AC013B
S1130E90440F551F840F951FFC01EE0FFF1FA29FE7
S1130EA0C001A39F900D11248E0F9F1FFC01EF50D2
S1130EB0FE4F7383628380E2E4E1F1E0ADA9BEA951
S1130EC001900D928A95E1F7BE016B5D7F4FCB01D6
S1130ED00E94A5006C014DA05EA06FA078A4FE0145
S1130EE031964F01F4012FA138A5808991897901A8
S1130EF0E80EF91E0DA11EA180819181F2E08F0EF2
S1130F00911C080F191F1AA309A3FCA2EBA2BE018E
S1130F106B5D7F4F8FA598A90E94A5009AAB89AB02
S1130F20809137078823A9F10E94FA1081E591E0A6
S1130F300E940911B801110F880B990B0E945E11D0
S1130F4083E591E00E940911B701FF0C880B990B0E
S1130F500E945E1186E591E00E94091161E080E043
S1130F600E94811129A93AA9B901330F880B990B61
S1130F700E945E1188E791E00E940911B6010D2CD0
S1130F80000C880B990B0E945E1180EA9FE00E947E
S1130F90C51289A99AA98C159D052CF449A05AA0BB
S1130FA06BA07CA06C01ABA5BCA58A169B0609F0BE
S1130FB099CF109237074DA25EA26FA278A6242D76
S1130FC0352D8FA198A5FC01EE0FFF1FE80FF91F27
S1130FD0EE0FFF1FBAE5B29FA001B39F500D11247D
S1130FE0E40FF51FEF50FE4F40815181411551052B
S1130FF009F034CFFC01EE0FFF1FE80FF91FEE0FCD
S1131000FF1F6AE5629FA001639F500D1124E40F46
S1131010F51FEF50FE4F428153814A155B05A4F43E
S1131020AC01440F551F840F951F880F991F4AE583
S1131030429FF001439FF00D11248E0F9F1FFC016E
S1131040EF50FE4FB382A282F101C580D680E780C3
S1131050F08441EF51E020E030E0FA0180E090E0DC
S1131060922E032FDF0165816623B1F0A080B18049
S1131070A114B10421F4E82EF92EC92CD02E129615
S11310806D917C9113971396BC92AE921297119620
S11310907C936E9315961C92019636968F3091052B
S11310A009F72F5F3F4F465A5F4F2F303105A9F69E
S11310B0D1011596CC9215971696DC921697179631
S11310C0EC9217971896FC92189741E040933707D3
S11310D02D913C91119712968D919C911397BC017F
S11310E0660F771F860F971F880F991F5AE5529F27
S11310F0F001539FF00D11248E0F9F1FFC01EF5040
S1131100FE4F45834FCA0E94FA108AE891E00E947C
S1131110091188EE93E00E94C5120E94FA1080E241
S1131120E4E1F1E0ADA9BEA901900D928A95E1F741
S11311306BA97CA9862F972F0E947F007C01F10167
S113114040805180628073809E012F5F3F4F590120
S1131150D3CA7201D10114968C9190E08830910524
S113116008F05ACBFC01EC5CFF4F0C9474160F2E64
S1131170F3EDCF2EF02DDD24DA9456CB0F2EF6EAC4
S1131180CF2EF02DDD24DA944FCBFB014081518129
S11311904F305105E8F4828193818F309105D8F066
S11311A08FEF9FE708959C01220F331F820F931F37
S11311B0880F991F2AE5249FF001259FF00D112423
S11311C08E0F9F1FFC01EF50FE4F80819181089587
S11311D08FEF9FE70895FC01EE0FFF1FE80FF91F43
S11311E0EE0FFF1F6AE5649F9001659F300D112487
S11311F0E20FF31FEF50FE4F25812111D4CF8FEF63
S11312009FE70895CF93DF93CDB7DEB763970FB60B
S1131210F894DEBF0FBECDBF85E090E09A8389834A
S11312201C821B821D829F838E8383E090E09987BA
S1131230888780ED97E00E94361360E070E080E0DC
S113124090E00E9437120E94D90C8C010E94FA107F
S1131250B80180E090E00E945E118FE891E00E9466
S1131260091188EE93E00E94C512CE0101960E94F6
S1131270320241EF51E08FEF9FE7FA01465A5F4F88
S11312809A01918380839383828314821582369694
S1131290E217F307B1F727E04733520771F70895D0
S11312A0DF93DD27B92FBF7740E85FE316161706F3
S11312B048075B0718F4D92F0E94DC0A9F938F9389
S11312C07F936F930E94750BE8E7F0E00E946D0A2C
S11312D00E94A20A2F913F914F915F910E94F70AB9
S11312E0DD2351F09058A2EA2AED3FE049EC5FE398
S11312F0D0785D270E948A0BDF910C94A20A0E9489
S113130093090C94A20A0E949B0A58F00E94940A22
S113131040F029F45F3F29F00C94640A51110C94B5
S1131320D60A0C946A0A0E94B30A68F39923B1F3AB
S1131330552391F3951B550BBB27AA2762177307F7
S1131340840738F09F5F5F4F220F331F441FAA1F8B
S1131350A9F335D00E2E3AF0E0E832D09150504047
S1131360E695001CCAF72BD0FE2F29D0660F771FF5
S1131370881FBB1F261737074807AB07B0E809F0DB
S1131380BB0B802DBF01FF2793585F4F3AF09E3F60
S1131390510578F00C94640A0C94D60A5F3FE4F388
S11313A0983ED4F3869577956795B795F7959F5FA3
S11313B0C9F7880F911D9695879597F90895E1E0EF
S11313C0660F771F881FBB1F621773078407BA074E
S11313D020F0621B730B840BBA0BEE1F88F7E095A9
S11313E008950E94F8096894B1110C94D60A0895DE
S11313F00E94BB0A88F09F5798F0B92F9927B751DC
S1131400B0F0E1F0660F771F881F991F1AF0BA95A4
S1131410C9F714C0B13091F00E94D50AB1E0089523
S11314200C94D50A672F782F8827B85F39F0B93F15
S1131430CCF3869577956795B395D9F73EF4909557
S11314408095709561957F4F8F4F9F4F0895E894D5
S113145009C097FB3EF490958095709561957F4FF8
S11314608F4F9F4F9923A9F0F92F96E9BB279395A6
S1131470F695879577956795B795F111F8CFFAF4B6
S1131480BB0F11F460FF1BC06F5F7F4F8F4F9F4FE7
S113149016C0882311F096E911C0772321F09EE845
S11314A0872F762F05C0662371F096E8862F70E0AB
S11314B060E02AF09A95660F771F881FDAF7880F85
S11314C09695879597F9089597F99F6780E870E056
S11314D060E008959FEF80EC0895DF93CF931F930E
S11314E00F93FF92EF92DF927B018C01689406C008
S11314F0DA2EEF010E94F70AFE01E894A5912591E6
S1131500359145915591A6F3EF010E948A0BFE0196
S11315109701A801DA9469F7DF90EF90FF900F919B
S11315201F91CF91DF91089500240A94161617068F
S113153018060906089500240A94121613061406C0
S113154005060895092E0394000C11F4882352F023
S1131550BB0F40F4BF2B11F460FF04C06F5F7F4FDB
S11315608F4F9F4F089557FD9058440F551F59F0C2
S11315705F3F71F04795880F97FB991F61F09F3F7C
S113158079F087950895121613061406551FF2CFA5
S11315904695F1DF08C0161617061806991FF1CFF5
S11315A086957105610508940895E894BB2766271C
S11315B07727CB0197F908959B01AC0160E070E0B7
S11315C080E89FE30C947F090E94F70A0C94A20A16
S11315D00E94940A38F00E949B0A20F0952311F08F
S11315E00C94640A0C946A0A11240C94D60A0E947E
S11315F0B30A70F3959FC1F3950F50E0551F629F96
S1131600F001729FBB27F00DB11D639FAA27F00D57
S1131610B11DAA1F649F6627B00DA11D661F829F7E
S11316202227B00DA11D621F739FB00DA11D621F63
S1131630839FA00D611D221F749F3327A00D611D80
S1131640231F849F600D211D822F762F6A2F112462
S11316509F5750409AF0F1F088234AF0EE0FFF1F95
S1131660BB1F661F771F881F91505040A9F79E3FEC
S1131670510580F00C94640A0C94D60A5F3FE4F39D
S1131680983ED4F3869577956795B795F795E79542
S11316909F5FC1F7FE2B880F911D9695879597F94B
S11316A008950E94BB0AE8F09E37E8F09639B8F432
S11316B09E3848F4672F782F8827985FF9CF86954E
S11316C07795679593959539D0F3B62FB1706B0FD5
S11316D0711D811D20F487957795679593950C94DA
S11316E0DF0B0C94FA0B0C94D60A9B01AC010C94FE
S11316F0E40A0E94940A38F00E949B0A20F039F40C
S11317009F3F19F426F40C946A0A0EF4E095E7FB63
S11317100C94640AE92F0E94B30A58F3BA176207BB
S113172073078407950720F079F4A6F50C94D50A7D
S11317300EF4E0950B2EBA2FA02D0B01B9019001E8
S11317400C01CA01A0011124FF27591B99F0593F2C
S113175050F4503E68F11A16F040A22F232F342F74
S11317604427585FF3CF469537952795A795F040C2
S11317705395C9F77EF41F16BA0B620B730B840BD7
S1131780BAF09150A1F0FF0FBB1F661F771F881F8F
S1131790C2F70EC0BA0F621F731F841F48F48795E7
S11317A077956795B795F7959E3F08F0B0CF9395D9
S11317B0880F08F09927EE0F979587950895882349
S11317C071F4772321F09850872B762F07C0662376
S11317D011F499270DC09051862B70E060E02AF037
S11317E09A95660F771F881FDAF7880F9695879565
S11317F097F908959F3F31F0915020F4879577959C
S11318006795B795880F911D9695879597F90895D3
S1131810ECE7F0E080818F7D80830895811103C01F
S11318200E94080C089580917C00806280937C0063
S1131830089580917C0085FB882780F908950E9493
S1131840190C882321F08091790090E0089580910B
S113185078009091790008958032A0F497E89093ED
S11318607A0090917C00662311F0906C02C09F77FF
S11318709064907E982B90937C0080917A00806491
S113188080937A000895A0E0B0E0E9E4FCE00C94D1
S11318909316EB0160E00E942C0C80917A0086FD87
S11318A0FCCF8E01C12CD12C760180917A0080640A
S11318B080937A0080917A0086FDFCCF0E941F0CF1
S11318C0C80ED91EE11CF11C0150110901151105A6
S11318D061F7CE0196958795C034D10538F48C0D07
S11318E09D1DBE010E940B16CB010EC0A7019601DF
S11318F0280F391F411D511DCA01B9019E0140E045
S113190050E00E943316C901CDB7DEB7E8E00C946D
S1131910AF16CF92DF92EF92FF92A0910001B091A7
S113192001019C010E947A166B017C010E94190C32
S1131930882359F0C701B60161587F4F8F4F9F4FDD
S11319402FEF30E040E050E00AC0C701B60161501B
S11319507E4F8F4F9F4F2FEF33E040E050E00E94C7
S11319603316C901FF90EF90DF90CF9008950E9445
S1131970430C0E94890C08951F93CF93DF930E9418
S1131980190C182F0E94080C6AE070E086E00E948F
S1131990B70CEC01812F0E940E0CCE01880F991F09
S11319A08C0F9D1F019696958795DF91CF911F917E
S11319B008950E94BC0C089590919701E0919201C2
S11319C0F0919301992311F0849101C080812FEB50
S11319D0280F2A3110F4805E0895803249F49F0163
S11319E02F5F3F4F3093930120939201EF2B31F7F8
S11319F008951F93CF93DF930E94DC0CC0E0D0E0E6
S1131A001AE090ED980F9A30B8F49E01129FE0010D
S1131A10139FD00D1124C80FD11D87FDDA95E097CF
S1131A2080919201909193010196909393018093F8
S1131A3092010E94DC0CE5CFCE01DF91CF911F9182
S1131A40089510926F0083E28093800081E1809377
S1131A5081001092820080E197E290938900809344
S1131A60880010928B0010928A00229A789408952C
S1131A708F929F92AF92BF92DF92EF92FF920F9359
S1131A801F93CF93DF935C018B01D42E809194013B
S1131A90811105C081E0809394010E94210D109270
S1131AA00B01B7FE05C0E894B7F82AE0F22E02C095
S1131AB0FF24F394E09081002E2D287FE22E48EC41
S1131AC0F49EC00111248A159B05E0F4E50151E15F
S1131AD0A51657E2B50610F0C0E1D7E2BE0176952F
S1131AE0679580E090E06058794687469F4F4E01A5
S1131AF0A12CB12CA50194010E94331659018E2DFD
S1131B00816024C0C8E2FC9EC02D1124D0E0CA1517
S1131B10DB0508F4E501BE01769567959E0140E07A
S1131B2050E08AE0F81207C080E090E0605E734401
S1131B3081449F4F06C080E090E060537D4E8C4E00
S1131B409F4F0E94331659018E2D8260882E2AE001
S1131B50F21207C0CE0105966AE070E00E940B16EF
S1131B60EB01C83E43E0D40759F09801DE010E941E
S1131B707A1628EE33E040E050E00E9455168901C1
S1131B8010926F0080928100B0928900A092880028
S1131B9020918800309189004D2D403108F04FE0AC
S1131BA080E190E0841B9109A90102C056954795F4
S1131BB08A95E2F750938B0040938A0010939A0120
S1131BC00093990186B38FEF86BB81E080936F0009
S1131BD0DF91CF911F910F91FF90EF90DF90BF9015
S1131BE0AF909F908F900895CF93DF93EB018F3F39
S1131BF011F0411105C040E0BE0188EE93E043C0FE
S1131C00813130F050EF580F503618F05FE501C0C5
S1131C1050E0852F6CE00E94FF15682F74EF760367
S1131C2090011124250F311D2C30310540F4F901A8
S1131C30EE0FFF1FEC5CFE4F2081318102C020E0DB
S1131C4030E0873081F0082E02C0220F331F0A943F
S1131C50E2F7823028F0C90105966AE070E00CC012
S1131C60C90190580CC0C90136E0880F991F3A95F4
S1131C70E1F7029665E070E00E940B16CB0140315B
S1131C8008F04FE0BE010E94380DDF91CF91089516
S1131C90A2E0B0E0EEE4FEE00C948B1690900A0112
S1131CA080919601882321F060919501611117C0FC
S1131CB077247394B0ECAB2EBDE5BB2E1AE0612EF5
S1131CC004E0802E80EDC82E87E0D82E94E0E92E23
S1131CD0F12C04EF11E02FE0422E512C15C070E0DE
S1131CE040E088EE93E00E94380D1092950117C1F0
S1131CF08636D4F5813609F4A9C07CF58C3309F411
S1131D0060C08E3381F493940E94DC0C2091920184
S1131D10309193012F5F3F4F3093930120939201B1
S1131D20853631F752C0813209F08BC080920A01A6
S1131D30D0920901C0920801F0920701E0920601D5
S1131D401093050100930401509203014092020193
S1131D5010929601A4E09A2ED7CF8336A1F10CF409
S1131D6078C010E082E077C08D36C1F194F48736F4
S1131D7091F174F18C3609F064C00E94F90CBC0135
S1131D8090930701809306018091080190910901C5
S1131D9051C08237C9F14CF48F3609F052C00E9409
S1131DA0F90C982E80930A01AFCF843781F18637DE
S1131DB009F047C00E94F90C90930301809302013B
S1131DC0A3CF9A94A1CF10E020C010E084E043C0D8
S1131DD010E085E040C010E087E03DC00E94DC0CCC
S1131DE08C3619F41092960104C0709296011092E8
S1131DF0950120919201309193012F5F3F4F3093D1
S1131E0093012093920180CF11E080E024C00E94CE
S1131E10F90CBC01C5010E940B16669EC001679EA9
S1131E20900D11249093090180930801609106019B
S1131E30709107010E940B167093050160930401D1
S1131E4063CF109293011092920169C010E089E06F
S1131E5002C010E08BE0082F9CE0999E000D112435
S1131E600E94DC0C982F977F933261F420919201A9
S1131E70309193012F5F3F4F309393012093920150
S1131E800F5FEECF8D3271F4209192013091930166
S1131E902F5F3F4F309393012093920101500E9492
S1131EA0DC0CF0CF609104017091050181538830FE
S1131EB050F4E0900801F09009010E94F90CBC0173
S1131EC0C7010E940B167B01F694E79469837A8319
S1131ED00E94DC0C69817A818E3269F4209192012E
S1131EE0309193012F5F3F4F3093930120939201E0
S1131EF06E0D7F1DE9CF80919601882339F09B01F7
S1131F003695279520939501621B71094091020132
S1131F10112311F08FEF01C0802F0E94F40D22963F
S1131F20E0E10C94A7161F920F920FB60F921124A2
S1131F302F933F934F935F936F937F938F939F93CD
S1131F40AF93BF93EF93FF938091990190919A017E
S1131F509C012150310930939A0120939901892BD6
S1131F6011F510926F00789480918100887F8160D0
S1131F708093810080E197E29093890080938800A8
S1131F8010928B0010928A0081E080930B01809163
S1131F90920190919301892B31F0809198018111E4
S1131FA002C00E94480EFF91EF91BF91AF919F91A3
S1131FB08F917F916F915F914F913F912F910F90EE
S1131FC00FBE0F901F90189510926F00909393017D
S1131FD08093920110929701109295010E94480EED
S1131FE008950E94E40F089581E090E06F9364E007
S1131FF06A95F1F76F910197C9F708950F931F93AD
S1132000CF93DF931AB157985A98289AC0E0D0E03A
S11320100E94F40F5C9A0E94F40F09B15C980E942C
S1132020F40F5C9A0E94F40F5C98249607FF10C08A
S1132030AE0160E070E080919B0190919C01A091C1
S11320409D01B0919E01481759076A077B0700F369
S11320501AB9DF91CF911F910F91089595B1282F4F
S1132060217030E0220F331F482F467068E0469FEE
S1132070A0011124242B9D7C292B25B99BB18870A8
S11320808295807F9F77892B8BB95C9A0E94F40F8D
S11320905C980E94F40F0895A0E0B0E0E2E5F0E15E
S11320A00C949416C82FD62EE42E809138078111F3
S11320B005C081E0809338070E9492100E94FE0FB1
S11320C014B1D5B1FAB00BB12898DD2011F05A9AA9
S11320D001C05A9894B1926394B9579A81E0E81672
S11320E029F08C2F82958F700E942E108C2F8F7068
S11320F00E942E10FAB80BB914B9D5B9CDB7DEB712
S1132100E7E00C94B01642E060E00E944C100895A1
S113211042E061E00E944C10089541E060E00E94BA
S11321204C10089580E197E2A0E0B0E080939B0119
S113213090939C01A0939D01B0939E01529A209A82
S1132140549A8EE190E00E94C51283E00E948D10A3
S113215086E090E00E94C51283E00E948D1082E028
S113216090E00E94C51283E00E948D1082E090E00E
S11321700E94C51282E00E948D1082E090E00E94CD
S1132180C51288E20E94831088E00E94831081E0D7
S11321900E94831086E00E9483108CE00E948310CA
S11321A0089581E00E9483108091A1019091A20181
S11321B0892BF9F060E0A0E2262F30E070910C0149
S11321C080910D0190E00197789FA001799F500DB7
S11321D01124241735074CF4E091A101F091A201D8
S11321E0E20FF31FA0836F5FE7CF10929F0110925D
S11321F0A00108950E94D1100895CF93DF93EC01BC
S11322008991882319F00E948810FACFDF91CF9129
S113221008950E94FD100895AAE0B0E0E2E1F1E122
S11322200C9493161AE05AE0C52ED12CE12CF12C13
S1132230062FA70196010E943316CA01B901115055
S1132240E1E0F0E0EC0FFD1FE10FF11D005D2AE07D
S1132250629F0019112400836115710581059105A0
S113226039F71A3058F4E1E0F0E0EC0FFD1FE10F0C
S1132270F11D80810E9488101F5FF3CF2A96E8E049
S11322800C94AF16CF92DF92EF92FF926B017C0118
S113229097FF0BC0F094E094D094C094C11CD11C5F
S11322A0E11CF11C8DE20E948810C701B6010E9456
S11322B00C11FF90EF90DF90CF9008950E9442118F
S11322C00895A5E0B0E0E7E6F1E10C949816182F24
S11322D080E8898380EC8A8384E98B8384ED8C8312
S11322E0FE01E60FF11D8181810F6D830E94831031
S11322F010939F016D816093A0012596E3E00C94F7
S1132300B4160E9461110895883058F491E001C018
S1132310990F8A95EAF7892FAAE2B0E0EBE2F0E0A0
S113232021C08E3060F498EF980F81E001C0880FCF
S11323309A95EAF7A4E2B0E0E5E2F0E013C0853153
S113234060F492EF980F81E001C0880F9A95EAF744
S1132350A7E2B0E0E8E2F0E005C080E0A0E0B0E091
S1132360E0E0F0E06F3F19F49081982709C06623FC
S113237019F09081982B04C02081982F9095922376
S113238090839C91982B9C93089583EF8093B00045
S113239084BD82E08093B10085BD1092B400109298
S11323A0B30018BC17BC60E086E00E94841160E0B2
S11323B085E00E94841160E08BE00E94841160E05B
S11323C083E00E948411089580913907811105C02A
S11323D081E0809339070E94C5110895CF93DF935C
S11323E0EC010E94E411D7FF05C0D195C195D10934
S11323F081E001C080E0CF3FD10519F014F0CFEFA8
S1132400D0E0882319F018BCC7BD02C0C8BD17BCF2
S1132410DF91CF910895CF93DF93EC010E94E411F3
S1132420D7FF05C0D195C195D10981E001C080E0F5
S1132430CF3FD10519F014F0CFEFD0E0882329F075
S11324401092B400C093B30004C0C093B4001092BF
S1132450B300DF91CF910895CF93DF93EB010E94F6
S1132460EE11CE010E940B12DF91CF9108950E94CC
S11324702C12089584B18D7C84B985B1826385B9A9
S113248085E090E06F9364E06A95F1F76F910197AE
S1132490C9F7089580913A07811105C081E08093BE
S11324A03A070E943A120895CF93C82F0E944A1205
S11324B083B18C23E9F38AE090E00E94C51283B1D2
S11324C08C23B1F383B18C23CF9108950E945412CD
S11324D00895A1E0B0E0EFE6F2E10C949916898347
S11324E00E944A1293B19095898189232196E2E052
S11324F00C94B5160E94691208952F928F939F939E
S11325002FB68091AA019091AB0101968093AA0104
S11325109093AB0190E08091AC01891F8093AC0152
S11325209091A4019C5F9093A4018091A301805198
S11325309742C0F09093A4018093A3018091A501D8
S11325409091A60101968093A5019093A60190E035
S11325508091A701891F8093A7018091A801891FF9
S11325608093A8012FBE9F918F912F90189528EEEC
S113257033E0019748F0F9016F9364E06A95F1F74D
S11325806F913197C9F7F5CF08950E94B712089556
S1132590E0E7F0E080818E7F8083A0EBB0E08C9157
S11325A083608C93A1EBB0E08C91807F8C938C91B1
S11325B082608C93B89A8081816080837894089536
S11325C080913B07811105C081E080933B070E9405
S11325D0C81208950E94E012E0E7F0E080818E7F47
S11325E080831092A5011092A6011092A701109267
S11325F0A8011092A4011092A301808181608083BC
S11326000895462FBC018DEA91E00E948415089537
S11326100F93CF93DF9300D000D01F92CDB7DEB7D6
S11326209C0185E0ECE4F1E0DE01119601900D924D
S11326308A95E1F7662311F00FEF01C003E145E04D
S1132640BE016F5F7F4F8DEA91E00E94DA138DEA3D
S113265091E00E94B1130E94EA120F900F900F9024
S11326600F900F90DF91CF910F91089560E00E9439
S1132670081308958DEA91E00E94E11508956F937F
S113268064E06A95F1F76F910197C9F70895FC0129
S1132690118210821382128215821482168268308B
S11326A068F489E290E0918380838BE290E09383E5
S11326B082838AE290E0958384831FC06E3070F435
S11326C083E290E09183808385E290E09383828328
S11326D084E290E09583848368500FC0653198F458
S11326E086E290E09183808388E290E09383828302
S11326F087E290E0958384836E5081E001C0880F67
S11327006A95EAF786830895A7E0B0E0EAE8F3E182
S11327100C9497168C01FC01118210821382128290
S11327201582148217821682613118F080E1808745
S113273002C0FC016087F801208B642FCE01019652
S11327400E9447138F81F80181878B819C81938735
S113275082878D819E81958784872796E4E00C94F7
S1132760B316FC01A485B585109779F08C919185F9
S1132770892B8C93A285B3859C918185809589232F
S11327808C9388EC90E00E943F130895FC01A4858B
S1132790B585109771F08C919185892B8C93A285C6
S11327A0B3858C919185892B8C9388EC90E00E9461
S11327B03F130895A7E0B0E0E0EEF3E10C948C162B
S11327C07C014B01642F3901402F20E00E948413C7
S11327D087010F5B1F4FF80110826701F2E4CF0EEF
S11327E0D11CF60110825701F3E4AF0EB11CF501C0
S11327F01082F70177866686512CF701808558167A
S113280050F5652C712CF401E60DF71D6081CE01A5
S113281001960E9447132F81F701E60DF71D218BC6
S113282089819A81F301EE0FFF1FEE0DFF1D92A324
S113283081A38332910511F4F80108C08632910511
S113284011F4F60103C0899721F4F5018081822BEC
S113285080835394D2CF2796EFE00C94A816A0E07F
S1132860B0E0E5E3F4E10C948E16EC015B016C013D
S113287081E4C80ED11CF60180807E01F2E4EF0EE3
S1132880F11CF70170808E010D5B1F4FF8019080E1
S113289080E09885891748F4F501E80FF11DE80FE9
S11328A0F11D118210828F5FF4CF84B1F601908103
S11328B0892B84B987B1F7019081892B87B98AB1B3
S11328C0F8019081892B8AB985B1F6019081892B11
S11328D085B988B1F7019081892B88B98BB1F8014A
S11328E09081892B8BB98AE090E00E943F1394B1C8
S11328F0F60180818095892384B997B1F70180819D
S11329008095892387B99AB1F801808180958923BC
S11329108AB995B1F60180818095892385B998B1EA
S1132920F70180818095892388B99BB1F801808162
S1132930809589238BB9E090B000D090B10080914C
S1132940B00083608093B00082E08093B100409136
S1132950B20080E090E02E853F858217930720F532
S1132960C090B2002C2D241B820F911D03B10811BD
S113297032C0F6B0F7102FC029B129112CC010C0F5
S1132980212F30E0A901440F551FF501E40FF51F75
S113299060817181672B21F11F5F2885121780F3F5
S11329A07F2C802E4C2DD7CFE092B000D092B10076
S11329B020E08885281730F5F501E20FF11DE20FBC
S11329C0F11D80819181892B21F48E859F859183CE
S11329D080832F5FEECF03B1F6B099B010E0DDCF66
S11329E0DE01A40FB51F91960D90BC91A02D4C91C2
S11329F0DE01A20FB31F51962C91422369F69183F5
S1132A008083CACFCDB7DEB7EDE00C94AA16EF925F
S1132A10FF920F931F93CF93DF93FC019B01F090E0
S1132A207C0000917A0047B118B180917A0086FD4C
S1132A30FCCF80E09085891748F4D901A80FB11D17
S1132A40A80FB11D1D921C928F5FF4CF97B182A184
S1132A508095892387B998B182A18095892388B903
S1132A6087E880937A00E12C81A1E81610F0E12C2C
S1132A7029C050E08085581718F5A52FB0E0EF0164
S1132A80CA0FDB1F8989806480937C0080917A005F
S1132A90806480937A0080917A0086FDFCCF6091F7
S1132AA0780070917900AA0FBB1FA20FB31F8D91FC
S1132AB09C911197860F971F8D939C935F5FDACF3C
S1132AC0E394D2CF8085E816A0F4E901CE0DD11DA0
S1132AD0CE0DD11D61A170E0CB0195958795A8819C
S1132AE0B9818A0F9B1F0E940B1679836883E39434
S1132AF0E9CFF0927C0000937A0018B947B9CDB7BA
S1132B00DEB7E6E00C94B116A0E2B0E0EAE8F5E145
S1132B100C9494168C017B01D42E8FEF840F823099
S1132B2018F4C8010E94C613D80150968C91B701BD
S1132B30811110C0C8010E942F14C8010E94B11352
S1132B40B2E0DB123AC0BE016F5F7F4FC8010E9442
S1132B502F140FC0C8010E940715C8010E94B113A9
S1132B60E2E0DE122AC0BE016F5F7F4FC8010E94FF
S1132B70071540E0F80180854817F8F4842F90E0A9
S1132B80880F991FF701E80FF91F21E030E02C0F9F
S1132B903D1F820F931FD8011E962D913C911F97C4
S1132BA0DC018D919C91281B390B80819181820FCE
S1132BB0931F918380834F5FDDCFA096E7E00C9451
S1132BC0B016CF93DF93EC018A819B81009711F0BB
S1132BD00E9458178E819F81009711F00E94581708
S1132BE088819981009711F00E9458178C819D81EA
S1132BF0009711F00E945817DF91CF910895991B07
S1132C0079E004C0991F961708F0961B881F7A95DF
S1132C10C9F780950895AA1BBB1B51E107C0AA1FE1
S1132C20BB1FA617B70710F0A61BB70B881F991F69
S1132C305A95A9F780959095BC01CD01089597FB0D
S1132C40072E16F4009407D077FD09D00E940B16C6
S1132C5007FC05D03EF4909581959F4F089570959B
S1132C6061957F4F0895A1E21A2EAA1BBB1BFD019B
S1132C700DC0AA1FBB1FEE1FFF1FA217B307E40757
S1132C80F50720F0A21BB30BE40BF50B661F771FAF
S1132C90881F991F1A9469F760957095809590958F
S1132CA09B01AC01BD01CF010895052E97FB1EF4D5
S1132CB000940E946C1657FD07D00E94331607FC3F
S1132CC003D04EF40C946C16509540953095219594
S1132CD03F4F4F4F5F4F0895909580957095619544
S1132CE07F4F8F4F9F4F0895EE0FFF1F0590F49174
S1132CF0E02D0994A29FB001B39FC001A39F700D62
S1132D00811D1124911DB29F700D811D1124911DEF
S1132D1008952F923F924F925F926F927F928F927B
S1132D209F92AF92BF92CF92DF92EF92FF920F9356
S1132D301F93CF93DF93CDB7DEB7CA1BDB0B0FB660
S1132D40F894DEBF0FBECDBF09942A88398848881D
S1132D505F846E847D848C849B84AA84B984C884B3
S1132D60DF80EE80FD800C811B81AA81B981CE0FAA
S1132D70D11D0FB6F894DEBF0FBECDBFED0108958F
S1132D800F931F93CF93DF938230910510F482E069
S1132D9090E0E0913E07F0913F0720E030E0A0E0B2
S1132DA0B0E0309719F140815181028113814817B5
S1132DB05907C8F08417950769F4109731F01296F3
S1132DC00C93129713961C9327C000933E071093FD
S1132DD03F0722C02115310519F04217530718F493
S1132DE09A01BD01EF01DF01F801DBCF21153105A7
S1132DF0F9F0281B390B2430310580F48A819B813A
S1132E006115710521F0FB019383828304C09093C3
S1132E103F0780933E07FE01329644C0FE01E20F55
S1132E20F31F8193919322503109398328833AC047
S1132E3020913C0730913D07232B41F42091100150
S1132E403091110130933D0720933C0720910E01EE
S1132E5030910F012115310541F42DB73EB7409152
S1132E60120150911301241B350BE0913C07F091A2
S1132E703D07E217F307A0F42E1B3F0B2817390771
S1132E8078F0AC014E5F5F4F2417350748F04E0FC2
S1132E905F1F50933D0740933C078193919302C079
S1132EA0E0E0F0E0CF01DF91CF911F910F91089501
S1132EB0CF93DF93009709F481C0FC01329713820A
S1132EC01282A0913E07B0913F07109781F42081B0
S1132ED03181820F931F20913C0730913D072817C1
S1132EE0390751F5F0933D07E0933C0767C0ED01C6
S1132EF020E030E0CE17DF0740F44A815B819E0179
S1132F0041155105F1F0EA01F5CFD383C283408125
S1132F105181840F951FC817D90759F48881998165
S1132F20840F951F0296918380838A819B8193836A
S1132F3082832115310529F4F0933F07E0933E077E
S1132F403DC0E901FB83EA8349915991C40FD51F20
S1132F50EC17FD0761F480819181840F951F02961F
S1132F60E90199838883828193819B838A83E0E04A
S1132F70F0E012968D919C911397009719F0FD0142
S1132F80DC01F7CF8D919C9111979D012E5F3F4FEE
S1132F90820F931F20913C0730913D072817390772
S1132FA069F4309729F410923F0710923E0702C04B
S1132FB013821282B0933D07A0933C07DF91CF9117
S1132FC0089510E0C4E5D0E004C0FE010E94741628
S10F2FD02196C535D107C9F7F894FFCF4E
S1132FDC88130F00F4010400D00704010802000058
S1132FEC4007200001000100010000000000FFFF69
S1132FFCFFFFFFFF0000FFFF01000100FFFF0000C7
S113300C0100FFFF9C01B501CF01EA010702260272
S113301C470269028E02B502DE020A030E0F10117A
S113302C1228002C2000290020412042204320009B
S113303C41202D20546573740042202D204D61696C
S113304C6E003E3E61333200207C2000214F4253FF
S113305C21004E4F54204F42530068657265006D39
S105306C560008
S9030000FC
