:100000000C9455000C947D000C947D000C947D00A4
:100010000C947D000C947D000C947D000C947D006C
:100020000C947D000C94E00E0C947D000C947D00EB
:100030000C947D000C94F60B0C947D000C947D00C8
:100040000C947D000C947D000C947D000C947D003C
:100050000C947D000C947D000C947D000C947D002C
:100060000C947D000C947D00A2019C0199019201E9
:10007000BA01B401AE01A801084AD73B3BCE016EDC
:1000800084BCBFFDC12F3D6C74319ABD56833DDAEF
:100090003D00C77F11BED9E4BB4C3E916BAAAABEFE
:1000A000000000803F0070069D0F11241FBECFEF9F
:1000B000D8E0DEBFCDBF11E0A0E0B1E0E2EAF8E2B7
:1000C00002C005900D92A237B107D9F728E0A2E748
:1000D000B1E001C01D92A13EB207E1F710E0C4E516
:1000E000D0E004C02197FE010E94D712C335D1078A
:1000F000C9F70E94E7050C9444140C9400002F9259
:100100003F924F925F926F927F928F929F92AF92A7
:10011000BF92CF92DF92EF92FF920F931F93CF93F4
:10012000DF93CDB7DEB761970FB6F894DEBF0FBE91
:10013000CDBF1C01198A2C0120E8420E511CAC01D4
:10014000475D5F4F5C874B87D10190962D913C9125
:10015000919795968D919C9196972817390779F4E8
:1001600092962D913C91939797968D919C9198970B
:100170002817390721F4B989BB2309F40FC5F10108
:1001800005A0F6A1E02DFE87ED87D10197960D9091
:10019000BC91A02DB88BAF876894662463F8712C4E
:1001A000F101E0A0F1A0C2A0D3A0D10188248A94DB
:1001B00099249A94AA24AA94BB24BA948D919C91D0
:1001C00011978E0D9F1D8031910508F06FC012961A
:1001D0002D913C9113972C0D3D1D2031310508F0D8
:1001E00065C04FE0489FF001499FF00D1124E20FD8
:1001F000F31FEE0FFF1FEE0FFF1FEE0FFF1FEF525B
:10020000FE4F4481411152C05FE0589FF001599F59
:10021000F00D1124E20FF31FEE0FFF1FEE0FFF1F73
:10022000EE0FFF1FEF52FE4F478141113FC06FEFAE
:10023000A616B606C9F1A501ED85FE854E1B5F0B1E
:10024000FA01FF2324F4EE27FF27E41BF50BB4018A
:100250004F855889641B750BAB0122F44427552741
:10026000461B570B8F01040F151FAC016D857E8552
:10027000461B570BFA01FF2324F4EE27FF27E41B4C
:10028000F50BB9014F855889641B750BAB0122F43E
:1002900044275527461B570B4E0F5F1F401751072A
:1002A0002CF449015C0102C049015C015096A4157F
:1002B000B50509F083CF5FEFA516B506B9F46FE079
:1002C0006E9DF0016F9DF00D1124EC0DFD1DEE0FE4
:1002D000FF1FEE0FFF1FEE0FFF1FEF52FE4F0580B7
:1002E000F681E02DA080B18082809380D10190962C
:1002F0008D919C9191977501E81AF90A92968D91CA
:100300009C919397F401E81BF90BCF019496EC9123
:100310004E2F50E04830510538F5FA01EC5CFF4FA4
:100320000C94D7120F2EF3EDCF2EF02DDD24DA949E
:1003300027C0C12CD12C24C00F2EFDE2CF2ED12CF2
:10034000F02D1EC00F2EFAE5CF2ED12CF02D18C0A7
:100350000F2EF7E8CF2EF02DD12C12C00F2EF4EB7C
:10036000CF2EF02DD12C0CC00F2EF1EECF2EF02D74
:10037000D12C06C00F2EF6EACF2EF02DDD24DA9414
:10038000E114F10441F41816190624F199232CF50F
:1003900006EA1FEF24C0B7010E948212072E000C4C
:1003A000880B990B0E9460070E94870620E030E0CE
:1003B00044E353E40E941B082BED3FE049E450E482
:1003C0000E94B6060E9428078B01FF2044F40C54BB
:1003D0001F4F05C00AE510E002C000E010E0C601B2
:1003E000801B910B6DE270E00E948212072E000CC0
:1003F000880B990B0E9460070E9488080E942807BA
:100400007B01653071051CF028E0E21AF1083CEF31
:10041000E3163FEFF3061CF448E0E40EF11C0E94E3
:100420005D0DB7010F2C000C880B990B0E94C10DBC
:1004300061E080E00E94E40DB801012E000C880B01
:10044000990B0E94C10D0D32110549F15CF4033D79
:100450005FEF1507D9F001151105E1F0063A1F4FBE
:1004600099F50FC00738110511F124F40A3511056B
:10047000D1F02AC0043B1105F1F0013E110501F154
:1004800023C084E0D10194968C931EC083E0F101D7
:1004900084A31AC082E0D10194968C9315C081E0A8
:1004A000F10184A311C0D10194961C920DC027E0E4
:1004B000F10124A309C0E6E0D1019496EC9304C0B5
:1004C00085E0D10194968C93FF20ECF46AE270E011
:1004D00086ED9FEF0E949A0EC701992324F4882786
:1004E00099278E199F0928ECFC012E9FC0012F9F90
:1004F000900D11240E94280F60E070E080E090E0F1
:100500000E949A0E1FC01E141F04E4F466ED7FEFD4
:100510008AE290E00E949A0EC701992324F488276A
:1005200099278E199F0928ECAC01249FC001259FB3
:10053000900D11240E94280F60E070E080E090E0B0
:100540000E949A0E60E070E080E090E00E949A0EB7
:1005500061E0CE0101960E94640F8B819C81813BFA
:10056000944050F48D819E81813B944028F48F818A
:100570009885813B944010F10E945D0D8FE491E0DD
:100580000E946C0D80ED97E00E94280F8FE08A9DFD
:10059000F0018B9DF00D1124E80DF91DEE0FFF1FEA
:1005A000EE0FFF1FEE0FFF1FEF52FE4F81E084831F
:1005B00091E0691A710809F0F3CD0AC00E945D0D3F
:1005C00085E591E00E946C0D80ED97E00E94280F78
:1005D0008FE08A9D80018B9D100D1124080D191D3F
:1005E000000F111F000F111F000F111F0F521E4F80
:1005F000D80115962D913C911697F10180A191A1FA
:10060000A2A1B3A1F90180839183A283B3830E9445
:100610005D0D8DE591E00E946C0DB5010B2C000C79
:10062000880B990B0E94C10D8FE591E00E946C0D23
:10063000B401092C000C880B990B0E94C10D82E6B5
:1006400091E00E946C0D80ED97E00E94280FD80188
:1006500017968C91811157C06FE0F801408151814C
:10066000F10180A191A122A133A1689FF001699FAE
:10067000F00D1124E20FF31FEE0FFF1FEE0FFF1F0F
:10068000EE0FFF1FEF52FE4F608171818A159B05AF
:1006900031F02815390549F482E090E00BC02815A7
:1006A000390531F082E090E005C083E090E002C0BF
:1006B00080E090E0860F971F8417950794F42FE051
:1006C0002A9DF0012B9DF00D1124E80DF91DEE0F70
:1006D000FF1FEE0FFF1FEE0FFF1FEF52FE4F918324
:1006E00080838FE08A9DF0018B9DF00D1124E80D31
:1006F000F91DEE0FFF1FEE0FFF1FEE0FFF1FEF5252
:10070000FE4F81E08783D10190968D919C919197C6
:10071000ED85FE858E179F0751F492968D919C91E1
:1007200093972F8538898217930709F45FC0D10109
:100730009196BC92AE92909793969C928E9292973D
:1007400064E170E084E190E00E949A0E61E08B85A4
:100750009C850E94640FF10183A594A5813BF4E080
:100760009F0780F4D1019D962D913C919E97213B4E
:10077000B4E03B0738F4F10147A550A9413BF4E050
:100780005F07E0F0D10190962D913C919197929660
:100790008D919C9193974FE0429FF001439FF00D04
:1007A0001124E80FF91FEE0FFF1FEE0FFF1FEE0FD2
:1007B000FF1FEF52FE4F81E084830AC08F359140C6
:1007C00038F42F35314020F44F35514008F4BECF76
:1007D00084E691E00E94540C84E893E00E94280F84
:1007E00060E070E080E090E00E949A0E2989222368
:1007F00009F4BAC1D1019596AD90BC9096979796A1
:100800008D919C9198972FE02A9DF0012B9DF00DE2
:100810001124E80FF91FEE0FFF1FEE0FFF1FEE0F61
:10082000FF1FEF52FE4FC080D1809601C114D1044A
:1008300009F437C14C0135014FE05E864D8602C098
:100840004C013501F601E21BF30B9F01469DF001BF
:10085000479DF00D1124E80DF91DEE0FFF1FEE0F5F
:10086000FF1FEE0FFF1FEF52FE4F62817381621771
:1008700073078CF4469DF001479DF00D1124E80D9F
:10088000F91DEE0FFF1FEE0FFF1FEE0FFF1FEF52C0
:10089000FE4F338322834A9DF0014B9DF00D1124BE
:1008A000E80FF91FEE0FFF1FEE0FFF1FEE0FFF1FE8
:1008B000EF52FE4F20813181B50161507109DC0199
:1008C0001197469FF001479FF00D1124EA0FFB1F7F
:1008D000EE0FFF1FEE0FFF1FEE0FFF1FEF52FE4F39
:1008E0000190F081E02DE217F30734F45A2EEB2E3D
:1008F000F62E572F9F0104C0582CE92CF62C572DAB
:100900004A9DF0014B9DF00D1124EA0FFB1FEE0FE5
:10091000FF1FEE0FFF1FEE0FFF1FEF52FE4F019064
:10092000F081E02DE217F3072CF45A2EEB2EF62C73
:10093000572D9F0185010F5F1F4F409FF001419F81
:10094000F00D1124EA0FFB1FEE0FFF1FEE0FFF1F2C
:10095000EE0FFF1FEF52FE4F0190F081E02DE217E6
:10096000F3072CF45A2EEB2EF02E512F9F01469FA9
:10097000F001479FF00D1124E80FF91FEE0FFF1F44
:10098000EE0FFF1FEE0FFF1FEF52FE4F0190F081A1
:10099000E02DE217F3072CF4582CE92CF62E572FF4
:1009A0009F01409FF001419FF00D1124E80FF91FB6
:1009B000EE0FFF1FEE0FFF1FEE0FFF1FEF52FE4F58
:1009C0000190F081E02DE217F3072CF4582CE92C6C
:1009D000F02E512F9F010196469FF001479FF00D89
:1009E0001124E80FF91FEE0FFF1FEE0FFF1FEE0F90
:1009F000FF1FEF52FE4F0190F081E02DE217F30749
:100A00002CF4582EE92EF62E572F9F014A9DB00147
:100A10004B9D700D1124FB01E80FF91FEE0FFF1F16
:100A2000EE0FFF1FEE0FFF1FEF52FE4F608171812F
:100A3000621773072CF4582EE92EF62C572D9B01C4
:100A4000409FF001419FF00D1124E80FF91FEE0FB8
:100A5000FF1FEE0FFF1FEE0FFF1FEF52FE4F6081D3
:100A600071816217730714F4580104C0852D9E2DFF
:100A7000AF2CB52E4A9DF0014B9DF00D1124E80FCF
:100A8000F91FEE0FFF1FEE0FFF1FEE0FFF1FEF52BC
:100A9000FE4F208131812115310509F0D1CE4D84E1
:100AA0005E842FE02A9DF0012B9DF00D1124E80FAC
:100AB000F91FEE0FFF1FEE0FFF1FEE0FFF1FEF528C
:100AC000FE4F228133812C153D0594F42FE02A9DA1
:100AD000F0012B9DF00D1124E80FF91FEE0FFF1F01
:100AE000EE0FFF1FEE0FFF1FEF52FE4FD382C282A9
:100AF000D1019596AC9095979696BC9096979796BF
:100B0000CC9097979896DC9001ED11E060E070E052
:100B1000F80180E090E0E62EF72EDF0120813181A0
:100B20002115310521F4C82ED92EAE2CBF2C1296DA
:100B30004D915C91139713963C932E9312974D937E
:100B40005C93019638968F30910539F76F5F7F4F30
:100B500008581F4F6F307105D9F6F101A5A2B6A252
:100B6000C7A2D0A6198AF0CAD10190962D913C91C6
:100B7000919795968D919C9196972817390709F032
:100B8000E3CAB1E0B98BF10122A133A187A190A5FD
:100B90002817390709F4D8CA198AD6CA61960FB638
:100BA000F894DEBF0FBECDBFDF91CF911F910F91A3
:100BB000FF90EF90DF90CF90BF90AF909F908F907D
:100BC0007F906F905F904F903F902F900895CF93BC
:100BD000DF93CDB7DEB7E3970FB6F894DEBF0FBE55
:100BE000CDBF80E2E2E1F1E0DE01119601900D92CD
:100BF0008A95E1F71AA219A21CA21BA21DA21FA28C
:100C00001EA283E090E099A788A780ED97E00E945C
:100C1000990F60E070E080E090E00E949A0E0F2E45
:100C2000FFE0CF2ED12CF02D80E10E94DD0E81114E
:100C300045C082E00E94DD0E882341F08EA19FA175
:100C40000196B6010E9482129FA38EA380E20E94A9
:100C5000DD0E882341F088A599A50196B6010E9472
:100C6000821299A788A708A519A5EEA0FFA00E9447
:100C70005D0D8DE591E00E946C0DB701FF0C880BB6
:100C8000990B0E94C10D8FE591E00E946C0DB80197
:100C9000110F880B990B0E94C10D82E691E00E9412
:100CA0006C0D61E080E00E94E40D8AE691E00E9414
:100CB0006C0D84E690E00E94280FB6CF80E10E9480
:100CC000C90E88EE93E00E94280FCE0101960E9483
:100CD0007F0060E070E080E090E00E949A0EFFCF1D
:100CE00041ED51E08FEF9FE7FA0148585F4F9A01BD
:100CF0009183808393838283148217823896E217CC
:100D0000F307B1F728E0493D520771F70895DF93E3
:100D1000DD27B92FBF7740E85FE3161617064807AF
:100D20005B0718F4D92F0E9413089F938F937F932A
:100D30006F930E94AC08E8E7F0E00E94A4070E94CD
:100D4000D9072F913F914F915F910E942E08DD238B
:100D500051F09058A2EA2AED3FE049EC5FE3D078E9
:100D60005D270E94C108DF910C94D9070E94CA0632
:100D70000C94D9070E94D20758F00E94CB0740F08C
:100D800029F45F3F29F00C949B0751110C940D0836
:100D90000C94A1070E94EA0768F39923B1F3552345
:100DA00091F3951B550BBB27AA276217730784077E
:100DB00038F09F5F5F4F220F331F441FAA1FA9F314
:100DC00035D00E2E3AF0E0E832D091505040E69502
:100DD000001CCAF72BD0FE2F29D0660F771F881F63
:100DE000BB1F261737074807AB07B0E809F0BB0B56
:100DF000802DBF01FF2793585F4F3AF09E3F51056A
:100E000078F00C949B070C940D085F3FE4F3983E38
:100E1000D4F3869577956795B795F7959F5FC9F752
:100E2000880F911D9695879597F90895E1E0660FD3
:100E3000771F881FBB1F621773078407BA0720F04C
:100E4000621B730B840BBA0BEE1F88F7E0950895B5
:100E50000E942F076894B1110C940D0808950E9408
:100E6000F20788F09F5798F0B92F9927B751B0F043
:100E7000E1F0660F771F881F991F1AF0BA95C9F71E
:100E800014C0B13091F00E940C08B1E008950C94A8
:100E90000C08672F782F8827B85F39F0B93FCCF35B
:100EA000869577956795B395D9F73EF4909580959B
:100EB000709561957F4F8F4F9F4F0895E89409C0BB
:100EC00097FB3EF490958095709561957F4F8F4F7D
:100ED0009F4F9923A9F0F92F96E9BB279395F69593
:100EE000879577956795B795F111F8CFFAF4BB0F11
:100EF00011F460FF1BC06F5F7F4F8F4F9F4F16C075
:100F0000882311F096E911C0772321F09EE8872FFE
:100F1000762F05C0662371F096E8862F70E060E0BA
:100F20002AF09A95660F771F881FDAF7880F969533
:100F3000879597F9089597F99F6780E870E060E0DA
:100F400008959FEF80EC0895DF93CF931F930F9345
:100F5000FF92EF92DF927B018C01689406C0DA2E3B
:100F6000EF010E942E08FE01E894A591259135918C
:100F700045915591A6F3EF010E94C108FE0197012A
:100F8000A801DA9469F7DF90EF90FF900F911F911D
:100F9000CF91DF91089500240A94161617061806BB
:100FA0000906089500240A9412161306140605066D
:100FB0000895092E0394000C11F4882352F0BB0FFE
:100FC00040F4BF2B11F460FF04C06F5F7F4F8F4F61
:100FD0009F4F089557FD9058440F551F59F05F3F9C
:100FE00071F04795880F97FB991F61F09F3F79F04B
:100FF00087950895121613061406551FF2CF4695CD
:10100000F1DF08C0161617061806991FF1CF86954E
:101010007105610508940895E894BB276627772732
:10102000CB0197F908959B01AC0160E070E080E886
:101030009FE30C94B6060E942E080C94D9070E94D8
:10104000CB0738F00E94D20720F0952311F00C94C2
:101050009B070C94A10711240C940D080E94EA0729
:1010600070F3959FC1F3950F50E0551F629FF001FB
:10107000729FBB27F00DB11D639FAA27F00DB11D14
:10108000AA1F649F6627B00DA11D661F829F22279D
:10109000B00DA11D621F739FB00DA11D621F839F24
:1010A000A00D611D221F749F3327A00D611D231FFA
:1010B000849F600D211D822F762F6A2F11249F5748
:1010C00050409AF0F1F088234AF0EE0FFF1FBB1F4B
:1010D000661F771F881F91505040A9F79E3F51050A
:1010E00080F00C949B070C940D085F3FE4F3983E4E
:1010F000D4F3869577956795B795F795E7959F5FB4
:10110000C1F7FE2B880F911D9695879597F9089545
:101110000E94F207E8F09E37E8F09639B8F49E385E
:1011200048F4672F782F8827985FF9CF86957795B1
:10113000679593959539D0F3B62FB1706B0F711DEC
:10114000811D20F487957795679593950C941609E2
:101150000C9431090C940D089B01AC010C941B08F4
:101160000E94CB0738F00E94D20720F039F49F3F4D
:1011700019F426F40C94A1070EF4E095E7FB0C9407
:101180009B07E92F0E94EA0758F3BA176207730713
:101190008407950720F079F4A6F50C940C080EF45A
:1011A000E0950B2EBA2FA02D0B01B90190010C0177
:1011B000CA01A0011124FF27591B99F0593F50F48F
:1011C000503E68F11A16F040A22F232F342F4427E7
:1011D000585FF3CF469537952795A795F0405395DF
:1011E000C9F77EF41F16BA0B620B730B840BBAF0AF
:1011F0009150A1F0FF0FBB1F661F771F881FC2F71A
:101200000EC0BA0F621F731F841F48F4879577952D
:101210006795B795F7959E3F08F0B0CF9395880FE7
:1012200008F09927EE0F979587950895882371F414
:10123000772321F09850872B762F07C0662311F46F
:1012400099270DC09051862B70E060E02AF09A95A6
:10125000660F771F881FDAF7880F9695879597F99D
:1012600008959F3F31F0915020F4879577956795C9
:10127000B795880F911D9695879597F90895909148
:101280007701E0917201F0917301992311F084913B
:1012900001C080812FEB280F2A3110F4805E089561
:1012A000803249F49F012F5F3F4F309373012093A9
:1012B0007201EF2B31F708951F93CF93DF930E94B4
:1012C0003F09C0E0D0E01AE090ED980F9A30B8F4F2
:1012D0009E01129FE001139FD00D1124C80FD11D54
:1012E00087FDDA95E09780917201909173010196E4
:1012F00090937301809372010E943F09E5CFCE0164
:10130000DF91CF911F91089510926F0083E2809337
:10131000800081E1809381001092820080E197E259
:10132000909389008093880010928B0010928A001D
:10133000229A789408958F929F92AF92BF92DF92F3
:10134000EF92FF920F931F93CF93DF935C018B017A
:10135000D42E80917401811105C081E080937401C5
:101360000E94840910920901B7FE05C0E894B7F8FD
:101370002AE0F22E02C0FF24F394E09081002E2D8B
:10138000287FE22E48ECF49EC00111248A159B05AB
:10139000E0F4E50151E1A51657E2B50610F0C0E111
:1013A000D7E2BE017695679580E090E06058794677
:1013B00087469F4F4E01A12CB12CA50194010E949C
:1013C000961259018E2D816024C0C8E2FC9EC02D6A
:1013D0001124D0E0CA15DB0508F4E501BE017695BD
:1013E00067959E0140E050E08AE0F81207C080E077
:1013F00090E0605E734481449F4F06C080E090E0BF
:1014000060537D4E8C4E9F4F0E94961259018E2D37
:101410008260882E2AE0F21207C0CE0105966AE0AB
:1014200070E00E946E12EB01C83E43E0D40759F011
:101430009801DE010E94DD1228EE33E040E050E02A
:101440000E94B812890110926F0080928100B092C0
:101450008900A092880020918800309189004D2D4C
:10146000403108F04FE080E190E0841B9109A90130
:1014700002C0569547958A95E2F750938B004093AA
:101480008A0010937A010093790186B38FEF86BBAF
:1014900081E080936F00DF91CF911F910F91FF90BA
:1014A000EF90DF90BF90AF909F908F900895CF9373
:1014B000DF93EB018F3F11F0411105C040E0BE0109
:1014C00088EE93E043C0813130F050EF580F503632
:1014D00018F05FE501C050E0852F6CE00E946212B9
:1014E000682F74EF760390011124250F311D2C30E5
:1014F000310540F4F901EE0FFF1FEE5CFE4F208135
:10150000318102C020E030E0873081F0082E02C037
:10151000220F331F0A94E2F7823028F0C9010596A2
:101520006AE070E00CC0C90190580CC0C90136E0F7
:10153000880F991F3A95E1F7029665E070E00E94E6
:101540006E12CB01403108F04FE0BE010E949B09B2
:10155000DF91CF910895A2E0B0E0E1EBFAE00C94C6
:10156000EE129090080180917601882321F060911D
:101570007501611117C077247394B0ECAB2EBDE5F3
:10158000BB2E1AE0612E04E0802E80EDC82E87E08D
:10159000D82E94E0E92EF12C04EF11E02FE0422E3A
:1015A000512C15C070E040E088EE93E00E949B094A
:1015B0001092750117C18636D4F5813609F4A9C099
:1015C0007CF58C3309F460C08E3381F493940E94CF
:1015D0003F0920917201309173012F5F3F4F30938B
:1015E000730120937201853631F752C0813209F0C0
:1015F0008BC080920801D0920701C0920601F09240
:101600000501E0920401109303010093020150923E
:1016100001014092000110927601A4E09A2ED7CFEA
:101620008336A1F10CF478C010E082E077C08D36EB
:10163000C1F194F4873691F174F18C3609F064C0ED
:101640000E945C09BC019093050180930401809184
:1016500006019091070151C08237C9F14CF48F36D1
:1016600009F052C00E945C09982E80930801AFCF08
:10167000843781F1863709F047C00E945C09909356
:10168000010180930001A3CF9A94A1CF10E020C064
:1016900010E084E043C010E085E040C010E087E047
:1016A0003DC00E943F098C3619F41092760104C0A7
:1016B0007092760110927501209172013091730140
:1016C0002F5F3F4F309373012093720180CF11E061
:1016D00080E024C00E945C09BC01C5010E946E121A
:1016E000669EC001679E900D112490930701809320
:1016F000060160910401709105010E946E127093C1
:1017000003016093020163CF109273011092720182
:1017100069C010E089E002C010E08BE0082F9CE077
:10172000999E000D11240E943F09982F977F9332B4
:1017300061F420917201309173012F5F3F4F30931C
:101740007301209372010F5FEECF8D3271F42091FF
:101750007201309173012F5F3F4F309373012093DB
:10176000720101500E943F09F0CF60910201709117
:1017700003018153883050F4E0900601F090070196
:101780000E945C09BC01C7010E946E127B01F694A5
:10179000E79469837A830E943F0969817A818E3256
:1017A00069F420917201309173012F5F3F4F3093A4
:1017B0007301209372016E0D7F1DE9CF8091760138
:1017C000882339F09B013695279520937501621B7C
:1017D000710940910001112311F08FEF01C0802F9A
:1017E0000E94570A2296E0E10C940A131F920F926E
:1017F0000FB60F9211242F933F934F935F936F93E4
:101800007F938F939F93AF93BF93EF93FF938091B9
:10181000790190917A019C012150310930937A012C
:1018200020937901892B11F510926F0078948091A3
:101830008100887F81608093810080E197E29093AE
:1018400089008093880010928B0010928A0081E0BA
:10185000809309018091720190917301892B31F07D
:1018600080917801811102C00E94AB0AFF91EF9133
:10187000BF91AF919F918F917F916F915F914F91A8
:101880003F912F910F900FBE0F901F9018951092BF
:101890006F00909373018093720110927701109200
:1018A00075010E94AB0A08950E94470C089581E0DB
:1018B00090E06F9364E06A95F1F76F910197C9F733
:1018C00008950F931F93CF93DF931AB157985A98A7
:1018D000289AC0E0D0E00E94570C5C9A0E94570CF6
:1018E00009B15C980E94570C5C9A0E94570C5C9856
:1018F000249607FF10C0AE0160E070E080917B018C
:1019000090917C01A0917D01B0917E01481759070B
:101910006A077B0700F31AB9DF91CF911F910F91EE
:10192000089595B1282F217030E0220F331F482FE2
:10193000467068E0469FA0011124242B9D7C292B32
:1019400025B99BB188708295807F9F77892B8BB951
:101950005C9A0E94570C5C980E94570C0895A0E076
:10196000B0E0E5EBFCE00C94F712C82FD62EE42E85
:101970008091D908811105C081E08093D9080E9427
:10198000F50C0E94610C14B1D5B1FAB00BB12898D6
:10199000DD2011F05A9A01C05A9894B1926394B91B
:1019A000579A81E0E81629F08C2F82958F700E945B
:1019B000910C8C2F8F700E94910CFAB80BB914B94E
:1019C000D5B9CDB7DEB7E7E00C94131342E060E081
:1019D0000E94AF0C089542E061E00E94AF0C0895B0
:1019E00041E060E00E94AF0C089580E197E2A0E042
:1019F000B0E080937B0190937C01A0937D01B09334
:101A00007E01529A209A549A8EE190E00E94280F0B
:101A100083E00E94F00C86E090E00E94280F83E0B3
:101A20000E94F00C82E090E00E94280F83E00E9468
:101A3000F00C82E090E00E94280F82E00E94F00CFF
:101A400082E090E00E94280F88E20E94E60C88E085
:101A50000E94E60C81E00E94E60C86E00E94E60C03
:101A60008CE00E94E60C089581E00E94E60C8091D3
:101A7000810190918201892BF9F060E0A0E2262F8C
:101A800030E070910A0180910B0190E00197789FFE
:101A9000A001799F500D1124241735074CF4E091D3
:101AA0008101F0918201E20FF31FA0836F5FE7CF06
:101AB00010927F011092800108950E94340D0895C4
:101AC000CF93DF93EC018991882319F00E94EB0CEE
:101AD000FACFDF91CF9108950E94600D0895AAE09A
:101AE000B0E0E5E7FDE00C94F6121AE05AE0C52EEE
:101AF000D12CE12CF12C062FA70196010E94961201
:101B0000CA01B9011150E1E0F0E0EC0FFD1FE10F57
:101B1000F11D005D2AE0629F001911240083611508
:101B200071058105910539F71A3058F4E1E0F0E0CC
:101B3000EC0FFD1FE10FF11D80810E94EB0C1F5F78
:101B4000F3CF2A96E8E00C941213CF92DF92EF9233
:101B5000FF926B017C0197FF0BC0F094E094D0944E
:101B6000C094C11CD11CE11CF11C8DE20E94EB0C45
:101B7000C701B6010E946F0DFF90EF90DF90CF90EC
:101B800008950E94A50D0895A5E0B0E0EAECFDE0FF
:101B90000C94FB12182F80E8898380EC8A8384E9F7
:101BA0008B8384ED8C83FE01E60FF11D8181810F13
:101BB0006D830E94E60C10937F016D81609380011C
:101BC0002596E3E00C9417130E94C40D0895883005
:101BD00058F491E001C0990F8A95EAF7892FAAE29B
:101BE000B0E0EBE2F0E021C08E3060F498EF980FA7
:101BF00081E001C0880F9A95EAF7A4E2B0E0E5E23F
:101C0000F0E013C0853160F492EF980F81E001C0DD
:101C1000880F9A95EAF7A7E2B0E0E8E2F0E005C0A5
:101C200080E0A0E0B0E0E0E0F0E06F3F19F49081E8
:101C3000982709C0662319F09081982B04C0208151
:101C4000982F9095922390839C91982B9C93089524
:101C500083EF8093B00084BD82E08093B10085BDA6
:101C60001092B4001092B30018BC17BC60E086E07C
:101C70000E94E70D60E085E00E94E70D60E08BE0E8
:101C80000E94E70D60E083E00E94E70D08958091D7
:101C9000DA08811105C081E08093DA080E94280EDD
:101CA0000895CF93DF93EC010E94470ED7FF05C044
:101CB000D195C195D10981E001C080E0CF3FD10528
:101CC00019F014F0CFEFD0E0882319F018BCC7BD8D
:101CD00002C0C8BD17BCDF91CF910895CF93DF93A9
:101CE000EC010E94470ED7FF05C0D195C195D109DF
:101CF00081E001C080E0CF3FD10519F014F0CFEFB3
:101D0000D0E0882329F01092B400C093B30004C03F
:101D1000C093B4001092B300DF91CF910895CF9398
:101D2000DF93EB010E94510ECE010E946E0EDF91F7
:101D3000CF9108950E948F0E089584B18D7C84B94F
:101D400085B1826385B985E090E06F9364E06A9520
:101D5000F1F76F910197C9F708958091DB08811120
:101D600005C081E08093DB080E949D0E0895CF930B
:101D7000C82F0E94AD0E83B18C23E9F38AE090E076
:101D80000E94280F83B18C23B1F383B18C23CF91B0
:101D900008950E94B70E0895A1E0B0E0E2EDFEE0E4
:101DA0000C94FC1289830E94AD0E93B190958981A9
:101DB00089232196E2E00C9418130E94CC0E08951A
:101DC0002F928F939F932FB680918A0190918B01D0
:101DD000019680938A0190938B0190E080918C0111
:101DE000891F80938C01909184019C5F9093840162
:101DF0008091830180519742C0F090938401809339
:101E000083018091850190918601019680938501DF
:101E10009093860190E080918701891F80938701CC
:101E200080918801891F809388012FBE9F918F9197
:101E30002F90189528EE33E0019748F0F9016F9341
:101E400064E06A95F1F76F913197C9F7F5CF08957E
:101E50000E941A0F0895E0E7F0E080818E7F808372
:101E6000A0EBB0E08C9183608C93A1EBB0E08C91FF
:101E7000807F8C938C9182608C93B89A80818160F2
:101E80008083789408958091DC08811105C081E0F9
:101E90008093DC080E942B0F08950E94430FE0E717
:101EA000F0E080818E7F8083109285011092860100
:101EB0001092870110928801109284011092830180
:101EC0008081816080830895462FBC018DE891E078
:101ED0000E94E71108950F93CF93DF9300D000D0B5
:101EE0001F92CDB7DEB79C0185E0EAE4F1E0DE01A8
:101EF000119601900D928A95E1F7662311F00FEF8C
:101F000001C003E145E0BE016F5F7F4F8DE891E0C6
:101F10000E943D108DE891E00E9414100E944D0F28
:101F20000F900F900F900F900F90DF91CF910F9126
:101F3000089560E00E946B0F08958DE891E00E9483
:101F4000441208956F9364E06A95F1F76F910197D9
:101F5000C9F70895FC011182108213821282158242
:101F600014821682683068F489E290E0918380835D
:101F70008BE290E0938382838AE290E0958384836E
:101F80001FC06E3070F483E290E09183808385E21D
:101F900090E09383828384E290E095838483685009
:101FA0000FC0653198F486E290E09183808388E2E7
:101FB00090E09383828387E290E0958384836E50E0
:101FC00081E001C0880F6A95EAF786830895A7E04B
:101FD000B0E0EDEEFFE00C94FA128C01FC011182EE
:101FE0001082138212821582148217821682613146
:101FF00018F080E1808702C0FC016087F801208B27
:10200000642FCE0101960E94AA0F8F81F80181876B
:102010008B819C81938782878D819E819587848720
:102020002796E4E00C941613FC01A485B58510975F
:1020300079F08C919185892B8C93A285B3859C91A5
:102040008185809589238C9388EC90E00E94A20F73
:102050000895FC01A485B585109771F08C91918548
:10206000892B8C93A285B3858C919185892B8C9338
:1020700088EC90E00E94A20F0895A7E0B0E0E3E4AE
:10208000F0E10C94EF127C014B01642F3901402FD9
:1020900020E00E94E70F87010F5B1F4FF8011082BD
:1020A0006701F2E4CF0ED11CF60110825701F3E470
:1020B000AF0EB11CF5011082F70177866686512CB0
:1020C000F7018085581650F5652C712CF401E60D4A
:1020D000F71D6081CE0101960E94AA0F2F81F701A2
:1020E000E60DF71D218B89819A81F301EE0FFF1F09
:1020F000EE0DFF1D92A381A38332910511F4F80127
:1021000008C08632910511F4F60103C0899721F4C5
:10211000F5018081822B80835394D2CF2796EFE004
:102120000C940B13A0E0B0E0E8E9F0E10C94F1129C
:10213000EC015B016C0181E4C80ED11CF6018080CA
:102140007E01F2E4EF0EF11CF70170808E010D5B51
:102150001F4FF801908080E09885891748F4F501B9
:10216000E80FF11DE80FF11D118210828F5FF4CF8F
:1021700084B1F6019081892B84B987B1F7019081F0
:10218000892B87B98AB1F8019081892B8AB985B1E9
:10219000F6019081892B85B988B1F7019081892B4F
:1021A00088B98BB1F8019081892B8BB98AE090E0D6
:1021B0000E94A20F94B1F60180818095892384B991
:1021C00097B1F70180818095892387B99AB1F80189
:1021D0008081809589238AB995B1F60180818095A7
:1021E000892385B998B1F70180818095892388B9C1
:1021F0009BB1F8018081809589238BB9E090B00074
:10220000D090B1008091B00083608093B00082E0F4
:102210008093B1004091B20080E090E02E853F8530
:102220008217930720F5C090B2002C2D241B820F3B
:10223000911D03B1081132C0F6B0F7102FC029B1BB
:1022400029112CC010C0212F30E0A901440F551FC7
:10225000F501E40FF51F60817181672B21F11F5F8C
:102260002885121780F37F2C802E4C2DD7CFE0923B
:10227000B000D092B10020E08885281730F5F50134
:10228000E20FF11DE20FF11D80819181892B21F474
:102290008E859F85918380832F5FEECF03B1F6B04B
:1022A00099B010E0DDCFDE01A40FB51F91960D901F
:1022B000BC91A02D4C91DE01A20FB31F51962C9121
:1022C000422369F691838083CACFCDB7DEB7EDE0B4
:1022D0000C940D13EF92FF920F931F93CF93DF9304
:1022E000FC019B01F0907C0000917A0047B118B18D
:1022F00080917A0086FDFCCF80E09085891748F4B4
:10230000D901A80FB11DA80FB11D1D921C928F5F9E
:10231000F4CF97B182A18095892387B998B182A122
:102320008095892388B987E880937A00E12C81A180
:10233000E81610F0E12C29C050E08085581718F5F8
:10234000A52FB0E0EF01CA0FDB1F8989806480935D
:102350007C0080917A00806480937A0080917A007A
:1023600086FDFCCF6091780070917900AA0FBB1FA9
:10237000A20FB31F8D919C911197860F971F8D937C
:102380009C935F5FDACFE394D2CF8085E816A0F408
:10239000E901CE0DD11DCE0DD11D61A170E0CB01A3
:1023A00095958795A881B9818A0F9B1F0E946E120F
:1023B00079836883E394E9CFF0927C0000937A00FC
:1023C00018B947B9CDB7DEB7E6E00C941413A0E214
:1023D000B0E0EDEEF1E10C94F7128C017B01D42E0C
:1023E0008FEF840F823018F4C8010E942910D801A1
:1023F00050968C91B701811110C0C8010E949210B3
:10240000C8010E941410B2E0DB123AC0BE016F5F37
:102410007F4FC8010E9492100FC0C8010E946A112C
:10242000C8010E941410E2E0DE122AC0BE016F5FF4
:102430007F4FC8010E946A1140E0F801808548176B
:10244000F8F4842F90E0880F991FF701E80FF91F27
:1024500021E030E02C0F3D1F820F931FD8011E9604
:102460002D913C911F97DC018D919C91281B390B7C
:1024700080819181820F931F918380834F5FDDCF95
:10248000A096E7E00C941313CF93DF93EC018A81BD
:102490009B81009711F00E94BB138E819F81009752
:1024A00011F00E94BB1388819981009711F00E945E
:1024B000BB138C819D81009711F00E94BB13DF91AB
:1024C000CF910895991B79E004C0991F961708F0E1
:1024D000961B881F7A95C9F780950895AA1BBB1B88
:1024E00051E107C0AA1FBB1FA617B70710F0A61B14
:1024F000B70B881F991F5A95A9F780959095BC0135
:10250000CD01089597FB072E16F4009407D077FDB0
:1025100009D00E946E1207FC05D03EF4909581957B
:102520009F4F0895709561957F4F0895A1E21A2EEF
:10253000AA1BBB1BFD010DC0AA1FBB1FEE1FFF1F67
:10254000A217B307E407F50720F0A21BB30BE40BB7
:10255000F50B661F771F881F991F1A9469F76095FE
:102560007095809590959B01AC01BD01CF010895B8
:10257000052E97FB1EF400940E94CF1257FD07D042
:102580000E94961207FC03D04EF40C94CF12509583
:102590004095309521953F4F4F4F5F4F089590954F
:1025A0008095709561957F4F8F4F9F4F0895EE0FE7
:1025B000FF1F0590F491E02D0994A29FB001B39FF5
:1025C000C001A39F700D811D1124911DB29F700D3C
:1025D000811D1124911D08952F923F924F925F9279
:1025E0006F927F928F929F92AF92BF92CF92DF9223
:1025F000EF92FF920F931F93CF93DF93CDB7DEB788
:10260000CA1BDB0B0FB6F894DEBF0FBECDBF09941B
:102610002A88398848885F846E847D848C849B8472
:10262000AA84B984C884DF80EE80FD800C811B8180
:10263000AA81B981CE0FD11D0FB6F894DEBF0FBEAF
:10264000CDBFED0108950F931F93CF93DF93823099
:10265000910510F482E090E0E091DF08F091E0084D
:1026600020E030E0A0E0B0E0309719F140815181E6
:102670000281138148175907C8F08417950769F438
:10268000109731F012960C93129713961C9327C053
:102690000093DF081093E00822C02115310519F0DE
:1026A0004217530718F49A01BD01EF01DF01F80149
:1026B000DBCF21153105F9F0281B390B243031050A
:1026C00080F48A819B816115710521F0FB01938360
:1026D000828304C09093E0088093DF08FE01329665
:1026E00044C0FE01E20FF31F819391932250310900
:1026F000398328833AC02091DD083091DE08232BEE
:1027000041F420910E0130910F013093DE082093A7
:10271000DD0820910C0130910D012115310541F4A6
:102720002DB73EB74091100150911101241B350B7C
:10273000E091DD08F091DE08E217F307A0F42E1B0C
:102740003F0B2817390778F0AC014E5F5F4F241715
:10275000350748F04E0F5F1F5093DE084093DD08A9
:102760008193919302C0E0E0F0E0CF01DF91CF913F
:102770001F910F910895CF93DF93009709F481C0C3
:10278000FC01329713821282A091DF08B091E00819
:10279000109781F420813181820F931F2091DD08F1
:1027A0003091DE082817390751F5F093DE08E093E1
:1027B000DD0867C0ED0120E030E0CE17DF0740F410
:1027C0004A815B819E0141155105F1F0EA01F5CF87
:1027D000D383C28340815181840F951FC817D907C5
:1027E00059F488819981840F951F02969183808383
:1027F0008A819B81938382832115310529F4F0938B
:10280000E008E093DF083DC0E901FB83EA834991DA
:102810005991C40FD51FEC17FD0761F48081918198
:10282000840F951F0296E9019983888382819381A1
:102830009B838A83E0E0F0E012968D919C91139740
:10284000009719F0FD01DC01F7CF8D919C91119754
:102850009D012E5F3F4F820F931F2091DD08309125
:10286000DE082817390769F4309729F41092E00838
:102870001092DF0802C013821282B093DE08A09388
:10288000DD08DF91CF91089510E0C4E5D0E004C0E9
:10289000FE010E94D7122196C535D107C9F7F894D9
:0228A000FFCF68
:1028A2000F00F4010400D007040108020000E1084F
:1028B200200001000100010000000000FFFFFFFFF7
:1028C200FFFF0000FFFF01000100FFFF0000010009
:1028D200FFFF9C01B501CF01EA0107022602470270
:1028E20069028E02B502DE020A030E0F10111221D6
:1028F2004F425321004E4F54204F42530028002C88
:10290200200029003E3E6133320020412042204314
:022912002000A3
:00000001FF
