:100000000C9455000C947D000C947D000C947D00A4
:100010000C947D000C947D000C947D000C947D006C
:100020000C947D000C940E140C947D000C947D00B7
:100030000C947D000C9424110C947D000C947D0094
:100040000C947D000C947D000C947D000C947D003C
:100050000C947D000C947D000C947D000C947D002C
:100060000C947D000C947D00130510051F051C09E0
:100070001F091C0519051605084AD73B3BCE016E22
:1000800084BCBFFDC12F3D6C74319ABD56833DDAEF
:100090003D00C77F11BED9E4BB4C3E916BAAAABEFE
:1000A000000000803F00540ACB1411241FBECFEF84
:1000B000D8E0DEBFCDBF11E0A0E0B1E0EEEFF2E3AB
:1000C00002C005900D92AC37B107D9F727E0ACE735
:1000D000B1E001C01D92AA32B207E1F710E0C4E519
:1000E000D0E004C02197FE010E940518C335D10756
:1000F000C9F70E94190A0C9472190C940000FC01B3
:10010000208131812F30310550F4828193818F30ED
:10011000910550F060E07EEF8FEF96E4089560E087
:100120007EEF8FEF96E40895AC01440F551F840FC6
:10013000951F880F991F4AE5429FF001439FF00DDC
:1001400011248E0F9F1FFC01E552FE4F60817181CB
:10015000072E000C880B990B0E94490B0895FC0197
:10016000208131812F30310528F5828193818F30B4
:10017000910528F160E07EEF8FEF96E40895AC01E1
:10018000440F551F840F951F880F991F4AE5429F02
:10019000F001439FF00D11248E0F9F1FFC01E552CB
:1001A000FE4F60817181072E000C880B990B0E9415
:1001B000490B089560E07EEF8FEF96E40895FC010F
:1001C000EE0FFF1FE80FF91FEE0FFF1F6AE5629F9A
:1001D000A001639F500D1124E40FF51FE552FE4F5F
:1001E00045814111CCCF60E07EEF8FEF96E408951A
:1001F000FC01208131812F30310528F582819381E6
:100200008F30910550F160E07EEF8FEF96E4089516
:10021000AC01440F551F840F951F880F991F4AE5A5
:10022000429FF001439FF00D11248E0F9F1FFC0190
:10023000E552FE4F62817381072E000C880B990BEB
:100240000E94490B089560E07EEF8FEF96E40895D9
:1002500060E07EEF8FEF96E40895FC01EE0FFF1F44
:10026000E80FF91FEE0FFF1F6AE5629FA001639F71
:10027000500D1124E40FF51FE552FE4F4581411149
:10028000E7CFC6CFCF92DF92EF92FF92FC012081A1
:1002900031812F30310508F050C0428153814F30F9
:1002A000510508F459C060E07EEF8FEF96E469C015
:1002B000FA01EE0FFF1FE40FF51FEE0FFF1FAAE577
:1002C000A29FC001A39F900D1124E80FF91FE552D2
:1002D000FE4F8581811136C0FB0180819181FC0137
:1002E000E21BF30BCF0122F4882799278E1B9F0B6B
:1002F000FB0122813381B901641B750B9B0122F440
:1003000022273327261B370B889F6001899FD00C3B
:10031000D00C1124229FC001239F900D900D112419
:10032000C80ED91E0D2C000CEE08FF08C701B6013F
:100330000E94490B0E94BF0C24C060E07EEF8FEF4B
:1003400096E41FC060E07EEF8FEF96E41AC060E095
:100350007EEF8FEF96E415C0FA01EE0FFF1FE40F5A
:10036000F51FEE0FFF1FAAE5A29FC001A39F900DEE
:100370001124E80FF91FE552FE4F84818111E7CF68
:1003800097CFFF90EF90DF90CF900895CF92DF92BC
:10039000EF92FF92FB01808191818F30910508F0EF
:1003A0004FC0228133812F30310508F458C060E0FE
:1003B0007EEF8FEF96E468C0F901EE0FFF1FE20FAA
:1003C000F31FEE0FFF1FAAE5A89FB001A99F700DB4
:1003D0001124E60FF71FE552FE4F6581611135C00C
:1003E000FA0160817181681B790BCB01992324F498
:1003F00088279927861B970BFA0142815381421B5C
:10040000530B9A0122F422273327241B350B889F94
:100410006001899FD00CD00C1124229FC001239F22
:10042000900D900D1124C80ED91E0D2C000CEE0855
:10043000FF08C701B6010E94490B0E94BF0C24C0EF
:1004400060E07EEF8FEF96E41FC060E07EEF8FEFFD
:1004500096E41AC060E07EEF8FEF96E415C0F901D4
:10046000EE0FFF1FE20FF31FEE0FFF1FAAE5A89F7D
:10047000B001A99F700D1124E60FF71FE552FE4F42
:1004800064816111E7CF98CFFF90EF90DF90CF901C
:100490000895FB01208131812F30310550F4828194
:1004A00093818F30910550F060E07EEF8FEF96E4FE
:1004B000089560E07EEF8FEF96E40895AC01440F5D
:1004C000551F840F951F880F991F4AE5429FF00121
:1004D000439FF00D11248E0F9F1FFC01E552FE4F2C
:1004E00060817181072E000C880B990B0E94490BCB
:1004F00008950F931F93CF93DF93EC010E948B120B
:100500000FE010E080E10E940B14811145C082E0F1
:100510000E940B14882341F08D819E810196B801C1
:100520000E94B0179E838D8380E20E940B14882363
:1005300041F08F8198850196B8010E94B017988785
:100540008F830E948B1281E591E00E949A126D8147
:100550007E81072E000C880B990B0E94EF1283E519
:1005600091E00E949A126F817885072E000C880B0B
:10057000990B0E94EF1286E591E00E949A1261E0C9
:1005800080E00E94121388E591E00E949A1284E6AE
:1005900090E00E945614B6CF80E10E94F71388EED7
:1005A00093E00E945614DF91CF911F910F9108950F
:1005B000CF93DF93CDB7DEB7A9970FB6F894DEBF20
:1005C0000FBECDBF1C010E948B1280E691E00E94FD
:1005D0009A1261E080E00E94121389E691E00E9485
:1005E0009A129E012F5F3F4F388B2F87C1010596CE
:1005F00099A388A39F859E8BA889AF8BF10139961B
:10060000FFA3EEA382E00E940B14882331F182E065
:100610000E94F7136101F9E0CF0ED11C710123E1B3
:10062000E20EF11C61E0C6010E9492148601D8011D
:100630006D917D918D0180E090E00E94EF1284EF3A
:1006400091E00E9456140E948B120E151F0579F737
:1006500082E791E00E948211E5CF80E10E940B14B5
:10066000882381F280E10E94F713C1010E94790280
:10067000F101108E178A24E130E03BA32AA304E1A4
:1006800010E061E0CE0101960E949214D1015796CC
:100690002D913C9158978B819C81280F391F8D811A
:1006A0009E81820F931F2F813885280F391F5896FE
:1006B0003C932E9357970150110919F71BA30AA3D6
:1006C000A9E8B8E80E940B189695879592958295AF
:1006D0008F7089279F7089274497F101908F878BAE
:1006E00064E170E084E190E00E94C81384E893E044
:1006F0000E94561460E070E080E090E00E94C81311
:10070000D1014D915C91119712968D919C91139707
:100710009C01220F331F820F931F880F991F2AE518
:10072000249FF001259FF00D11248E0F9F1FFC01C7
:10073000E552FE4F118210824D915C9111971296F5
:100740008D919C911397BC01660F771F860F971FA1
:10075000880F991F249FF001259FF00D11248E0F03
:100760009F1FFC01E552FE4F81E08583188E1A8E93
:10077000F10120813181858196812817390741F463
:1007800022813381878190852817390709F43ACF70
:10079000D10153968D919C91549703970CF032CFD1
:1007A000E8E0F0E0FDA3ECA32C8A3D8AD10153964A
:1007B0008D919C91549702970CF0C1C068A179A1CA
:1007C0008C899D890E944201762E672E898B9A8B97
:1007D000D1018D919D910D90BC91A02D8C8F9D8FFD
:1007E000AE8FBF8FF1018480888D9A8D912C24016A
:1007F0008C01880D991D87709078992324F40197B6
:10080000886F9F6F0196FC01EE0FFF1FEC5EFE4F9D
:10081000D1014D915C91119720813181240F351FB9
:100820003A8329831296AD90BC901397880F991F35
:10083000FC01EC5DFE4F808191818A0D9B1D9C83A4
:100840008B8368A179A18E899F890E944201C62E5F
:10085000D72EE82EF92E272D362D49895A890E9448
:100860009A0A882364F489819A81AB81BC818C8F38
:100870009D8FAE8FBF8F7C2C6D2CE98AFA8AC801C0
:1008800001968830910509F0B2CF109221076C8C47
:100890007D8CEE8CFF8CD1018D909C9086149704FA
:1008A00009F0BDC4AE14BF0409F4A5C43401AEC040
:1008B0009D8F8C8F840D951D87709078992324F4DB
:1008C0000197886F9F6F0196FC01EE0FFF1FEC5E92
:1008D000FE4F20813181280D391D3A832983880FED
:1008E000991FFC01EC5DFE4F808191818A0D9B1D5B
:1008F0009C838B836C897D898E899F890E947F0070
:10090000062F172F282E392E272D362D49895A8943
:100910000E949A0A882344F4C980DA80EB80FC8024
:10092000702E612E298A3A8A8C8D9D8D0196883091
:10093000910509F0BDCF28A439A4360160C06C89A7
:100940007D89862F972F0E94F800562E472E898B7F
:100950009A8BF10180809180A280B3806480888D21
:100960009A8D712C6C01860D971D87709078992354
:1009700024F40197886F9F6F0196FC01EE0FFF1F13
:10098000EC5EFE4FD1014D915C9111972081318138
:10099000240F351F3A832983880F991FFC01EC5DD2
:1009A000FE4F12968D919C91139720813181820F79
:1009B000931F9C838B836C897D898E899F890E947C
:1009C000F800062F172FF82EE92E252D342D4989F2
:1009D0005A890E949A0A882344F489809A80AB80BD
:1009E000BC80502E412EF98AEA8AC60101968830D1
:1009F000910509F0B7CF1092210734017501F1017B
:100A0000808191818615970509F009C4D10112965C
:100A10008D919C9113978E159F0509F000C4FEC01F
:100A20000DE210E00EC00AE510E00BC007E810E090
:100A300008C004EB10E005C001EE10E002C0088D14
:100A40001A8DF101808191815301A81AB90A82811E
:100A500093819701281B390BC901A114B10461F4DA
:100A6000181619064CF199236CF50F2EF6EACF2EC5
:100A7000F02DDD24DA9428C0B5010E94B017072EAE
:100A8000000C880B990B0E94490B0E946B0A20E016
:100A900030E044E353E40E94280C2BED3FE049E4AE
:100AA00050E40E949F0A0E94110B6B01BB2064F46A
:100AB00034EBC30ED11C08C00F2EFAE5CF2ED12C7B
:100AC000F02D02C0C88CDA8CC8018C199D096DE22A
:100AD00070E00E94B017072E000C880B990B0E9443
:100AE000490B0E94950C0E94110B8B01653071051A
:100AF00014F0085011090C3F4FEF140714F4085F6D
:100B00001F4F8DE2C816D10481F174F4A3EDCA160B
:100B1000AFEFDA0609F1C114D10411F1B6EACB1630
:100B2000BFEFDB06B9F513C0E7E8CE16D10429F113
:100B30002CF42AE5C216D104E1F02CC034EBC31624
:100B4000D104F9F041EEC416D10401F123C084E0D0
:100B5000D10114968C931EC083E0F10184831AC0E6
:100B600082E0D10114968C9315C021E0F101248319
:100B700011C0D10114961C920DC027E0F10124830D
:100B800009C0E6E0D1011496EC9304C085E0D101E0
:100B900014968C931123ECF46AE270E086ED9FEFDB
:100BA0000E94C813C801992324F488279927801B21
:100BB000910B28ECFC012E9FC0012F9F900D11245A
:100BC0000E945614688D7A8D862F972F0E94C81325
:100BD0001FC010161106E4F466ED7FEF8AE290E084
:100BE0000E94C813C801992324F488279927801BE1
:100BF000910BE8ECDC01EA9FC001EB9F900D112402
:100C00000E945614688D7A8D862F972F0E94C813E4
:100C1000688D7A8D862F972F0E94C81361E08E8988
:100C20009F890E9492148B819C81813B944050F457
:100C30008D819E81813B944028F48F819885813BF2
:100C40009440D8F0F701EE0FFF1FEE0DFF1DEE0FE1
:100C5000FF1F2AE5269DC001279D900D1124E80F56
:100C6000F91FE552FE4F41E044838CA19DA10197FD
:100C70009DA38CA3892B09F099CD7C866B86FE867B
:100C8000ED8643015701C701880F991F8E0D9F1DE7
:100C9000880F991F2AE5269DF001279DF00D11244C
:100CA0008E0F9F1FFC01E552FE4F85818111C4C04C
:100CB000BE01655F7F4FCB010E94AF006C8B7D8BC7
:100CC000898B9A8B4B845C846D847E84D1011496CD
:100CD0002C9180E090E0022F10E03D8E2C8E7C0164
:100CE000800F911F87709078992324F40197886F63
:100CF0009F6F0196FC01EE0FFF1FEC5EFE4F2081FF
:100D00003181280D391D3A832983880F991FFC01F1
:100D1000EC5DFE4F808191818A0D9B1D9C838B83AE
:100D2000BE01655F7F4F8E899F890E94AF00262E8E
:100D3000372EC82ED92E2C893D8949895A890E947F
:100D40009A0A882344F449805A806B807C802C8ADC
:100D50003D8AC98ADA8AC70101968830910509F06F
:100D6000BECF2C8C3D8C109221079501220F331F92
:100D70002A0D3B1D220F331FEAE5E89DC001E99DC6
:100D8000900D1124820F931FDC01A552BE4F6D916F
:100D90007C919301220F331F260D371D220F331F25
:100DA000E49DC001E59D900D1124820F931FFC016D
:100DB000E552FE4F808191818414950431F0A61490
:100DC000B70449F422E030E00BC0A614B70431F0B8
:100DD00022E030E005C023E030E002C020E030E057
:100DE000820F931F861797079CF4F501EE0FFF1FE4
:100DF000EA0DFB1DEE0FFF1F4AE5489D9001499D3E
:100E0000300D1124E20FF31FE552FE4F91838083D2
:100E1000C501880F991F8A0D9B1D880F991F2AE510
:100E2000289DF001299DF00D11248E0F9F1FFC01BC
:100E3000E552FE4F81E08583F1012081318185817A
:100E400096812817390741F4228133818781908563
:100E50002817390709F484C08B859C85AD85BE852C
:100E6000F10180839183A283B38363E170E083E126
:100E700090E00E94C81361E08EA19FA10E9492148D
:100E8000D1011B968D919C911C97813BB4E09B07EF
:100E900008F0D8C1F10165857685613BF4E07F07F4
:100EA00008F0D0C1D1011F962D913C915097213B64
:100EB000B4E03B0708F0C6C1F1014789508D4817DF
:100EC000590730F04617570718F04217530798F69E
:100ED000821B930B9C0122F422273327281B390BFA
:100EE000243131057CF0992344F481E0D1015596F9
:100EF0008C93559756961C92A5C1F101158A81E0F5
:100F0000868BA0C1D10155961C92559756961C927E
:100F100099C1F1018689811113C063E170E084E118
:100F200090E00E94C81312C0D10156968C9188237C
:100F300039F064E170E083E190E00E94C81306C0DC
:100F400063E170E083E190E00E94C81384E893E0DD
:100F50000E94561460E070E080E090E00E94C813A8
:100F6000F10120813181858196812817390709F0A7
:100F7000FFCB42815381878190854817590709F03B
:100F8000F7CB69C19301281B390BF201EE0FFF1F4C
:100F9000E40DF51DEE0FFF1FB89CC001B99C900D2C
:100FA0001124E80FF91FE552FE4F82819381281723
:100FB000390794F4F201EE0FFF1FE40DF51DEE0F5B
:100FC000FF1FB89CC001B99C900D1124E80FF91FB8
:100FD000E552FE4F33832283BE01655F7F4FCB0115
:100FE0000E94AF00A62E7D8B898B392ECB84DC84AA
:100FF000ED84FE84AA89BB8914962C9180E090E050
:10100000022F10E07B8E6A8E998F888F800F911F40
:1010100087709078992324F40197886F9F6F0196C9
:10102000FC01EE0FFF1FEC5EFE4F20813181280D89
:10103000391D3A832983880F991FFC01EC5DFE4F0F
:1010400080819181840D951D9C838B83BE01655F9A
:101050007F4F8E899F890E94AF006C8B672E782E00
:10106000292E2A2D3D894989532D0E949A0A8823C9
:1010700044F4C980DA80EB80FC80AC886D8A798A80
:10108000322C888D998D01968830910509F0BCCF5E
:101090006A8C7B8C10922107CB86DC86ED86FE86DF
:1010A0008C2C9D2C4D845E84F201EE0FFF1FE40D0D
:1010B000F51DEE0FFF1FB89CC001B99C900D1124C7
:1010C000E80FF91FE552FE4F80819181009709F0EA
:1010D00059CF2A883B88F201EE0FFF1FE40DF51D62
:1010E000EE0FFF1F2AE5289DC001299D900D1124B8
:1010F000E80FF91FE552FE4F828193816816790649
:1011000094F4F201EE0FFF1FE40DF51DEE0FFF1F2B
:10111000289DC001299D900D1124E80FF91FE5526B
:10112000FE4F73826282F101B580C680D780008550
:101130006BED71E020E030E0FB018AA19BA1922ED3
:10114000A32EDF0145814423B1F0E080F180E1145A
:10115000F10421F4D82E092FB92CCA2C12964D91E6
:101160005C9113971396FC92EE92129711965C93F2
:101170004E9315961C92019636968F30910509F77D
:101180002F5F3F4F665A7F4F2F303105A9F6D101AF
:101190001596BC9215971696CC9216971796DC92D8
:1011A000179718960C931897109221072D913C9140
:1011B000119712968D919C911397AC01440F551F76
:1011C000840F951F880F991F4AE5429FF001439FA6
:1011D000F00D11248E0F9F1FFC01E552FE4F81E0A0
:1011E000858353968D919C915497019654969C9328
:1011F0008E935397BBCA6C897D89862F972F0E9447
:101200007F00762E672E898B9A8BF101C080D1806A
:10121000E280F380888D9A8D39A628A649CBD1012A
:1012200014968C9190E08830910508F005CCFC0173
:10123000EC5CFF4F0C94051803ED1FEF02CC06EA9F
:101240001FEFFFCB82E791E00E948211F1018589B7
:1012500081115FCE69CED10182819381AC01440FAF
:10126000551F840F951F880F991F4AE5429FF00173
:10127000439FF00D11248E0F9F1FFC01E552FE4F7E
:101280001382128215968D919D910D90BC91A02D87
:10129000382F292F8B879C87AD87BE87F1018781E7
:1012A000908565817681FC01EE0FFF1F8E0F9F1FD9
:1012B000880F991F469FF001479FF00D11248E0F54
:1012C0009F1FFC01E552FE4F60807180832E922E9D
:1012D0004D845E84F201EE0FFF1FE40DF51DEE0F4D
:1012E000FF1F489DC001499D900D1124E80FF91F73
:1012F000E552FE4F80819181009709F4ECCE0F2ECC
:10130000FAE5BF2EF02D3B8A2A8A3CCEFB012081D4
:1013100031812F30310528F5828193818F309105FD
:1013200028F160E07EEF8FEF96E40895AC01440F62
:10133000551F840F951F880F991F4AE5429FF001A2
:10134000439FF00D11248E0F9F1FFC01E552FE4FAD
:1013500060817181072E000C880B990B0E94490B4C
:10136000089560E07EEF8FEF96E40895FC01EE0FA4
:10137000FF1FE80FF91FEE0FFF1F6AE5629FA00134
:10138000639F500D1124E40FF51FE552FE4F458178
:101390004111CCCF60E07EEF8FEF96E40895FB0122
:1013A000208131812F30310528F5828193818F3062
:1013B000910550F160E07EEF8FEF96E40895AC0167
:1013C000440F551F840F951F880F991F4AE5429FB0
:1013D000F001439FF00D11248E0F9F1FFC01E55279
:1013E000FE4F62817381072E000C880B990B0E94BF
:1013F000490B089560E07EEF8FEF96E4089560E07A
:101400007EEF8FEF96E40895FC01EE0FFF1FE80FCB
:10141000F91FEE0FFF1F6AE5629FA001639F500D49
:101420001124E40FF51FE552FE4F45814111E7CF2E
:10143000C6CFCF93DF93CDB7DEB769970FB6F894D9
:10144000DEBF0FBECDBF85E090E09A8389831C820A
:101450001B821D829F838E8383E090E0998788871B
:101460001D8A1C8A1E8A1F8A80ED97E00E94C7147D
:1014700060E070E080E090E00E94C8130E946A0E75
:101480008C010E948B12B80180E090E00E94EF1264
:1014900088E791E00E949A1288EE93E00E94561429
:1014A000CE0101960E94D8024BED51E08FEF9FE7ED
:1014B000FA01465A5F4F9A01918380839383828316
:1014C000148215823696E217F307B1F727E041320E
:1014D000520771F70895DF93DD27B92FBF7740E8F2
:1014E0005FE31616170648075B0718F4D92F0E940A
:1014F000200C9F938F937F936F930E94FF0CE8E7DC
:10150000F0E00E94B10B0E94E60B2F913F914F91AA
:101510005F910E943B0CDD2351F09058A2EA2AED26
:101520003FE049EC5FE3D0785D270E94140DDF9126
:101530000C94E60B0E94840B08F481E008950E944D
:10154000B30A0C94E60B0E94DF0B58F00E94D80BF4
:1015500040F029F45F3F29F00C94A80B51110C9432
:101560001A0C0C94AE0B0E94F70B68F39923B1F39D
:10157000552391F3951B550BBB27AA2762177307B9
:10158000840738F09F5F5F4F220F331F441FAA1F4D
:10159000A9F335D00E2E3AF0E0E832D09150504009
:1015A000E695001CCAF72BD0FE2F29D0660F771FB7
:1015B000881FBB1F261737074807AB07B0E809F09D
:1015C000BB0B802DBF01FF2793585F4F3AF09E3F22
:1015D000510578F00C94A80B0C941A0C5F3FE4F3BF
:1015E000983ED4F3869577956795B795F7959F5F65
:1015F000C9F7880F911D9695879597F90895E1E0B1
:10160000660F771F881FBB1F621773078407BA070F
:1016100020F0621B730B840BBA0BEE1F88F7E0956A
:1016200008950E94180B6894B1110C941A0C089537
:101630000E94FF0B88F09F5798F0B92F9927B75158
:10164000B0F0E1F0660F771F881F991F1AF0BA9566
:10165000C9F714C0B13091F00E94190CB1E008959F
:101660000C94190C672F782F8827B85F39F0B93F91
:10167000CCF3869577956795B395D9F73EF4909519
:101680008095709561957F4F8F4F9F4F0895E89497
:1016900009C097FB3EF490958095709561957F4FBA
:1016A0008F4F9F4F9923A9F0F92F96E9BB27939568
:1016B000F695879577956795B795F111F8CFFAF478
:1016C000BB0F11F460FF1BC06F5F7F4F8F4F9F4FA9
:1016D00016C0882311F096E911C0772321F09EE807
:1016E000872F762F05C0662371F096E8862F70E06D
:1016F00060E02AF09A95660F771F881FDAF7880F47
:101700009695879597F90895990F0008550FAA0B9C
:10171000E0E8FEEF16161706E807F907C0F0121604
:101720001306E407F50798F0621B730B840B950B07
:1017300039F40A2661F0232B242B252B21F408955C
:101740000A2609F4A140A6958FEF811D811D0895F9
:1017500097F99F6780E870E060E008959FEF80EC64
:101760000895DF93CF931F930F93FF92EF92DF9231
:101770007B018C01689406C0DA2EEF010E943B0CBD
:10178000FE01E894A5912591359145915591A6F3D7
:10179000EF010E94140DFE019701A801DA9469F788
:1017A000DF90EF90FF900F911F91CF91DF910895FF
:1017B00000240A9416161706180609060895002430
:1017C0000A9412161306140605060895092E0394AA
:1017D000000C11F4882352F0BB0F40F4BF2B11F41E
:1017E00060FF04C06F5F7F4F8F4F9F4F089557FD7D
:1017F0009058440F551F59F05F3F71F04795880F7F
:1018000097FB991F61F09F3F79F087950895121615
:1018100013061406551FF2CF4695F1DF08C01616C1
:1018200017061806991FF1CF869571056105089472
:101830000895E894BB2766277727CB0197F9089589
:101840009B01AC0160E070E080E89FE30C949F0A8C
:101850000E943B0C0C94E60B0E94D80B38F00E94BF
:10186000DF0B20F0952311F00C94A80B0C94AE0B19
:1018700011240C941A0C0E94F70B70F3959FC1F37E
:10188000950F50E0551F629FF001729FBB27F00D2E
:10189000B11D639FAA27F00DB11DAA1F649F662783
:1018A000B00DA11D661F829F2227B00DA11D621FD2
:1018B000739FB00DA11D621F839FA00D611D221F8C
:1018C000749F3327A00D611D231F849F600D211D70
:1018D000822F762F6A2F11249F5750409AF0F1F0F3
:1018E00088234AF0EE0FFF1FBB1F661F771F881F5C
:1018F00091505040A9F79E3F510580F00C94A80BE1
:101900000C941A0C5F3FE4F3983ED4F386957795D8
:101910006795B795F795E7959F5FC1F7FE2B880F01
:10192000911D9695879597F908950E94FF0BE8F011
:101930009E37E8F09639B8F49E3848F4672F782F30
:101940008827985FF9CF8695779567959395953910
:10195000D0F3B62FB1706B0F711D811D20F48795E8
:101960007795679593950C94690D0C94840D0C9460
:101970001A0C19F416F40C94AE0B0C94840D0E94FE
:10198000FF0BB8F39923C9F3B6F39F57550B87FFA5
:101990000E94920D0024A0E640EA900180585695DE
:1019A000979528F4805C660F771F881F20F0261714
:1019B0003707480730F4621B730B840B2029312949
:1019C0004A2BA69517940794202531254A2758F7C6
:1019D000660F771F881F20F026173707480730F457
:1019E000620B730B840B200D311D411DA09581F7F7
:1019F000B901842F9158880F9695879508959B017A
:101A0000AC010C94280C0E94D80B38F00E94DF0B1C
:101A100020F039F49F3F19F426F40C94AE0B0EF429
:101A2000E095E7FB0C94A80BE92F0E94F70B58F305
:101A3000BA17620773078407950720F079F4A6F5B3
:101A40000C94190C0EF4E0950B2EBA2FA02D0B015F
:101A5000B90190010C01CA01A0011124FF27591BF3
:101A600099F0593F50F4503E68F11A16F040A22FF9
:101A7000232F342F4427585FF3CF4695379527956A
:101A8000A795F0405395C9F77EF41F16BA0B620B69
:101A9000730B840BBAF09150A1F0FF0FBB1F661FB0
:101AA000771F881FC2F70EC0BA0F621F731F841FF3
:101AB00048F4879577956795B795F7959E3F08F019
:101AC000B0CF9395880F08F09927EE0F97958795DB
:101AD0000895882371F4772321F09850872B762F6F
:101AE00007C0662311F499270DC09051862B70E032
:101AF00060E02AF09A95660F771F881FDAF7880F43
:101B00009695879597F908959F3F31F0915020F46D
:101B1000879577956795B795880F911D96958795C9
:101B200097F9089591505040660F771F881FD2F79C
:101B30000895ECE7F0E080818F7D80830895811126
:101B400003C00E94990D089580917C00806280936B
:101B50007C00089580917C0085FB882780F908959A
:101B60000E94AA0D882321F08091790090E00895C9
:101B7000809178009091790008958032A0F497E8E0
:101B800090937A0090917C00662311F0906C02C0D3
:101B90009F779064907E982B90937C0080917A0040
:101BA000806480937A000895A0E0B0E0EAEDFDE063
:101BB0000C942418EB0160E00E94BD0D80917A0026
:101BC00086FDFCCF8E01C12CD12C760180917A004C
:101BD000806480937A0080917A0086FDFCCF0E9419
:101BE000B00DC80ED91EE11CF11C015011090115E0
:101BF000110561F7CE0196958795C034D10538F46B
:101C00008C0D9D1DBE010E949C17CB010EC0A7012B
:101C10009601280F391F411D511DCA01B9019E01AE
:101C200040E050E00E94C417C901CDB7DEB7E8E03C
:101C30000C944018CF92DF92EF92FF92A091000196
:101C4000B09101019C010E940B186B017C010E9464
:101C5000AA0D882359F0C701B60161587F4F8F4FF5
:101C60009F4F2FEF30E040E050E00AC0C701B601BF
:101C700061507E4F8F4F9F4F2FEF33E040E050E099
:101C80000E94C417C901FF90EF90DF90CF90089594
:101C90000E94D40D0E941A0E08951F93CF93DF93D4
:101CA0000E94AA0D182F0E94990D6AE070E086E04C
:101CB0000E94480EEC01812F0E949F0DCE01880FDB
:101CC000991F8C0F9D1F019696958795DF91CF9157
:101CD0001F9108950E944D0E089590918101E09109
:101CE0007C01F0917D01992311F0849101C08081E4
:101CF0002FEB280F2A3110F4805E0895803249F4CA
:101D00009F012F5F3F4F30937D0120937C01EF2B8C
:101D100031F708951F93CF93DF930E946D0EC0E0BB
:101D2000D0E01AE090ED980F9A30B8F49E01129F1F
:101D3000E001139FD00D1124C80FD11D87FDDA9546
:101D4000E09780917C0190917D01019690937D01B7
:101D500080937C010E946D0EE5CFCE01DF91CF9183
:101D60001F91089510926F0083E28093800081E1BB
:101D7000809381001092820080E197E29093890025
:101D80008093880010928B0010928A00229A789497
:101D900008958F929F92AF92BF92DF92EF92FF923F
:101DA0000F931F93CF93DF935C018B01D42E80910F
:101DB0007E01811105C081E080937E010E94B20EF8
:101DC00010920B01B7FE05C0E894B7F82AE0F22E96
:101DD00002C0FF24F394E09081002E2D287FE22E94
:101DE00048ECF49EC00111248A159B05E0F4E5013E
:101DF00051E1A51657E2B50610F0C0E1D7E2BE01E9
:101E00007695679580E090E06058794687469F4FC9
:101E10004E01A12CB12CA50194010E94C4175901B7
:101E20008E2D816024C0C8E2FC9EC02D1124D0E01C
:101E3000CA15DB0508F4E501BE01769567959E019C
:101E400040E050E08AE0F81207C080E090E0605E79
:101E5000734481449F4F06C080E090E060537D4E04
:101E60008C4E9F4F0E94C41759018E2D8260882E80
:101E70002AE0F21207C0CE0105966AE070E00E94E7
:101E80009C17EB01C83E43E0D40759F09801DE01EE
:101E90000E940B1828EE33E040E050E00E94E61765
:101EA000890110926F0080928100B0928900A09207
:101EB000880020918800309189004D2D403108F034
:101EC0004FE080E190E0841B9109A90102C0569582
:101ED00047958A95E2F750938B0040938A001093C0
:101EE00084010093830186B38FEF86BB81E08093EA
:101EF0006F00DF91CF911F910F91FF90EF90DF90D6
:101F0000BF90AF909F908F900895CF93DF93EB0198
:101F10008F3F11F0411105C040E0BE0188EE93E013
:101F200043C0813130F050EF580F503618F05FE564
:101F300001C050E0852F6CE00E949017682F74EF6D
:101F4000760390011124250F311D2C30310540F40A
:101F5000F901EE0FFF1FEC5CFE4F2081318102C0C2
:101F600020E030E0873081F0082E02C0220F331FBE
:101F70000A94E2F7823028F0C90105966AE070E021
:101F80000CC0C90190580CC0C90136E0880F991FD8
:101F90003A95E1F7029665E070E00E949C17CB014C
:101FA000403108F04FE0BE010E94C90EDF91CF9191
:101FB0000895A2E0B0E0EFEDFFE00C941C189090C3
:101FC0000A0180918001882321F060917F016111D5
:101FD00017C077247394B0ECAB2EBDE5BB2E1AE08E
:101FE000612E04E0802E80EDC82E87E0D82E94E08C
:101FF000E92EF12C04EF11E02FE0422E512C15C0F8
:1020000070E040E088EE93E00E94C90E10927F01DC
:1020100017C18636D4F5813609F4A9C07CF58C3316
:1020200009F460C08E3381F493940E946D0E209168
:102030007C0130917D012F5F3F4F30937D012093D4
:102040007C01853631F752C0813209F08BC0809215
:102050000A01D0920901C0920801F0920701E092B2
:102060000601109305010093040150920301409270
:10207000020110928001A4E09A2ED7CF8336A1F1FD
:102080000CF478C010E082E077C08D36C1F194F492
:10209000873691F174F18C3609F064C00E948A0E83
:1020A000BC019093070180930601809108019091F3
:1020B000090151C08237C9F14CF48F3609F052C082
:1020C0000E948A0E982E80930A01AFCF843781F147
:1020D000863709F047C00E948A0E909303018093CF
:1020E0000201A3CF9A94A1CF10E020C010E084E0B9
:1020F00043C010E085E040C010E087E03DC00E9492
:102100006D0E8C3619F41092800104C0709280011B
:1021100010927F0120917C0130917D012F5F3F4F14
:1021200030937D0120937C0180CF11E080E024C0BA
:102130000E948A0EBC01C5010E949C17669EC001C8
:10214000679E900D1124909309018093080160917E
:102150000601709107010E949C177093050160931E
:10216000040163CF10927D0110927C0169C010E0E0
:1021700089E002C010E08BE0082F9CE0999E000DE2
:1021800011240E946D0E982F977F933261F4209155
:102190007C0130917D012F5F3F4F30937D01209373
:1021A0007C010F5FEECF8D3271F420917C01309174
:1021B0007D012F5F3F4F30937D0120937C010150C3
:1021C0000E946D0EF0CF6091040170910501815362
:1021D000883050F4E0900801F09009010E948A0EC6
:1021E000BC01C7010E949C177B01F694E7946983A8
:1021F0007A830E946D0E69817A818E3269F4209112
:102200007C0130917D012F5F3F4F30937D01209302
:102210007C016E0D7F1DE9CF80918001882339F00C
:102220009B013695279520937F01621B7109409190
:102230000201112311F08FEF01C0802F0E94850F42
:102240002296E0E10C9438181F920F920FB60F926D
:1022500011242F933F934F935F936F937F938F93AB
:102260009F93AF93BF93EF93FF93809183019091DE
:1022700084019C0121503109309384012093830112
:10228000892B11F510926F00789480918100887FDE
:1022900081608093810080E197E290938900809330
:1022A000880010928B0010928A0081E080930B01CD
:1022B00080917C0190917D01892B31F08091820188
:1022C000811102C00E94D90FFF91EF91BF91AF9190
:1022D0009F918F917F916F915F914F913F912F913E
:1022E0000F900FBE0F901F90189510926F00909353
:1022F0007D0180937C011092810110927F010E94E8
:10230000D90F08950E947511089581E090E06F93B0
:1023100064E06A95F1F76F910197C9F708950F93FB
:102320001F93CF93DF931AB157985A98289AC0E019
:10233000D0E00E9485115C9A0E94851109B15C98D9
:102340000E9485115C9A0E9485115C98249607FF73
:1023500010C0AE0160E070E080918501909186012F
:10236000A0918701B0918801481759076A077B0738
:1023700000F31AB9DF91CF911F910F91089595B194
:10238000282F217030E0220F331F482F467068E05D
:10239000469FA0011124242B9D7C292B25B99BB19C
:1023A00088708295807F9F77892B8BB95C9A0E9479
:1023B00085115C980E9485110895A0E0B0E0E3EEDD
:1023C000F1E10C942518C82FD62EE42E8091220717
:1023D000811105C081E0809322070E9423120E9490
:1023E0008F1114B1D5B1FAB00BB12898DD2011F0DE
:1023F0005A9A01C05A9894B1926394B9579A81E05D
:10240000E81629F08C2F82958F700E94BF118C2FB7
:102410008F700E94BF11FAB80BB914B9D5B9CDB7F6
:10242000DEB7E7E00C94411842E060E00E94DD1165
:10243000089542E061E00E94DD11089541E060E00E
:102440000E94DD11089580E197E2A0E0B0E0809362
:10245000850190938601A0938701B0938801529AD9
:10246000209A549A8EE190E00E94561483E00E94D4
:102470001E1286E090E00E94561483E00E941E1215
:1024800082E090E00E94561483E00E941E1282E0D7
:1024900090E00E94561482E00E941E1282E090E0BA
:1024A0000E94561488E20E94141288E00E941412BE
:1024B00081E00E94141286E00E9414128CE00E94B7
:1024C0001412089581E00E94141280918B01909162
:1024D0008C01892BF9F060E0A0E2262F30E07091AA
:1024E0000C0180910D0190E00197789FA001799FE8
:1024F000500D1124241735074CF4E0918B01F09115
:102500008C01E20FF31FA0836F5FE7CF1092890168
:1025100010928A0108950E9462120895CF93DF936A
:10252000EC018991882319F00E941912FACFDF91EA
:10253000CF9108950E948E120895AAE0B0E0E3EAD8
:10254000F2E10C9424181AE05AE0C52ED12CE12CAB
:10255000F12C062FA70196010E94C417CA01B901E8
:102560001150E1E0F0E0EC0FFD1FE10FF11D005D07
:102570002AE0629F0019112400836115710581050D
:10258000910539F71A3058F4E1E0F0E0EC0FFD1F47
:10259000E10FF11D80810E9419121F5FF3CF2A966F
:1025A000E8E00C944018CF92DF92EF92FF926B011B
:1025B0007C0197FF0BC0F094E094D094C094C11CB0
:1025C000D11CE11CF11C8DE20E941912C701B60159
:1025D0000E949D12FF90EF90DF90CF9008950E948F
:1025E000D3120895A5E0B0E0E8EFF2E10C942918C9
:1025F000182F80E8898380EC8A8384E98B8384EDBB
:102600008C83FE01E60FF11D8181810F6D830E9495
:102610001412109389016D8160938A012596E3E07D
:102620000C9445180E94F2120895883058F491E0F5
:1026300001C0990F8A95EAF7892FAAE2B0E0EBE290
:10264000F0E021C08E3060F498EF980F81E001C077
:10265000880F9A95EAF7A4E2B0E0E5E2F0E013C053
:10266000853160F492EF980F81E001C0880F9A9550
:10267000EAF7A7E2B0E0E8E2F0E005C080E0A0E021
:10268000B0E0E0E0F0E06F3F19F49081982709C0D6
:10269000662319F09081982B04C02081982F909583
:1026A000922390839C91982B9C93089583EF809321
:1026B000B00084BD82E08093B10085BD1092B4006B
:1026C0001092B30018BC17BC60E086E00E9415139E
:1026D00060E085E00E94151360E08BE00E94151316
:1026E00060E083E00E941513089580912307811113
:1026F00005C081E0809323070E9456130895CF936D
:10270000DF93EC010E947513D7FF05C0D195C195E9
:10271000D10981E001C080E0CF3FD10519F014F06C
:10272000CFEFD0E0882319F018BCC7BD02C0C8BDE8
:1027300017BCDF91CF910895CF93DF93EC010E94F6
:102740007513D7FF05C0D195C195D10981E001C0AE
:1027500080E0CF3FD10519F014F0CFEFD0E088230F
:1027600029F01092B400C093B30004C0C093B40029
:102770001092B300DF91CF910895CF93DF93EB01D7
:102780000E947F13CE010E949C13DF91CF91089588
:102790000E94BD13089584B18D7C84B985B1826394
:1027A00085B985E090E06F9364E06A95F1F76F91E9
:1027B0000197C9F7089580912407811105C081E030
:1027C000809324070E94CB130895CF93C82F0E94B3
:1027D000DB1383B18C23E9F38AE090E00E94561466
:1027E00083B18C23B1F383B18C23CF9108950E94E0
:1027F000E5130895A1E0B0E0E0E0F4E10C942A18BC
:1028000089830E94DB1393B1909589818923219656
:10281000E2E00C9446180E94FA1308952F928F93C9
:102820009F932FB68091940190919501019680938A
:1028300094019093950190E080919601891F809377
:10284000960190918E019C5F90938E0180918D01F5
:1028500080519742C0F090938E0180938D018091BA
:102860008F0190919001019680938F019093900138
:1028700090E080919101891F809391018091920154
:10288000891F809392012FBE9F918F912F90189551
:1028900028EE33E0019748F0F9016F9364E06A9500
:1028A000F1F76F913197C9F7F5CF08950E94481459
:1028B0000895E0E7F0E080818E7F8083A0EBB0E0B8
:1028C0008C9183608C93A1EBB0E08C91807F8C9392
:1028D0008C9182608C93B89A808181608083789497
:1028E000089580912507811105C081E08093250717
:1028F0000E94591408950E947114E0E7F0E080816D
:102900008E7F808310928F0110929001109291011E
:102910001092920110928E0110928D01808181603F
:1029200080830895462FBC0187E991E00E94151726
:1029300008950F93CF93DF9300D000D01F92CDB7AF
:10294000DEB79C0185E0ECE4F1E0DE011196019038
:102950000D928A95E1F7662311F00FEF01C003E1B4
:1029600045E0BE016F5F7F4F87E991E00E946B15E4
:1029700087E991E00E9442150E947B140F900F900E
:102980000F900F900F90DF91CF910F91089560E01D
:102990000E949914089587E991E00E9472170895A2
:1029A0006F9364E06A95F1F76F910197C9F7089505
:1029B000FC01118210821382128215821482168207
:1029C000683068F489E290E0918380838BE290E044
:1029D000938382838AE290E0958384831FC06E3064
:1029E00070F483E290E09183808385E290E09383AA
:1029F000828384E290E09583848368500FC06531C0
:102A000098F486E290E09183808388E290E093835B
:102A1000828387E290E0958384836E5081E001C0D9
:102A2000880F6A95EAF786830895A7E0B0E0EBE1A6
:102A3000F5E10C9428188C01FC011182108213829C
:102A400012821582148217821682613118F080E199
:102A5000808702C0FC016087F801208B642FCE01C3
:102A600001960E94D8148F81F80181878B819C8107
:102A7000938782878D819E81958784872796E4E05E
:102A80000C944418FC01A485B585109779F08C91BD
:102A90009185892B8C93A285B3859C9181858095A6
:102AA00089238C9388EC90E00E94D0140895FC0157
:102AB000A485B585109771F08C919185892B8C93A5
:102AC000A285B3858C919185892B8C9388EC90E0BD
:102AD0000E94D0140895A7E0B0E0E1E7F5E10C947E
:102AE0001D187C014B01642F3901402F20E00E940A
:102AF000151587010F5B1F4FF80110826701F2E483
:102B0000CF0ED11CF60110825701F3E4AF0EB11CB9
:102B1000F5011082F70177866686512CF7018085D2
:102B2000581650F5652C712CF401E60DF71D6081E7
:102B3000CE0101960E94D8142F81F701E60DF71DF2
:102B4000218B89819A81F301EE0FFF1FEE0DFF1D8E
:102B500092A381A38332910511F4F80108C0863253
:102B6000910511F4F60103C0899721F4F5018081E4
:102B7000822B80835394D2CF2796EFE00C943918A0
:102B8000A0E0B0E0E6ECF5E10C941F18EC015B016D
:102B90006C0181E4C80ED11CF60180807E01F2E454
:102BA000EF0EF11CF70170808E010D5B1F4FF801D5
:102BB000908080E09885891748F4F501E80FF11DB1
:102BC000E80FF11D118210828F5FF4CF84B1F601FE
:102BD0009081892B84B987B1F7019081892B87B9BE
:102BE0008AB1F8019081892B8AB985B1F60190816B
:102BF000892B85B988B1F7019081892B88B98BB170
:102C0000F8019081892B8BB98AE090E00E94D01462
:102C100094B1F60180818095892384B997B1F70139
:102C200080818095892387B99AB1F8018081809548
:102C300089238AB995B1F60180818095892385B968
:102C400098B1F70180818095892388B99BB1F801FB
:102C50008081809589238BB9E090B000D090B1003D
:102C60008091B00083608093B00082E08093B100D7
:102C70004091B20080E090E02E853F858217930757
:102C800020F5C090B2002C2D241B820F911D03B1A2
:102C9000081132C0F6B0F7102FC029B129112CC08D
:102CA00010C0212F30E0A901440F551FF501E40F9A
:102CB000F51F60817181672B21F11F5F2885121735
:102CC00080F37F2C802E4C2DD7CFE092B000D09295
:102CD000B10020E08885281730F5F501E20FF11DDD
:102CE000E20FF11D80819181892B21F48E859F85D2
:102CF000918380832F5FEECF03B1F6B099B010E0DF
:102D0000DDCFDE01A40FB51F91960D90BC91A02DD3
:102D10004C91DE01A20FB31F51962C91422369F60C
:102D200091838083CACFCDB7DEB7EDE00C943B181A
:102D3000EF92FF920F931F93CF93DF93FC019B01C0
:102D4000F0907C0000917A0047B118B180917A0030
:102D500086FDFCCF80E09085891748F4D901A80F43
:102D6000B11DA80FB11D1D921C928F5FF4CF97B1BA
:102D700082A18095892387B998B182A18095892302
:102D800088B987E880937A00E12C81A1E81610F0D9
:102D9000E12C29C050E08085581718F5A52FB0E028
:102DA000EF01CA0FDB1F8989806480937C008091CA
:102DB0007A00806480937A0080917A0086FDFCCF4F
:102DC0006091780070917900AA0FBB1FA20FB31F0A
:102DD0008D919C911197860F971F8D939C935F5FA8
:102DE000DACFE394D2CF8085E816A0F4E901CE0DC6
:102DF000D11DCE0DD11D61A170E0CB0195958795B8
:102E0000A881B9818A0F9B1F0E949C1779836883D0
:102E1000E394E9CFF0927C0000937A0018B947B9A7
:102E2000CDB7DEB7E6E00C944218A0E2B0E0EBE1EB
:102E3000F7E10C9425188C017B01D42E8FEF840FC1
:102E4000823018F4C8010E945715D80150968C9111
:102E5000B701811110C0C8010E94C015C8010E94AD
:102E60004215B2E0DB123AC0BE016F5F7F4FC8016E
:102E70000E94C0150FC0C8010E949816C8010E9488
:102E80004215E2E0DE122AC0BE016F5F7F4FC8012B
:102E90000E94981640E0F80180854817F8F4842FC6
:102EA00090E0880F991FF701E80FF91F21E030E04B
:102EB0002C0F3D1F820F931FD8011E962D913C9120
:102EC0001F97DC018D919C91281B390B808191818A
:102ED000820F931F918380834F5FDDCFA096E7E041
:102EE0000C944118CF93DF93EC018A819B8100976A
:102EF00011F00E94E9188E819F81009711F00E94C5
:102F0000E91888819981009711F00E94E9188C8155
:102F10009D81009711F00E94E918DF91CF910895EB
:102F2000991B79E004C0991F961708F0961B881F1B
:102F30007A95C9F780950895AA1BBB1B51E107C07C
:102F4000AA1FBB1FA617B70710F0A61BB70B881F39
:102F5000991F5A95A9F780959095BC01CD010895C8
:102F600097FB072E16F4009407D077FD09D00E9436
:102F70009C1707FC05D03EF4909581959F4F0895CE
:102F8000709561957F4F0895A1E21A2EAA1BBB1B75
:102F9000FD010DC0AA1FBB1FEE1FFF1FA217B30725
:102FA000E407F50720F0A21BB30BE40BF50B661F3B
:102FB000771F881F991F1A9469F7609570958095FF
:102FC00090959B01AC01BD01CF010895052E97FBA3
:102FD0001EF400940E94FD1757FD07D00E94C417ED
:102FE00007FC03D04EF40C94FD1750954095309596
:102FF00021953F4F4F4F5F4F089590958095709565
:1030000061957F4F8F4F9F4F0895EE0FFF1F0590E3
:10301000F491E02D0994A29FB001B39FC001A39F3A
:10302000700D811D1124911DB29F700D811D112401
:10303000911D08952F923F924F925F926F927F92CF
:103040008F929F92AF92BF92CF92DF92EF92FF92B8
:103050000F931F93CF93DF93CDB7DEB7CA1BDB0B64
:103060000FB6F894DEBF0FBECDBF09942A88398809
:1030700048885F846E847D848C849B84AA84B98410
:10308000C884DF80EE80FD800C811B81AA81B9811C
:10309000CE0FD11D0FB6F894DEBF0FBECDBFED0130
:1030A00008950F931F93CF93DF938230910510F40F
:1030B00082E090E0E0912807F091290720E030E0DD
:1030C000A0E0B0E0309719F1408151810281138175
:1030D00048175907C8F08417950769F4109731F01D
:1030E00012960C93129713961C9327C000932807EF
:1030F0001093290722C02115310519F042175307F3
:1031000018F49A01BD01EF01DF01F801DBCF2115B1
:103110003105F9F0281B390B2430310580F48A8100
:103120009B816115710521F0FB019383828304C0AB
:103130009093290780932807FE01329644C0FE0130
:10314000E20FF31F81939193225031093983288331
:103150003AC02091260730912707232B41F4209174
:1031600010013091110130932707209326072091F9
:103170000E0130910F012115310541F42DB73EB7F5
:103180004091120150911301241B350BE091260749
:10319000F0912707E217F307A0F42E1B3F0B281727
:1031A000390778F0AC014E5F5F4F2417350748F0C0
:1031B0004E0F5F1F509327074093260781939193EB
:1031C00002C0E0E0F0E0CF01DF91CF911F910F91BD
:1031D0000895CF93DF93009709F481C0FC013297E3
:1031E00013821282A0912807B0912907109781F4C9
:1031F00020813181820F931F20912607309127076C
:103200002817390751F5F0932707E093260767C081
:10321000ED0120E030E0CE17DF0740F44A815B810A
:103220009E0141155105F1F0EA01F5CFD383C28328
:1032300040815181840F951FC817D90759F488819F
:103240009981840F951F0296918380838A819B8147
:10325000938382832115310529F4F0932907E093A4
:1032600028073DC0E901FB83EA8349915991C40FC6
:10327000D51FEC17FD0761F480819181840F951FA4
:103280000296E90199838883828193819B838A8353
:10329000E0E0F0E012968D919C911397009719F061
:1032A000FD01DC01F7CF8D919C9111979D012E5F5F
:1032B0003F4F820F931F2091260730912707281731
:1032C000390769F4309729F41092290710922807DA
:1032D00002C013821282B0932707A0932607DF91C2
:1032E000CF91089510E0C4E5D0E004C0FE010E9433
:0E32F00005182196C535D107C9F7F894FFCF10
:1032FE0088130F00F4010400D00704010802000037
:10330E002A07200000000100010001000000FFFF5D
:10331E00FFFFFFFF010001000000FFFFFFFFFFFFA7
:10332E00000001009C01B501CF01EA01070226024F
:10333E00470269028E02B502DE020A030E0F101159
:10334E001228002C2000290020412042204320007A
:10335E0041202D20546573740042202D204D61694B
:0C336E006E003E3E613332006D560000E0
:00000001FF
