S01700004763634170706C69636174696F6E342E7372656358
S11300000C9455000C947D000C947D000C947D00A0
S11300100C947D000C947D000C947D000C947D0068
S11300200C947D000C946E140C947D000C947D0053
S11300300C947D000C9484110C947D000C947D0030
S11300400C947D000C947D000C947D000C947D0038
S11300500C947D000C947D000C947D000C947D0028
S11300600C947D000C947D0014050E052C054409A8
S11300704B09260520051A05084AD73B3BCE016EDD
S113008084BCBFFDC12F3D6C74319ABD56833DDAEB
S11300903D00C77F11BED9E4BB4C3E916BAAAABEFA
S11300A0000000803F00B40A2B1511241FBECFEFBF
S11300B0D8E0DEBFCDBF11E0A0E0B1E0EEEBF3E3AA
S11300C002C005900D92AE37B107D9F727E0AEE72D
S11300D0B1E001C01D92AC32B207E1F710E0C4E513
S11300E0D0E004C02197FE010E946518C335D107F2
S11300F0C9F70E94790A0C94D2190C940000FC01EF
S1130100208131812F30310550F4828193818F30E9
S1130110910550F060E07EEF8FEF96E4089560E083
S11301207EEF8FEF96E40895AC01440F551F840FC2
S1130130951F880F991F4AE5429FF001439FF00DD8
S113014011248E0F9F1FFC01E352FE4F60817181C9
S1130150072E000C880B990B0E94A90B0895FC0133
S1130160208131812F30310528F5828193818F30B0
S1130170910528F160E07EEF8FEF96E40895AC01DD
S1130180440F551F840F951F880F991F4AE5429FFE
S1130190F001439FF00D11248E0F9F1FFC01E352C9
S11301A0FE4F60817181072E000C880B990B0E9411
S11301B0A90B089560E07EEF8FEF96E40895FC01AB
S11301C0EE0FFF1FE80FF91FEE0FFF1F6AE5629F96
S11301D0A001639F500D1124E40FF51FE352FE4F5D
S11301E045814111CCCF60E07EEF8FEF96E4089516
S11301F0FC01208131812F30310528F582819381E2
S11302008F30910550F160E07EEF8FEF96E4089512
S1130210AC01440F551F840F951F880F991F4AE5A1
S1130220429FF001439FF00D11248E0F9F1FFC018C
S1130230E352FE4F62817381072E000C880B990BE9
S11302400E94A90B089560E07EEF8FEF96E4089575
S113025060E07EEF8FEF96E40895FC01EE0FFF1F40
S1130260E80FF91FEE0FFF1F6AE5629FA001639F6D
S1130270500D1124E40FF51FE352FE4F4581411147
S1130280E7CFC6CFCF92DF92EF92FF92FC0120819D
S113029031812F30310508F050C0428153814F30F5
S11302A0510508F459C060E07EEF8FEF96E469C011
S11302B0FA01EE0FFF1FE40FF51FEE0FFF1FAAE573
S11302C0A29FC001A39F900D1124E80FF91FE352D0
S11302D0FE4F8581811136C0FB0180819181FC0133
S11302E0E21BF30BCF0122F4882799278E1B9F0B67
S11302F0FB0122813381B901641B750B9B0122F43C
S113030022273327261B370B889F6001899FD00C37
S1130310D00C1124229FC001239F900D900D112415
S1130320C80ED91E0D2C000CEE08FF08C701B6013B
S11303300E94A90B0E941F0D24C060E07EEF8FEF86
S113034096E41FC060E07EEF8FEF96E41AC060E091
S11303507EEF8FEF96E415C0FA01EE0FFF1FE40F56
S1130360F51FEE0FFF1FAAE5A29FC001A39F900DEA
S11303701124E80FF91FE352FE4F84818111E7CF66
S113038097CFFF90EF90DF90CF900895CF93DF93B6
S1130390CDB7DEB72A970FB6F894DEBF0FBECDBF38
S11303A061E0CE0101960E94F2148E010F5F1F4F8F
S11303B0C12CD12C7601C701B6010E944F1361E014
S11303C080E00E947213F801619171918F0180E0C5
S11303D090E00E944F1380E293E00E94B6140E94C2
S11303E0EB12FFEFCF1ADF0AEF0AFF0A85E0C81607
S11303F0D104E104F104F9F681E591E00E94E211EF
S1130400CFCFCF92DF92EF92FF92FB018081918157
S11304108F30910508F04FC0228133812F30310590
S113042008F458C060E07EEF8FEF96E468C0F901ED
S1130430EE0FFF1FE20FF31FEE0FFF1FAAE5A89FA9
S1130440B001A99F700D1124E60FF71FE352FE4F70
S11304506581611135C0FA0160817181681B790B76
S1130460CB01992324F488279927861B970BFA013B
S113047042815381421B530B9A0122F422273327D2
S1130480241B350B889F6001899FD00CD00C11244C
S1130490229FC001239F900D900D1124C80ED91ED8
S11304A00D2C000CEE08FF08C701B6010E94A90B31
S11304B00E941F0D24C060E07EEF8FEF96E41FC002
S11304C060E07EEF8FEF96E41AC060E07EEF8FEF7E
S11304D096E415C0F901EE0FFF1FE20FF31FEE0FB4
S11304E0FF1FAAE5A89FB001A99F700D1124E60F74
S11304F0F71FE352FE4F64816111E7CF98CFFF905D
S1130500EF90DF90CF900895FB01208131812F304F
S1130510310550F4828193818F30910550F060E071
S11305207EEF8FEF96E4089560E07EEF8FEF96E420
S11305300895AC01440F551F840F951F880F991F10
S11305404AE5429FF001439FF00D11248E0F9F1F37
S1130550FC01E352FE4F60817181072E000C880B71
S1130560990B0E94A90B08950F931F93CF93DF93C8
S1130570EC010E94EB120FE010E080E10E946B148A
S1130580811145C082E00E946B14882341F08D8163
S11305909E810196B8010E9410189E838D8380E28B
S11305A00E946B14882341F08F8198850196B801CD
S11305B00E94101898878F830E94EB1287E591E0C0
S11305C00E94FA126D817E81072E000C880B990B14
S11305D00E944F1389E591E00E94FA126F81788599
S11305E0072E000C880B990B0E944F138CE591E0A9
S11305F00E94FA1261E080E00E9472138EE591E09D
S11306000E94FA1284E690E00E94B614B6CF80E10C
S11306100E94571488EE93E00E94B6140E94EB12D5
S1130620DF91CF911F910F910895CF93DF93CDB7B1
S1130630DEB7AF970FB6F894DEBF0FBECDBF1C0177
S11306400E94EB1286E691E00E94FA1261E080E0DB
S11306500E9472138FE691E00E94FA129E012F5FAE
S11306603F4F388B2F873F853D8B48894E8BC10187
S113067005969DA78CA71EA29EEF9FA3AFEFA8A7E8
S1130680B6E4B9A782E00E946B14882331F082E0BB
S11306900E945714C1010E94C60180E10E946B149C
S11306A0882381F380E10E945714C1010E94B4029F
S11306B0F101168615862AE030E03FA72EA70AE04E
S11306C010E061E0CE0101960E94F214D1011D9662
S11306D02D913C911E978B819C81280F391F8D8110
S11306E09E81820F931F2F813885280F391F1E96F4
S11306F03C932E931D970150110919F71FA70EA7BC
S1130700A9E8B8E80E946B18929582958F708927A2
S11307109F708927BC01605B7F4FF10176876587F5
S113072080E090E00E944F1388EE93E00E94B6149C
S11307300E94EB12D1012D913C91119712968D914B
S11307409C911397AC01440F551F840F951F880F7C
S1130750991F4AE5429FF001439FF00D11248E0F2B
S11307609F1FFC01E352FE4F118210822D913C9198
S1130770119712968D919C911397BC01660F771F68
S1130780860F971F880F991F429FF001439FF00D1A
S113079011248E0F9F1FFC01E352FE4F81E08583DD
S11307A0198E1B8EF1012081318185819681281754
S11307B0390741F4228133818781908528173907CD
S11307C009F460CFD10119968D919C911A970397E2
S11307D00CF058CF6894442443F8512C2F8A388E57
S11307E0F1018185928502970CF0B0C0208131819E
S11307F0428153812AA33BA34CA35DA384801EA101
S1130800BFA1B98BE8A5ED8FF9A5FE8F898D9B8DCE
S1130810912C5BA64AA6512E74018C01880D991D5A
S113082087709078992324F40197886F9F6F0196BD
S1130830FC01EE0FFF1FEC5EFE4FD1012D913C91A8
S1130840119740815181240F351F3A8329831296D1
S1130850AD90BC901397880F991FFC01EC5DFE4F7F
S1130860808191818A0D9B1D9C838B832F30310560
S113087080F40F9708F4A6C40CC029813A814B81F7
S11308805C812AA33BA34CA35DA3562C798ACD8E0D
S1130890DE8EC80101968830910509F0BDCF4AA4C7
S11308A05BA4109223076AA07BA0CCA0DDA0D10199
S11308B08D909C908614970409F0D8C4AC14BD04A0
S11308C009F494C43401A2C08C018E0D9F1D87705D
S11308D09078992324F40197886F9F6F0196FC0107
S11308E0EE0FFF1FEC5EFE4F20813181280D391D74
S11308F03A832983880F991FFC01EC5DFE4F8081A8
S113090091818A0D9B1D9C838B832F30310580F44C
S11309100F9708F483C40CC029813A814B815C8110
S11309202E8F3F8F48A359A3562C372CC98ADD8EAE
S1130930C80101968830910539F64AA05BA02AA423
S11309403BA46E8C7F8CC8A0D9A059C080819181B2
S1130950A281B381898B9A8BAB8BBC8BF101A48070
S11309609EA08FA078A469A4898D9B8DB12C6C0165
S11309708A0D9B1D87709078992324F40197886FC2
S11309809F6F0196FC01EE0FFF1FEC5EFE4FD1013D
S11309904D915C91119720813181240F351F3A8349
S11309A02983880F991FFC01EC5DFE4F12964D912F
S11309B05C91139780819181840F951F9C838B8315
S11309C02F30310580F40F9708F43CC40CC0298102
S11309D03A814B815C81298B3A8B4B8B5C8B9E2CAF
S11309E08F2C702E612EC60101968830910509F076
S11309F0BECF1092230769887A88CB88DC88D1011E
S1130A008D919C918615970509F030C4F10182817E
S1130A1093818C159D0509F029C40FC10F2EFDE2A9
S1130A20AF2EB12CF02D1AC00F2EFAE5AF2EB12C3B
S1130A30F02D14C00F2EF7E8AF2EF02DB12C0EC000
S1130A400F2EF4EBAF2EF02DB12C08C00F2EF1EECB
S1130A50AF2EF02DB12C02C0A98CBB8CD1018D918D
S1130A609C9111978301081B190B12968D919C91EF
S1130A701397F601E81BF90BCF010115110561F479
S1130A801E161F064CF1FF236CF50F2EF6EAEF2E0F
S1130A90F02DFF24FA9428C0B8010E941018072EE4
S1130AA0000C880B990B0E94A90B0E94CB0A20E032
S1130AB030E044E353E40E94880C2BED3FE049E42A
S1130AC050E40E94FF0A0E94710B7B01112364F41D
S1130AD0F4EBEF0EF11C08C00F2EFAE5EF2EF12C0B
S1130AE0F02D02C0E98CFB8CC5018E199F096DE2C3
S1130AF070E00E941018072E000C880B990B0E94BE
S1130B00A90B0E94F50C0E94710B8B0165307105D5
S1130B1014F0085011090C3F2FEF120714F4085F6A
S1130B201F4F3DE2E316F10481F174F453EDE51631
S1130B305FEFF50609F1E114F10411F166EAE61636
S1130B406FEFF606B1F513C087E8E816F10429F152
S1130B502CF4AAE5EA16F104E1F02BC0B4EBEB1691
S1130B60F104F9F0E1EEEE16F10401F122C084E0A3
S1130B70D10114968C931DC083E0F101848319C0C4
S1130B8082E0D10114968C9314C021E0F1012483F6
S1130B9010C0D10114961C920CC027E0F1012483EB
S1130BA008C086E0D10114968C9303C085E0F1015E
S1130BB084831123ECF46AE270E086ED9FEF0E94D7
S1130BC02814C801992324F488279927801B910BA2
S1130BD048EC9C01429FC001439F900D11240E9448
S1130BE0B614698D7B8D862F972F0E9428141FC001
S1130BF010161106E4F466ED7FEF8AE290E00E949D
S1130C002814C801992324F488279927801B910B61
S1130C10E8ECDC01EA9FC001EB9F900D11240E94D7
S1130C20B614698D7B8D862F972F0E942814698DA9
S1130C307B8D862F972F0E94281461E08D899E89D1
S1130C400E94F2148B819C818937954050F48D81E8
S1130C509E818937954028F48F81988589379540FE
S1130C60C8F09601220F331F2C0D3D1D220F331F98
S1130C704AE5469DC001479D900D1124820F931FA4
S1130C80FC01E352FE4F41E0448351E0451A510810
S1130C9009F0A6CD7C866B86DE86CD86430156019F
S1130CA0C601880F991FC80ED91ECC0CDD1C2AE57D
S1130CB0269DC001279D900D11248C0D9D1DFC01C6
S1130CC0E352FE4F85818111B2C0CB84DC84ED8474
S1130CD0FE84D10114966C90198ABEEFBF8BEFEF9E
S1130CE0E88FF6E4FD8F90E0712C3F8E2E8E8C0100
S1130CF0860D971D87709078992324F40197886F47
S1130D009F6F0196FC01EE0FFF1FEC5EFE4F2081EA
S1130D103181280D391D3A832983880F991FFC01DD
S1130D20EC5DFE4F808191818A0D9B1D9C838B839A
S1130D302F30310560F40F9708F4B4C208C0C9809D
S1130D40DA80EB80FC80298A3F8A488E5D8EC80158
S1130D5001968830910559F62E8C3F8C109223070A
S1130D609501220F331F2A0D3B1D220F331F6AE505
S1130D70689DC001699D900D1124820F931FFC0191
S1130D80E352FE4F408151819701220F331F2E0DF4
S1130D903F1D220F331F6C9DC0016D9D900D1124CA
S1130DA0820F931FFC01E352FE4F808191818C14CA
S1130DB09D0431F0AE14BF0449F422E030E00BC0CE
S1130DC0AE14BF0431F022E030E005C023E030E08F
S1130DD002C020E030E0820F931F84179507A4F42B
S1130DE0A501440F551F4A0D5B1D440F551F6AE5AD
S1130DF0689D9001699D300D1124240F351FF90160
S1130E00E352FE4F91838083C501880F991FA80E7A
S1130E10B91EAA0CBB1C8AE5889DF001899DF00DC2
S1130E201124EA0DFB1DE352FE4F81E08583D101BD
S1130E302D913C91119715968D919C911697281799
S1130E40390761F412962D913C91139717968D9161
S1130E509C9118972817390709F465C08B859C85E0
S1130E60AD85BE85F10180839183A283B38363E161
S1130E7070E083E190E00E94281461E08D899E89EE
S1130E800E94F2148B819C818937F5E09F0708F05A
S1130E901EC22D813E81293745E0340708F017C270
S1130EA04F815885493765E0560708F010C2D101D3
S1130EB01D966D917C911E976817790730F0621723
S1130EC0730718F064177507C0F6841B950BF101BE
S1130ED094878387FCC133235CF46FE070E00E9445
S1130EE01018CB0163E170E042960E94281411C0EF
S1130EF06FE070E00E9410186E5E7F4F83E190E017
S1130F000E94281406C063E170E083E190E00E942F
S1130F10281484E893E00E94B61460E070E080E056
S1130F2090E00E942814D1018D919C9111971596FF
S1130F302D913C9116978217930709F033CC1296A2
S1130F404D915C91139717962D913C9118974217E8
S1130F50530709F027CCCEC1298D3A8D281B390BB4
S1130F60F601EE0FFF1FEC0DFD1DEE0FFF1FBAE59E
S1130F70B49DC001B59D900D1124E80FF91FE352F3
S1130F80FE4F828193812817390794F4F601EE0FFE
S1130F90FF1FEC0DFD1DEE0FFF1FB49DC001B59D9D
S1130FA0900D1124E80FF91FE352FE4F338322837F
S1130FB02B853C854D855E85298B3A8B4B8B5C8BD1
S1130FC0AB8DBC8D14968C90712C0F2EFEEF6F2E72
S1130FD0F02D22242A940F2EF6E43F2EF02D80E0EB
S1130FE090E0912C5C01880D991D8770907899236D
S1130FF024F40197886F9F6F0196FC01EE0FFF1F89
S1131000EC5EFE4F20813181240D351D3A83298306
S1131010880F991FFC01EC5DFE4F808191818C0D3E
S11310209D1D9C838B832F30310580F40F9708F42A
S1131030B8C10CC029813A814B815C81298B3A8BE0
S11310404B8B5C8B7E2C6F2C202E312EC501019690
S11310508830910539F61092230799898A8929895C
S11310603A894B895C892B873C874D875E87492E5B
S1131070582ECD84DE84F601EE0FFF1FEC0DFD1D0E
S1131080EE0FFF1F3AE5349DC001359D900D1124EC
S1131090E80FF91FE352FE4F80819181009709F018
S11310A05BCF2B8C3C8C9601220F331F2C0D3D1DE6
S11310B0220F331F4AE5449DC001459D900D112424
S11310C0820F931FFC01E352FE4F82819381498D6D
S11310D05A8D48175907ACF426E02C9DC0012D9D6C
S11310E0900D11244AE5449D9001459D300D112435
S11310F0820F931FFC01E352FE4F898D9A8D9383D7
S11311008283D1011596AC9015971696BC901697CC
S11311101796CC9017971896DC900DED11E060E0CF
S113112070E02EA53FA5D801C901862E972EFD019A
S11311304D915C9111974115510521F4C82ED92E7A
S1131140A82CB92CE280F38053834283F182E0829D
S11311501582019616968F30910549F76F5F7F4F80
S1131160065A1F4F6F307105F1F6F101A582B68260
S1131170C782D08610922307208131818281938196
S1131180FC01EE0FFF1FE80FF91FEE0FFF1F4AE5EA
S1131190429FC001439F900D1124E80FF91FE352B1
S11311A0FE4F81E0858388E791E00E94FA12D10125
S11311B019968D919C911A9701961A969C938E93E9
S11311C01997EECA6CA57DA58D899E890E9442015E
S11311D0662E772EC82ED92E252D39894D8D5E8DFC
S11311E00E94FA0A88230CF448CB53CBD1012D91E9
S11311F03D914D915C912E8F3F8F48A359A30EA131
S11312001FA1B8A5B98BE9A5ED8F898D9B8D5BA234
S11312104AA23BA62AA6502E312E56CB6F89788D32
S11312208D899E890E947F00662E772EC82ED92E26
S1131230252D332D49895D8D0E94FA0A88230CF4EB
S11312406BCB76CB6F89788D8D899E890E94F8004F
S1131250E62EF72E082F192F292D382D472D562D20
S11312600E94FA0A88230CF4B2CBBDCBD1011496A8
S1131270EC918E2F90E08830910508F0E7CBFC01CB
S1131280EC5CFF4F0C9465180F2EF3EDAF2EF02D90
S1131290BB24BA94E3CB0F2EF6EAAF2EF02DBB2479
S11312A0BA94DCCBBE01655F7F4F8D899E890E9415
S11312B0AF00262E372E482E592E29893F89488D76
S11312C05D8D0E94FA0A88230CF439CD40CD81E566
S11312D091E00E94E211F10123853485C901332391
S11312E024F488279927821B930B843191050CF0F1
S11312F0F2CD09CED10112962D913C91139756E06F
S1131300529FB001539F700D11244AE5489F9001EC
S1131310499F300D1124260F371FF901E352FE4F68
S11313201382128215960D911D912D913C9118975F
S1131330B02FA12F0B871C872D873E87F101878152
S1131340908565817681589F9001599F300D1124B5
S1131350469FC001479F900D1124820F931FFC01EB
S1131360E352FE4F208131813A8F298F4B2E5A2E22
S1131370CD84DE845C9D90015D9D300D1124449DDF
S1131380C001459D900D1124820F931FFC01E3526F
S1131390FE4F80819181009709F485CE3C8E2B8E7F
S11313A0DBCDBE01655F7F4F8D899E890E94AF00B2
S11313B0E62EF72E082F192F272D362D422D532DCB
S11313C00E94FA0A88230CF435CE40CEFB0120811A
S11313D031812F30310528F5828193818F30910539
S11313E028F160E07EEF8FEF96E40895AC01440F9E
S11313F0551F840F951F880F991F4AE5429FF001DE
S1131400439FF00D11248E0F9F1FFC01E352FE4FEA
S113141060817181072E000C880B990B0E94A90B27
S1131420089560E07EEF8FEF96E40895FC01EE0FDF
S1131430FF1FE80FF91FEE0FFF1F6AE5629FA0016F
S1131440639F500D1124E40FF51FE352FE4F4581B5
S11314504111CCCF60E07EEF8FEF96E40895FB015D
S1131460208131812F30310528F5828193818F309D
S1131470910550F160E07EEF8FEF96E40895AC01A2
S1131480440F551F840F951F880F991F4AE5429FEB
S1131490F001439FF00D11248E0F9F1FFC01E352B6
S11314A0FE4F62817381072E000C880B990B0E94FA
S11314B0A90B089560E07EEF8FEF96E4089560E055
S11314C07EEF8FEF96E40895FC01EE0FFF1FE80F07
S11314D0F91FEE0FFF1F6AE5629FA001639F500D85
S11314E01124E40FF51FE352FE4F45814111E7CF6C
S11314F0C6CFCF93DF93CDB7DEB72F970FB6F8944F
S1131500DEBF0FBECDBF85E090E09A8389831C8245
S11315101B821D829F838E8383E090E09987888756
S11315201B861A861D861C8680ED97E00E9427156F
S113153060E070E080E090E00E9428140E94CA0EEF
S11315408C010E94EB12B80180E090E00E944F13DE
S11315508AE791E00E94FA1288EE93E00E94B614A2
S1131560CE0101960E9415034DED51E08FEF9FE7E8
S1131570FA01465A5F4F9A01918380839383828351
S1131580148215823696E217F307B1F727E0433247
S1131590520771F70895DF93DD27B92FBF7740E82D
S11315A05FE31616170648075B0718F4D92F0E9445
S11315B0800C9F938F937F936F930E945F0DE8E756
S11315C0F0E00E94110C0E94460C2F913F914F9124
S11315D05F910E949B0CDD2351F09058A2EA2AED02
S11315E03FE049EC5FE3D0785D270E94740DDF9102
S11315F00C94460C0E94E40B08F481E008950E94C8
S1131600130B0C94460C0E943F0C58F00E94380CAB
S113161040F029F45F3F29F00C94080C51110C940C
S11316207A0C0C940E0C0E94570C68F39923B1F3B6
S1131630552391F3951B550BBB27AA2762177307F4
S1131640840738F09F5F5F4F220F331F441FAA1F88
S1131650A9F335D00E2E3AF0E0E832D09150504044
S1131660E695001CCAF72BD0FE2F29D0660F771FF2
S1131670881FBB1F261737074807AB07B0E809F0D8
S1131680BB0B802DBF01FF2793585F4F3AF09E3F5D
S1131690510578F00C94080C0C947A0C5F3FE4F339
S11316A0983ED4F3869577956795B795F7959F5FA0
S11316B0C9F7880F911D9695879597F90895E1E0EC
S11316C0660F771F881FBB1F621773078407BA074B
S11316D020F0621B730B840BBA0BEE1F88F7E095A6
S11316E008950E94780B6894B1110C947A0C0895B3
S11316F00E945F0C88F09F5798F0B92F9927B75133
S1131700B0F0E1F0660F771F881F991F1AF0BA95A1
S1131710C9F714C0B13091F00E94790CB1E008957A
S11317200C94790C672F782F8827B85F39F0B93F6C
S1131730CCF3869577956795B395D9F73EF4909554
S11317408095709561957F4F8F4F9F4F0895E894D2
S113175009C097FB3EF490958095709561957F4FF5
S11317608F4F9F4F9923A9F0F92F96E9BB279395A3
S1131770F695879577956795B795F111F8CFFAF4B3
S1131780BB0F11F460FF1BC06F5F7F4F8F4F9F4FE4
S113179016C0882311F096E911C0772321F09EE842
S11317A0872F762F05C0662371F096E8862F70E0A8
S11317B060E02AF09A95660F771F881FDAF7880F82
S11317C09695879597F90895990F0008550FAA0BD8
S11317D0E0E8FEEF16161706E807F907C0F0121640
S11317E01306E407F50798F0621B730B840B950B43
S11317F039F40A2661F0232B242B252B21F4089598
S11318000A2609F4A140A6958FEF811D811D089534
S113181097F99F6780E870E060E008959FEF80EC9F
S11318200895DF93CF931F930F93FF92EF92DF926C
S11318307B018C01689406C0DA2EEF010E949B0C98
S1131840FE01E894A5912591359145915591A6F312
S1131850EF010E94740DFE019701A801DA9469F763
S1131860DF90EF90FF900F911F91CF91DF9108953A
S113187000240A941616170618060906089500246B
S11318800A9412161306140605060895092E0394E5
S1131890000C11F4882352F0BB0F40F4BF2B11F459
S11318A060FF04C06F5F7F4F8F4F9F4F089557FDB8
S11318B09058440F551F59F05F3F71F04795880FBA
S11318C097FB991F61F09F3F79F087950895121651
S11318D013061406551FF2CF4695F1DF08C01616FD
S11318E017061806991FF1CF8695710561050894AE
S11318F00895E894BB2766277727CB0197F90895C5
S11319009B01AC0160E070E080E89FE30C94FF0A67
S11319100E949B0C0C94460C0E94380C38F00E94D8
S11319203F0C20F0952311F00C94080C0C940E0C31
S113193011240C947A0C0E94570C70F3959FC1F3F8
S1131940950F50E0551F629FF001729FBB27F00D69
S1131950B11D639FAA27F00DB11DAA1F649F6627BE
S1131960B00DA11D661F829F2227B00DA11D621F0D
S1131970739FB00DA11D621F839FA00D611D221FC7
S1131980749F3327A00D611D231F849F600D211DAB
S1131990822F762F6A2F11249F5750409AF0F1F02E
S11319A088234AF0EE0FFF1FBB1F661F771F881F97
S11319B091505040A9F79E3F510580F00C94080CBB
S11319C00C947A0C5F3FE4F3983ED4F386957795B4
S11319D06795B795F795E7959F5FC1F7FE2B880F3D
S11319E0911D9695879597F908950E945F0CE8F0EC
S11319F09E37E8F09639B8F49E3848F4672F782F6C
S1131A008827985FF9CF869577956795939595394B
S1131A10D0F3B62FB1706B0F711D811D20F4879523
S1131A207795679593950C94C90D0C94E40D0C94DB
S1131A307A0C19F416F40C940E0C0C94E40D0E9418
S1131A405F0CB8F39923C9F3B6F39F57550B87FF7F
S1131A500E94F20D0024A0E640EA900180585695B9
S1131A60979528F4805C660F771F881F20F026174F
S1131A703707480730F4621B730B840B2029312984
S1131A804A2BA69517940794202531254A2758F701
S1131A90660F771F881F20F026173707480730F492
S1131AA0620B730B840B200D311D411DA09581F732
S1131AB0B901842F9158880F9695879508959B01B5
S1131AC0AC010C94880C0E94380C38F00E943F0C36
S1131AD020F039F49F3F19F426F40C940E0C0EF404
S1131AE0E095E7FB0C94080CE92F0E94570C58F37F
S1131AF0BA17620773078407950720F079F4A6F5EF
S1131B000C94790C0EF4E0950B2EBA2FA02D0B013A
S1131B10B90190010C01CA01A0011124FF27591B2E
S1131B2099F0593F50F4503E68F11A16F040A22F34
S1131B30232F342F4427585FF3CF469537952795A5
S1131B40A795F0405395C9F77EF41F16BA0B620BA4
S1131B50730B840BBAF09150A1F0FF0FBB1F661FEB
S1131B60771F881FC2F70EC0BA0F621F731F841F2E
S1131B7048F4879577956795B795F7959E3F08F054
S1131B80B0CF9395880F08F09927EE0F9795879516
S1131B900895882371F4772321F09850872B762FAA
S1131BA007C0662311F499270DC09051862B70E06D
S1131BB060E02AF09A95660F771F881FDAF7880F7E
S1131BC09695879597F908959F3F31F0915020F4A9
S1131BD0879577956795B795880F911D9695879505
S1131BE097F9089591505040660F771F881FD2F7D8
S1131BF00895ECE7F0E080818F7D80830895811162
S1131C0003C00E94F90D089580917C008062809346
S1131C107C00089580917C0085FB882780F90895D5
S1131C200E940A0E882321F08091790090E00895A3
S1131C30809178009091790008958032A0F497E81B
S1131C4090937A0090917C00662311F0906C02C00E
S1131C509F779064907E982B90937C0080917A007B
S1131C60806480937A000895A0E0B0E0EAE3FEE0A7
S1131C700C948418EB0160E00E941D0E80917A00A0
S1131C8086FDFCCF8E01C12CD12C760180917A0087
S1131C90806480937A0080917A0086FDFCCF0E9454
S1131CA0100EC80ED91EE11CF11C015011090115BA
S1131CB0110561F7CE0196958795C034D10538F4A6
S1131CC08C0D9D1DBE010E94FC17CB010EC0A70107
S1131CD09601280F391F411D511DCA01B9019E01EA
S1131CE040E050E00E942418C901CDB7DEB7E8E017
S1131CF00C94A018CF92DF92EF92FF92A091000172
S1131D00B09101019C010E946B186B017C010E943F
S1131D100A0E882359F0C701B60161587F4F8F4FCF
S1131D209F4F2FEF30E040E050E00AC0C701B601FA
S1131D3061507E4F8F4F9F4F2FEF33E040E050E0D4
S1131D400E942418C901FF90EF90DF90CF9008956E
S1131D500E94340E0E947A0E08951F93CF93DF934E
S1131D600E940A0E182F0E94F90D6AE070E086E0C6
S1131D700E94A80EEC01812F0E94FF0DCE01880F56
S1131D80991F8C0F9D1F019696958795DF91CF9192
S1131D901F9108950E94AD0E089590918301E091E2
S1131DA07E01F0917F01992311F0849101C080811B
S1131DB02FEB280F2A3110F4805E0895803249F405
S1131DC09F012F5F3F4F30937F0120937E01EF2BC4
S1131DD031F708951F93CF93DF930E94CD0EC0E097
S1131DE0D0E01AE090ED980F9A30B8F49E01129F5B
S1131DF0E001139FD00D1124C80FD11D87FDDA9582
S1131E00E09780917E0190917F01019690937F01EC
S1131E1080937E010E94CD0EE5CFCE01DF91CF915C
S1131E201F91089510926F0083E28093800081E1F6
S1131E30809381001092820080E197E29093890060
S1131E408093880010928B0010928A00229A7894D2
S1131E5008958F929F92AF92BF92DF92EF92FF927A
S1131E600F931F93CF93DF935C018B01D42E80914A
S1131E708001811105C081E0809380010E94120FCE
S1131E8010920B01B7FE05C0E894B7F82AE0F22ED1
S1131E9002C0FF24F394E09081002E2D287FE22ECF
S1131EA048ECF49EC00111248A159B05E0F4E50179
S1131EB051E1A51657E2B50610F0C0E1D7E2BE0124
S1131EC07695679580E090E06058794687469F4F05
S1131ED04E01A12CB12CA50194010E942418590192
S1131EE08E2D816024C0C8E2FC9EC02D1124D0E058
S1131EF0CA15DB0508F4E501BE01769567959E01D8
S1131F0040E050E08AE0F81207C080E090E0605EB4
S1131F10734481449F4F06C080E090E060537D4E3F
S1131F208C4E9F4F0E94241859018E2D8260882E5A
S1131F302AE0F21207C0CE0105966AE070E00E9422
S1131F40FC17EB01C83E43E0D40759F09801DE01C9
S1131F500E946B1828EE33E040E050E00E944618DF
S1131F60890110926F0080928100B0928900A09242
S1131F70880020918800309189004D2D403108F06F
S1131F804FE080E190E0841B9109A90102C05695BD
S1131F9047958A95E2F750938B0040938A001093FB
S1131FA086010093850186B38FEF86BB81E0809321
S1131FB06F00DF91CF911F910F91FF90EF90DF9011
S1131FC0BF90AF909F908F900895CF93DF93EB01D4
S1131FD08F3F11F0411105C040E0BE0188EE93E04F
S1131FE043C0813130F050EF580F503618F05FE5A0
S1131FF001C050E0852F6CE00E94F017682F74EF49
S1132000760390011124250F311D2C30310540F445
S1132010F901EE0FFF1FEC5CFE4F2081318102C0FD
S113202020E030E0873081F0082E02C0220F331FF9
S11320300A94E2F7823028F0C90105966AE070E05C
S11320400CC0C90190580CC0C90136E0880F991F13
S11320503A95E1F7029665E070E00E94FC17CB0127
S1132060403108F04FE0BE010E94290FDF91CF916B
S11320700895A2E0B0E0EFE3F0E10C947C189090B6
S11320800A0180918201882321F06091810161110C
S113209017C077247394B0ECAB2EBDE5BB2E1AE0C9
S11320A0612E04E0802E80EDC82E87E0D82E94E0C7
S11320B0E92EF12C04EF11E02FE0422E512C15C033
S11320C070E040E088EE93E00E94290F10928101B5
S11320D017C18636D4F5813609F4A9C07CF58C3352
S11320E009F460C08E3381F493940E94CD0E209144
S11320F07E0130917F012F5F3F4F30937F0120930A
S11321007E01853631F752C0813209F08BC080924E
S11321100A01D0920901C0920801F0920701E092ED
S113212006011093050100930401509203014092AB
S1132130020110928201A4E09A2ED7CF8336A1F136
S11321400CF478C010E082E077C08D36C1F194F4CD
S1132150873691F174F18C3609F064C00E94EA0E5E
S1132160BC0190930701809306018091080190912E
S1132170090151C08237C9F14CF48F3609F052C0BD
S11321800E94EA0E982E80930A01AFCF843781F122
S1132190863709F047C00E94EA0E909303018093AA
S11321A00201A3CF9A94A1CF10E020C010E084E0F4
S11321B043C010E085E040C010E087E03DC00E94CD
S11321C0CD0E8C3619F41092820104C070928201F3
S11321D01092810120917E0130917F012F5F3F4F4A
S11321E030937F0120937E0180CF11E080E024C0F2
S11321F00E94EA0EBC01C5010E94FC17669EC00144
S1132200679E900D112490930901809308016091B9
S11322100601709107010E94FC17709305016093F9
S1132220040163CF10927F0110927E0169C010E017
S113223089E002C010E08BE0082F9CE0999E000D1D
S113224011240E94CD0E982F977F933261F4209130
S11322507E0130917F012F5F3F4F30937F012093A8
S11322607E010F5FEECF8D3271F420917E013091AB
S11322707F012F5F3F4F30937F0120937E010150F8
S11322800E94CD0EF0CF609104017091050181533D
S1132290883050F4E0900801F09009010E94EA0EA1
S11322A0BC01C7010E94FC177B01F694E794698383
S11322B07A830E94CD0E69817A818E3269F42091ED
S11322C07E0130917F012F5F3F4F30937F01209338
S11322D07E016E0D7F1DE9CF80918201882339F044
S11322E09B013695279520938101621B71094091CA
S11322F00201112311F08FEF01C0802F0E94E50F1E
S11323002296E0E10C9498181F920F920FB60F9248
S113231011242F933F934F935F936F937F938F93E6
S11323209F93AF93BF93EF93FF9380918501909117
S113233086019C0121503109309386012093850147
S1132340892B11F510926F00789480918100887F19
S113235081608093810080E197E29093890080936B
S1132360880010928B0010928A0081E080930B0108
S113237080917E0190917F01892B31F080918401BD
S1132380811102C00E943910FF91EF91BF91AF916A
S11323909F918F917F916F915F914F913F912F9179
S11323A00F900FBE0F901F90189510926F0090938E
S11323B07F0180937E0110928301109281010E941B
S11323C0391008950E94D511089581E090E06F932B
S11323D064E06A95F1F76F910197C9F708950F9337
S11323E01F93CF93DF931AB157985A98289AC0E055
S11323F0D0E00E94E5115C9A0E94E51109B15C9855
S11324000E94E5115C9A0E94E5115C98249607FFEE
S113241010C0AE0160E070E0809187019091880166
S1132420A0918901B0918A01481759076A077B076F
S113243000F31AB9DF91CF911F910F91089595B1CF
S1132440282F217030E0220F331F482F467068E098
S1132450469FA0011124242B9D7C292B25B99BB1D7
S113246088708295807F9F77892B8BB95C9A0E94B4
S1132470E5115C980E94E5110895A0E0B0E0E3E462
S1132480F2E10C948518C82FD62EE42E80912407EF
S1132490811105C081E0809324070E9483120E9469
S11324A0EF1114B1D5B1FAB00BB12898DD2011F0B9
S11324B05A9A01C05A9894B1926394B9579A81E098
S11324C0E81629F08C2F82958F700E941F128C2F92
S11324D08F700E941F12FAB80BB914B9D5B9CDB7D1
S11324E0DEB7E7E00C94A11842E060E00E943D12E0
S11324F0089542E061E00E943D12089541E060E0E9
S11325000E943D12089580E197E2A0E0B0E080933C
S1132510870190938801A0938901B0938A01529A0C
S1132520209A549A8EE190E00E94B61483E00E94AF
S11325307E1286E090E00E94B61483E00E947E1230
S113254082E090E00E94B61483E00E947E1282E052
S113255090E00E94B61482E00E947E1282E090E035
S11325600E94B61488E20E94741288E00E947412D9
S113257081E00E94741286E00E9474128CE00E9432
S11325807412089581E00E94741280918D019091DB
S11325908E01892BF9F060E0A0E2262F30E07091E3
S11325A00C0180910D0190E00197789FA001799F23
S11325B0500D1124241735074CF4E0918D01F0914E
S11325C08E01E20FF31FA0836F5FE7CF10928B01A0
S11325D010928C0108950E94C2120895CF93DF9344
S11325E0EC018991882319F00E947912FACFDF91C6
S11325F0CF9108950E94EE120895AAE0B0E0E3E0BE
S1132600F3E10C9484181AE05AE0C52ED12CE12C85
S1132610F12C062FA70196010E942418CA01B901C2
S11326201150E1E0F0E0EC0FFD1FE10FF11D005D42
S11326302AE0629F00191124008361157105810548
S1132640910539F71A3058F4E1E0F0E0EC0FFD1F82
S1132650E10FF11D80810E9479121F5FF3CF2A964A
S1132660E8E00C94A018CF92DF92EF92FF926B01F6
S11326707C0197FF0BC0F094E094D094C094C11CEB
S1132680D11CE11CF11C8DE20E947912C701B60134
S11326900E94FD12FF90EF90DF90CF9008950E946A
S11326A033130895A5E0B0E0E8E5F3E10C9489184C
S11326B0182F80E8898380EC8A8384E98B8384EDF6
S11326C08C83FE01E60FF11D8181810F6D830E94D1
S11326D0741210938B016D8160938C012596E3E055
S11326E00C94A5180E9452130895883058F491E070
S11326F001C0990F8A95EAF7892FAAE2B0E0EBE2CC
S1132700F0E021C08E3060F498EF980F81E001C0B2
S1132710880F9A95EAF7A4E2B0E0E5E2F0E013C08E
S1132720853160F492EF980F81E001C0880F9A958B
S1132730EAF7A7E2B0E0E8E2F0E005C080E0A0E05C
S1132740B0E0E0E0F0E06F3F19F49081982709C011
S1132750662319F09081982B04C02081982F9095BE
S1132760922390839C91982B9C93089583EF80935C
S1132770B00084BD82E08093B10085BD1092B400A6
S11327801092B30018BC17BC60E086E00E94751379
S113279060E085E00E94751360E08BE00E94751391
S11327A060E083E00E9475130895809125078111EC
S11327B005C081E0809325070E94B6130895CF9346
S11327C0DF93EC010E94D513D7FF05C0D195C195C5
S11327D0D10981E001C080E0CF3FD10519F014F0A8
S11327E0CFEFD0E0882319F018BCC7BD02C0C8BD24
S11327F017BCDF91CF910895CF93DF93EC010E9432
S1132800D513D7FF05C0D195C195D10981E001C089
S113281080E0CF3FD10519F014F0CFEFD0E088234A
S113282029F01092B400C093B30004C0C093B40064
S11328301092B300DF91CF910895CF93DF93EB0112
S11328400E94DF13CE010E94FC13DF91CF91089503
S11328500E941D14089584B18D7C84B985B182636E
S113286085B985E090E06F9364E06A95F1F76F9124
S11328700197C9F7089580912607811105C081E069
S1132880809326070E942B140895CF93C82F0E948B
S11328903B1483B18C23E9F38AE090E00E94B614E0
S11328A083B18C23B1F383B18C23CF9108950E941B
S11328B045140895A1E0B0E0E0E6F4E10C948A1830
S11328C089830E943B1493B1909589818923219631
S11328D0E2E00C94A6180E945A1408952F928F9344
S11328E09F932FB6809196019091970101968093C2
S11328F096019093970190E080919801891F8093AD
S11329009801909190019C5F9093900180918F0128
S113291080519742C0F09093900180938F018091F1
S1132920910190919201019680939101909392016B
S113293090E080919301891F809393018091940189
S1132940891F809394012FBE9F918F912F9018958A
S113295028EE33E0019748F0F9016F9364E06A953B
S1132960F1F76F913197C9F7F5CF08950E94A81434
S11329700895E0E7F0E080818E7F8083A0EBB0E0F3
S11329808C9183608C93A1EBB0E08C91807F8C93CD
S11329908C9182608C93B89A8081816080837894D2
S11329A0089580912707811105C081E0809327074E
S11329B00E94B91408950E94D114E0E7F0E08081E8
S11329C08E7F808310929101109292011092930154
S11329D0109294011092900110928F018081816075
S11329E080830895462FBC0189E991E00E94751700
S11329F008950F93CF93DF9300D000D01F92CDB7EB
S1132A00DEB79C0185E0ECE4F1E0DE011196019073
S1132A100D928A95E1F7662311F00FEF01C003E1EF
S1132A2045E0BE016F5F7F4F89E991E00E94CB15BD
S1132A3089E991E00E94A2150E94DB140F900F9087
S1132A400F900F900F90DF91CF910F91089560E058
S1132A500E94F914089589E991E00E94D21708951B
S1132A606F9364E06A95F1F76F910197C9F7089540
S1132A70FC01118210821382128215821482168242
S1132A80683068F489E290E0918380838BE290E07F
S1132A90938382838AE290E0958384831FC06E309F
S1132AA070F483E290E09183808385E290E09383E5
S1132AB0828384E290E09583848368500FC06531FB
S1132AC098F486E290E09183808388E290E0938397
S1132AD0828387E290E0958384836E5081E001C015
S1132AE0880F6A95EAF786830895A7E0B0E0EBE7DC
S1132AF0F5E10C9488188C01FC0111821082138278
S1132B0012821582148217821682613118F080E1D4
S1132B10808702C0FC016087F801208B642FCE01FE
S1132B2001960E9438158F81F80181878B819C81E1
S1132B30938782878D819E81958784872796E4E099
S1132B400C94A418FC01A485B585109779F08C9198
S1132B509185892B8C93A285B3859C9181858095E1
S1132B6089238C9388EC90E00E9430150895FC0131
S1132B70A485B585109771F08C919185892B8C93E0
S1132B80A285B3858C919185892B8C9388EC90E0F8
S1132B900E9430150895A7E0B0E0E1EDF5E10C9452
S1132BA07D187C014B01642F3901402F20E00E94E5
S1132BB0751587010F5B1F4FF80110826701F2E45E
S1132BC0CF0ED11CF60110825701F3E4AF0EB11CF5
S1132BD0F5011082F70177866686512CF70180850E
S1132BE0581650F5652C712CF401E60DF71D608123
S1132BF0CE0101960E9438152F81F701E60DF71DCD
S1132C00218B89819A81F301EE0FFF1FEE0DFF1DC9
S1132C1092A381A38332910511F4F80108C086328E
S1132C20910511F4F60103C0899721F4F50180811F
S1132C30822B80835394D2CF2796EFE00C9499187B
S1132C40A0E0B0E0E6E2F6E10C947F18EC015B0151
S1132C506C0181E4C80ED11CF60180807E01F2E48F
S1132C60EF0EF11CF70170808E010D5B1F4FF80110
S1132C70908080E09885891748F4F501E80FF11DEC
S1132C80E80FF11D118210828F5FF4CF84B1F60139
S1132C909081892B84B987B1F7019081892B87B9F9
S1132CA08AB1F8019081892B8AB985B1F6019081A6
S1132CB0892B85B988B1F7019081892B88B98BB1AB
S1132CC0F8019081892B8BB98AE090E00E9430153D
S1132CD094B1F60180818095892384B997B1F70175
S1132CE080818095892387B99AB1F8018081809584
S1132CF089238AB995B1F60180818095892385B9A4
S1132D0098B1F70180818095892388B99BB1F80136
S1132D108081809589238BB9E090B000D090B10078
S1132D208091B00083608093B00082E08093B10012
S1132D304091B20080E090E02E853F858217930792
S1132D4020F5C090B2002C2D241B820F911D03B1DD
S1132D50081132C0F6B0F7102FC029B129112CC0C8
S1132D6010C0212F30E0A901440F551FF501E40FD5
S1132D70F51F60817181672B21F11F5F2885121770
S1132D8080F37F2C802E4C2DD7CFE092B000D092D0
S1132D90B10020E08885281730F5F501E20FF11D18
S1132DA0E20FF11D80819181892B21F48E859F850D
S1132DB0918380832F5FEECF03B1F6B099B010E01A
S1132DC0DDCFDE01A40FB51F91960D90BC91A02D0F
S1132DD04C91DE01A20FB31F51962C91422369F648
S1132DE091838083CACFCDB7DEB7EDE00C949B18F6
S1132DF0EF92FF920F931F93CF93DF93FC019B01FC
S1132E00F0907C0000917A0047B118B180917A006B
S1132E1086FDFCCF80E09085891748F4D901A80F7E
S1132E20B11DA80FB11D1D921C928F5FF4CF97B1F5
S1132E3082A18095892387B998B182A1809589233D
S1132E4088B987E880937A00E12C81A1E81610F014
S1132E50E12C29C050E08085581718F5A52FB0E063
S1132E60EF01CA0FDB1F8989806480937C00809105
S1132E707A00806480937A0080917A0086FDFCCF8A
S1132E806091780070917900AA0FBB1FA20FB31F45
S1132E908D919C911197860F971F8D939C935F5FE3
S1132EA0DACFE394D2CF8085E816A0F4E901CE0D01
S1132EB0D11DCE0DD11D61A170E0CB0195958795F3
S1132EC0A881B9818A0F9B1F0E94FC1779836883AC
S1132ED0E394E9CFF0927C0000937A0018B947B9E3
S1132EE0CDB7DEB7E6E00C94A218A0E2B0E0EBE7C1
S1132EF0F7E10C9485188C017B01D42E8FEF840F9D
S1132F00823018F4C8010E94B715D80150968C91EC
S1132F10B701811110C0C8010E942016C8010E9487
S1132F20A215B2E0DB123AC0BE016F5F7F4FC80149
S1132F300E9420160FC0C8010E94F816C8010E9402
S1132F40A215E2E0DE122AC0BE016F5F7F4FC80106
S1132F500E94F81640E0F80180854817F8F4842FA1
S1132F6090E0880F991FF701E80FF91F21E030E086
S1132F702C0F3D1F820F931FD8011E962D913C915B
S1132F801F97DC018D919C91281B390B80819181C5
S1132F90820F931F918380834F5FDDCFA096E7E07C
S1132FA00C94A118CF93DF93EC018A819B81009745
S1132FB011F00E9449198E819F81009711F00E949F
S1132FC0491988819981009711F00E9449198C81CF
S1132FD09D81009711F00E944919DF91CF910895C6
S1132FE0991B79E004C0991F961708F0961B881F57
S1132FF07A95C9F780950895AA1BBB1B51E107C0B8
S1133000AA1FBB1FA617B70710F0A61BB70B881F74
S1133010991F5A95A9F780959095BC01CD01089503
S113302097FB072E16F4009407D077FD09D00E9471
S1133030FC1707FC05D03EF4909581959F4F0895A9
S1133040709561957F4F0895A1E21A2EAA1BBB1BB0
S1133050FD010DC0AA1FBB1FEE1FFF1FA217B30760
S1133060E407F50720F0A21BB30BE40BF50B661F76
S1133070771F881F991F1A9469F76095709580953A
S113308090959B01AC01BD01CF010895052E97FBDE
S11330901EF400940E945D1857FD07D00E94241866
S11330A007FC03D04EF40C945D1850954095309570
S11330B021953F4F4F4F5F4F0895909580957095A0
S11330C061957F4F8F4F9F4F0895EE0FFF1F05901F
S11330D0F491E02D0994A29FB001B39FC001A39F76
S11330E0700D811D1124911DB29F700D811D11243D
S11330F0911D08952F923F924F925F926F927F920B
S11331008F929F92AF92BF92CF92DF92EF92FF92F3
S11331100F931F93CF93DF93CDB7DEB7CA1BDB0B9F
S11331200FB6F894DEBF0FBECDBF09942A88398844
S113313048885F846E847D848C849B84AA84B9844B
S1133140C884DF80EE80FD800C811B81AA81B98157
S1133150CE0FD11D0FB6F894DEBF0FBECDBFED016B
S113316008950F931F93CF93DF938230910510F44A
S113317082E090E0E0912A07F0912B0720E030E014
S1133180A0E0B0E0309719F14081518102811381B0
S113319048175907C8F08417950769F4109731F058
S11331A012960C93129713961C9327C000932A0728
S11331B010932B0722C02115310519F0421753072C
S11331C018F49A01BD01EF01DF01F801DBCF2115ED
S11331D03105F9F0281B390B2430310580F48A813C
S11331E09B816115710521F0FB019383828304C0E7
S11331F090932B0780932A07FE01329644C0FE0168
S1133200E20FF31F8193919322503109398328836C
S11332103AC02091280730912907232B41F42091AB
S11332201001309111013093290720932807209130
S11332300E0130910F012115310541F42DB73EB730
S11332404091120150911301241B350BE091280782
S1133250F0912907E217F307A0F42E1B3F0B281760
S1133260390778F0AC014E5F5F4F2417350748F0FB
S11332704E0F5F1F50932907409328078193919322
S113328002C0E0E0F0E0CF01DF91CF911F910F91F8
S11332900895CF93DF93009709F481C0FC0132971E
S11332A013821282A0912A07B0912B07109781F400
S11332B020813181820F931F2091280730912907A3
S11332C02817390751F5F0932907E093280767C0B9
S11332D0ED0120E030E0CE17DF0740F44A815B8146
S11332E09E0141155105F1F0EA01F5CFD383C28364
S11332F040815181840F951FC817D90759F48881DB
S11333009981840F951F0296918380838A819B8182
S1133310938382832115310529F4F0932B07E093DD
S11333202A073DC0E901FB83EA8349915991C40FFF
S1133330D51FEC17FD0761F480819181840F951FDF
S11333400296E90199838883828193819B838A838E
S1133350E0E0F0E012968D919C911397009719F09C
S1133360FD01DC01F7CF8D919C9111979D012E5F9A
S11333703F4F820F931F2091280730912907281768
S1133380390769F4309729F410922B0710922A0711
S113339002C013821282B0932907A0932807DF91F9
S11333A0CF91089510E0C4E5D0E004C0FE010E946E
S11133B065182196C535D107C9F7F894FFCFEB
S11333BE88130F00F4010400D00704010802000072
S11333CE2C07200000000100010001000000FFFF97
S11333DEFFFFFFFF010001000000FFFFFFFFFFFFE3
S11333EE000001009C01B501CF01EA01070226028B
S11333FE470269028E02B502DE020A030E0F101195
S113340E123E3E6133320028002C20002900204158
S113341E20422043200041202D2054657374004225
S111342E202D204D61696E002E006D560000A9
S9030000FC
