S01700004763634170706C69636174696F6E342E7372656358
S11300000C9455000C947D000C947D000C947D00A0
S11300100C947D000C947D000C947D000C947D0068
S11300200C947D000C94C7130C947D000C947D00FB
S11300300C947D000C94DD100C947D000C947D00D8
S11300400C947D000C947D000C947D000C947D0038
S11300500C947D000C947D000C947D000C947D0028
S11300600C947D000C947D00DC04D604F40469092E
S11300707009EE04E804E204084AD73B3BCE016E63
S113008084BCBFFDC12F3D6C74319ABD56833DDAEB
S11300903D00C77F11BED9E4BB4C3E916BAAAABEFA
S11300A0000000803F00830A841411241FBECFEF98
S11300B0D8E0DEBFCDBF11E0A0E0B1E0E0E7F2E3BD
S11300C002C005900D92A239B107D9F727E0A2E941
S11300D0B1E001C01D92A034B207E1F710E0C4E51D
S11300E0D0E004C02197FE010E94BE17C335D1079A
S11300F0C9F70E944A0A0C942B190C940000FC01C5
S1130100208131812F30310540F4828193818F30F9
S1130110910530F08FEF9FE708958FEF9FE70895E3
S1130120AC01440F551F840F951F880F991F4AE592
S1130130429FF001439FF00D11248E0F9F1FFC017D
S1130140EF50FE4F808191810895FC0140815181DF
S11301504F305105E8F4828193818F309105D8F0B6
S11301608FEF9FE708959C01220F331F820F931F87
S1130170880F991F2AE5249FF001259FF00D112473
S11301808E0F9F1FFC01EF50FE4F808191810895D7
S11301908FEF9FE70895FC01EE0FFF1FE80FF91F93
S11301A0EE0FFF1F6AE5649F9001659F300D1124D7
S11301B0E20FF31FEF50FE4F25812111D4CF8FEFB3
S11301C09FE70895FC01408151814F305105E8F4C7
S11301D0828193818F309105F0F08FEF9FE708952E
S11301E09C01220F331F820F931F880F991F2AE54A
S11301F0249FF001259FF00D11248E0F9F1FFC01F9
S1130200EF50FE4F8281938108958FEF9FE7089509
S11302108FEF9FE70895FC01EE0FFF1FE80FF91F12
S1130220EE0FFF1F6AE5649F9001659F300D112456
S1130230E20FF31FEF50FE4F25812111E9CFD0CFFC
S1130240DC012D913C9111972F303105D8F5129690
S11302504D915C9113974F305105E8F18FEF9FE773
S11302600895FA01EE0FFF1FE40FF51FEE0FFF1FB5
S1130270AAE5A29FC001A39F900D1124E80FF91FC6
S1130280EF50FE4F8581811120C0FB018081918157
S1130290DC01A21BB30BFD0122F4EE27FF27EA1BAE
S11302A0FB0BDB0112962D913C911397241B350B0C
S11302B0C901992324F488279927821B930B8E0F55
S11302C09F1F08958FEF9FE708958FEF9FE708958D
S11302D08FEF9FE70895FA01EE0FFF1FE40FF51F5C
S11302E0EE0FFF1FAAE5A29FC001A39F900D11244A
S11302F0E80FF91FEF50FE4F84818111E9CFB1CF90
S1130300DB018D919C9111978F309105D8F5129650
S11303106D917C9113976F307105E8F18FEF9FE732
S11303200895FB01EE0FFF1FE60FF71FEE0FFF1FEF
S1130330AAE5A89F9001A99F300D1124E20FF31F95
S1130340EF50FE4F2581211120C0FA012081318117
S1130350281B390BF901FF2324F4EE27FF27E21BA6
S1130360F30BDA0112962D913C911397261B370B50
S1130370C901992324F488279927821B930B8E0F94
S11303809F1F08958FEF9FE708958FEF9FE70895CC
S11303908FEF9FE70895FB01EE0FFF1FE60FF71F96
S11303A0EE0FFF1FAAE5A89F9001A99F300D11240D
S11303B0E20FF31FEF50FE4F24812111E9CFB1CF9B
S11303C0FB01208131812F30310540F482819381FA
S11303D08F30910530F08FEF9FE708958FEF9FE7FF
S11303E00895AC01440F551F840F951F880F991F62
S11303F04AE5429FF001439FF00D11248E0F9F1F89
S1130400FC01EF50FE4F8081918108950F931F935B
S1130410CF93DF93EC010E9444120FE010E080E1DF
S11304200E94C413811145C082E00E94C413882332
S113043041F08D819E810196B8010E9469179E83C7
S11304408D8380E20E94C413882341F08F819885B4
S11304500196B8010E94691798878F830E944412FD
S113046081E591E00E9453126D817E81072E000C7C
S1130470880B990B0E94A81283E591E00E94531205
S11304806F817885072E000C880B990B0E94A812A7
S113049086E591E00E94531261E080E00E94CB1255
S11304A088E591E00E94531284E690E00E940F14C4
S11304B0B6CF80E10E94B01388EE93E00E940F143F
S11304C0DF91CF911F910F910895CF93DF93CDB713
S11304D0DEB766970FB6F894DEBF0FBECDBF1C0122
S11304E00E94441280E691E00E94531261E080E091
S11304F00E94CB1289E691E00E94531291012B5F76
S11305003F4F3A8B298BC10109969E8B8D8B82E0DC
S11305100E94C413882331F182E00E94B013610168
S113052099E0C90ED11C7101A3E1EA0EF11C61E04E
S1130530C6010E944B148601F801619171918F01EB
S113054080E090E00E94A81284EF91E00E940F14D2
S11305500E944412E016F10679F782E791E00E94C6
S11305603B11E5CF80E10E94C413882381F280E12E
S11305700E94B013C1010E940602D1014D915C9109
S1130580119712968D919C9113979C01220F331F02
S1130590820F931F880F991F2AE5249FF001259F3E
S11305A0F00D11248E0F9F1FFC01EF50FE4F11829E
S11305B010824D915C91119712968D919C91139795
S11305C0BC01660F771F860F971F880F991F249F02
S11305D0F001259FF00D11248E0F9F1FFC01EF5099
S11305E0FE4F81E085831F86188AF10120813181C5
S11305F0858196812817390741F4228133818781C7
S113060090852817390709F482CFD10153968D912B
S11306109C91549705970CF07ACFE8E0F0E0FC8BBE
S1130620EB8B822C932CD10153968D919C915497F2
S113063004970CF01CC169897A89882D992D0E9430
S113064020017C01F1014080518062807380A4808C
S11306508F859889B12C8C018A0D9B1D87709078A9
S1130660992324F40197886F9F6F0196FC01EE0F84
S1130670FF1FEC5EFE4FD1014D915C9111972081DB
S11306803181240F351F3A832983880F991FFC0178
S1130690EC5DFE4F12962D913C91139780819181D0
S11306A0820F931F9C838B8369897A89CE0101967B
S11306B00E9420016C01809137078823C1F10E94B8
S11306C0441281E591E00E94531269817A81072ED8
S11306D0000C880B990B0E94A81283E591E00E94FC
S11306E053126B817C81072E000C880B990B0E949E
S11306F0A81286E591E00E94531261E080E00E9416
S1130700CB12B6010D2C000C880B990B0E94A81279
S113071088E791E00E945312B7010F2C000C880B5C
S1130720990B0E94A81280EA9FE00E940F14CE1435
S1130730DF042CF449805A806B807C807601C801E8
S113074001968830910509F086CF1092370782010F
S11307505301F101808191818415950509F0ACC59F
S1130760228133812615370509F489C58C0114C10A
S11307708C018A0D9B1D87709078992324F401972E
S1130780886F9F6F0196FC01EE0FFF1FEC5EFE4F1A
S1130790D1014D915C91119720813181240F351F36
S11307A03A832983880F991FFC01EC5DFE4F129652
S11307B02D913C91139780819181820F931F9C838B
S11307C08B83682D792DCE0101960E947F006C01E8
S11307D0809137078823C1F10E94441281E591E09A
S11307E00E94531269817A81072E000C880B990BA1
S11307F00E94A81283E591E00E9453126B817C81D0
S1130800072E000C880B990B0E94A81286E591E034
S11308100E94531261E080E00E94CB12B6010D2CBD
S1130820000C880B990B0E94A81288E791E00E94A3
S11308305312B7010F2C000C880B990B0E94A812BD
S113084080EA9FE00E940F14CE14DF042CF4498048
S11308505A806B807C807601C801019688309105AE
S113086009F086CF10923707820153018EC0682D9C
S1130870792D882D992D0E94E2007C01F1014080A0
S1130880518062807380A4808F859889B12C8C01FB
S11308908A0D9B1D87709078992324F40197886FA3
S11308A09F6F0196FC01EE0FFF1FEC5EFE4FD1011E
S11308B04D915C91119720813181240F351F3A832A
S11308C02983880F991FFC01EC5DFE4F12962D9130
S11308D03C91139780819181820F931F9C838B831A
S11308E0682D792DCE0101960E94E2006C01809161
S11308F037078823C1F10E94441281E591E00E94E8
S1130900531269817A81072E000C880B990B0E947F
S1130910A81283E591E00E9453126B817C81072E1B
S1130920000C880B990B0E94A81286E591E00E94A6
S1130930531261E080E00E94CB12B6010D2C000C32
S1130940880B990B0E94A81288E791E00E94531229
S1130950B7010F2C000C880B990B0E94A81280EA97
S11309609FE00E940F14CE14DF042CF449805A80B7
S11309706B807C807601C80101968830910509F06E
S113098086CF1092370782015301F1018081918152
S11309908017910709F090C4D10112968D919C9112
S11309A013978A159B0509F087C424C10F2EFDE215
S11309B0EF2EF12CF02D1AC00F2EFAE5EF2EF12CAC
S11309C0F02D14C00F2EF7E8EF2EF02DF12C0EC0F1
S11309D00F2EF4EBEF2EF02DF12C08C00F2EF1EEBC
S11309E0EF2EF02DF12C02C0EF84F888F101808104
S11309F091813801681A790A828193819501281BB3
S1130A00390BC9016114710461F4181619064CF10B
S1130A1099236CF50F2EF6EACF2EF02DDD24DA940F
S1130A2028C0B3010E946917072E000C880B990B8C
S1130A300E94730B0E949A0A20E030E044E353E4DE
S1130A400E942E0C2BED3FE049E450E40E94C90AB9
S1130A500E943B0B6B01772064F434EBC30ED11C72
S1130A6008C00F2EFAE5CF2ED12CF02D02C0CF8472
S1130A70D888C7018C199D096DE270E00E9469173E
S1130A80072E000C880B990B0E94730B0E949B0C81
S1130A900E943B0B7B01653071051CF0A8E0EA1A4B
S1130AA0F108BCEFEB16BFEFFB061CF4E8E0EE0E1A
S1130AB0F11C0E944412B7010F2C000C880B990BF7
S1130AC00E94A81261E080E00E94CB12B6010D2CB6
S1130AD0000C880B990B0E94A812FDE2CF16D104DA
S1130AE081F174F433EDC3163FEFD30609F1C11459
S1130AF0D10411F146EAC4164FEFD406B9F513C078
S1130B0087E8C816D10429F12CF4AAE5CA16D10441
S1130B10E1F02CC0B4EBCB16D104F9F0E1EECE1623
S1130B20D10401F123C084E0D10114968C931EC03A
S1130B3083E0F10184831AC082E0D10114968C937E
S1130B4015C081E0F101848311C0D10114961C9277
S1130B500DC027E0F101248309C0E6E0D101149619
S1130B60EC9304C0E5E0D1011496EC93FF20ECF47F
S1130B706AE270E086ED9FEF0E948113C70199231A
S1130B8024F4882799278E199F0948EC9C01429FD9
S1130B90C001439F900D11240E940F146F85788922
S1130BA0862F972F0E9481131FC01E141F04E4F484
S1130BB066ED7FEF8AE290E00E948113C7019923DA
S1130BC024F4882799278E199F09E8ECDC01EA9F11
S1130BD0C001EB9F900D11240E940F146F8578893A
S1130BE0862F972F0E9481136F857889862F972FE0
S1130BF00E94811361E0CE0101960E944B148B8107
S1130C009C81813B944050F48D819E81813B944032
S1130C1028F48F819885813B944030F10E944412DE
S1130C208CE791E00E94531288EE93E00E940F1427
S1130C30F501EE0FFF1FEA0DFB1DEE0FFF1F2AE566
S1130C40209FC001219F900D1124E80FF91FEF5040
S1130C50FE4F81E084838B899C8901979C8B8B8BCD
S1130C60892B09F0E0CC0AC00E94441282E891E08A
S1130C700E94531288EE93E00E940F141C870B8786
S1130C80BE86AD860E94441281E591E00E94531213
S1130C906B857C85072E000C880B990B0E94A8128B
S1130CA083E591E00E9453126D857E85072E000C2A
S1130CB0880B990B0E94A81286E591E00E945312BA
S1130CC088EE93E00E940F148D859E852B853C85CC
S1130CD0AC01440F551F840F951F880F991F4AE5D7
S1130CE0429FF001439FF00D11248E0F9F1FFC01C2
S1130CF0EF50FE4F85818111F9C0BE01655F7F4FC2
S1130D00CB010E94A5007C014B845C846D847E84AD
S1130D10D10114960C9180E090E010E06C01800FFA
S1130D20911F87709078992324F40197886F9F6F9F
S1130D300196FC01EE0FFF1FEC5EFE4FD1014D91B9
S1130D405C91119720813181240F351F3A832983C7
S1130D50880F991FFC01EC5DFE4F12962D913C917A
S1130D60139780819181820F931F9C838B83BE0193
S1130D70655F7F4FCE0101960E94A5005C018091C2
S1130D8037078823C1F10E94441281E591E00E9453
S1130D90531269817A81072E000C880B990B0E94EB
S1130DA0A81283E591E00E9453126B817C81072E87
S1130DB0000C880B990B0E94A81286E591E00E9412
S1130DC0531261E080E00E94CB12B5010B2C000CA1
S1130DD0880B990B0E94A81288E791E00E94531295
S1130DE0B7010F2C000C880B990B0E94A81280EA03
S1130DF09FE00E940F14AE14BF042CF449805A8063
S1130E006B807C807501C60101968830910509F0DC
S1130E1085CF109237076B857C858D859E85AC01C7
S1130E20440F551F480F591F440F551F1AE5169FAD
S1130E309001179F300D1124240F351FD901AF5095
S1130E40BE4FED90FC90A301440F551F460D571D56
S1130E50440F551F149D9001159D300D1124240F2E
S1130E60351F2F503E4FD9012D913C9164157505C6
S1130E7031F08615970549F442E050E00BC0861521
S1130E80970531F042E050E005C043E050E002C075
S1130E9040E050E0240F351F2E153F059CF4FC0163
S1130EA0EE0FFF1FE80FF91FEE0FFF1FAAE5A69F25
S1130EB0A001A79F500D1124E40FF51FEF50FE4F22
S1130EC0318320839C01220F331F820F931F880FCD
S1130ED0991F2AE5269FF001279FF00D11248E0FFC
S1130EE09F1FFC01EF50FE4F81E08583F1012081BB
S1130EF03181858196812817390739F4228133811C
S1130F008781908528173907E1F18B859C85AD850C
S1130F10BE85F10180839183A283B38363E170E092
S1130F2083E190E00E94811361E08D899E890E9493
S1130F304B14D1011B968D919C911C97813BB4E07D
S1130F409B0788F4F101258536858F35914058F447
S1130F502F35314040F4D1011F968D919C915097CB
S1130F608F35914008F382E791E00E943B1184E8B9
S1130F7093E00E940F1460E070E080E090E00E9433
S1130F808113F101208131818581968128173907E8
S1130F9009F02BCB428153818781908548175907EB
S1130FA009F023CBA4C1B401641B750BFC01EE0F43
S1130FB0FF1FE80FF91FEE0FFF1FB29EA001B39EA3
S1130FC0500D1124E40FF51FEF50FE4F4281538161
S1130FD046175707A4F4AC01440F551F840F951FFF
S1130FE0FC01EE0FFF1FB29EC001B39E900D1124B1
S1130FF08E0F9F1FFC01EF50FE4F73836283BE016F
S1131000655F7F4FCB010E94A5008C014B845C84FB
S11310106D847E84D10114962C9180E090E0C22EE0
S1131020D12CBF865C018C0D9D1D8770907899230F
S113103024F40197886F9F6F0196FC01EE0FFF1F48
S1131040EC5EFE4FD1014D915C911197208131816D
S1131050240F351F3A832983880F991FFC01EC5D07
S1131060FE4F12962D913C91139780819181820FAE
S1131070931F9C838B83BE01655F7F4FCE010196D6
S11310800E94A5007C01809137078823C1F10E944A
S1131090441281E591E00E94531269817A81072EFE
S11310A0000C880B990B0E94A81283E591E00E9422
S11310B053126B817C81072E000C880B990B0E94C4
S11310C0A81286E591E00E94531261E080E00E943C
S11310D0CB12B7010F2C000C880B990B0E94A8129D
S11310E088E791E00E945312B801012E000C880B8E
S11310F0990B0E94A81280EA9FE00E940F14E01648
S1131100F1062CF449805A806B807C808701C501EC
S113111001968830910509F085CFBF841092370776
S11311204B865C866D867E86242D352D8D859E8529
S1131130FC01EE0FFF1FE80FF91FEE0FFF1FB29E19
S1131140A001B39E500D1124E40FF51FEF50FE4F84
S1131150408151814115510509F025CFFC01EE0F65
S1131160FF1FE80FF91FEE0FFF1F6AE5629FA00142
S1131170639F500D1124E40FF51FEF50FE4F428181
S11311805381481559059CF4FC01EE0FFF1FE80F2D
S1131190F91FEE0FFF1F4AE5429FC001439F900DC8
S11311A01124E80FF91FEF50FE4F93828282F10160
S11311B0B580C680D780008561EF71E020E030E023
S11311C0FB0180E090E0922EA32EDF0145814423B1
S11311D0B1F0E080F180E114F10421F4D82E092F5C
S11311E0B92CCA2C12964D915C9113971396FC92CC
S11311F0EE92129711965C934E9315961C9201965B
S113120036968F30910509F72F5F3F4F665A7F4F0F
S11312102F303105A9F6D1011596BC921597169673
S1131220CC9216971796DC92179718960C931897EA
S113123021E0209337074D915C91119712968D917F
S11312409C911397BC01660F771F860F971F880F19
S1131250991F3AE5349FF001359FF00D11248E0F4C
S11312609F1FFC01EF50FE4F258353968D919C9157
S11312705497019654969C938E935397B4C90E94A5
S113128044128AE891E00E94531288EE93E00E948F
S11312900F140E944412682D792D882D992D0E94D7
S11312A07F007C01F1014080518062807380A480C2
S11312B08F859889B12C5CCAD10114968C9190E0E9
S11312C08830910508F08ACBFC01EC5CFF4F0C944C
S11312D0BE170F2EF3EDEF2EF02DFF24FA9486CBDC
S11312E00F2EF6EAEF2EF02DFF24FA947FCBF101B6
S11312F082819381AC01440F551F840F951F880F81
S1131300991F6AE5629FF001639FF00D11248E0F0F
S11313109F1FFC01EF50FE4F13821282F101858161
S11313209681A781B085582F492F8B879C87AD87DD
S1131330BE878781908525813681FC01EE0FFF1FD2
S11313408E0F9F1F880F991F629FF001639FF00DFE
S113135011248E0F9F1FFC01EF50FE4F808091805F
S1131360252F342F8D859E85FC01EE0FFF1FE80F7E
S1131370F91FEE0FFF1F629FA001639F500D112400
S1131380E40FF51FEF50FE4F408151814115510587
S113139009F4E4CE0F2EFAE5BF2EF02D04CEFB01A6
S11313A0408151814F305105E8F4828193818F301F
S11313B09105D8F08FEF9FE708959C01220F331F0A
S11313C0820F931F880F991F2AE5249FF001259F00
S11313D0F00D11248E0F9F1FFC01EF50FE4F8081F2
S11313E0918108958FEF9FE70895FC01EE0FFF1F91
S11313F0E80FF91FEE0FFF1F6AE5649F9001659FD8
S1131400300D1124E20FF31FEF50FE4F25812111FF
S1131410D4CF8FEF9FE70895FB01408151814F3076
S11314205105E8F4828193818F309105F0F08FEFBC
S11314309FE708959C01220F331F820F931F880F8B
S1131440991F2AE5249FF001259FF00D11248E0F8A
S11314509F1FFC01EF50FE4F8281938108958FEF0F
S11314609FE708958FEF9FE70895FC01EE0FFF1F9C
S1131470E80FF91FEE0FFF1F6AE5649F9001659F57
S1131480300D1124E20FF31FEF50FE4F258121117F
S1131490E9CFD0CFCF93DF93CDB7DEB765970FB643
S11314A0F894DEBF0FBECDBF85E090E09A838983B8
S11314B01C821B821D829F838E8383E090E0998728
S11314C088871D8A1C8A80ED97E00E94801460E062
S11314D070E080E090E00E9481130E94230E8C0152
S11314E00E944412B80180E090E00E94A8128FE8A4
S11314F091E00E94531288EE93E00E940F14CE01F3
S113150001960E94650241EF51E08FEF9FE7FA01D7
S1131510465A5F4F9A019183808393838283148216
S113152015823696E217F307B1F727E047335207DF
S113153071F70895DF93DD27B92FBF7740E85FE3A4
S11315401616170648075B0718F4D92F0E94260CB5
S11315509F938F937F936F930E94BF0CE8E7F0E013
S11315600E94B70B0E94EC0B2F913F914F915F911A
S11315700E94410CDD2351F09058A2EA2AED3FE08D
S113158049EC5FE3D0785D270E94D40CDF910C9482
S1131590EC0B0E94DD0A0C94EC0B0E94E50B58F056
S11315A00E94DE0B40F029F45F3F29F00C94AE0B4F
S11315B051110C94200C0C94B40B0E94FD0B68F395
S11315C09923B1F3552391F3951B550BBB27AA27F8
S11315D062177307840738F09F5F5F4F220F331F32
S11315E0441FAA1FA9F335D00E2E3AF0E0E832D0FA
S11315F091505040E695001CCAF72BD0FE2F29D0FD
S1131600660F771F881FBB1F261737074807AB07CE
S1131610B0E809F0BB0B802DBF01FF2793585F4F43
S11316203AF09E3F510578F00C94AE0B0C94200CCC
S11316305F3FE4F3983ED4F3869577956795B79525
S1131640F7959F5FC9F7880F911D9695879597F930
S11316500895E1E0660F771F881FBB1F62177307A9
S11316608407BA0720F0621B730B840BBA0BEE1FBE
S113167088F7E09508950E94420B6894B1110C9488
S1131680200C08950E94050C88F09F5798F0B92FFC
S11316909927B751B0F0E1F0660F771F881F991FA3
S11316A01AF0BA95C9F714C0B13091F00E941F0C1A
S11316B0B1E008950C941F0C672F782F8827B85F2A
S11316C039F0B93FCCF3869577956795B395D9F7FB
S11316D03EF490958095709561957F4F8F4F9F4F05
S11316E00895E89409C097FB3EF490958095709511
S11316F061957F4F8F4F9F4F9923A9F0F92F96E95A
S1131700BB279395F695879577956795B795F111CE
S1131710F8CFFAF4BB0F11F460FF1BC06F5F7F4F6B
S11317208F4F9F4F16C0882311F096E911C077237D
S113173021F09EE8872F762F05C0662371F096E886
S1131740862F70E060E02AF09A95660F771F881F55
S1131750DAF7880F9695879597F9089597F99F6713
S113176080E870E060E008959FEF80EC0895DF93D7
S1131770CF931F930F93FF92EF92DF927B018C0123
S1131780689406C0DA2EEF010E94410CFE01E89431
S1131790A5912591359145915591A6F3EF010E94AC
S11317A0D40CFE019701A801DA9469F7DF90EF9059
S11317B0FF900F911F91CF91DF91089500240A9417
S11317C01616170618060906089500240A94121618
S11317D01306140605060895092E0394000C11F44B
S11317E0882352F0BB0F40F4BF2B11F460FF04C0F8
S11317F06F5F7F4F8F4F9F4F089557FD9058440F51
S1131800551F59F05F3F71F04795880F97FB991F5B
S113181061F09F3F79F08795089512161306140618
S1131820551FF2CF4695F1DF08C0161617061806A5
S1131830991FF1CF86957105610508940895E89480
S1131840BB2766277727CB0197F908959B01AC0145
S113185060E070E080E89FE30C94C90A0E94410CA8
S11318600C94EC0B0E94DE0B38F00E94E50B20F088
S1131870952311F00C94AE0B0C94B40B11240C941E
S1131880200C0E94FD0B70F3959FC1F3950F50E05F
S1131890551F629FF001729FBB27F00DB11D639F1E
S11318A0AA27F00DB11DAA1F649F6627B00DA11DC4
S11318B0661F829F2227B00DA11D621F739FB00D6A
S11318C0A11D621F839FA00D611D221F749F3327DA
S11318D0A00D611D231F849F600D211D822F762F73
S11318E06A2F11249F5750409AF0F1F088234AF050
S11318F0EE0FFF1FBB1F661F771F881F91505040BC
S1131900A9F79E3F510580F00C94AE0B0C94200C6B
S11319105F3FE4F3983ED4F3869577956795B79542
S1131920F795E7959F5FC1F7FE2B880F911D96955C
S1131930879597F908950E94050CE8F09E37E8F022
S11319409639B8F49E3848F4672F782F8827985F23
S1131950F9CF86957795679593959539D0F3B62FFA
S1131960B1706B0F711D811D20F487957795679574
S113197093950C94290D0C94440D0C94200C9B010C
S1131980AC010C942E0C0E94DE0B38F00E94E50B87
S113199020F039F49F3F19F426F40C94B40B0EF4A0
S11319A0E095E7FB0C94AE0BE92F0E94FD0B58F376
S11319B0BA17620773078407950720F079F4A6F530
S11319C00C941F0C0EF4E0950B2EBA2FA02D0B01D6
S11319D0B90190010C01CA01A0011124FF27591B70
S11319E099F0593F50F4503E68F11A16F040A22F76
S11319F0232F342F4427585FF3CF469537952795E7
S1131A00A795F0405395C9F77EF41F16BA0B620BE5
S1131A10730B840BBAF09150A1F0FF0FBB1F661F2C
S1131A20771F881FC2F70EC0BA0F621F731F841F6F
S1131A3048F4879577956795B795F7959E3F08F095
S1131A40B0CF9395880F08F09927EE0F9795879557
S1131A500895882371F4772321F09850872B762FEB
S1131A6007C0662311F499270DC09051862B70E0AE
S1131A7060E02AF09A95660F771F881FDAF7880FBF
S1131A809695879597F908959F3F31F0915020F4EA
S1131A90879577956795B795880F911D9695879546
S1131AA097F90895ECE7F0E080818F7D80830895B5
S1131AB0811103C00E94520D089580917C008062C0
S1131AC080937C00089580917C0085FB882780F9B1
S1131AD008950E94630D882321F08091790090E09D
S1131AE00895809178009091790008958032A0F44F
S1131AF097E890937A0090917C00662311F0906CA3
S1131B0002C09F779064907E982B90937C00809184
S1131B107A00806480937A000895A0E0B0E0E3E95D
S1131B20FDE00C94DD17EB0160E00E94760D8091DE
S1131B307A0086FDFCCF8E01C12CD12C76018091D8
S1131B407A00806480937A0080917A0086FDFCCFCD
S1131B500E94690DC80ED91EE11CF11C0150110927
S1131B600115110561F7CE0196958795C034D1050D
S1131B7038F48C0D9D1DBE010E945517CB010EC07B
S1131B80A7019601280F391F411D511DCA01B90132
S1131B909E0140E050E00E947D17C901CDB7DEB739
S1131BA0E8E00C94F917CF92DF92EF92FF92A091A4
S1131BB00001B09101019C010E94C4176B017C01DA
S1131BC00E94630D882359F0C701B60161587F4F05
S1131BD08F4F9F4F2FEF30E040E050E00AC0C70125
S1131BE0B60161507E4F8F4F9F4F2FEF33E040E09F
S1131BF050E00E947D17C901FF90EF90DF90CF90D5
S1131C0008950E948D0D0E94D30D08951F93CF93C4
S1131C10DF930E94630D182F0E94520D6AE070E05A
S1131C2086E00E94010EEC01812F0E94580DCE0126
S1131C30880F991F8C0F9D1F019696958795DF91AC
S1131C40CF911F9108950E94060E089590919701D7
S1131C50E0919201F0919301992311F0849101C0D4
S1131C6080812FEB280F2A3110F4805E0895803292
S1131C7049F49F012F5F3F4F3093930120939201CA
S1131C80EF2B31F708951F93CF93DF930E94260E15
S1131C90C0E0D0E01AE090ED980F9A30B8F49E01BD
S1131CA0129FE001139FD00D1124C80FD11D87FD91
S1131CB0DA95E09780919201909193010196909327
S1131CC09301809392010E94260EE5CFCE01DF910D
S1131CD0CF911F91089510926F0083E2809380004A
S1131CE081E1809381001092820080E197E29093D9
S1131CF089008093880010928B0010928A00229AA7
S1131D00789408958F929F92AF92BF92DF92EF9250
S1131D10FF920F931F93CF93DF935C018B01D42E1B
S1131D2080919401811105C081E0809394010E9407
S1131D306B0E10920B01B7FE05C0E894B7F82AE0C9
S1131D40F22E02C0FF24F394E09081002E2D287F10
S1131D50E22E48ECF49EC00111248A159B05E0F4A0
S1131D60E50151E1A51657E2B50610F0C0E1D7E24E
S1131D70BE017695679580E090E060587946874685
S1131D809F4F4E01A12CB12CA50194010E947D17F7
S1131D9059018E2D816024C0C8E2FC9EC02D1124FF
S1131DA0D0E0CA15DB0508F4E501BE017695679518
S1131DB09E0140E050E08AE0F81207C080E090E025
S1131DC0605E734481449F4F06C080E090E060539E
S1131DD07D4E8C4E9F4F0E947D1759018E2D82603F
S1131DE0882E2AE0F21207C0CE0105966AE070E060
S1131DF00E945517EB01C83E43E0D40759F09801FF
S1131E00DE010E94C41728EE33E040E050E00E9457
S1131E109F17890110926F0080928100B09289000F
S1131E20A092880020918800309189004D2D403186
S1131E3008F04FE080E190E0841B9109A90102C001
S1131E40569547958A95E2F750938B0040938A0004
S1131E5010939A010093990186B38FEF86BB81E0BA
S1131E6080936F00DF91CF911F910F91FF90EF90BE
S1131E70DF90BF90AF909F908F900895CF93DF93A2
S1131E80EB018F3F11F0411105C040E0BE0188EE27
S1131E9093E043C0813130F050EF580F503618F0C2
S1131EA05FE501C050E0852F6CE00E944917682F60
S1131EB074EF760390011124250F311D2C30310568
S1131EC040F4F901EE0FFF1FEC5CFE4F20813181DD
S1131ED002C020E030E0873081F0082E02C0220FDB
S1131EE0331F0A94E2F7823028F0C90105966AE0AC
S1131EF070E00CC0C90190580CC0C90136E0880FCD
S1131F00991F3A95E1F7029665E070E00E94551733
S1131F10CB01403108F04FE0BE010E94820EDF91F8
S1131F20CF910895A2E0B0E0E8E9FFE00C94D51762
S1131F3090900A0180919601882321F06091950187
S1131F40611117C077247394B0ECAB2EBDE5BB2EA2
S1131F501AE0612E04E0802E80EDC82E87E0D82E92
S1131F6094E0E92EF12C04EF11E02FE0422E512CE5
S1131F7015C070E040E088EE93E00E94820E10925B
S1131F80950117C18636D4F5813609F4A9C07CF5CC
S1131F908C3309F460C08E3381F493940E94260E2E
S1131FA020919201309193012F5F3F4F3093930121
S1131FB020939201853631F752C0813209F08BC0EB
S1131FC080920A01D0920901C0920801F09207019F
S1131FD0E09206011093050100930401509203015D
S1131FE04092020110929601A4E09A2ED7CF833634
S1131FF0A1F10CF478C010E082E077C08D36C1F115
S113200094F4873691F174F18C3609F064C00E941F
S1132010430EBC019093070180930601809108014F
S11320209091090151C08237C9F14CF48F3609F0FF
S113203052C00E94430E982E80930A01AFCF84377A
S113204081F1863709F047C00E94430E9093030143
S113205080930201A3CF9A94A1CF10E020C010E096
S113206084E043C010E085E040C010E087E03DC05C
S11320700E94260E8C3619F41092960104C07092B8
S113208096011092950120919201309193012F5F56
S11320903F4F309393012093920180CF11E080E071
S11320A024C00E94430EBC01C5010E945517669EC0
S11320B0C001679E900D112490930901809308013B
S11320C060910601709107010E94551770930501F4
S11320D06093040163CF109293011092920169C03E
S11320E010E089E002C010E08BE0082F9CE0999E8C
S11320F0000D11240E94260E982F977F933261F4CD
S113210020919201309193012F5F3F4F30939301BF
S1132110209392010F5FEECF8D3271F420919201E2
S1132120309193012F5F3F4F30939301209392019D
S113213001500E94260EF0CF6091040170910501B8
S11321408153883050F4E0900801F09009010E9416
S1132150430EBC01C7010E9455177B01F694E79416
S113216069837A830E94260E69817A818E3269F4AA
S113217020919201309193012F5F3F4F309393014F
S1132180209392016E0D7F1DE9CF809196018823E3
S113219039F09B013695279520939501621B7109AF
S11321A040910201112311F08FEF01C0802F0E9492
S11321B03E0F2296E0E10C94F1171F920F920FB696
S11321C00F9211242F933F934F935F936F937F93B9
S11321D08F939F93AF93BF93EF93FF938091990154
S11321E090919A019C012150310930939A012093D6
S11321F09901892B11F510926F00789480918100D8
S1132200887F81608093810080E197E290938900C8
S11322108093880010928B0010928A0081E0809352
S11322200B018091920190919301892B31F080915F
S11322309801811102C00E94920FFF91EF91BF910A
S1132240AF919F918F917F916F915F914F913F914A
S11322502F910F900FBE0F901F90189510926F0042
S1132260909393018093920110929701109295019B
S11322700E94920F08950E942E11089581E090E02B
S11322806F9364E06A95F1F76F910197C9F7089528
S11322900F931F93CF93DF931AB157985A98289AA4
S11322A0C0E0D0E00E943E115C9A0E943E1109B148
S11322B05C980E943E115C9A0E943E115C982496A0
S11322C007FF10C0AE0160E070E080919B01909127
S11322D09C01A0919D01B0919E01481759076A077E
S11322E07B0700F31AB9DF91CF911F910F910895E5
S11322F095B1282F217030E0220F331F482F4670EC
S113230068E0469FA0011124242B9D7C292B25B92C
S11323109BB188708295807F9F77892B8BB95C9A5B
S11323200E943E115C980E943E110895A0E0B0E026
S1132330ECE9F1E10C94DE17C82FD62EE42E80913F
S11323403807811105C081E0809338070E94DC11B1
S11323500E94481114B1D5B1FAB00BB12898DD2010
S113236011F05A9A01C05A9894B1926394B9579A49
S113237081E0E81629F08C2F82958F700E947811E5
S11323808C2F8F700E947811FAB80BB914B9D5B993
S1132390CDB7DEB7E7E00C94FA1742E060E00E94A4
S11323A09611089542E061E00E949611089541E07B
S11323B060E00E949611089580E197E2A0E0B0E009
S11323C080939B0190939C01A0939D01B0939E01E7
S11323D0529A209A549A8EE190E00E940F1483E05E
S11323E00E94D71186E090E00E940F1483E00E94BF
S11323F0D71182E090E00E940F1483E00E94D7116D
S113240082E090E00E940F1482E00E94D71182E0E3
S113241090E00E940F1488E20E94CD1188E00E948F
S1132420CD1181E00E94CD1186E00E94CD118CE097
S11324300E94CD11089581E00E94CD118091A101E7
S11324409091A201892BF9F060E0A0E2262F30E000
S113245070910C0180910D0190E00197789FA0018B
S1132460799F500D1124241735074CF4E091A101F4
S1132470F091A201E20FF31FA0836F5FE7CF1092E8
S11324809F011092A00108950E941B120895CF93FA
S1132490DF93EC018991882319F00E94D211FACFBD
S11324A0DF91CF9108950E9447120895AAE0B0E009
S11324B0ECE5F2E10C94DD171AE05AE0C52ED12CBC
S11324C0E12CF12C062FA70196010E947D17CA0169
S11324D0B9011150E1E0F0E0EC0FFD1FE10FF11D37
S11324E0005D2AE0629F00191124008361157105C3
S11324F08105910539F71A3058F4E1E0F0E0EC0F6A
S1132500FD1FE10FF11D80810E94D2111F5FF3CFE7
S11325102A96E8E00C94F917CF92DF92EF92FF929B
S11325206B017C0197FF0BC0F094E094D094C094AD
S1132530C11CD11CE11CF11C8DE20E94D211C70107
S1132540B6010E945612FF90EF90DF90CF9008954D
S11325500E948C120895A5E0B0E0E1EBF2E10C9446
S1132560E217182F80E8898380EC8A8384E98B83BF
S113257084ED8C83FE01E60FF11D8181810F6D8353
S11325800E94CD1110939F016D816093A001259647
S1132590E3E00C94FE170E94AB120895883058F4BF
S11325A091E001C0990F8A95EAF7892FAAE2B0E079
S11325B0EBE2F0E021C08E3060F498EF980F81E0F8
S11325C001C0880F9A95EAF7A4E2B0E0E5E2F0E0F2
S11325D013C0853160F492EF980F81E001C0880F39
S11325E09A95EAF7A7E2B0E0E8E2F0E005C080E0FF
S11325F0A0E0B0E0E0E0F0E06F3F19F490819827AC
S113260009C0662319F09081982B04C02081982F6B
S11326109095922390839C91982B9C93089583EF9B
S11326208093B00084BD82E08093B10085BD109298
S1132630B4001092B30018BC17BC60E086E00E949E
S1132640CE1260E085E00E94CE1260E08BE00E9432
S1132650CE1260E083E00E94CE1208958091390783
S1132660811105C081E0809339070E940F130895FA
S1132670CF93DF93EC010E942E13D7FF05C0D195B1
S1132680C195D10981E001C080E0CF3FD10519F0A7
S113269014F0CFEFD0E0882319F018BCC7BD02C0F6
S11326A0C8BD17BCDF91CF910895CF93DF93EC01A0
S11326B00E942E13D7FF05C0D195C195D10981E0A1
S11326C001C080E0CF3FD10519F014F0CFEFD0E086
S11326D0882329F01092B400C093B30004C0C093BF
S11326E0B4001092B300DF91CF910895CF93DF939C
S11326F0EB010E943813CE010E945513DF91CF9154
S113270008950E947613089584B18D7C84B985B1AF
S1132710826385B985E090E06F9364E06A95F1F790
S11327206F910197C9F7089580913A07811105C007
S113273081E080933A070E9484130895CF93C82FB1
S11327400E94941383B18C23E9F38AE090E00E9401
S11327500F1483B18C23B1F383B18C23CF910895EB
S11327600E949E130895A1E0B0E0E9EBF3E10C941C
S1132770E31789830E94941393B1909589818923E7
S11327802196E2E00C94FF170E94B31308952F9250
S11327908F939F932FB68091AA019091AB010196DC
S11327A08093AA019093AB0190E08091AC01891FC2
S11327B08093AC019091A4019C5F9093A4018091BB
S11327C0A30180519742C0F09093A4018093A30188
S11327D08091A5019091A60101968093A501909303
S11327E0A60190E08091A701891F8093A7018091A1
S11327F0A801891F8093A8012FBE9F918F912F90CC
S1132800189528EE33E0019748F0F9016F9364E0DE
S11328106A95F1F76F913197C9F7F5CF08950E9442
S113282001140895E0E7F0E080818E7F8083A0EBBF
S1132830B0E08C9183608C93A1EBB0E08C91807FAD
S11328408C938C9182608C93B89A80818160808310
S11328507894089580913B07811105C081E08093AD
S11328603B070E94121408950E942A14E0E7F0E046
S113287080818E7F80831092A5011092A601109210
S1132880A7011092A8011092A4011092A3018081C3
S1132890816080830895462FBC018DEA91E00E94F7
S11328A0CE1608950F93CF93DF9300D000D01F92DC
S11328B0CDB7DEB79C0185E0ECE4F1E0DE011196D2
S11328C001900D928A95E1F7662311F00FEF01C094
S11328D003E145E0BE016F5F7F4F8DEA91E00E9406
S11328E024158DEA91E00E94FB140E9434140F9089
S11328F00F900F900F900F90DF91CF910F9108954B
S113290060E00E94521408958DEA91E00E942B1712
S113291008956F9364E06A95F1F76F910197C9F791
S11329200895FC011182108213821282158214828E
S11329301682683068F489E290E0918380838BE2A8
S113294090E0938382838AE290E0958384831FC01E
S11329506E3070F483E290E09183808385E290E0AE
S11329609383828384E290E09583848368500FC0CC
S1132970653198F486E290E09183808388E290E068
S11329809383828387E290E0958384836E5081E011
S113299001C0880F6A95EAF786830895A7E0B0E03E
S11329A0E4EDF4E10C94E1178C01FC011182108236
S11329B0138212821582148217821682613118F0F2
S11329C080E1808702C0FC016087F801208B642FBE
S11329D0CE0101960E9491148F81F80181878B8129
S11329E09C81938782878D819E8195878487279692
S11329F0E4E00C94FD17FC01A485B585109779F0EB
S1132A008C919185892B8C93A285B3859C9181852A
S1132A10809589238C9388EC90E00E948914089512
S1132A20FC01A485B585109771F08C919185892B53
S1132A308C93A285B3858C919185892B8C9388EC9A
S1132A4090E00E9489140895A7E0B0E0EAE2F5E17D
S1132A500C94D6177C014B01642F3901402F20E0E0
S1132A600E94CE1487010F5B1F4FF801108267018B
S1132A70F2E4CF0ED11CF60110825701F3E4AF0E3D
S1132A80B11CF5011082F70177866686512CF70197
S1132A908085581650F5652C712CF401E60DF71D50
S1132AA06081CE0101960E9491142F81F701E60DF9
S1132AB0F71D218B89819A81F301EE0FFF1FEE0D23
S1132AC0FF1D92A381A38332910511F4F80108C07C
S1132AD08632910511F4F60103C0899721F4F501BA
S1132AE08081822B80835394D2CF2796EFE00C947D
S1132AF0F217A0E0B0E0EFE7F5E10C94D817EC0191
S1132B005B016C0181E4C80ED11CF60180807E015A
S1132B10F2E4EF0EF11CF70170808E010D5B1F4F84
S1132B20F801908080E09885891748F4F501E80F52
S1132B30F11DE80FF11D118210828F5FF4CF84B173
S1132B40F6019081892B84B987B1F7019081892B93
S1132B5087B98AB1F8019081892B8AB985B1F601C8
S1132B609081892B85B988B1F7019081892B88B927
S1132B708BB1F8019081892B8BB98AE090E00E9497
S1132B80891494B1F60180818095892384B997B121
S1132B90F70180818095892387B99AB1F8018081F2
S1132BA0809589238AB995B1F6018081809589231E
S1132BB085B998B1F70180818095892388B99BB143
S1132BC0F8018081809589238BB9E090B000D09082
S1132BD0B1008091B00083608093B00082E0809364
S1132BE0B1004091B20080E090E02E853F858217CD
S1132BF0930720F5C090B2002C2D241B820F911D49
S1132C0003B1081132C0F6B0F7102FC029B1291151
S1132C102CC010C0212F30E0A901440F551FF5012D
S1132C20E40FF51F60817181672B21F11F5F2885F7
S1132C30121780F37F2C802E4C2DD7CFE092B0005A
S1132C40D092B10020E08885281730F5F501E20F15
S1132C50F11DE20FF11D80819181892B21F48E8574
S1132C609F85918380832F5FEECF03B1F6B099B037
S1132C7010E0DDCFDE01A40FB51F91960D90BC913D
S1132C80A02D4C91DE01A20FB31F51962C9142232B
S1132C9069F691838083CACFCDB7DEB7EDE00C949B
S1132CA0F417EF92FF920F931F93CF93DF93FC01DE
S1132CB09B01F0907C0000917A0047B118B180919B
S1132CC07A0086FDFCCF80E09085891748F4D9010D
S1132CD0A80FB11DA80FB11D1D921C928F5FF4CFD8
S1132CE097B182A18095892387B998B182A18095F3
S1132CF0892388B987E880937A00E12C81A1E816BA
S1132D0010F0E12C29C050E08085581718F5A52F44
S1132D10B0E0EF01CA0FDB1F8989806480937C00D7
S1132D2080917A00806480937A0080917A0086FD95
S1132D30FCCF6091780070917900AA0FBB1FA20F9D
S1132D40B31F8D919C911197860F971F8D939C9320
S1132D505F5FDACFE394D2CF8085E816A0F4E9016F
S1132D60CE0DD11DCE0DD11D61A170E0CB01959585
S1132D708795A881B9818A0F9B1F0E945517798373
S1132D806883E394E9CFF0927C0000937A0018B949
S1132D9047B9CDB7DEB7E6E00C94FB17A0E2B0E08C
S1132DA0E4EDF6E10C94DE178C017B01D42E8FEF59
S1132DB0840F823018F4C8010E941015D80150966F
S1132DC08C91B701811110C0C8010E947915C80106
S1132DD00E94FB14B2E0DB123AC0BE016F5F7F4F6A
S1132DE0C8010E9479150FC0C8010E945116C8017C
S1132DF00E94FB14E2E0DE122AC0BE016F5F7F4F27
S1132E00C8010E94511640E0F80180854817F8F483
S1132E10842F90E0880F991FF701E80FF91F21E034
S1132E2030E02C0F3D1F820F931FD8011E962D9169
S1132E303C911F97DC018D919C91281B390B80815B
S1132E409181820F931F918380834F5FDDCFA09682
S1132E50E7E00C94FA17CF93DF93EC018A819B810E
S1132E60009711F00E94A2188E819F81009711F0A3
S1132E700E94A21888819981009711F00E94A218DB
S1132E808C819D81009711F00E94A218DF91CF914F
S1132E900895991B79E004C0991F961708F0961BB2
S1132EA0881F7A95C9F780950895AA1BBB1B51E129
S1132EB007C0AA1FBB1FA617B70710F0A61BB70BA6
S1132EC0881F991F5A95A9F780959095BC01CD014B
S1132ED0089597FB072E16F4009407D077FD09D0C8
S1132EE00E94551707FC05D03EF4909581959F4F9D
S1132EF00895709561957F4F0895A1E21A2EAA1B3B
S1132F00BB1BFD010DC0AA1FBB1FEE1FFF1FA21795
S1132F10B307E407F50720F0A21BB30BE40BF50B92
S1132F20661F771F881F991F1A9469F7609570951B
S1132F30809590959B01AC01BD01CF010895052EAC
S1132F4097FB1EF400940E94B61757FD07D00E9409
S1132F507D1707FC03D04EF40C94B617509540959A
S1132F60309521953F4F4F4F5F4F08959095809531
S1132F70709561957F4F8F4F9F4F0895EE0FFF1F00
S1132F800590F491E02D0994A29FB001B39FC00174
S1132F90A39F700D811D1124911DB29F700D811D81
S1132FA01124911D08952F923F924F925F926F9238
S1132FB07F928F929F92AF92BF92CF92DF92EF92C5
S1132FC0FF920F931F93CF93DF93CDB7DEB7CA1B46
S1132FD0DB0B0FB6F894DEBF0FBECDBF09942A8871
S1132FE0398848885F846E847D848C849B84AA8419
S1132FF0B984C884DF80EE80FD800C811B81AA81A6
S1133000B981CE0FD11D0FB6F894DEBF0FBECDBF70
S1133010ED0108950F931F93CF93DF9382309105B1
S113302010F482E090E0E0913E07F0913F0720E049
S113303030E0A0E0B0E0309719F140815181028185
S1133040138148175907C8F08417950769F4109736
S113305031F012960C93129713961C9327C0009389
S11330603E0710933F0722C02115310519F042177E
S1133070530718F49A01BD01EF01DF01F801DBCF1A
S113308021153105F9F0281B390B2430310580F462
S11330908A819B816115710521F0FB0193838283F1
S11330A004C090933F0780933E07FE01329644C0CC
S11330B0FE01E20FF31F819391932250310939836A
S11330C028833AC020913C0730913D07232B41F4DB
S11330D0209110013091110130933D0720933C075A
S11330E020910E0130910F012115310541F42DB7C6
S11330F03EB74091120150911301241B350BE0910E
S11331003C07F0913D07E217F307A0F42E1B3F0B99
S11331102817390778F0AC014E5F5F4F2417350745
S113312048F04E0F5F1F50933D0740933C07819337
S1133130919302C0E0E0F0E0CF01DF91CF911F91C5
S11331400F910895CF93DF93009709F481C0FC0198
S1133150329713821282A0913E07B0913F071097D5
S113316081F420813181820F931F20913C0730919B
S11331703D072817390751F5F0933D07E0933C07C5
S113318067C0ED0120E030E0CE17DF0740F44A814C
S11331905B819E0141155105F1F0EA01F5CFD3831E
S11331A0C28340815181840F951FC817D90759F4F0
S11331B088819981840F951F0296918380838A81E7
S11331C09B81938382832115310529F4F0933F0772
S11331D0E0933E073DC0E901FB83EA83499159919D
S11331E0C40FD51FEC17FD0761F480819181840F12
S11331F0951F0296E90199838883828193819B8339
S11332008A83E0E0F0E012968D919C9113970097E9
S113321019F0FD01DC01F7CF8D919C9111979D016F
S11332202E5F3F4F820F931F20913C0730913D0743
S11332302817390769F4309729F410923F07109240
S11332403E0702C013821282B0933D07A0933C074D
S1133250DF91CF91089510E0C4E5D0E004C0FE01F1
S11332600E94BE172196C535D107C9F7F894FFCF40
S113327088130F00F4010400D007040108020000C1
S11332804007200000000100010001000000FFFFD2
S1133290FFFFFFFFFFFFFFFF00000100010001002F
S11332A00000FFFF9C01B501CF01EA0107022602DD
S11332B0470269028E02B502DE020A030E0F1011E4
S11332C01228002C20002900204120422043200005
S11332D041202D20546573740042202D204D6169D6
S11332E06E003E3E61333200207C2000214F425369
S11332F021004E4F54204F42530068657265006DA3
S1053300560071
S9030000FC
