:100000000C9455000C947D000C947D000C947D00A4
:100010000C947D000C947D000C947D000C947D006C
:100020000C947D000C943E0E0C947D000C947D008D
:100030000C947D000C94540B0C947D000C947D006A
:100040000C947D000C947D000C947D000C947D003C
:100050000C947D000C947D000C947D000C947D002C
:100060000C947D000C947D00BF01BC01CB01BB044E
:10007000BE04C801C501C201084AD73B3BCE016E90
:1000800084BCBFFDC12F3D6C74319ABD56833DDAEF
:100090003D00C77F11BED9E4BB4C3E916BAAAABEFE
:1000A000000000803F00FA04FB0E11241FBECFEFBA
:1000B000D8E0DEBFCDBF11E0A0E0B1E0EEE5F7E2B1
:1000C00002C005900D92AE36B107D9F727E0AEE633
:1000D000B1E001C01D92AC31B207E1F710E0C4E518
:1000E000D0E004C02197FE010E943512C335D1072C
:1000F000C9F70E94C1040C94A2130C940000CF9283
:10010000DF92EF92FF920F931F93CF93DF93EC0157
:100110000E94BB0C0F2EFFE0EF2EF12CF02D80E1A2
:100120000E943B0E811145C082E00E943B0E882355
:1001300041F08D819E810196B7010E94E0119E835E
:100140008D8380E20E943B0E882341F08F81988549
:100150000196B7010E94E01198878F830F8118855F
:10016000CD80DE800E94BB0C81E391E00E94CA0C2E
:10017000B601DD0C880B990B0E941F0D83E391E003
:100180000E94CA0CB801110F880B990B0E941F0D19
:1001900086E391E00E94CA0C61E080E00E94420D7B
:1001A00088E391E00E94CA0C84E690E00E94860EEB
:1001B000B6CF80E10E94270E88EE93E00E94860E63
:1001C000DF91CF911F910F91FF90EF90DF90CF9033
:1001D0000895CF93DF93CDB7DEB72C970FB6F89481
:1001E000DEBF0FBECDBF1C010E94BB0C80E491E0BE
:1001F0000E94CA0C61E080E00E94420D89E491E017
:100200000E94CA0C9101275F3F4F3C872B8782E0F9
:100210000E943B0E882331F182E00E94270E61018B
:1002200039E0C30ED11C710143E1E40EF11C61E021
:10023000C6010E94C20E8601D8016D917D918D018B
:1002400080E090E00E941F0D84EF91E00E94860EF6
:100250000E94BB0C0E151F0579F782E591E00E9404
:10026000B20BE5CF80E10E943B0E882381F280E152
:100270000E94270EC1010E947F00F101408151813F
:10028000828193819C01220F331F820F931F880F5D
:10029000991F2AE5249FF001259FF00D11248E0F50
:1002A0009F1FFC01E353FE4F11821082D1014D913B
:1002B0005C91119712968D919C911397BC01660FDA
:1002C000771F860F971F880F991F249FF001259F86
:1002D000F00D11248E0F9F1FFC01E353FE4F81E0B0
:1002E0008583512C412CF1012081318185819681BA
:1002F0002817390709F011C322813381878190853E
:100300002817390709F009C382CFD10153968D917F
:100310009C9154970497C4F48D919D910D90BC913C
:10032000A02D109213075C016D01F1018081918174
:100330008A159B0509F012C3228133812A173B07D6
:1003400009F4F6C25C0110C0F10180819181A281A3
:10035000B381109213075C016D01D1018D919C91C5
:100360008A159B0509F0FAC2F101828193818C15EF
:100370009D0509F0F3C216C10DE210E00EC00AE5BA
:1003800010E00BC007E810E008C004EB10E005C067
:1003900001EE10E002C0052D142DD1018D919C912C
:1003A00011974501881A990A12968D919C9113977D
:1003B000F601E81BF90BCF018114910461F41E16BC
:1003C0001F064CF1FF236CF50F2EF6EAEF2EF02DF1
:1003D000FF24FA9428C0B4010E94E011072E000CFB
:1003E000880B990B0E94EA050E94110520E030E07D
:1003F00044E353E40E94A5062BED3FE049E450E4BA
:100400000E9440050E94B2057B01992064F4F4EB40
:10041000EF0EF11C08C00F2EFAE5EF2EF12CF02D97
:1004200002C0E52CF42CC8018E199F096DE270E022
:100430000E94E011072E000C880B990B0E94EA0520
:100440000E9412070E94B2058B016530710514F0FD
:10045000085011090C3F2FEF120714F4085F1F4FCB
:100460000E94BB0CB801012E000C880B990B0E9456
:100470001F0D61E080E00E94420DB7010F2C000CBF
:10048000880B990B0E941F0D3DE2E316F10481F1E8
:1004900074F483EDE8168FEFF80609F1E114F10426
:1004A00011F196EAE9169FEFF906C1F513C0A7E826
:1004B000EA16F10429F12CF4EAE5EE16F104E9F06C
:1004C0002DC0F4EBEF16F10401F121EEE216F10478
:1004D00009F124C084E0D10114968C931FC023E05D
:1004E000F10124831BC0E2E0D1011496EC9316C005
:1004F00081E0D10114968C9311C0F10114820EC0D9
:10050000E7E0D1011496EC9309C0E6E0D10114961E
:10051000EC9304C0E5E0D1011496EC931123ECF4C4
:100520006AE270E086ED9FEF0E94F80DC801992302
:1005300024F488279927801B910B48EC9C01429F4B
:10054000C001439F900D11240E94860E652D742DCD
:10055000852D942D0E94F80D1FC010161106E4F48D
:1005600066ED7FEF8AE290E00E94F80DC8019923C2
:1005700024F488279927801B910BE8ECDC01EA9F83
:10058000C001EB9F900D11240E94860E652D742DE5
:10059000852D942D0E94F80D652D742D852D942D9B
:1005A0000E94F80D61E0CE0101960E94C20E8B817F
:1005B0009C81813B944050F48D819E81813B94408D
:1005C00028F48F819885813B944018F10E94BB0CE0
:1005D00088E591E00E94CA0C88EE93E00E94860EA6
:1005E000F601EE0FFF1FEC0DFD1DEE0FFF1F2AE5BC
:1005F0002A9DC0012B9D900D1124E80FF91FE35394
:10060000FE4F81E0848341E0641A710809F07DCED9
:100610000AC00E94BB0C8EE591E00E94CA0C88EED5
:1006200093E00E94860E0E94BB0C81E391E00E9441
:10063000CA0CB5010B2C000C880B990B0E941F0DE6
:1006400083E391E00E94CA0CB6010D2C000C880BCC
:10065000990B0E941F0D86E391E00E94CA0C88EE60
:1006600093E00E94860EF601EE0FFF1FEC0DFD1DBC
:10067000EE0FFF1F2AE52A9DC0012B9D900D11242E
:10068000E80FF91FE353FE4F8581811114C01092CA
:100690001307F601EE0FFF1FEC0DFD1DEE0FFF1F00
:1006A0002A9DC0012B9D900D1124E80FF91FE353E3
:1006B000FE4F81E08583D1012D913C9111971596D4
:1006C0008D919C9116972817390759F412962D9100
:1006D0003C91139717968D919C911897281739077D
:1006E000C1F1F101B182A082D382C28263E170E0E4
:1006F00083E190E00E94F80D61E08B859C850E946B
:10070000C20ED1011B968D919C911C97813BB4E048
:100710009B0788F4F101258536858F35914058F483
:100720002F35314040F4D1011F968D919C91509707
:100730008F35914008F382E591E00E94B20B84E886
:1007400093E00E94860E60E070E080E090E00E94FE
:10075000F80DF101208131818581968128173907B3
:1007600009F0C1CD82819381478150858417950717
:1007700009F0B9CDAC01440F551F840F951F880FA8
:10078000991F6AE5629FF001639FF00D11248E0F9F
:100790009F1FFC01E353FE4F13821282D101159675
:1007A000ED91FC91169717968D919C9118979C014D
:1007B000220F331FD901A80FB91FAA0FBB1F6E9FAD
:1007C000A0016F9F500D1124A40FB51FA353BE4F5E
:1007D0006D917C9161157105E1F0661B770B9C01B1
:1007E000220F331F820F931F880F991F4AE54E9FD8
:1007F00090014F9F300D1124820F931FFC01E15394
:10080000FE4F8081918186179707DCF771836083A3
:10081000F8CFDC01AA0FBB1FA80FB91FAA0FBB1F7F
:100820004AE54E9F90014F9F300D1124A20FB31F38
:10083000A353BE4F12962D913C911397261737075D
:100840001CF4FD0173836283F101B580C680D780FB
:1008500070854DEC51E020E030E0A72EFA0180E0F9
:1008600090E0E22EF32EDF0165816623B1F0608116
:1008700071816115710521F4D82EA92EBE2CCF2CC3
:1008800012960D911C91139713967C936E93129769
:1008900011961C930E9315961C92019636968F30E6
:1008A000910509F72F5F3F4F465A5F4F2F303105B3
:1008B000A9F6D1011596BC9215971696CC9216976B
:1008C0001796DC9217971896AC92189721E0209310
:1008D00013074D915C91119712968D919C911397EE
:1008E000BC01660F771F860F971F880F991F3AE587
:1008F000349FF001359FF00D11248E0F9F1FFC01D6
:10090000E353FE4F258353968D919C915497019606
:1009100054969C938E935397E6CCF10183899489E6
:1009200005970CF074CC6894662463F8712CEDCCB8
:100930000E94BB0C86E691E00E94CA0C88EE93E010
:100940000E94860E0E94BB0CF10180819181A281E0
:10095000B381109213075C016D01FFCCD101149695
:100960008C9190E08830910508F012CDFC01EC5C90
:10097000FF4F0C94351203ED1FEF0FCD06EA1FEF6A
:100980000CCDCF93DF93CDB7DEB765970FB6F89454
:10099000DEBF0FBECDBF85E090E09A8389831C82C5
:1009A0001B821D829F838E8383E090E099878887D6
:1009B0001D8A1C8A80ED97E00E94F70E60E070E0CF
:1009C00080E090E00E94F80D0E949A088C010E943D
:1009D000BB0CB80180E090E00E941F0D8BE691E017
:1009E0000E94CA0C88EE93E00E94860ECE0101960A
:1009F0000E94E9004DEC51E08FEF9FE7FA01465A63
:100A00005F4F9A019183808393838283148215823E
:100A10003696E217F307B1F727E04331520771F733
:100A20000895DF93DD27B92FBF7740E85FE31616FF
:100A3000170648075B0718F4D92F0E949D069F935D
:100A40008F937F936F930E943607E8E7F0E00E9450
:100A50002E060E9463062F913F914F915F910E9455
:100A6000B806DD2351F09058A2EA2AED3FE049ECA8
:100A70005FE3D0785D270E944B07DF910C946306FB
:100A80000E9454050C9463060E945C0658F00E9474
:100A9000550640F029F45F3F29F00C9425065111CA
:100AA0000C9497060C942B060E94740668F3992305
:100AB000B1F3552391F3951B550BBB27AA2762175A
:100AC0007307840738F09F5F5F4F220F331F441F67
:100AD000AA1FA9F335D00E2E3AF0E0E832D091509B
:100AE0005040E695001CCAF72BD0FE2F29D0660F88
:100AF000771F881FBB1F261737074807AB07B0E8CB
:100B000009F0BB0B802DBF01FF2793585F4F3AF0D0
:100B10009E3F510578F00C9425060C9497065F3F94
:100B2000E4F3983ED4F3869577956795B795F79556
:100B30009F5FC9F7880F911D9695879597F908953E
:100B4000E1E0660F771F881FBB1F621773078407DA
:100B5000BA0720F0621B730B840BBA0BEE1F88F7E9
:100B6000E09508950E94B9056894B1110C94970618
:100B700008950E947C0688F09F5798F0B92F992716
:100B8000B751B0F0E1F0660F771F881F991F1AF078
:100B9000BA95C9F714C0B13091F00E949606B1E041
:100BA00008950C949606672F782F8827B85F39F040
:100BB000B93FCCF3869577956795B395D9F73EF411
:100BC00090958095709561957F4F8F4F9F4F0895B9
:100BD000E89409C097FB3EF49095809570956195D7
:100BE0007F4F8F4F9F4F9923A9F0F92F96E9BB278D
:100BF0009395F695879577956795B795F111F8CF09
:100C0000FAF4BB0F11F460FF1BC06F5F7F4F8F4F73
:100C10009F4F16C0882311F096E911C0772321F069
:100C20009EE8872F762F05C0662371F096E8862F01
:100C300070E060E02AF09A95660F771F881FDAF758
:100C4000880F9695879597F9089597F99F6780E89B
:100C500070E060E008959FEF80EC0895DF93CF93FC
:100C60001F930F93FF92EF92DF927B018C016894A8
:100C700006C0DA2EEF010E94B806FE01E894A591A5
:100C80002591359145915591A6F3EF010E944B07AF
:100C9000FE019701A801DA9469F7DF90EF90FF90C9
:100CA0000F911F91CF91DF91089500240A94161699
:100CB000170618060906089500240A94121613064A
:100CC000140605060895092E0394000C11F48823D8
:100CD00052F0BB0F40F4BF2B11F460FF04C06F5FF4
:100CE0007F4F8F4F9F4F089557FD9058440F551FCA
:100CF00059F05F3F71F04795880F97FB991F61F09E
:100D00009F3F79F087950895121613061406551F14
:100D1000F2CF4695F1DF08C0161617061806991F80
:100D2000F1CF86957105610508940895E894BB2775
:100D300066277727CB0197F908959B01AC0160E006
:100D400070E080E89FE30C9440050E94B8060C9484
:100D500063060E94550638F00E945C0620F0952339
:100D600011F00C9425060C942B0611240C94970674
:100D70000E94740670F3959FC1F3950F50E0551FC4
:100D8000629FF001729FBB27F00DB11D639FAA27E0
:100D9000F00DB11DAA1F649F6627B00DA11D661F2F
:100DA000829F2227B00DA11D621F739FB00DA11D50
:100DB000621F839FA00D611D221F749F3327A00D0A
:100DC000611D231F849F600D211D822F762F6A2FA6
:100DD00011249F5750409AF0F1F088234AF0EE0F0B
:100DE000FF1FBB1F661F771F881F91505040A9F738
:100DF0009E3F510580F00C9425060C9497065F3FAA
:100E0000E4F3983ED4F3869577956795B795F79573
:100E1000E7959F5FC1F7FE2B880F911D96958795EB
:100E200097F908950E947C06E8F09E37E8F096391D
:100E3000B8F49E3848F4672F782F8827985FF9CF49
:100E400086957795679593959539D0F3B62FB170C0
:100E50006B0F711D811D20F487957795679593958C
:100E60000C94A0070C94BB070C9497069B01AC0153
:100E70000C94A5060E94550638F00E945C0620F0EE
:100E800039F49F3F19F426F40C942B060EF4E095E8
:100E9000E7FB0C942506E92F0E94740658F3BA1755
:100EA000620773078407950720F079F4A6F50C9480
:100EB00096060EF4E0950B2EBA2FA02D0B01B9016A
:100EC00090010C01CA01A0011124FF27591B99F0C0
:100ED000593F50F4503E68F11A16F040A22F232FCC
:100EE000342F4427585FF3CF469537952795A7951C
:100EF000F0405395C9F77EF41F16BA0B620B730BC3
:100F0000840BBAF09150A1F0FF0FBB1F661F771F33
:100F1000881FC2F70EC0BA0F621F731F841F48F4E8
:100F2000879577956795B795F7959E3F08F0B0CF71
:100F30009395880F08F09927EE0F97958795089558
:100F4000882371F4772321F09850872B762F07C0E0
:100F5000662311F499270DC09051862B70E060E054
:100F60002AF09A95660F771F881FDAF7880F9695F3
:100F7000879597F908959F3F31F0915020F4879518
:100F800077956795B795880F911D9695879597F9F1
:100F90000895ECE7F0E080818F7D808308958111D2
:100FA00003C00E94C907089580917C0080628093ED
:100FB0007C00089580917C0085FB882780F9089546
:100FC0000E94DA07882321F08091790090E008954B
:100FD000809178009091790008958032A0F497E88C
:100FE00090937A0090917C00662311F0906C02C07F
:100FF0009F779064907E982B90937C0080917A00EC
:10100000806480937A000895A0E0B0E0EAE0F8E020
:101010000C945412EB0160E00E94ED0780917A007D
:1010200086FDFCCF8E01C12CD12C760180917A00F7
:10103000806480937A0080917A0086FDFCCF0E94C4
:10104000E007C80ED91EE11CF11C01501109011561
:10105000110561F7CE0196958795C034D10538F416
:101060008C0D9D1DBE010E94CC11CB010EC0A701AD
:101070009601280F391F411D511DCA01B9019E015A
:1010800040E050E00E94F411C901CDB7DEB7E8E0BE
:101090000C947012CF92DF92EF92FF92A091000118
:1010A000B09101019C010E943B126B017C010E94E6
:1010B000DA07882359F0C701B60161587F4F8F4F77
:1010C0009F4F2FEF30E040E050E00AC0C701B6016B
:1010D00061507E4F8F4F9F4F2FEF33E040E050E045
:1010E0000E94F411C901FF90EF90DF90CF90089516
:1010F0000E9404080E944A0808951F93CF93DF932B
:101100000E94DA07182F0E94C9076AE070E086E0A3
:101110000E947808EC01812F0E94CF07CE01880F32
:10112000991F8C0F9D1F019696958795DF91CF9102
:101130001F9108950E947D08089590917301E09198
:101140006E01F0916F01992311F0849101C08081AB
:101150002FEB280F2A3110F4805E0895803249F475
:101160009F012F5F3F4F30936F0120936E01EF2B54
:1011700031F708951F93CF93DF930E949D08C0E03D
:10118000D0E01AE090ED980F9A30B8F49E01129FCB
:10119000E001139FD00D1124C80FD11D87FDDA95F2
:1011A000E09780916E0190916F01019690936F018D
:1011B00080936E010E949D08E5CFCE01DF91CF9113
:1011C0001F91089510926F0083E28093800081E167
:1011D000809381001092820080E197E290938900D1
:1011E0008093880010928B0010928A00229A789443
:1011F00008958F929F92AF92BF92DF92EF92FF92EB
:101200000F931F93CF93DF935C018B01D42E8091BA
:101210007001811105C081E0809370010E94E20895
:1012200010920B01B7FE05C0E894B7F82AE0F22E41
:1012300002C0FF24F394E09081002E2D287FE22E3F
:1012400048ECF49EC00111248A159B05E0F4E501E9
:1012500051E1A51657E2B50610F0C0E1D7E2BE0194
:101260007695679580E090E06058794687469F4F75
:101270004E01A12CB12CA50194010E94F411590139
:101280008E2D816024C0C8E2FC9EC02D1124D0E0C8
:10129000CA15DB0508F4E501BE01769567959E0148
:1012A00040E050E08AE0F81207C080E090E0605E25
:1012B000734481449F4F06C080E090E060537D4EB0
:1012C0008C4E9F4F0E94F41159018E2D8260882E02
:1012D0002AE0F21207C0CE0105966AE070E00E9493
:1012E000CC11EB01C83E43E0D40759F09801DE0170
:1012F0000E943B1228EE33E040E050E00E941612BC
:10130000890110926F0080928100B0928900A092B2
:10131000880020918800309189004D2D403108F0DF
:101320004FE080E190E0841B9109A90102C056952D
:1013300047958A95E2F750938B0040938A0010936B
:1013400076010093750186B38FEF86BB81E08093B1
:101350006F00DF91CF911F910F91FF90EF90DF9081
:10136000BF90AF909F908F900895CF93DF93EB0144
:101370008F3F11F0411105C040E0BE0188EE93E0BF
:1013800043C0813130F050EF580F503618F05FE510
:1013900001C050E0852F6CE00E94C011682F74EFEF
:1013A000760390011124250F311D2C30310540F4B6
:1013B000F901EE0FFF1FEC5EFE4F2081318102C06C
:1013C00020E030E0873081F0082E02C0220F331F6A
:1013D0000A94E2F7823028F0C90105966AE070E0CD
:1013E0000CC0C90190580CC0C90136E0880F991F84
:1013F0003A95E1F7029665E070E00E94CC11CB01CE
:10140000403108F04FE0BE010E94F908DF91CF9112
:101410000895A2E0B0E0EFE0FAE00C944C12909056
:101420000A0180917201882321F06091710161119C
:1014300017C077247394B0ECAB2EBDE5BB2E1AE039
:10144000612E04E0802E80EDC82E87E0D82E94E037
:10145000E92EF12C04EF11E02FE0422E512C15C0A3
:1014600070E040E088EE93E00E94F908109271016C
:1014700017C18636D4F5813609F4A9C07CF58C33C2
:1014800009F460C08E3381F493940E949D082091EA
:101490006E0130916F012F5F3F4F30936F012093AA
:1014A0006E01853631F752C0813209F08BC08092CF
:1014B0000A01D0920901C0920801F0920701E0925E
:1014C000060110930501009304015092030140921C
:1014D000020110927201A4E09A2ED7CF8336A1F1B7
:1014E0000CF478C010E082E077C08D36C1F194F43E
:1014F000873691F174F18C3609F064C00E94BA0805
:10150000BC0190930701809306018091080190919E
:10151000090151C08237C9F14CF48F3609F052C02D
:101520000E94BA08982E80930A01AFCF843781F1C8
:10153000863709F047C00E94BA0890930301809350
:101540000201A3CF9A94A1CF10E020C010E084E064
:1015500043C010E085E040C010E087E03DC00E943D
:101560009D088C3619F41092720104C070927201B9
:101570001092710120916E0130916F012F5F3F4FEA
:1015800030936F0120936E0180CF11E080E024C082
:101590000E94BA08BC01C5010E94CC11669EC00120
:1015A000679E900D1124909309018093080160912A
:1015B0000601709107010E94CC11709305016093A0
:1015C000040163CF10926F0110926E0169C010E0A8
:1015D00089E002C010E08BE0082F9CE0999E000D8E
:1015E00011240E949D08982F977F933261F42091D7
:1015F0006E0130916F012F5F3F4F30936F01209349
:101600006E010F5FEECF8D3271F420916E0130913B
:101610006F012F5F3F4F30936F0120936E01015098
:101620000E949D08F0CF60910401709105018153E3
:10163000883050F4E0900801F09009010E94BA0847
:10164000BC01C7010E94CC117B01F694E794698329
:101650007A830E949D0869817A818E3269F4209193
:101660006E0130916F012F5F3F4F30936F012093D8
:101670006E016E0D7F1DE9CF80917201882339F0D4
:101680009B013695279520937101621B710940914A
:101690000201112311F08FEF01C0802F0E94B509C4
:1016A0002296E0E10C9468121F920F920FB60F92EF
:1016B00011242F933F934F935F936F937F938F9357
:1016C0009F93AF93BF93EF93FF9380917501909198
:1016D00076019C01215031093093760120937501E8
:1016E000892B11F510926F00789480918100887F8A
:1016F00081608093810080E197E2909389008093DC
:10170000880010928B0010928A0081E080930B0178
:1017100080916E0190916F01892B31F0809174015D
:10172000811102C00E94090AFF91EF91BF91AF9110
:101730009F918F917F916F915F914F913F912F91E9
:101740000F900FBE0F901F90189510926F009093FE
:101750006F0180936E0110927301109271010E94CB
:10176000090A08950E94A50B089581E090E06F9307
:1017700064E06A95F1F76F910197C9F708950F93A7
:101780001F93CF93DF931AB157985A98289AC0E0C5
:10179000D0E00E94B50B5C9A0E94B50B09B15C9831
:1017A0000E94B50B5C9A0E94B50B5C98249607FFCB
:1017B00010C0AE0160E070E08091770190917801F7
:1017C000A0917901B0917A01481759076A077B0700
:1017D00000F31AB9DF91CF911F910F91089595B140
:1017E000282F217030E0220F331F482F467068E009
:1017F000469FA0011124242B9D7C292B25B99BB148
:1018000088708295807F9F77892B8BB95C9A0E9424
:10181000B50B5C980E94B50B0895A0E0B0E0E3E141
:10182000FCE00C945512C82FD62EE42E809114079C
:10183000811105C081E0809314070E94530C0E941F
:10184000BF0B14B1D5B1FAB00BB12898DD2011F05F
:101850005A9A01C05A9894B1926394B9579A81E008
:10186000E81629F08C2F82958F700E94EF0B8C2F39
:101870008F700E94EF0BFAB80BB914B9D5B9CDB778
:10188000DEB7E7E00C94711242E060E00E940D0CBC
:10189000089542E061E00E940D0C089541E060E08F
:1018A0000E940D0C089580E197E2A0E0B0E08093E3
:1018B000770190937801A0937901B0937A01529ABD
:1018C000209A549A8EE190E00E94860E83E00E9456
:1018D0004E0C86E090E00E94860E83E00E944E0C43
:1018E00082E090E00E94860E83E00E944E0C82E02F
:1018F00090E00E94860E82E00E944E0C82E090E012
:101900000E94860E88E20E94440C88E00E94440CEB
:1019100081E00E94440C86E00E94440C8CE00E940E
:10192000440C089581E00E94440C80917D019091C7
:101930007E01892BF9F060E0A0E2262F30E0709163
:101940000C0180910D0190E00197789FA001799F93
:10195000500D1124241735074CF4E0917D01F091CE
:101960007E01E20FF31FA0836F5FE7CF10927B0130
:1019700010927C0108950E94920C0895CF93DF93FA
:10198000EC018991882319F00E94490CFACFDF916C
:10199000CF9108950E94BE0C0895AAE0B0E0E3ED57
:1019A000FCE00C9454121AE05AE0C52ED12CE12C24
:1019B000F12C062FA70196010E94F411CA01B9016A
:1019C0001150E1E0F0E0EC0FFD1FE10FF11D005DB3
:1019D0002AE0629F001911240083611571058105B9
:1019E000910539F71A3058F4E1E0F0E0EC0FFD1FF3
:1019F000E10FF11D80810E94490C1F5FF3CF2A96F1
:101A0000E8E00C947012CF92DF92EF92FF926B019C
:101A10007C0197FF0BC0F094E094D094C094C11C5B
:101A2000D11CE11CF11C8DE20E94490CC701B601DA
:101A30000E94CD0CFF90EF90DF90CF9008950E9410
:101A4000030D0895A5E0B0E0E8E2FDE00C94591222
:101A5000182F80E8898380EC8A8384E98B8384ED66
:101A60008C83FE01E60FF11D8181810F6D830E9441
:101A7000440C10937B016D8160937C012596E3E01B
:101A80000C9475120E94220D0895883058F491E04C
:101A900001C0990F8A95EAF7892FAAE2B0E0EBE23C
:101AA000F0E021C08E3060F498EF980F81E001C023
:101AB000880F9A95EAF7A4E2B0E0E5E2F0E013C0FF
:101AC000853160F492EF980F81E001C0880F9A95FC
:101AD000EAF7A7E2B0E0E8E2F0E005C080E0A0E0CD
:101AE000B0E0E0E0F0E06F3F19F49081982709C082
:101AF000662319F09081982B04C02081982F90952F
:101B0000922390839C91982B9C93089583EF8093CC
:101B1000B00084BD82E08093B10085BD1092B40016
:101B20001092B30018BC17BC60E086E00E94450D1F
:101B300060E085E00E94450D60E08BE00E94450D6D
:101B400060E083E00E94450D0895809115078111A2
:101B500005C081E0809315070E94860D0895CF93FC
:101B6000DF93EC010E94A50DD7FF05C0D195C1956B
:101B7000D10981E001C080E0CF3FD10519F014F018
:101B8000CFEFD0E0882319F018BCC7BD02C0C8BD94
:101B900017BCDF91CF910895CF93DF93EC010E94A2
:101BA000A50DD7FF05C0D195C195D10981E001C030
:101BB00080E0CF3FD10519F014F0CFEFD0E08823BB
:101BC00029F01092B400C093B30004C0C093B400D5
:101BD0001092B300DF91CF910895CF93DF93EB0183
:101BE0000E94AF0DCE010E94CC0DDF91CF910895E0
:101BF0000E94ED0D089584B18D7C84B985B1826316
:101C000085B985E090E06F9364E06A95F1F76F9194
:101C10000197C9F7089580911607811105C081E0E9
:101C2000809316070E94FB0D0895CF93C82F0E9442
:101C30000B0E83B18C23E9F38AE090E00E94860EBC
:101C400083B18C23B1F383B18C23CF9108950E948B
:101C5000150E0895A1E0B0E0E0E3FEE00C945A1206
:101C600089830E940B0E93B19095898189232196D7
:101C7000E2E00C9476120E942A0E08952F928F9320
:101C80009F932FB680918601909187010196809352
:101C900086019093870190E080918801891F80934D
:101CA0008801909180019C5F9093800180917F01D9
:101CB00080519742C0F09093800180937F01809182
:101CC000810190918201019680938101909382011C
:101CD00090E080918301891F80938301809184012A
:101CE000891F809384012FBE9F918F912F9018950B
:101CF00028EE33E0019748F0F9016F9364E06A95AC
:101D0000F1F76F913197C9F7F5CF08950E94780EDA
:101D10000895E0E7F0E080818E7F8083A0EBB0E063
:101D20008C9183608C93A1EBB0E08C91807F8C933D
:101D30008C9182608C93B89A808181608083789442
:101D4000089580911707811105C081E080931707DE
:101D50000E94890E08950E94A10EE0E7F0E08081C4
:101D60008E7F8083109281011092820110928301F4
:101D7000109284011092800110927F018081816015
:101D800080830895462FBC0189E891E00E944511A7
:101D900008950F93CF93DF9300D000D01F92CDB75B
:101DA000DEB79C0185E0ECE2F1E0DE0111960190E6
:101DB0000D928A95E1F7662311F00FEF01C003E160
:101DC00045E0BE016F5F7F4F89E891E00E949B0F65
:101DD00089E891E00E94720F0E94AB0E0F900F9065
:101DE0000F900F900F90DF91CF910F91089560E0C9
:101DF0000E94C90E089589E891E00E94A2110895F9
:101E00006F9364E06A95F1F76F910197C9F70895B0
:101E1000FC011182108213821282158214821682B2
:101E2000683068F489E290E0918380838BE290E0EF
:101E3000938382838AE290E0958384831FC06E300F
:101E400070F483E290E09183808385E290E0938355
:101E5000828384E290E09583848368500FC065316B
:101E600098F486E290E09183808388E290E0938307
:101E7000828387E290E0958384836E5081E001C085
:101E8000880F6A95EAF786830895A7E0B0E0EBE44F
:101E9000FFE00C9458128C01FC0111821082138215
:101EA00012821582148217821682613118F080E145
:101EB000808702C0FC016087F801208B642FCE016F
:101EC00001960E94080F8F81F80181878B819C8188
:101ED000938782878D819E81958784872796E4E00A
:101EE0000C947412FC01A485B585109779F08C913F
:101EF0009185892B8C93A285B3859C918185809552
:101F000089238C9388EC90E00E94000F0895FC01D7
:101F1000A485B585109771F08C919185892B8C9350
:101F2000A285B3858C919185892B8C9388EC90E068
:101F30000E94000F0895A7E0B0E0E1EAFFE00C94F2
:101F40004D127C014B01642F3901402F20E00E948B
:101F5000450F87010F5B1F4FF80110826701F2E404
:101F6000CF0ED11CF60110825701F3E4AF0EB11C65
:101F7000F5011082F70177866686512CF70180857E
:101F8000581650F5652C712CF401E60DF71D608193
:101F9000CE0101960E94080F2F81F701E60DF71D73
:101FA000218B89819A81F301EE0FFF1FEE0DFF1D3A
:101FB00092A381A38332910511F4F80108C08632FF
:101FC000910511F4F60103C0899721F4F501808190
:101FD000822B80835394D2CF2796EFE00C94691222
:101FE000A0E0B0E0E6EFFFE00C944F12EC015B01E3
:101FF0006C0181E4C80ED11CF60180807E01F2E400
:10200000EF0EF11CF70170808E010D5B1F4FF80180
:10201000908080E09885891748F4F501E80FF11D5C
:10202000E80FF11D118210828F5FF4CF84B1F601A9
:102030009081892B84B987B1F7019081892B87B969
:102040008AB1F8019081892B8AB985B1F601908116
:10205000892B85B988B1F7019081892B88B98BB11B
:10206000F8019081892B8BB98AE090E00E94000FE3
:1020700094B1F60180818095892384B997B1F701E5
:1020800080818095892387B99AB1F80180818095F4
:1020900089238AB995B1F60180818095892385B914
:1020A00098B1F70180818095892388B99BB1F801A7
:1020B0008081809589238BB9E090B000D090B100E9
:1020C0008091B00083608093B00082E08093B10083
:1020D0004091B20080E090E02E853F858217930703
:1020E00020F5C090B2002C2D241B820F911D03B14E
:1020F000081132C0F6B0F7102FC029B129112CC039
:1021000010C0212F30E0A901440F551FF501E40F45
:10211000F51F60817181672B21F11F5F28851217E0
:1021200080F37F2C802E4C2DD7CFE092B000D09240
:10213000B10020E08885281730F5F501E20FF11D88
:10214000E20FF11D80819181892B21F48E859F857D
:10215000918380832F5FEECF03B1F6B099B010E08A
:10216000DDCFDE01A40FB51F91960D90BC91A02D7F
:102170004C91DE01A20FB31F51962C91422369F6B8
:1021800091838083CACFCDB7DEB7EDE00C946B129C
:10219000EF92FF920F931F93CF93DF93FC019B016C
:1021A000F0907C0000917A0047B118B180917A00DC
:1021B00086FDFCCF80E09085891748F4D901A80FEF
:1021C000B11DA80FB11D1D921C928F5FF4CF97B166
:1021D00082A18095892387B998B182A180958923AE
:1021E00088B987E880937A00E12C81A1E81610F085
:1021F000E12C29C050E08085581718F5A52FB0E0D4
:10220000EF01CA0FDB1F8989806480937C00809175
:102210007A00806480937A0080917A0086FDFCCFFA
:102220006091780070917900AA0FBB1FA20FB31FB5
:102230008D919C911197860F971F8D939C935F5F53
:10224000DACFE394D2CF8085E816A0F4E901CE0D71
:10225000D11DCE0DD11D61A170E0CB019595879563
:10226000A881B9818A0F9B1F0E94CC117983688352
:10227000E394E9CFF0927C0000937A0018B947B953
:10228000CDB7DEB7E6E00C947212A0E2B0E0EBE46A
:10229000F1E10C9455128C017B01D42E8FEF840F49
:1022A000823018F4C8010E94870FD80150968C9193
:1022B000B701811110C0C8010E94F00FC8010E942F
:1022C000720FB2E0DB123AC0BE016F5F7F4FC801F0
:1022D0000E94F00F0FC0C8010E94C810C8010E94E0
:1022E000720FE2E0DE122AC0BE016F5F7F4FC801AD
:1022F0000E94C81040E0F80180854817F8F4842F48
:1023000090E0880F991FF701E80FF91F21E030E0F6
:102310002C0F3D1F820F931FD8011E962D913C91CB
:102320001F97DC018D919C91281B390B8081918135
:10233000820F931F918380834F5FDDCFA096E7E0EC
:102340000C947112CF93DF93EC018A819B810097EB
:1023500011F00E9419138E819F81009711F00E9445
:10236000191388819981009711F00E9419138C81AB
:102370009D81009711F00E941913DF91CF9108956C
:10238000991B79E004C0991F961708F0961B881FC7
:102390007A95C9F780950895AA1BBB1B51E107C028
:1023A000AA1FBB1FA617B70710F0A61BB70B881FE5
:1023B000991F5A95A9F780959095BC01CD01089574
:1023C00097FB072E16F4009407D077FD09D00E94E2
:1023D000CC1107FC05D03EF4909581959F4F089550
:1023E000709561957F4F0895A1E21A2EAA1BBB1B21
:1023F000FD010DC0AA1FBB1FEE1FFF1FA217B307D1
:10240000E407F50720F0A21BB30BE40BF50B661FE6
:10241000771F881F991F1A9469F7609570958095AA
:1024200090959B01AC01BD01CF010895052E97FB4E
:102430001EF400940E942D1257FD07D00E94F41143
:1024400007FC03D04EF40C942D1250954095309516
:1024500021953F4F4F4F5F4F089590958095709510
:1024600061957F4F8F4F9F4F0895EE0FFF1F05908F
:10247000F491E02D0994A29FB001B39FC001A39FE6
:10248000700D811D1124911DB29F700D811D1124AD
:10249000911D08952F923F924F925F926F927F927B
:1024A0008F929F92AF92BF92CF92DF92EF92FF9264
:1024B0000F931F93CF93DF93CDB7DEB7CA1BDB0B10
:1024C0000FB6F894DEBF0FBECDBF09942A883988B5
:1024D00048885F846E847D848C849B84AA84B984BC
:1024E000C884DF80EE80FD800C811B81AA81B981C8
:1024F000CE0FD11D0FB6F894DEBF0FBECDBFED01DC
:1025000008950F931F93CF93DF938230910510F4BA
:1025100082E090E0E0911A07F0911B0720E030E0A4
:10252000A0E0B0E0309719F1408151810281138120
:1025300048175907C8F08417950769F4109731F0C8
:1025400012960C93129713961C9327C000931A07A8
:1025500010931B0722C02115310519F042175307AC
:1025600018F49A01BD01EF01DF01F801DBCF21155D
:102570003105F9F0281B390B2430310580F48A81AC
:102580009B816115710521F0FB019383828304C057
:1025900090931B0780931A07FE01329644C0FE01F8
:1025A000E20FF31F819391932250310939832883DD
:1025B0003AC02091180730911907232B41F420913C
:1025C00010013091110130931907209318072091C1
:1025D0000E0130910F012115310541F42DB73EB7A1
:1025E0004091120150911301241B350BE091180703
:1025F000F0911907E217F307A0F42E1B3F0B2817E1
:10260000390778F0AC014E5F5F4F2417350748F06B
:102610004E0F5F1F509319074093180781939193B2
:1026200002C0E0E0F0E0CF01DF91CF911F910F9168
:102630000895CF93DF93009709F481C0FC0132978E
:1026400013821282A0911A07B0911B07109781F490
:1026500020813181820F931F209118073091190733
:102660002817390751F5F0931907E093180767C049
:10267000ED0120E030E0CE17DF0740F44A815B81B6
:102680009E0141155105F1F0EA01F5CFD383C283D4
:1026900040815181840F951FC817D90759F488814B
:1026A0009981840F951F0296918380838A819B81F3
:1026B000938382832115310529F4F0931B07E0935E
:1026C0001A073DC0E901FB83EA8349915991C40F80
:1026D000D51FEC17FD0761F480819181840F951F50
:1026E0000296E90199838883828193819B838A83FF
:1026F000E0E0F0E012968D919C911397009719F00D
:10270000FD01DC01F7CF8D919C9111979D012E5F0A
:102710003F4F820F931F20911807309119072817F8
:10272000390769F4309729F410921B0710921A07A1
:1027300002C013821282B0931907A0931807DF9189
:10274000CF91089510E0C4E5D0E004C0FE010E94DE
:0E27500035122196C535D107C9F7F894FFCF91
:10275E0088130F00F4010400D007040108020000E2
:10276E001C0720009C01B501CF01EA0107022602D9
:10277E00470269028E02B502DE020A030E0F101125
:10278E001228002C20002900204120422043200046
:10279E0041202D20546573740042202D204D616917
:1027AE006E003E3E61333200214F425321004E4FA8
:0E27BE0054204F42530068657265006D56004E
:00000001FF
