:100000000C9455000C947D000C947D000C947D00A4
:100010000C947D000C947D000C947D000C947D006C
:100020000C947D000C94C80F0C947D000C947D0002
:100030000C947D000C94DE0C0C947D000C947D00DF
:100040000C947D000C947D000C947D000C947D003C
:100050000C947D000C947D000C947D000C947D002C
:100060000C947D000C947D00560350034D03460311
:100070006E03680362035C03084AD73B3BCE016E04
:1000800084BCBFFDC12F3D6C74319ABD56833DDAEF
:100090003D00C77F11BED9E4BB4C3E916BAAAABEFE
:1000A000000000803F005807851011241FBECFEFCD
:1000B000D8E0DEBFCDBF11E0A0E0B1E0E2E7FAE2B8
:1000C00002C005900D92A237B107D9F728E0A2E748
:1000D000B1E001C01D92A13EB207E1F710E0C4E516
:1000E000D0E004C02197FE010E94BF13C335D107A1
:1000F000C9F70E94F7010C942C150C940000FC0128
:10010000208131812F30310540F4828193818F30FD
:10011000910530F08FEF9FE708958FEF9FE70895E7
:100120004FE0429FF001439FF00D1124E80FF91FAB
:10013000EE0FFF1FEE0FFF1FEE0FFF1FEF52FE4FE0
:10014000808191810895FC01208131812F3031051A
:10015000D8F4828193818F309105C8F08FEF9FE7AB
:1001600008954FE0429FF001439FF00D1124E80FE6
:10017000F91FEE0FFF1FEE0FFF1FEE0FFF1FEF52D5
:10018000FE4F8081918108958FEF9FE708954FE0A2
:10019000429FF001439FF00D1124E80FF91FEE0F6D
:1001A000FF1FEE0FFF1FEE0FFF1FEF52FE4F4781A5
:1001B0004111D7CF8FEF9FE70895DC012D913C913E
:1001C00011972F303105D0F512964D915C91139710
:1001D0004F305105E0F18FEF9FE708958FE0829F48
:1001E000F001839FF00D1124E40FF51FEE0FFF1FA8
:1001F000EE0FFF1FEE0FFF1FEF52FE4F87818111A1
:1002000020C0FB0180819181DC01A21BB30BFD01A9
:1002100022F4EE27FF27EA1BFB0BDB0112962D9140
:100220003C911397241B350BC901992324F488278B
:100230009927821B930B8E0F9F1F08958FEF9FE7C7
:1002400008958FEF9FE708958FEF9FE708958FE060
:10025000829FF001839FF00D1124E40FF51FEE0F34
:10026000FF1FEE0FFF1FEE0FFF1FEF52FE4F8481A7
:100270008111EACFB3CFDB018D919C9111978F3023
:100280009105D0F512962D913C9113972F303105A1
:10029000E0F18FEF9FE708956FE0689FF001699F9D
:1002A000F00D1124E20FF31FEE0FFF1FEE0FFF1FE3
:1002B000EE0FFF1FEF52FE4F6781611120C0FA0160
:1002C00060817181681B790BFB01FF2324F4EE2709
:1002D000FF27E61BF70BDA0112964D915C911397FD
:1002E000CA01821B930B9C0122F488279927821B49
:1002F000930B8E0F9F1F08958FEF9FE708958FEF49
:100300009FE708958FEF9FE708956FE0689FF001E2
:10031000699FF00D1124E20FF31FEE0FFF1FEE0F88
:10032000FF1FEE0FFF1FEF52FE4F64816111EACFF6
:10033000B3CFFB01208131812F30310540F4828120
:1003400093818F30910530F08FEF9FE708958FEF05
:100350009FE708954FE0429FF001439FF00D112465
:10036000E80FF91FEE0FFF1FEE0FFF1FEE0FFF1F2D
:10037000EF52FE4F808191810895FB0120813181F0
:100380002F303105D8F4828193818F309105C8F0E8
:100390008FEF9FE708954FE0429FF001439FF00DDC
:1003A0001124E80FF91FEE0FFF1FEE0FFF1FEE0FD6
:1003B000FF1FEF52FE4F8081918108958FEF9FE7DD
:1003C00008954FE0429FF001439FF00D1124E80F84
:1003D000F91FEE0FFF1FEE0FFF1FEE0FFF1FEF5273
:1003E000FE4F47814111D7CF8FEF9FE70895CF93FD
:1003F000DF93CDB7DEB7C454D1090FB6F894DEBF92
:100400000FBECDBF1A8219821C821B821D821F82E1
:100410001E8283E090E09987888780ED97E00E94B4
:10042000811060E070E080E090E00E94820F0F2E6B
:10043000FFE0EF2EF12CF02D80E10E94C50F81111D
:1004400045C082E00E94C50F882341F08E819F81C4
:100450000196B7010E946A139F838E8380E20E94F7
:10046000C50F882341F0888599850196B7010E94C0
:100470006A139987888708851985CE80DF800E9456
:10048000450E8FE491E00E94540EB601DD0C880BFE
:10049000990B0E94A90E81E591E00E94540EB801CB
:1004A000110F880B990B0E94A90E84E591E00E9420
:1004B000540E61E080E00E94CC0E86E591E00E943F
:1004C000540E84E690E00E941010B6CF80E10E94A6
:1004D000B10F88EE93E00E94101025961FAE25976D
:1004E0004E0124E2820E911CAE014C5C5F4F5DAF69
:1004F0004CAF2CAC3DAC832D322C282E29813A8177
:100500008E819F812817390791F42B813C81888542
:1005100099852817390781F425965FAD25975523CE
:1005200009F4A1C488E090E09FAF8EAF09C0A8E0B5
:10053000B0E0BFAFAEAF04C0E8E0F0E0FFAFEEAFB9
:1005400021963FAE219723962FAE239780E2E2E1DA
:10055000F1E0DE01549601900D928A95E1F7BE011B
:100560006A5F7F4FCE0101960E94DD006C014980D9
:100570005A806B807C808E010C5E1F4F2196BFAC31
:1005800021972396AFAC23972B803C80F80180897C
:100590009189820D931DE980FA80208131810E5F5F
:1005A0001F4F2E0D3F1D3DAB2CAB9FAB8EABBE0145
:1005B0006A5F7F4F8B2D9A2D0E94DD008C159D0563
:1005C0002CF44CA85DA86EA87FA86C01081519052D
:1005D000D9F65201E414F50431F52614370419F55F
:1005E00049C4F80180899189820D931D2081318150
:1005F0000E5F1F4F2E0D3F1D3DAB2CAB9FAB8EAB47
:10060000BE016F5F7F4F8B2D9A2D0E947F008C154E
:100610009D052CF44CA85DA86EA87FA86C01081558
:100620001905F9F65201FFEFAF16BF06C9F42FE026
:100630002E9DF0012F9DF00D11248B819C81E80FE0
:10064000F91FEE0FFF1FEE0FFF1FEE0FFF1FEF5200
:10065000FE4F0580F681E02DA080B180628073801E
:1006600089819A818501081B190B8B819C81A301CB
:10067000481B590BCA01ED814E2F50E048305105FF
:1006800038F5FA01EC5CFF4F0C94BF130F2EF3ED1D
:10069000CF2EF02DDD24DA9427C0C12CD12C24C01C
:1006A0000F2EFDE2CF2ED12CF02D1EC00F2EFAE51D
:1006B000CF2ED12CF02D18C00F2EF7E8CF2EF02D15
:1006C000D12C12C00F2EF4EBCF2EF02DD12C0CC05C
:1006D0000F2EF1EECF2EF02DD12C06C00F2EF6EA04
:1006E000CF2EF02DDD24DA940115110561F41816D2
:1006F00019064CF199236CF50F2EF6EAEF2EF02D2A
:10070000FF24FA9428C0B8010E946A13072E000C37
:10071000880B990B0E9448080E946F0720E030E088
:1007200044E353E40E9403092BED3FE049E450E425
:100730000E949E070E9410087B01112364F454EB71
:10074000E50EF11C08C00F2EFAE5EF2EF12CF02D6E
:1007500002C0E12CF12CC6018E199F096DE270E0F8
:100760000E946A13072E000C880B990B0E94480800
:100770000E9470090E9410088B016530710514F009
:10078000085011090C3F6FEF160714F4085F1F4F54
:100790000E94450EB801012E000C880B990B0E9497
:1007A000A90E61E080E00E94CC0EB7010F2C000C76
:1007B000880B990B0E94A90E8DE2E816F10459F1FD
:1007C00074F4A3EDEA16AFEFFA06F9F0E114F104C0
:1007D000F9F0B6EAEB16BFEFFB0651F513C0E7E8F8
:1007E000EE16F104E9F02CF42AE5E216F104B1F07A
:1007F0001FC034EBE316F104B1F041EEE416F1044E
:10080000A9F016C084E08D8313C083E08D8310C0EF
:1008100082E08D830DC081E08D830AC01D8208C0F7
:1008200087E08D8305C086E08D8302C085E08D83DF
:100830001123ECF46AE270E086ED9FEF0E94820FD4
:10084000C801992324F488279927801B910B28EC51
:10085000DC012A9FC0012B9F900D11240E941010D3
:1008600060E070E080E090E00E94820F1FC01016F0
:100870001106E4F466ED7FEF8AE290E00E94820FB9
:10088000C801992324F488279927801B910B28EC11
:10089000FC012E9FC0012F9F900D11240E9410106B
:1008A00060E070E080E090E00E94820F60E070E025
:1008B00080E090E00E94820F61E0CE0144960E94A9
:1008C0004C108E899F89813B944050F4888D998D7E
:1008D000813B944028F48A8D9B8D813B944058F154
:1008E0000E94450E8EE591E00E94540E80ED97E047
:1008F0000E9410104FE04A9DF0014B9DF00D112415
:10090000E60DF71DEE0FFF1FEE0FFF1FEE0FFF1F8F
:10091000EF52FE4F81E084838EAD9FAD01979FAF74
:100920008EAF892B09F012CE21963FAC21972396EA
:100930002FAC239710C021963FAC219723962FAC64
:1009400023970E94450E84E691E00E94540E80EDAC
:1009500097E00E941010B9AEA8AE7BAE6AAE6501FA
:1009600073018FE08A9D80018B9D100D1124060D6F
:10097000171D000F111F000F111F000F111F0F5225
:100980001E4FD8011596ED91FC91169789819A8199
:10099000AB81BC8180839183A283B3830E94450E87
:1009A0008FE491E00E94540EB501BB0C880B990BAB
:1009B0000E94A90E81E591E00E94540EB301770CCC
:1009C000880B990B0E94A90E84E591E00E94540EB9
:1009D00080ED97E00E941010F8018781811198C086
:1009E00080E2E2E1F1E0DE01549601900D928A95F9
:1009F000E1F7BE01685C7F4FCB010E94A3005C0160
:100A000048AC59AC6AAC7BAC8E010C5E1F4FF80150
:100A1000808991898E0D9F1D208131810E5F1F4F2E
:100A20002C0D3D1D3DAB2CAB9FAB8EABBE01685C6E
:100A30007F4FCE01C4960E94A3008A159B052CF41B
:100A40004CA85DA86EA87FA85C0108151905F9F6E9
:100A50004FE04C9DF0014D9DF00D1124EE0DFF1D5A
:100A6000EE0FFF1FEE0FFF1FEE0FFF1FEF52FE4FA7
:100A700080819181449DF001459DF00D1124E60D8A
:100A8000F71DEE0FFF1FEE0FFF1FEE0FFF1FEF52C0
:100A9000FE4F40815181C414D50431F0E614F704AF
:100AA00049F422E030E00BC0E614F70431F022E014
:100AB00030E005C023E030E002C020E030E0420F2B
:100AC000531F4817590794F48FE08C9DF0018D9DBA
:100AD000F00D1124EE0DFF1DEE0FFF1FEE0FFF1F97
:100AE000EE0FFF1FEF52FE4F518340838FE08C9D2E
:100AF000F0018D9DF00D1124EE0DFF1DEE0FFF1F77
:100B0000EE0FFF1FEE0FFF1FEF52FE4F81E08783B6
:100B100029813A818E819F812817390741F42B81E1
:100B20003C81888599852817390709F453C088AD19
:100B300099ADAAADBBAD89839A83AB83BC8364E1D5
:100B400070E084E190E00E94820F61E0CE010A969D
:100B50000E944C108C859D85813BF4E09F0760F4DA
:100B60002E853F85213B44E0340730F4488959897C
:100B7000413B64E05607B8F089819A812FE0289FB5
:100B8000F001299FF00D11248B819C81E80FF91F42
:100B9000EE0FFF1FEE0FFF1FEE0FFF1FEF52FE4F76
:100BA00081E0848309C08F35914030F42F35314086
:100BB00018F44F35514048F28CE691E00E943C0D0C
:100BC00084E893E00E94101060E070E080E090E024
:100BD0000E94820F2596FFAD2597FF2309F42BC1B4
:100BE0008E819F81A885B985382F292F88AF99AF2D
:100BF000AAAFBBAF4E815F8122965FAF4EAF229707
:100C00008885998524969FAF8EAF24978FE0849F27
:100C1000F001859FF00D11242496AEADBFAD249751
:100C2000EA0FFB1FEE0FFF1FEE0FFF1FEE0FFF1F60
:100C3000EF52FE4F408151815FAF4EAFE32EF22E57
:100C4000AAACBBAC8E9DF0018F9DF00D1124EA0D76
:100C5000FB1DEE0FFF1FEE0FFF1FEE0FFF1FEF52EA
:100C6000FE4F80819181009709F480C0AEADBFAD89
:100C7000A81BB90BCD01BFE0BE9DF001BF9DF00DDB
:100C80001124EA0DFB1DEE0FFF1FEE0FFF1FEE0FED
:100C9000FF1FEF52FE4F22813381281739078CF452
:100CA000BE9DF001BF9DF00D1124EA0DFB1DEE0F5E
:100CB000FF1FEE0FFF1FEE0FFF1FEF52FE4F93833C
:100CC000828380E2E2E1F1E0DE01549601900D9230
:100CD0008A95E1F7BE01685C7F4FCB010E94A300BB
:100CE0006C0148AC59AC6AAC7BAC8E010C5E1F4FFA
:100CF000F801808991898A0D9B1D208131810E5FC9
:100D00001F4F2E0D3F1D3DAB2CAB9FAB8EABBE01DD
:100D1000685C7F4F832D922D0E94A3008C159D054A
:100D20002CF44CA85DA86EA87FA86C0108151905C5
:100D3000F9F648AE59AE6AAE7BAEE42CF52CAAACFF
:100D4000BBAC2FE02E9DF0012F9DF00D1124EA0D7C
:100D5000FB1DEE0FFF1FEE0FFF1FEE0FFF1FEF52E9
:100D6000FE4F80819181009709F080CF8FE08E9DAA
:100D7000F0018F9DF00D1124EA0DFB1DEE0FFF1FFA
:100D8000EE0FFF1FEE0FFF1FEF52FE4F8281938188
:100D90004EAD5FAD8417950794F48FE08E9DF00102
:100DA0008F9DF00D1124EA0DFB1DEE0FFF1FEE0FBE
:100DB000FF1FEE0FFF1FEF52FE4F5383428301EDE3
:100DC00011E060E070E022962EAD3FAD22972496B0
:100DD0004EAD5FAD2497F80180E090E0A62EB72ECF
:100DE000DF01F780FF2099F0E080F180E114F10449
:100DF00021F4482F592F2A2D3B2D1296CD90DC90AF
:100E000013971396FC92EE921297CD92DC92019674
:100E100038968F30910521F76F5F7F4F08581F4F2D
:100E20006F307105C1F63F832E8359874887259619
:100E30001FAE259763CB29813A818E819F81281728
:100E4000390709F05BCB51E025965FAF25972B81E1
:100E50003C81888599852817390709F44FCB259659
:100E60001FAE25974BCB60E070E080E090E00E94E1
:100E7000820FFFCF80E2E2E1F1E0DE0154960190C3
:100E80000D928A95E1F7BE016F5F7F4FCB010E9403
:100E90007F006C0149805A806B807C808E010C5EE3
:100EA0001F4F2196BFAC21972396AFAC239799CBC8
:100EB00041ED51E08FEF9FE7FA0148585F4F9A01EB
:100EC0009183808393838283148217823896E217FA
:100ED000F307B1F728E0493D520771F70895DF9312
:100EE000DD27B92FBF7740E85FE3161617064807DE
:100EF0005B0718F4D92F0E94FB089F938F937F9371
:100F00006F930E949409E8E7F0E00E948C080E9429
:100F1000C1082F913F914F915F910E941609DD23E7
:100F200051F09058A2EA2AED3FE049EC5FE3D07817
:100F30005D270E94A909DF910C94C1080E94B207A5
:100F40000C94C1080E94BA0858F00E94B30840F0FF
:100F500029F45F3F29F00C94830851110C94F50893
:100F60000C9489080E94D20868F39923B1F35523A1
:100F700091F3951B550BBB27AA27621773078407AC
:100F800038F09F5F5F4F220F331F441FAA1FA9F342
:100F900035D00E2E3AF0E0E832D091505040E69530
:100FA000001CCAF72BD0FE2F29D0660F771F881F91
:100FB000BB1F261737074807AB07B0E809F0BB0B84
:100FC000802DBF01FF2793585F4F3AF09E3F510598
:100FD00078F00C9483080C94F5085F3FE4F3983E96
:100FE000D4F3869577956795B795F7959F5FC9F781
:100FF000880F911D9695879597F90895E1E0660F02
:10100000771F881FBB1F621773078407BA0720F07A
:10101000621B730B840BBA0BEE1F88F7E0950895E3
:101020000E9417086894B1110C94F50808950E9465
:10103000DA0888F09F5798F0B92F9927B751B0F088
:10104000E1F0660F771F881F991F1AF0BA95C9F74C
:1010500014C0B13091F00E94F408B1E008950C94EE
:10106000F408672F782F8827B85F39F0B93FCCF3A1
:10107000869577956795B395D9F73EF490958095C9
:10108000709561957F4F8F4F9F4F0895E89409C0E9
:1010900097FB3EF490958095709561957F4F8F4FAB
:1010A0009F4F9923A9F0F92F96E9BB279395F695C1
:1010B000879577956795B795F111F8CFFAF4BB0F3F
:1010C00011F460FF1BC06F5F7F4F8F4F9F4F16C0A3
:1010D000882311F096E911C0772321F09EE8872F2D
:1010E000762F05C0662371F096E8862F70E060E0E9
:1010F0002AF09A95660F771F881FDAF7880F969562
:10110000879597F9089597F99F6780E870E060E008
:1011100008959FEF80EC0895DF93CF931F930F9373
:10112000FF92EF92DF927B018C01689406C0DA2E69
:10113000EF010E941609FE01E894A59125913591D1
:1011400045915591A6F3EF010E94A909FE0197016F
:10115000A801DA9469F7DF90EF90FF900F911F914B
:10116000CF91DF91089500240A94161617061806E9
:101170000906089500240A9412161306140605069B
:101180000895092E0394000C11F4882352F0BB0F2C
:1011900040F4BF2B11F460FF04C06F5F7F4F8F4F8F
:1011A0009F4F089557FD9058440F551F59F05F3FCA
:1011B00071F04795880F97FB991F61F09F3F79F079
:1011C00087950895121613061406551FF2CF4695FB
:1011D000F1DF08C0161617061806991FF1CF86957D
:1011E0007105610508940895E894BB276627772761
:1011F000CB0197F908959B01AC0160E070E080E8B5
:101200009FE30C949E070E9416090C94C1080E944B
:10121000B30838F00E94BA0820F0952311F00C941E
:1012200083080C94890811240C94F5080E94D208B4
:1012300070F3959FC1F3950F50E0551F629FF00129
:10124000729FBB27F00DB11D639FAA27F00DB11D42
:10125000AA1F649F6627B00DA11D661F829F2227CB
:10126000B00DA11D621F739FB00DA11D621F839F52
:10127000A00D611D221F749F3327A00D611D231F28
:10128000849F600D211D822F762F6A2F11249F5776
:1012900050409AF0F1F088234AF0EE0FFF1FBB1F79
:1012A000661F771F881F91505040A9F79E3F510538
:1012B00080F00C9483080C94F5085F3FE4F3983EAB
:1012C000D4F3869577956795B795F795E7959F5FE2
:1012D000C1F7FE2B880F911D9695879597F9089574
:1012E0000E94DA08E8F09E37E8F09639B8F49E38A4
:1012F00048F4672F782F8827985FF9CF86957795E0
:10130000679593959539D0F3B62FB1706B0F711D1A
:10131000811D20F487957795679593950C94FE0928
:101320000C94190A0C94F5089B01AC010C94030968
:101330000E94B30838F00E94BA0820F039F49F3FA9
:1013400019F426F40C9489080EF4E095E7FB0C944C
:101350008308E92F0E94D20858F3BA17620773076F
:101360008407950720F079F4A6F50C94F4080EF4A0
:10137000E0950B2EBA2FA02D0B01B90190010C01A5
:10138000CA01A0011124FF27591B99F0593F50F4BD
:10139000503E68F11A16F040A22F232F342F442715
:1013A000585FF3CF469537952795A795F04053950D
:1013B000C9F77EF41F16BA0B620B730B840BBAF0DD
:1013C0009150A1F0FF0FBB1F661F771F881FC2F748
:1013D0000EC0BA0F621F731F841F48F4879577955C
:1013E0006795B795F7959E3F08F0B0CF9395880F16
:1013F00008F09927EE0F979587950895882371F443
:10140000772321F09850872B762F07C0662311F49D
:1014100099270DC09051862B70E060E02AF09A95D4
:10142000660F771F881FDAF7880F9695879597F9CB
:1014300008959F3F31F0915020F4879577956795F7
:10144000B795880F911D9695879597F90895909176
:101450007701E0917201F0917301992311F0849169
:1014600001C080812FEB280F2A3110F4805E08958F
:10147000803249F49F012F5F3F4F309373012093D7
:101480007201EF2B31F708951F93CF93DF930E94E2
:10149000270AC0E0D0E01AE090ED980F9A30B8F437
:1014A0009E01129FE001139FD00D1124C80FD11D82
:1014B00087FDDA95E0978091720190917301019612
:1014C00090937301809372010E94270AE5CFCE01A9
:1014D000DF91CF911F91089510926F0083E2809366
:1014E000800081E1809381001092820080E197E288
:1014F000909389008093880010928B0010928A004C
:10150000229A789408958F929F92AF92BF92DF9221
:10151000EF92FF920F931F93CF93DF935C018B01A8
:10152000D42E80917401811105C081E080937401F3
:101530000E946C0A10920901B7FE05C0E894B7F842
:101540002AE0F22E02C0FF24F394E09081002E2DB9
:10155000287FE22E48ECF49EC00111248A159B05D9
:10156000E0F4E50151E1A51657E2B50610F0C0E13F
:10157000D7E2BE017695679580E090E060587946A5
:1015800087469F4F4E01A12CB12CA50194010E94CA
:101590007E1359018E2D816024C0C8E2FC9EC02DAF
:1015A0001124D0E0CA15DB0508F4E501BE017695EB
:1015B00067959E0140E050E08AE0F81207C080E0A5
:1015C00090E0605E734481449F4F06C080E090E0ED
:1015D00060537D4E8C4E9F4F0E947E1359018E2D7D
:1015E0008260882E2AE0F21207C0CE0105966AE0DA
:1015F00070E00E945613EB01C83E43E0D40759F057
:101600009801DE010E94C51328EE33E040E050E06F
:101610000E94A013890110926F0080928100B09205
:101620008900A092880020918800309189004D2D7A
:10163000403108F04FE080E190E0841B9109A9015E
:1016400002C0569547958A95E2F750938B004093D8
:101650008A0010937A010093790186B38FEF86BBDD
:1016600081E080936F00DF91CF911F910F91FF90E8
:10167000EF90DF90BF90AF909F908F900895CF93A1
:10168000DF93EB018F3F11F0411105C040E0BE0137
:1016900088EE93E043C0813130F050EF580F503660
:1016A00018F05FE501C050E0852F6CE00E944A13FE
:1016B000682F74EF760390011124250F311D2C3013
:1016C000310540F4F901EE0FFF1FEE5CFE4F208163
:1016D000318102C020E030E0873081F0082E02C066
:1016E000220F331F0A94E2F7823028F0C9010596D1
:1016F0006AE070E00CC0C90190580CC0C90136E026
:10170000880F991F3A95E1F7029665E070E00E9414
:101710005613CB01403108F04FE0BE010E94830A0E
:10172000DF91CF910895A2E0B0E0E9E9FBE00C94ED
:10173000D6139090080180917601882321F0609162
:101740007501611117C077247394B0ECAB2EBDE521
:10175000BB2E1AE0612E04E0802E80EDC82E87E0BB
:10176000D82E94E0E92EF12C04EF11E02FE0422E68
:10177000512C15C070E040E088EE93E00E94830A8F
:101780001092750117C18636D4F5813609F4A9C0C7
:101790007CF58C3309F460C08E3381F493940E94FD
:1017A000270A20917201309173012F5F3F4F3093D0
:1017B000730120937201853631F752C0813209F0EE
:1017C0008BC080920801D0920701C0920601F0926E
:1017D0000501E0920401109303010093020150926D
:1017E00001014092000110927601A4E09A2ED7CF19
:1017F0008336A1F10CF478C010E082E077C08D361A
:10180000C1F194F4873691F174F18C3609F064C01B
:101810000E94440ABC0190930501809304018091C9
:1018200006019091070151C08237C9F14CF48F36FF
:1018300009F052C00E94440A982E80930801AFCF4D
:10184000843781F1863709F047C00E94440A90939B
:10185000010180930001A3CF9A94A1CF10E020C092
:1018600010E084E043C010E085E040C010E087E075
:101870003DC00E94270A8C3619F41092760104C0EC
:10188000709276011092750120917201309173016E
:101890002F5F3F4F309373012093720180CF11E08F
:1018A00080E024C00E94440ABC01C5010E94561376
:1018B000669EC001679E900D11249093070180934E
:1018C000060160910401709105010E945613709306
:1018D00003016093020163CF1092730110927201B1
:1018E00069C010E089E002C010E08BE0082F9CE0A6
:1018F000999E000D11240E94270A982F977F9332FA
:1019000061F420917201309173012F5F3F4F30934A
:101910007301209372010F5FEECF8D3271F420912D
:101920007201309173012F5F3F4F30937301209309
:10193000720101500E94270AF0CF6091020170915C
:1019400003018153883050F4E0900601F0900701C4
:101950000E94440ABC01C7010E9456137B01F69401
:10196000E79469837A830E94270A69817A818E329B
:1019700069F420917201309173012F5F3F4F3093D2
:101980007301209372016E0D7F1DE9CF8091760166
:10199000882339F09B013695279520937501621BAA
:1019A000710940910001112311F08FEF01C0802FC8
:1019B0000E943F0B2296E0E10C94F2131F920F92CB
:1019C0000FB60F9211242F933F934F935F936F9312
:1019D0007F938F939F93AF93BF93EF93FF938091E8
:1019E000790190917A019C012150310930937A015B
:1019F00020937901892B11F510926F0078948091D2
:101A00008100887F81608093810080E197E29093DC
:101A100089008093880010928B0010928A0081E0E8
:101A2000809309018091720190917301892B31F0AB
:101A300080917801811102C00E94930BFF91EF9178
:101A4000BF91AF919F918F917F916F915F914F91D6
:101A50003F912F910F900FBE0F901F9018951092ED
:101A60006F0090937301809372011092770110922E
:101A700075010E94930B08950E942F0D089581E037
:101A800090E06F9364E06A95F1F76F910197C9F761
:101A900008950F931F93CF93DF931AB157985A98D5
:101AA000289AC0E0D0E00E943F0D5C9A0E943F0D52
:101AB00009B15C980E943F0D5C9A0E943F0D5C98B2
:101AC000249607FF10C0AE0160E070E080917B01BA
:101AD00090917C01A0917D01B0917E01481759073A
:101AE0006A077B0700F31AB9DF91CF911F910F911D
:101AF000089595B1282F217030E0220F331F482F11
:101B0000467068E0469FA0011124242B9D7C292B60
:101B100025B99BB188708295807F9F77892B8BB97F
:101B20005C9A0E943F0D5C980E943F0D0895A0E0D2
:101B3000B0E0EDE9FDE00C94DF13C82FD62EE42EC3
:101B40008091D908811105C081E08093D9080E9455
:101B5000DD0D0E94490D14B1D5B1FAB00BB1289832
:101B6000DD2011F05A9A01C05A9894B1926394B949
:101B7000579A81E0E81629F08C2F82958F700E9489
:101B8000790D8C2F8F700E94790DFAB80BB914B9AA
:101B9000D5B9CDB7DEB7E7E00C94FB1342E060E0C7
:101BA0000E94970D089542E061E00E94970D08950C
:101BB00041E060E00E94970D089580E197E2A0E087
:101BC000B0E080937B0190937C01A0937D01B09362
:101BD0007E01529A209A549A8EE190E00E94101051
:101BE00083E00E94D80D86E090E00E94101083E010
:101BF0000E94D80D82E090E00E94101083E00E94C5
:101C0000D80D82E090E00E94101082E00E94D80D72
:101C100082E090E00E94101088E20E94CE0D88E0E1
:101C20000E94CE0D81E00E94CE0D86E00E94CE0D76
:101C30008CE00E94CE0D089581E00E94CE0D80912F
:101C4000810190918201892BF9F060E0A0E2262FBA
:101C500030E070910A0180910B0190E00197789F2C
:101C6000A001799F500D1124241735074CF4E09101
:101C70008101F0918201E20FF31FA0836F5FE7CF34
:101C800010927F011092800108950E941C0E089509
:101C9000CF93DF93EC018991882319F00E94D30D33
:101CA000FACFDF91CF9108950E94480E0895AAE0DF
:101CB000B0E0EDE5FEE00C94DE131AE05AE0C52E2C
:101CC000D12CE12CF12C062FA70196010E947E1346
:101CD000CA01B9011150E1E0F0E0EC0FFD1FE10F86
:101CE000F11D005D2AE0629F001911240083611537
:101CF00071058105910539F71A3058F4E1E0F0E0FB
:101D0000EC0FFD1FE10FF11D80810E94D30D1F5FBD
:101D1000F3CF2A96E8E00C94FA13CF92DF92EF9279
:101D2000FF926B017C0197FF0BC0F094E094D0947C
:101D3000C094C11CD11CE11CF11C8DE20E94D30D8A
:101D4000C701B6010E94570EFF90EF90DF90CF9031
:101D500008950E948D0E0895A5E0B0E0E2EBFEE04C
:101D60000C94E313182F80E8898380EC8A8384E93C
:101D70008B8384ED8C83FE01E60FF11D8181810F41
:101D80006D830E94CE0D10937F016D816093800161
:101D90002596E3E00C94FF130E94AC0E0895883062
:101DA00058F491E001C0990F8A95EAF7892FAAE2C9
:101DB000B0E0EBE2F0E021C08E3060F498EF980FD5
:101DC00081E001C0880F9A95EAF7A4E2B0E0E5E26D
:101DD000F0E013C0853160F492EF980F81E001C00C
:101DE000880F9A95EAF7A7E2B0E0E8E2F0E005C0D4
:101DF00080E0A0E0B0E0E0E0F0E06F3F19F4908117
:101E0000982709C0662319F09081982B04C020817F
:101E1000982F9095922390839C91982B9C93089552
:101E200083EF8093B00084BD82E08093B10085BDD4
:101E30001092B4001092B30018BC17BC60E086E0AA
:101E40000E94CF0E60E085E00E94CF0E60E08BE044
:101E50000E94CF0E60E083E00E94CF0E0895809133
:101E6000DA08811105C081E08093DA080E94100F22
:101E70000895CF93DF93EC010E942F0FD7FF05C089
:101E8000D195C195D10981E001C080E0CF3FD10556
:101E900019F014F0CFEFD0E0882319F018BCC7BDBB
:101EA00002C0C8BD17BCDF91CF910895CF93DF93D7
:101EB000EC010E942F0FD7FF05C0D195C195D10924
:101EC00081E001C080E0CF3FD10519F014F0CFEFE1
:101ED000D0E0882329F01092B400C093B30004C06E
:101EE000C093B4001092B300DF91CF910895CF93C7
:101EF000DF93EB010E94390FCE010E94560FDF9154
:101F0000CF9108950E94770F089584B18D7C84B994
:101F100085B1826385B985E090E06F9364E06A954E
:101F2000F1F76F910197C9F708958091DB0881114E
:101F300005C081E08093DB080E94850F0895CF9350
:101F4000C82F0E94950F83B18C23E9F38AE090E0BB
:101F50000E94101083B18C23B1F383B18C23CF91F5
:101F600008950E949F0F0895A1E0B0E0EAEBFFE022
:101F70000C94E41389830E94950F93B19095898105
:101F800089232196E2E00C9400140E94B40F089576
:101F90002F928F939F932FB680918A0190918B01FE
:101FA000019680938A0190938B0190E080918C013F
:101FB000891F80938C01909184019C5F9093840190
:101FC0008091830180519742C0F090938401809367
:101FD000830180918501909186010196809385010E
:101FE0009093860190E080918701891F80938701FB
:101FF00080918801891F809388012FBE9F918F91C6
:102000002F90189528EE33E0019748F0F9016F936F
:1020100064E06A95F1F76F913197C9F7F5CF0895AC
:102020000E9402100895E0E7F0E080818E7F8083B7
:10203000A0EBB0E08C9183608C93A1EBB0E08C912D
:10204000807F8C938C9182608C93B89A8081816020
:102050008083789408958091DC08811105C081E027
:102060008093DC080E94131008950E942B10E0E773
:10207000F0E080818E7F808310928501109286012E
:1020800010928701109288011092840110928301AE
:102090008081816080830895462FBC018DE891E0A6
:1020A0000E94CF1208950F93CF93DF9300D000D0FA
:1020B0001F92CDB7DEB79C0185E0EAE4F1E0DE01D6
:1020C000119601900D928A95E1F7662311F00FEFBA
:1020D00001C003E145E0BE016F5F7F4F8DE891E0F5
:1020E0000E9425118DE891E00E94FC100E9435109D
:1020F0000F900F900F900F900F90DF91CF910F9155
:10210000089560E00E94531008958DE891E00E94C8
:102110002C1308956F9364E06A95F1F76F9101971E
:10212000C9F70895FC011182108213821282158270
:1021300014821682683068F489E290E0918380838B
:102140008BE290E0938382838AE290E0958384839C
:102150001FC06E3070F483E290E09183808385E24B
:1021600090E09383828384E290E095838483685037
:102170000FC0653198F486E290E09183808388E215
:1021800090E09383828387E290E0958384836E500E
:1021900081E001C0880F6A95EAF786830895A7E079
:1021A000B0E0E5EDF0E10C94E2138C01FC0111824A
:1021B0001082138212821582148217821682613174
:1021C00018F080E1808702C0FC016087F801208B55
:1021D000642FCE0101960E9492108F81F8018187B1
:1021E0008B819C81938782878D819E81958784874F
:1021F0002796E4E00C94FE13FC01A485B5851097A6
:1022000079F08C919185892B8C93A285B3859C91D3
:102210008185809589238C9388EC90E00E948A10B8
:102220000895FC01A485B585109771F08C91918576
:10223000892B8C93A285B3858C919185892B8C9366
:1022400088EC90E00E948A100895A7E0B0E0EBE2ED
:10225000F1E10C94D7137C014B01642F3901402F1D
:1022600020E00E94CF1087010F5B1F4FF801108202
:102270006701F2E4CF0ED11CF60110825701F3E49E
:10228000AF0EB11CF5011082F70177866686512CDE
:10229000F7018085581650F5652C712CF401E60D78
:1022A000F71D6081CE0101960E9492102F81F701E7
:1022B000E60DF71D218B89819A81F301EE0FFF1F37
:1022C000EE0DFF1D92A381A38332910511F4F80155
:1022D00008C08632910511F4F60103C0899721F4F4
:1022E000F5018081822B80835394D2CF2796EFE033
:1022F0000C94F313A0E0B0E0E0E8F1E10C94D91302
:10230000EC015B016C0181E4C80ED11CF6018080F8
:102310007E01F2E4EF0EF11CF70170808E010D5B7F
:102320001F4FF801908080E09885891748F4F501E7
:10233000E80FF11DE80FF11D118210828F5FF4CFBD
:1023400084B1F6019081892B84B987B1F70190811E
:10235000892B87B98AB1F8019081892B8AB985B117
:10236000F6019081892B85B988B1F7019081892B7D
:1023700088B98BB1F8019081892B8BB98AE090E004
:102380000E948A1094B1F60180818095892384B9D6
:1023900097B1F70180818095892387B99AB1F801B7
:1023A0008081809589238AB995B1F60180818095D5
:1023B000892385B998B1F70180818095892388B9EF
:1023C0009BB1F8018081809589238BB9E090B000A2
:1023D000D090B1008091B00083608093B00082E023
:1023E0008093B1004091B20080E090E02E853F855F
:1023F0008217930720F5C090B2002C2D241B820F6A
:10240000911D03B1081132C0F6B0F7102FC029B1E9
:1024100029112CC010C0212F30E0A901440F551FF5
:10242000F501E40FF51F60817181672B21F11F5FBA
:102430002885121780F37F2C802E4C2DD7CFE09269
:10244000B000D092B10020E08885281730F5F50162
:10245000E20FF11DE20FF11D80819181892B21F4A2
:102460008E859F85918380832F5FEECF03B1F6B079
:1024700099B010E0DDCFDE01A40FB51F91960D904D
:10248000BC91A02D4C91DE01A20FB31F51962C914F
:10249000422369F691838083CACFCDB7DEB7EDE0E2
:1024A0000C94F513EF92FF920F931F93CF93DF934A
:1024B000FC019B01F0907C0000917A0047B118B1BB
:1024C00080917A0086FDFCCF80E09085891748F4E2
:1024D000D901A80FB11DA80FB11D1D921C928F5FCD
:1024E000F4CF97B182A18095892387B998B182A151
:1024F0008095892388B987E880937A00E12C81A1AF
:10250000E81610F0E12C29C050E08085581718F526
:10251000A52FB0E0EF01CA0FDB1F8989806480938B
:102520007C0080917A00806480937A0080917A00A8
:1025300086FDFCCF6091780070917900AA0FBB1FD7
:10254000A20FB31F8D919C911197860F971F8D93AA
:102550009C935F5FDACFE394D2CF8085E816A0F436
:10256000E901CE0DD11DCE0DD11D61A170E0CB01D1
:1025700095958795A881B9818A0F9B1F0E94561354
:1025800079836883E394E9CFF0927C0000937A002A
:1025900018B947B9CDB7DEB7E6E00C94FC13A0E25A
:1025A000B0E0E5EDF2E10C94DF138C017B01D42E59
:1025B0008FEF840F823018F4C8010E941111D801E6
:1025C00050968C91B701811110C0C8010E947A11F8
:1025D000C8010E94FC10B2E0DB123AC0BE016F5F7E
:1025E0007F4FC8010E947A110FC0C8010E94521289
:1025F000C8010E94FC10E2E0DE122AC0BE016F5F3B
:102600007F4FC8010E94521240E0F80180854817B0
:10261000F8F4842F90E0880F991FF701E80FF91F55
:1026200021E030E02C0F3D1F820F931FD8011E9632
:102630002D913C911F97DC018D919C91281B390BAA
:1026400080819181820F931F918380834F5FDDCFC3
:10265000A096E7E00C94FB13CF93DF93EC018A8103
:102660009B81009711F00E94A3148E819F81009797
:1026700011F00E94A31488819981009711F00E94A3
:10268000A3148C819D81009711F00E94A314DF9107
:10269000CF910895991B79E004C0991F961708F00F
:1026A000961B881F7A95C9F780950895AA1BBB1BB6
:1026B00051E107C0AA1FBB1FA617B70710F0A61B42
:1026C000B70B881F991F5A95A9F780959095BC0163
:1026D000CD01089597FB072E16F4009407D077FDDF
:1026E00009D00E94561307FC05D03EF490958195C1
:1026F0009F4F0895709561957F4F0895A1E21A2E1E
:10270000AA1BBB1BFD010DC0AA1FBB1FEE1FFF1F95
:10271000A217B307E407F50720F0A21BB30BE40BE5
:10272000F50B661F771F881F991F1A9469F760952C
:102730007095809590959B01AC01BD01CF010895E6
:10274000052E97FB1EF400940E94B71357FD07D087
:102750000E947E1307FC03D04EF40C94B7135095DF
:102760004095309521953F4F4F4F5F4F089590957D
:102770008095709561957F4F8F4F9F4F0895EE0F15
:10278000FF1F0590F491E02D0994A29FB001B39F23
:10279000C001A39F700D811D1124911DB29F700D6A
:1027A000811D1124911D08952F923F924F925F92A7
:1027B0006F927F928F929F92AF92BF92CF92DF9251
:1027C000EF92FF920F931F93CF93DF93CDB7DEB7B6
:1027D000CA1BDB0B0FB6F894DEBF0FBECDBF09944A
:1027E0002A88398848885F846E847D848C849B84A1
:1027F000AA84B984C884DF80EE80FD800C811B81AF
:10280000AA81B981CE0FD11D0FB6F894DEBF0FBEDD
:10281000CDBFED0108950F931F93CF93DF938230C7
:10282000910510F482E090E0E091DF08F091E0087B
:1028300020E030E0A0E0B0E0309719F14081518114
:102840000281138148175907C8F08417950769F466
:10285000109731F012960C93129713961C9327C081
:102860000093DF081093E00822C02115310519F00C
:102870004217530718F49A01BD01EF01DF01F80177
:10288000DBCF21153105F9F0281B390B2430310538
:1028900080F48A819B816115710521F0FB0193838E
:1028A000828304C09093E0088093DF08FE01329693
:1028B00044C0FE01E20FF31F81939193225031092E
:1028C000398328833AC02091DD083091DE08232B1C
:1028D00041F420910E0130910F013093DE082093D6
:1028E000DD0820910C0130910D012115310541F4D5
:1028F0002DB73EB74091100150911101241B350BAB
:10290000E091DD08F091DE08E217F307A0F42E1B3A
:102910003F0B2817390778F0AC014E5F5F4F241743
:10292000350748F04E0F5F1F5093DE084093DD08D7
:102930008193919302C0E0E0F0E0CF01DF91CF916D
:102940001F910F910895CF93DF93009709F481C0F1
:10295000FC01329713821282A091DF08B091E00847
:10296000109781F420813181820F931F2091DD081F
:102970003091DE082817390751F5F093DE08E0930F
:10298000DD0867C0ED0120E030E0CE17DF0740F43E
:102990004A815B819E0141155105F1F0EA01F5CFB5
:1029A000D383C28340815181840F951FC817D907F3
:1029B00059F488819981840F951F029691838083B1
:1029C0008A819B81938382832115310529F4F093B9
:1029D000E008E093DF083DC0E901FB83EA83499109
:1029E0005991C40FD51FEC17FD0761F480819181C7
:1029F000840F951F0296E9019983888382819381D0
:102A00009B838A83E0E0F0E012968D919C9113976E
:102A1000009719F0FD01DC01F7CF8D919C91119782
:102A20009D012E5F3F4F820F931F2091DD08309153
:102A3000DE082817390769F4309729F41092E00866
:102A40001092DF0802C013821282B093DE08A093B6
:102A5000DD08DF91CF91089510E0C4E5D0E004C017
:102A6000FE010E94BF132196C535D107C9F7F8941E
:022A7000FFCF96
:102A72000F00F4010400D007040108020000E1087D
:102A8200200001000100010000000000FFFFFFFF25
:102A9200FFFF0000FFFF01000100FFFF0000010037
:102AA200FFFF9C01B501CF01EA010702260247029E
:102AB20069028E02B502DE020A030E0F10111228FD
:102AC200002C200029002041204220432000214FD9
:102AD200425321004E4F54204F4253003E3E613339
:022AE2003200C0
:00000001FF
